{
	"Contracts/Prop.sol": {
		"ProposalContract": {
			"abi": [
				{
					"inputs": [],
					"stateMutability": "nonpayable",
					"type": "constructor"
				},
				{
					"inputs": [
						{
							"internalType": "string",
							"name": "title",
							"type": "string"
						},
						{
							"internalType": "string",
							"name": "description",
							"type": "string"
						},
						{
							"internalType": "uint256",
							"name": "totalVoteToEnd",
							"type": "uint256"
						}
					],
					"name": "create",
					"outputs": [],
					"stateMutability": "nonpayable",
					"type": "function"
				},
				{
					"inputs": [],
					"name": "owner",
					"outputs": [
						{
							"internalType": "address",
							"name": "",
							"type": "address"
						}
					],
					"stateMutability": "view",
					"type": "function"
				},
				{
					"inputs": [
						{
							"internalType": "uint256",
							"name": "",
							"type": "uint256"
						}
					],
					"name": "proposalHistory",
					"outputs": [
						{
							"internalType": "string",
							"name": "title",
							"type": "string"
						},
						{
							"internalType": "string",
							"name": "description",
							"type": "string"
						},
						{
							"internalType": "uint256",
							"name": "approve",
							"type": "uint256"
						},
						{
							"internalType": "uint256",
							"name": "reject",
							"type": "uint256"
						},
						{
							"internalType": "uint256",
							"name": "pass",
							"type": "uint256"
						},
						{
							"internalType": "uint256",
							"name": "totalVoteToEnd",
							"type": "uint256"
						},
						{
							"internalType": "bool",
							"name": "currentState",
							"type": "bool"
						},
						{
							"internalType": "bool",
							"name": "isActive",
							"type": "bool"
						}
					],
					"stateMutability": "view",
					"type": "function"
				},
				{
					"inputs": [
						{
							"internalType": "address",
							"name": "new_owner",
							"type": "address"
						}
					],
					"name": "setOwner",
					"outputs": [],
					"stateMutability": "nonpayable",
					"type": "function"
				},
				{
					"inputs": [],
					"name": "viewOwner",
					"outputs": [
						{
							"internalType": "address",
							"name": "",
							"type": "address"
						}
					],
					"stateMutability": "view",
					"type": "function"
				}
			],
			"devdoc": {
				"kind": "dev",
				"methods": {},
				"version": 1
			},
			"evm": {
				"assembly": "    /* \"Contracts/Prop.sol\":113:1742  contract ProposalContract {... */\n  mstore(0x40, 0x80)\n    /* \"Contracts/Prop.sol\":253:302  constructor() {... */\n  callvalue\n  dup1\n  iszero\n  tag_1\n  jumpi\n  0x00\n  dup1\n  revert\ntag_1:\n  pop\n    /* \"Contracts/Prop.sol\":285:295  msg.sender */\n  caller\n    /* \"Contracts/Prop.sol\":277:282  owner */\n  0x01\n  0x00\n    /* \"Contracts/Prop.sol\":277:295  owner = msg.sender */\n  0x0100\n  exp\n  dup2\n  sload\n  dup2\n  0xffffffffffffffffffffffffffffffffffffffff\n  mul\n  not\n  and\n  swap1\n  dup4\n  0xffffffffffffffffffffffffffffffffffffffff\n  and\n  mul\n  or\n  swap1\n  sstore\n  pop\n    /* \"Contracts/Prop.sol\":113:1742  contract ProposalContract {... */\n  dataSize(sub_0)\n  dup1\n  dataOffset(sub_0)\n  0x00\n  codecopy\n  0x00\n  return\nstop\n\nsub_0: assembly {\n        /* \"Contracts/Prop.sol\":113:1742  contract ProposalContract {... */\n      mstore(0x40, 0x80)\n      callvalue\n      dup1\n      iszero\n      tag_1\n      jumpi\n      0x00\n      dup1\n      revert\n    tag_1:\n      pop\n      jumpi(tag_2, lt(calldatasize, 0x04))\n      shr(0xe0, calldataload(0x00))\n      dup1\n      0x13af4035\n      eq\n      tag_3\n      jumpi\n      dup1\n      0x1c7e379f\n      eq\n      tag_4\n      jumpi\n      dup1\n      0x3ca6d100\n      eq\n      tag_5\n      jumpi\n      dup1\n      0x8da5cb5b\n      eq\n      tag_6\n      jumpi\n      dup1\n      0xbc677b46\n      eq\n      tag_7\n      jumpi\n    tag_2:\n      0x00\n      dup1\n      revert\n        /* \"Contracts/Prop.sol\":1564:1654  function setOwner(address new_owner) external onlyOwner {... */\n    tag_3:\n      tag_8\n      0x04\n      dup1\n      calldatasize\n      sub\n      dup2\n      add\n      swap1\n      tag_9\n      swap2\n      swap1\n      tag_10\n      jump\t// in\n    tag_9:\n      tag_11\n      jump\t// in\n    tag_8:\n      stop\n        /* \"Contracts/Prop.sol\":1025:1076  mapping(uint256 => Proposal) public proposalHistory */\n    tag_4:\n      tag_12\n      0x04\n      dup1\n      calldatasize\n      sub\n      dup2\n      add\n      swap1\n      tag_13\n      swap2\n      swap1\n      tag_14\n      jump\t// in\n    tag_13:\n      tag_15\n      jump\t// in\n    tag_12:\n      mload(0x40)\n      tag_16\n      swap9\n      swap8\n      swap7\n      swap6\n      swap5\n      swap4\n      swap3\n      swap2\n      swap1\n      tag_17\n      jump\t// in\n    tag_16:\n      mload(0x40)\n      dup1\n      swap2\n      sub\n      swap1\n      return\n        /* \"Contracts/Prop.sol\":1119:1558  function create(... */\n    tag_5:\n      tag_18\n      0x04\n      dup1\n      calldatasize\n      sub\n      dup2\n      add\n      swap1\n      tag_19\n      swap2\n      swap1\n      tag_20\n      jump\t// in\n    tag_19:\n      tag_21\n      jump\t// in\n    tag_18:\n      stop\n        /* \"Contracts/Prop.sol\":226:246  address public owner */\n    tag_6:\n      tag_22\n      tag_23\n      jump\t// in\n    tag_22:\n      mload(0x40)\n      tag_24\n      swap2\n      swap1\n      tag_25\n      jump\t// in\n    tag_24:\n      mload(0x40)\n      dup1\n      swap2\n      sub\n      swap1\n      return\n        /* \"Contracts/Prop.sol\":1660:1740  function viewOwner() public view returns (address) {... */\n    tag_7:\n      tag_26\n      tag_27\n      jump\t// in\n    tag_26:\n      mload(0x40)\n      tag_28\n      swap2\n      swap1\n      tag_25\n      jump\t// in\n    tag_28:\n      mload(0x40)\n      dup1\n      swap2\n      sub\n      swap1\n      return\n        /* \"Contracts/Prop.sol\":1564:1654  function setOwner(address new_owner) external onlyOwner {... */\n    tag_11:\n        /* \"Contracts/Prop.sol\":361:366  owner */\n      0x01\n      0x00\n      swap1\n      sload\n      swap1\n      0x0100\n      exp\n      swap1\n      div\n      0xffffffffffffffffffffffffffffffffffffffff\n      and\n        /* \"Contracts/Prop.sol\":347:366  msg.sender == owner */\n      0xffffffffffffffffffffffffffffffffffffffff\n      and\n        /* \"Contracts/Prop.sol\":347:357  msg.sender */\n      caller\n        /* \"Contracts/Prop.sol\":347:366  msg.sender == owner */\n      0xffffffffffffffffffffffffffffffffffffffff\n      and\n      eq\n        /* \"Contracts/Prop.sol\":339:404  require(msg.sender == owner, \"Only owner can call this function\") */\n      tag_30\n      jumpi\n      mload(0x40)\n      0x08c379a000000000000000000000000000000000000000000000000000000000\n      dup2\n      mstore\n      0x04\n      add\n      tag_31\n      swap1\n      tag_32\n      jump\t// in\n    tag_31:\n      mload(0x40)\n      dup1\n      swap2\n      sub\n      swap1\n      revert\n    tag_30:\n        /* \"Contracts/Prop.sol\":1638:1647  new_owner */\n      dup1\n        /* \"Contracts/Prop.sol\":1630:1635  owner */\n      0x01\n      0x00\n        /* \"Contracts/Prop.sol\":1630:1647  owner = new_owner */\n      0x0100\n      exp\n      dup2\n      sload\n      dup2\n      0xffffffffffffffffffffffffffffffffffffffff\n      mul\n      not\n      and\n      swap1\n      dup4\n      0xffffffffffffffffffffffffffffffffffffffff\n      and\n      mul\n      or\n      swap1\n      sstore\n      pop\n        /* \"Contracts/Prop.sol\":1564:1654  function setOwner(address new_owner) external onlyOwner {... */\n      pop\n      jump\t// out\n        /* \"Contracts/Prop.sol\":1025:1076  mapping(uint256 => Proposal) public proposalHistory */\n    tag_15:\n      mstore(0x20, 0x02)\n      dup1\n      0x00\n      mstore\n      keccak256(0x00, 0x40)\n      0x00\n      swap2\n      pop\n      swap1\n      pop\n      dup1\n      0x00\n      add\n      dup1\n      sload\n      tag_34\n      swap1\n      tag_35\n      jump\t// in\n    tag_34:\n      dup1\n      0x1f\n      add\n      0x20\n      dup1\n      swap2\n      div\n      mul\n      0x20\n      add\n      mload(0x40)\n      swap1\n      dup2\n      add\n      0x40\n      mstore\n      dup1\n      swap3\n      swap2\n      swap1\n      dup2\n      dup2\n      mstore\n      0x20\n      add\n      dup3\n      dup1\n      sload\n      tag_36\n      swap1\n      tag_35\n      jump\t// in\n    tag_36:\n      dup1\n      iszero\n      tag_37\n      jumpi\n      dup1\n      0x1f\n      lt\n      tag_38\n      jumpi\n      0x0100\n      dup1\n      dup4\n      sload\n      div\n      mul\n      dup4\n      mstore\n      swap2\n      0x20\n      add\n      swap2\n      jump(tag_37)\n    tag_38:\n      dup3\n      add\n      swap2\n      swap1\n      0x00\n      mstore\n      keccak256(0x00, 0x20)\n      swap1\n    tag_39:\n      dup2\n      sload\n      dup2\n      mstore\n      swap1\n      0x01\n      add\n      swap1\n      0x20\n      add\n      dup1\n      dup4\n      gt\n      tag_39\n      jumpi\n      dup3\n      swap1\n      sub\n      0x1f\n      and\n      dup3\n      add\n      swap2\n    tag_37:\n      pop\n      pop\n      pop\n      pop\n      pop\n      swap1\n      dup1\n      0x01\n      add\n      dup1\n      sload\n      tag_40\n      swap1\n      tag_35\n      jump\t// in\n    tag_40:\n      dup1\n      0x1f\n      add\n      0x20\n      dup1\n      swap2\n      div\n      mul\n      0x20\n      add\n      mload(0x40)\n      swap1\n      dup2\n      add\n      0x40\n      mstore\n      dup1\n      swap3\n      swap2\n      swap1\n      dup2\n      dup2\n      mstore\n      0x20\n      add\n      dup3\n      dup1\n      sload\n      tag_41\n      swap1\n      tag_35\n      jump\t// in\n    tag_41:\n      dup1\n      iszero\n      tag_42\n      jumpi\n      dup1\n      0x1f\n      lt\n      tag_43\n      jumpi\n      0x0100\n      dup1\n      dup4\n      sload\n      div\n      mul\n      dup4\n      mstore\n      swap2\n      0x20\n      add\n      swap2\n      jump(tag_42)\n    tag_43:\n      dup3\n      add\n      swap2\n      swap1\n      0x00\n      mstore\n      keccak256(0x00, 0x20)\n      swap1\n    tag_44:\n      dup2\n      sload\n      dup2\n      mstore\n      swap1\n      0x01\n      add\n      swap1\n      0x20\n      add\n      dup1\n      dup4\n      gt\n      tag_44\n      jumpi\n      dup3\n      swap1\n      sub\n      0x1f\n      and\n      dup3\n      add\n      swap2\n    tag_42:\n      pop\n      pop\n      pop\n      pop\n      pop\n      swap1\n      dup1\n      0x02\n      add\n      sload\n      swap1\n      dup1\n      0x03\n      add\n      sload\n      swap1\n      dup1\n      0x04\n      add\n      sload\n      swap1\n      dup1\n      0x05\n      add\n      sload\n      swap1\n      dup1\n      0x06\n      add\n      0x00\n      swap1\n      sload\n      swap1\n      0x0100\n      exp\n      swap1\n      div\n      0xff\n      and\n      swap1\n      dup1\n      0x06\n      add\n      0x01\n      swap1\n      sload\n      swap1\n      0x0100\n      exp\n      swap1\n      div\n      0xff\n      and\n      swap1\n      pop\n      dup9\n      jump\t// out\n        /* \"Contracts/Prop.sol\":1119:1558  function create(... */\n    tag_21:\n        /* \"Contracts/Prop.sol\":361:366  owner */\n      0x01\n      0x00\n      swap1\n      sload\n      swap1\n      0x0100\n      exp\n      swap1\n      div\n      0xffffffffffffffffffffffffffffffffffffffff\n      and\n        /* \"Contracts/Prop.sol\":347:366  msg.sender == owner */\n      0xffffffffffffffffffffffffffffffffffffffff\n      and\n        /* \"Contracts/Prop.sol\":347:357  msg.sender */\n      caller\n        /* \"Contracts/Prop.sol\":347:366  msg.sender == owner */\n      0xffffffffffffffffffffffffffffffffffffffff\n      and\n      eq\n        /* \"Contracts/Prop.sol\":339:404  require(msg.sender == owner, \"Only owner can call this function\") */\n      tag_46\n      jumpi\n      mload(0x40)\n      0x08c379a000000000000000000000000000000000000000000000000000000000\n      dup2\n      mstore\n      0x04\n      add\n      tag_47\n      swap1\n      tag_32\n      jump\t// in\n    tag_47:\n      mload(0x40)\n      dup1\n      swap2\n      sub\n      swap1\n      revert\n    tag_46:\n        /* \"Contracts/Prop.sol\":1270:1290  _counter.increment() */\n      tag_49\n        /* \"Contracts/Prop.sol\":1270:1278  _counter */\n      0x00\n        /* \"Contracts/Prop.sol\":1270:1288  _counter.increment */\n      tag_50\n        /* \"Contracts/Prop.sol\":1270:1290  _counter.increment() */\n      jump\t// in\n    tag_49:\n        /* \"Contracts/Prop.sol\":1300:1318  uint256 proposalId */\n      0x00\n        /* \"Contracts/Prop.sol\":1321:1339  _counter.current() */\n      tag_51\n        /* \"Contracts/Prop.sol\":1321:1329  _counter */\n      0x00\n        /* \"Contracts/Prop.sol\":1321:1337  _counter.current */\n      tag_52\n        /* \"Contracts/Prop.sol\":1321:1339  _counter.current() */\n      jump\t// in\n    tag_51:\n        /* \"Contracts/Prop.sol\":1300:1339  uint256 proposalId = _counter.current() */\n      swap1\n      pop\n        /* \"Contracts/Prop.sol\":1379:1551  Proposal(... */\n      mload(0x40)\n      dup1\n      0x0100\n      add\n      0x40\n      mstore\n      dup1\n        /* \"Contracts/Prop.sol\":1401:1406  title */\n      dup8\n      dup8\n        /* \"Contracts/Prop.sol\":1379:1551  Proposal(... */\n      dup1\n      dup1\n      0x1f\n      add\n      0x20\n      dup1\n      swap2\n      div\n      mul\n      0x20\n      add\n      mload(0x40)\n      swap1\n      dup2\n      add\n      0x40\n      mstore\n      dup1\n      swap4\n      swap3\n      swap2\n      swap1\n      dup2\n      dup2\n      mstore\n      0x20\n      add\n      dup4\n      dup4\n      dup1\n      dup3\n      dup5\n      calldatacopy\n      0x00\n      dup2\n      dup5\n      add\n      mstore\n      not(0x1f)\n      0x1f\n      dup3\n      add\n      and\n      swap1\n      pop\n      dup1\n      dup4\n      add\n      swap3\n      pop\n      pop\n      pop\n      pop\n      pop\n      pop\n      pop\n      dup2\n      mstore\n      0x20\n      add\n        /* \"Contracts/Prop.sol\":1420:1431  description */\n      dup6\n      dup6\n        /* \"Contracts/Prop.sol\":1379:1551  Proposal(... */\n      dup1\n      dup1\n      0x1f\n      add\n      0x20\n      dup1\n      swap2\n      div\n      mul\n      0x20\n      add\n      mload(0x40)\n      swap1\n      dup2\n      add\n      0x40\n      mstore\n      dup1\n      swap4\n      swap3\n      swap2\n      swap1\n      dup2\n      dup2\n      mstore\n      0x20\n      add\n      dup4\n      dup4\n      dup1\n      dup3\n      dup5\n      calldatacopy\n      0x00\n      dup2\n      dup5\n      add\n      mstore\n      not(0x1f)\n      0x1f\n      dup3\n      add\n      and\n      swap1\n      pop\n      dup1\n      dup4\n      add\n      swap3\n      pop\n      pop\n      pop\n      pop\n      pop\n      pop\n      pop\n      dup2\n      mstore\n      0x20\n      add\n        /* \"Contracts/Prop.sol\":1445:1446  0 */\n      0x00\n        /* \"Contracts/Prop.sol\":1379:1551  Proposal(... */\n      dup2\n      mstore\n      0x20\n      add\n        /* \"Contracts/Prop.sol\":1460:1461  0 */\n      0x00\n        /* \"Contracts/Prop.sol\":1379:1551  Proposal(... */\n      dup2\n      mstore\n      0x20\n      add\n        /* \"Contracts/Prop.sol\":1475:1476  0 */\n      0x00\n        /* \"Contracts/Prop.sol\":1379:1551  Proposal(... */\n      dup2\n      mstore\n      0x20\n      add\n        /* \"Contracts/Prop.sol\":1490:1504  totalVoteToEnd */\n      dup4\n        /* \"Contracts/Prop.sol\":1379:1551  Proposal(... */\n      dup2\n      mstore\n      0x20\n      add\n        /* \"Contracts/Prop.sol\":1518:1523  false */\n      0x00\n        /* \"Contracts/Prop.sol\":1379:1551  Proposal(... */\n      iszero\n      iszero\n      dup2\n      mstore\n      0x20\n      add\n        /* \"Contracts/Prop.sol\":1537:1541  true */\n      0x01\n        /* \"Contracts/Prop.sol\":1379:1551  Proposal(... */\n      iszero\n      iszero\n      dup2\n      mstore\n      pop\n        /* \"Contracts/Prop.sol\":1349:1364  proposalHistory */\n      0x02\n        /* \"Contracts/Prop.sol\":1349:1376  proposalHistory[proposalId] */\n      0x00\n        /* \"Contracts/Prop.sol\":1365:1375  proposalId */\n      dup4\n        /* \"Contracts/Prop.sol\":1349:1376  proposalHistory[proposalId] */\n      dup2\n      mstore\n      0x20\n      add\n      swap1\n      dup2\n      mstore\n      0x20\n      add\n      0x00\n      keccak256\n        /* \"Contracts/Prop.sol\":1349:1551  proposalHistory[proposalId] = Proposal(... */\n      0x00\n      dup3\n      add\n      mload\n      dup2\n      0x00\n      add\n      swap1\n      dup2\n      tag_53\n      swap2\n      swap1\n      tag_54\n      jump\t// in\n    tag_53:\n      pop\n      0x20\n      dup3\n      add\n      mload\n      dup2\n      0x01\n      add\n      swap1\n      dup2\n      tag_55\n      swap2\n      swap1\n      tag_54\n      jump\t// in\n    tag_55:\n      pop\n      0x40\n      dup3\n      add\n      mload\n      dup2\n      0x02\n      add\n      sstore\n      0x60\n      dup3\n      add\n      mload\n      dup2\n      0x03\n      add\n      sstore\n      0x80\n      dup3\n      add\n      mload\n      dup2\n      0x04\n      add\n      sstore\n      0xa0\n      dup3\n      add\n      mload\n      dup2\n      0x05\n      add\n      sstore\n      0xc0\n      dup3\n      add\n      mload\n      dup2\n      0x06\n      add\n      exp(0x0100, 0x00)\n      dup2\n      sload\n      dup2\n      0xff\n      mul\n      not\n      and\n      swap1\n      dup4\n      iszero\n      iszero\n      mul\n      or\n      swap1\n      sstore\n      pop\n      0xe0\n      dup3\n      add\n      mload\n      dup2\n      0x06\n      add\n      exp(0x0100, 0x01)\n      dup2\n      sload\n      dup2\n      0xff\n      mul\n      not\n      and\n      swap1\n      dup4\n      iszero\n      iszero\n      mul\n      or\n      swap1\n      sstore\n      pop\n      swap1\n      pop\n      pop\n        /* \"Contracts/Prop.sol\":1260:1558  {... */\n      pop\n        /* \"Contracts/Prop.sol\":1119:1558  function create(... */\n      pop\n      pop\n      pop\n      pop\n      pop\n      jump\t// out\n        /* \"Contracts/Prop.sol\":226:246  address public owner */\n    tag_23:\n      0x01\n      0x00\n      swap1\n      sload\n      swap1\n      0x0100\n      exp\n      swap1\n      div\n      0xffffffffffffffffffffffffffffffffffffffff\n      and\n      dup2\n      jump\t// out\n        /* \"Contracts/Prop.sol\":1660:1740  function viewOwner() public view returns (address) {... */\n    tag_27:\n        /* \"Contracts/Prop.sol\":1702:1709  address */\n      0x00\n        /* \"Contracts/Prop.sol\":1728:1733  owner */\n      0x01\n      0x00\n      swap1\n      sload\n      swap1\n      0x0100\n      exp\n      swap1\n      div\n      0xffffffffffffffffffffffffffffffffffffffff\n      and\n        /* \"Contracts/Prop.sol\":1721:1733  return owner */\n      swap1\n      pop\n        /* \"Contracts/Prop.sol\":1660:1740  function viewOwner() public view returns (address) {... */\n      swap1\n      jump\t// out\n        /* \"@openzeppelin/contracts/utils/Counters.sol\":945:1068  function increment(Counter storage counter) internal {... */\n    tag_50:\n        /* \"@openzeppelin/contracts/utils/Counters.sol\":1050:1051  1 */\n      0x01\n        /* \"@openzeppelin/contracts/utils/Counters.sol\":1032:1039  counter */\n      dup2\n        /* \"@openzeppelin/contracts/utils/Counters.sol\":1032:1046  counter._value */\n      0x00\n      add\n      0x00\n        /* \"@openzeppelin/contracts/utils/Counters.sol\":1032:1051  counter._value += 1 */\n      dup3\n      dup3\n      sload\n      add\n      swap3\n      pop\n      pop\n      dup2\n      swap1\n      sstore\n      pop\n        /* \"@openzeppelin/contracts/utils/Counters.sol\":945:1068  function increment(Counter storage counter) internal {... */\n      pop\n      jump\t// out\n        /* \"@openzeppelin/contracts/utils/Counters.sol\":827:939  function current(Counter storage counter) internal view returns (uint256) {... */\n    tag_52:\n        /* \"@openzeppelin/contracts/utils/Counters.sol\":892:899  uint256 */\n      0x00\n        /* \"@openzeppelin/contracts/utils/Counters.sol\":918:925  counter */\n      dup2\n        /* \"@openzeppelin/contracts/utils/Counters.sol\":918:932  counter._value */\n      0x00\n      add\n      sload\n        /* \"@openzeppelin/contracts/utils/Counters.sol\":911:932  return counter._value */\n      swap1\n      pop\n        /* \"@openzeppelin/contracts/utils/Counters.sol\":827:939  function current(Counter storage counter) internal view returns (uint256) {... */\n      swap2\n      swap1\n      pop\n      jump\t// out\n        /* \"#utility.yul\":88:205   */\n    tag_60:\n        /* \"#utility.yul\":197:198   */\n      0x00\n        /* \"#utility.yul\":194:195   */\n      dup1\n        /* \"#utility.yul\":187:199   */\n      revert\n        /* \"#utility.yul\":211:328   */\n    tag_61:\n        /* \"#utility.yul\":320:321   */\n      0x00\n        /* \"#utility.yul\":317:318   */\n      dup1\n        /* \"#utility.yul\":310:322   */\n      revert\n        /* \"#utility.yul\":334:460   */\n    tag_62:\n        /* \"#utility.yul\":371:378   */\n      0x00\n        /* \"#utility.yul\":411:453   */\n      0xffffffffffffffffffffffffffffffffffffffff\n        /* \"#utility.yul\":404:409   */\n      dup3\n        /* \"#utility.yul\":400:454   */\n      and\n        /* \"#utility.yul\":389:454   */\n      swap1\n      pop\n        /* \"#utility.yul\":334:460   */\n      swap2\n      swap1\n      pop\n      jump\t// out\n        /* \"#utility.yul\":466:562   */\n    tag_63:\n        /* \"#utility.yul\":503:510   */\n      0x00\n        /* \"#utility.yul\":532:556   */\n      tag_107\n        /* \"#utility.yul\":550:555   */\n      dup3\n        /* \"#utility.yul\":532:556   */\n      tag_62\n      jump\t// in\n    tag_107:\n        /* \"#utility.yul\":521:556   */\n      swap1\n      pop\n        /* \"#utility.yul\":466:562   */\n      swap2\n      swap1\n      pop\n      jump\t// out\n        /* \"#utility.yul\":568:690   */\n    tag_64:\n        /* \"#utility.yul\":641:665   */\n      tag_109\n        /* \"#utility.yul\":659:664   */\n      dup2\n        /* \"#utility.yul\":641:665   */\n      tag_63\n      jump\t// in\n    tag_109:\n        /* \"#utility.yul\":634:639   */\n      dup2\n        /* \"#utility.yul\":631:666   */\n      eq\n        /* \"#utility.yul\":621:684   */\n      tag_110\n      jumpi\n        /* \"#utility.yul\":680:681   */\n      0x00\n        /* \"#utility.yul\":677:678   */\n      dup1\n        /* \"#utility.yul\":670:682   */\n      revert\n        /* \"#utility.yul\":621:684   */\n    tag_110:\n        /* \"#utility.yul\":568:690   */\n      pop\n      jump\t// out\n        /* \"#utility.yul\":696:835   */\n    tag_65:\n        /* \"#utility.yul\":742:747   */\n      0x00\n        /* \"#utility.yul\":780:786   */\n      dup2\n        /* \"#utility.yul\":767:787   */\n      calldataload\n        /* \"#utility.yul\":758:787   */\n      swap1\n      pop\n        /* \"#utility.yul\":796:829   */\n      tag_112\n        /* \"#utility.yul\":823:828   */\n      dup2\n        /* \"#utility.yul\":796:829   */\n      tag_64\n      jump\t// in\n    tag_112:\n        /* \"#utility.yul\":696:835   */\n      swap3\n      swap2\n      pop\n      pop\n      jump\t// out\n        /* \"#utility.yul\":841:1170   */\n    tag_10:\n        /* \"#utility.yul\":900:906   */\n      0x00\n        /* \"#utility.yul\":949:951   */\n      0x20\n        /* \"#utility.yul\":937:946   */\n      dup3\n        /* \"#utility.yul\":928:935   */\n      dup5\n        /* \"#utility.yul\":924:947   */\n      sub\n        /* \"#utility.yul\":920:952   */\n      slt\n        /* \"#utility.yul\":917:1036   */\n      iszero\n      tag_114\n      jumpi\n        /* \"#utility.yul\":955:1034   */\n      tag_115\n      tag_60\n      jump\t// in\n    tag_115:\n        /* \"#utility.yul\":917:1036   */\n    tag_114:\n        /* \"#utility.yul\":1075:1076   */\n      0x00\n        /* \"#utility.yul\":1100:1153   */\n      tag_116\n        /* \"#utility.yul\":1145:1152   */\n      dup5\n        /* \"#utility.yul\":1136:1142   */\n      dup3\n        /* \"#utility.yul\":1125:1134   */\n      dup6\n        /* \"#utility.yul\":1121:1143   */\n      add\n        /* \"#utility.yul\":1100:1153   */\n      tag_65\n      jump\t// in\n    tag_116:\n        /* \"#utility.yul\":1090:1153   */\n      swap2\n      pop\n        /* \"#utility.yul\":1046:1163   */\n      pop\n        /* \"#utility.yul\":841:1170   */\n      swap3\n      swap2\n      pop\n      pop\n      jump\t// out\n        /* \"#utility.yul\":1176:1253   */\n    tag_66:\n        /* \"#utility.yul\":1213:1220   */\n      0x00\n        /* \"#utility.yul\":1242:1247   */\n      dup2\n        /* \"#utility.yul\":1231:1247   */\n      swap1\n      pop\n        /* \"#utility.yul\":1176:1253   */\n      swap2\n      swap1\n      pop\n      jump\t// out\n        /* \"#utility.yul\":1259:1381   */\n    tag_67:\n        /* \"#utility.yul\":1332:1356   */\n      tag_119\n        /* \"#utility.yul\":1350:1355   */\n      dup2\n        /* \"#utility.yul\":1332:1356   */\n      tag_66\n      jump\t// in\n    tag_119:\n        /* \"#utility.yul\":1325:1330   */\n      dup2\n        /* \"#utility.yul\":1322:1357   */\n      eq\n        /* \"#utility.yul\":1312:1375   */\n      tag_120\n      jumpi\n        /* \"#utility.yul\":1371:1372   */\n      0x00\n        /* \"#utility.yul\":1368:1369   */\n      dup1\n        /* \"#utility.yul\":1361:1373   */\n      revert\n        /* \"#utility.yul\":1312:1375   */\n    tag_120:\n        /* \"#utility.yul\":1259:1381   */\n      pop\n      jump\t// out\n        /* \"#utility.yul\":1387:1526   */\n    tag_68:\n        /* \"#utility.yul\":1433:1438   */\n      0x00\n        /* \"#utility.yul\":1471:1477   */\n      dup2\n        /* \"#utility.yul\":1458:1478   */\n      calldataload\n        /* \"#utility.yul\":1449:1478   */\n      swap1\n      pop\n        /* \"#utility.yul\":1487:1520   */\n      tag_122\n        /* \"#utility.yul\":1514:1519   */\n      dup2\n        /* \"#utility.yul\":1487:1520   */\n      tag_67\n      jump\t// in\n    tag_122:\n        /* \"#utility.yul\":1387:1526   */\n      swap3\n      swap2\n      pop\n      pop\n      jump\t// out\n        /* \"#utility.yul\":1532:1861   */\n    tag_14:\n        /* \"#utility.yul\":1591:1597   */\n      0x00\n        /* \"#utility.yul\":1640:1642   */\n      0x20\n        /* \"#utility.yul\":1628:1637   */\n      dup3\n        /* \"#utility.yul\":1619:1626   */\n      dup5\n        /* \"#utility.yul\":1615:1638   */\n      sub\n        /* \"#utility.yul\":1611:1643   */\n      slt\n        /* \"#utility.yul\":1608:1727   */\n      iszero\n      tag_124\n      jumpi\n        /* \"#utility.yul\":1646:1725   */\n      tag_125\n      tag_60\n      jump\t// in\n    tag_125:\n        /* \"#utility.yul\":1608:1727   */\n    tag_124:\n        /* \"#utility.yul\":1766:1767   */\n      0x00\n        /* \"#utility.yul\":1791:1844   */\n      tag_126\n        /* \"#utility.yul\":1836:1843   */\n      dup5\n        /* \"#utility.yul\":1827:1833   */\n      dup3\n        /* \"#utility.yul\":1816:1825   */\n      dup6\n        /* \"#utility.yul\":1812:1834   */\n      add\n        /* \"#utility.yul\":1791:1844   */\n      tag_68\n      jump\t// in\n    tag_126:\n        /* \"#utility.yul\":1781:1844   */\n      swap2\n      pop\n        /* \"#utility.yul\":1737:1854   */\n      pop\n        /* \"#utility.yul\":1532:1861   */\n      swap3\n      swap2\n      pop\n      pop\n      jump\t// out\n        /* \"#utility.yul\":1867:1966   */\n    tag_69:\n        /* \"#utility.yul\":1919:1925   */\n      0x00\n        /* \"#utility.yul\":1953:1958   */\n      dup2\n        /* \"#utility.yul\":1947:1959   */\n      mload\n        /* \"#utility.yul\":1937:1959   */\n      swap1\n      pop\n        /* \"#utility.yul\":1867:1966   */\n      swap2\n      swap1\n      pop\n      jump\t// out\n        /* \"#utility.yul\":1972:2141   */\n    tag_70:\n        /* \"#utility.yul\":2056:2067   */\n      0x00\n        /* \"#utility.yul\":2090:2096   */\n      dup3\n        /* \"#utility.yul\":2085:2088   */\n      dup3\n        /* \"#utility.yul\":2078:2097   */\n      mstore\n        /* \"#utility.yul\":2130:2134   */\n      0x20\n        /* \"#utility.yul\":2125:2128   */\n      dup3\n        /* \"#utility.yul\":2121:2135   */\n      add\n        /* \"#utility.yul\":2106:2135   */\n      swap1\n      pop\n        /* \"#utility.yul\":1972:2141   */\n      swap3\n      swap2\n      pop\n      pop\n      jump\t// out\n        /* \"#utility.yul\":2147:2393   */\n    tag_71:\n        /* \"#utility.yul\":2228:2229   */\n      0x00\n        /* \"#utility.yul\":2238:2351   */\n    tag_130:\n        /* \"#utility.yul\":2252:2258   */\n      dup4\n        /* \"#utility.yul\":2249:2250   */\n      dup2\n        /* \"#utility.yul\":2246:2259   */\n      lt\n        /* \"#utility.yul\":2238:2351   */\n      iszero\n      tag_132\n      jumpi\n        /* \"#utility.yul\":2337:2338   */\n      dup1\n        /* \"#utility.yul\":2332:2335   */\n      dup3\n        /* \"#utility.yul\":2328:2339   */\n      add\n        /* \"#utility.yul\":2322:2340   */\n      mload\n        /* \"#utility.yul\":2318:2319   */\n      dup2\n        /* \"#utility.yul\":2313:2316   */\n      dup5\n        /* \"#utility.yul\":2309:2320   */\n      add\n        /* \"#utility.yul\":2302:2341   */\n      mstore\n        /* \"#utility.yul\":2274:2276   */\n      0x20\n        /* \"#utility.yul\":2271:2272   */\n      dup2\n        /* \"#utility.yul\":2267:2277   */\n      add\n        /* \"#utility.yul\":2262:2277   */\n      swap1\n      pop\n        /* \"#utility.yul\":2238:2351   */\n      jump(tag_130)\n    tag_132:\n        /* \"#utility.yul\":2385:2386   */\n      0x00\n        /* \"#utility.yul\":2376:2382   */\n      dup5\n        /* \"#utility.yul\":2371:2374   */\n      dup5\n        /* \"#utility.yul\":2367:2383   */\n      add\n        /* \"#utility.yul\":2360:2387   */\n      mstore\n        /* \"#utility.yul\":2209:2393   */\n      pop\n        /* \"#utility.yul\":2147:2393   */\n      pop\n      pop\n      pop\n      jump\t// out\n        /* \"#utility.yul\":2399:2501   */\n    tag_72:\n        /* \"#utility.yul\":2440:2446   */\n      0x00\n        /* \"#utility.yul\":2491:2493   */\n      0x1f\n        /* \"#utility.yul\":2487:2494   */\n      not\n        /* \"#utility.yul\":2482:2484   */\n      0x1f\n        /* \"#utility.yul\":2475:2480   */\n      dup4\n        /* \"#utility.yul\":2471:2485   */\n      add\n        /* \"#utility.yul\":2467:2495   */\n      and\n        /* \"#utility.yul\":2457:2495   */\n      swap1\n      pop\n        /* \"#utility.yul\":2399:2501   */\n      swap2\n      swap1\n      pop\n      jump\t// out\n        /* \"#utility.yul\":2507:2884   */\n    tag_73:\n        /* \"#utility.yul\":2595:2598   */\n      0x00\n        /* \"#utility.yul\":2623:2662   */\n      tag_135\n        /* \"#utility.yul\":2656:2661   */\n      dup3\n        /* \"#utility.yul\":2623:2662   */\n      tag_69\n      jump\t// in\n    tag_135:\n        /* \"#utility.yul\":2678:2749   */\n      tag_136\n        /* \"#utility.yul\":2742:2748   */\n      dup2\n        /* \"#utility.yul\":2737:2740   */\n      dup6\n        /* \"#utility.yul\":2678:2749   */\n      tag_70\n      jump\t// in\n    tag_136:\n        /* \"#utility.yul\":2671:2749   */\n      swap4\n      pop\n        /* \"#utility.yul\":2758:2823   */\n      tag_137\n        /* \"#utility.yul\":2816:2822   */\n      dup2\n        /* \"#utility.yul\":2811:2814   */\n      dup6\n        /* \"#utility.yul\":2804:2808   */\n      0x20\n        /* \"#utility.yul\":2797:2802   */\n      dup7\n        /* \"#utility.yul\":2793:2809   */\n      add\n        /* \"#utility.yul\":2758:2823   */\n      tag_71\n      jump\t// in\n    tag_137:\n        /* \"#utility.yul\":2848:2877   */\n      tag_138\n        /* \"#utility.yul\":2870:2876   */\n      dup2\n        /* \"#utility.yul\":2848:2877   */\n      tag_72\n      jump\t// in\n    tag_138:\n        /* \"#utility.yul\":2843:2846   */\n      dup5\n        /* \"#utility.yul\":2839:2878   */\n      add\n        /* \"#utility.yul\":2832:2878   */\n      swap2\n      pop\n        /* \"#utility.yul\":2599:2884   */\n      pop\n        /* \"#utility.yul\":2507:2884   */\n      swap3\n      swap2\n      pop\n      pop\n      jump\t// out\n        /* \"#utility.yul\":2890:3008   */\n    tag_74:\n        /* \"#utility.yul\":2977:3001   */\n      tag_140\n        /* \"#utility.yul\":2995:3000   */\n      dup2\n        /* \"#utility.yul\":2977:3001   */\n      tag_66\n      jump\t// in\n    tag_140:\n        /* \"#utility.yul\":2972:2975   */\n      dup3\n        /* \"#utility.yul\":2965:3002   */\n      mstore\n        /* \"#utility.yul\":2890:3008   */\n      pop\n      pop\n      jump\t// out\n        /* \"#utility.yul\":3014:3104   */\n    tag_75:\n        /* \"#utility.yul\":3048:3055   */\n      0x00\n        /* \"#utility.yul\":3091:3096   */\n      dup2\n        /* \"#utility.yul\":3084:3097   */\n      iszero\n        /* \"#utility.yul\":3077:3098   */\n      iszero\n        /* \"#utility.yul\":3066:3098   */\n      swap1\n      pop\n        /* \"#utility.yul\":3014:3104   */\n      swap2\n      swap1\n      pop\n      jump\t// out\n        /* \"#utility.yul\":3110:3219   */\n    tag_76:\n        /* \"#utility.yul\":3191:3212   */\n      tag_143\n        /* \"#utility.yul\":3206:3211   */\n      dup2\n        /* \"#utility.yul\":3191:3212   */\n      tag_75\n      jump\t// in\n    tag_143:\n        /* \"#utility.yul\":3186:3189   */\n      dup3\n        /* \"#utility.yul\":3179:3213   */\n      mstore\n        /* \"#utility.yul\":3110:3219   */\n      pop\n      pop\n      jump\t// out\n        /* \"#utility.yul\":3225:4380   */\n    tag_17:\n        /* \"#utility.yul\":3542:3546   */\n      0x00\n        /* \"#utility.yul\":3580:3583   */\n      0x0100\n        /* \"#utility.yul\":3569:3578   */\n      dup3\n        /* \"#utility.yul\":3565:3584   */\n      add\n        /* \"#utility.yul\":3557:3584   */\n      swap1\n      pop\n        /* \"#utility.yul\":3630:3639   */\n      dup2\n        /* \"#utility.yul\":3624:3628   */\n      dup2\n        /* \"#utility.yul\":3620:3640   */\n      sub\n        /* \"#utility.yul\":3616:3617   */\n      0x00\n        /* \"#utility.yul\":3605:3614   */\n      dup4\n        /* \"#utility.yul\":3601:3618   */\n      add\n        /* \"#utility.yul\":3594:3641   */\n      mstore\n        /* \"#utility.yul\":3658:3736   */\n      tag_145\n        /* \"#utility.yul\":3731:3735   */\n      dup2\n        /* \"#utility.yul\":3722:3728   */\n      dup12\n        /* \"#utility.yul\":3658:3736   */\n      tag_73\n      jump\t// in\n    tag_145:\n        /* \"#utility.yul\":3650:3736   */\n      swap1\n      pop\n        /* \"#utility.yul\":3783:3792   */\n      dup2\n        /* \"#utility.yul\":3777:3781   */\n      dup2\n        /* \"#utility.yul\":3773:3793   */\n      sub\n        /* \"#utility.yul\":3768:3770   */\n      0x20\n        /* \"#utility.yul\":3757:3766   */\n      dup4\n        /* \"#utility.yul\":3753:3771   */\n      add\n        /* \"#utility.yul\":3746:3794   */\n      mstore\n        /* \"#utility.yul\":3811:3889   */\n      tag_146\n        /* \"#utility.yul\":3884:3888   */\n      dup2\n        /* \"#utility.yul\":3875:3881   */\n      dup11\n        /* \"#utility.yul\":3811:3889   */\n      tag_73\n      jump\t// in\n    tag_146:\n        /* \"#utility.yul\":3803:3889   */\n      swap1\n      pop\n        /* \"#utility.yul\":3899:3971   */\n      tag_147\n        /* \"#utility.yul\":3967:3969   */\n      0x40\n        /* \"#utility.yul\":3956:3965   */\n      dup4\n        /* \"#utility.yul\":3952:3970   */\n      add\n        /* \"#utility.yul\":3943:3949   */\n      dup10\n        /* \"#utility.yul\":3899:3971   */\n      tag_74\n      jump\t// in\n    tag_147:\n        /* \"#utility.yul\":3981:4053   */\n      tag_148\n        /* \"#utility.yul\":4049:4051   */\n      0x60\n        /* \"#utility.yul\":4038:4047   */\n      dup4\n        /* \"#utility.yul\":4034:4052   */\n      add\n        /* \"#utility.yul\":4025:4031   */\n      dup9\n        /* \"#utility.yul\":3981:4053   */\n      tag_74\n      jump\t// in\n    tag_148:\n        /* \"#utility.yul\":4063:4136   */\n      tag_149\n        /* \"#utility.yul\":4131:4134   */\n      0x80\n        /* \"#utility.yul\":4120:4129   */\n      dup4\n        /* \"#utility.yul\":4116:4135   */\n      add\n        /* \"#utility.yul\":4107:4113   */\n      dup8\n        /* \"#utility.yul\":4063:4136   */\n      tag_74\n      jump\t// in\n    tag_149:\n        /* \"#utility.yul\":4146:4219   */\n      tag_150\n        /* \"#utility.yul\":4214:4217   */\n      0xa0\n        /* \"#utility.yul\":4203:4212   */\n      dup4\n        /* \"#utility.yul\":4199:4218   */\n      add\n        /* \"#utility.yul\":4190:4196   */\n      dup7\n        /* \"#utility.yul\":4146:4219   */\n      tag_74\n      jump\t// in\n    tag_150:\n        /* \"#utility.yul\":4229:4296   */\n      tag_151\n        /* \"#utility.yul\":4291:4294   */\n      0xc0\n        /* \"#utility.yul\":4280:4289   */\n      dup4\n        /* \"#utility.yul\":4276:4295   */\n      add\n        /* \"#utility.yul\":4267:4273   */\n      dup6\n        /* \"#utility.yul\":4229:4296   */\n      tag_76\n      jump\t// in\n    tag_151:\n        /* \"#utility.yul\":4306:4373   */\n      tag_152\n        /* \"#utility.yul\":4368:4371   */\n      0xe0\n        /* \"#utility.yul\":4357:4366   */\n      dup4\n        /* \"#utility.yul\":4353:4372   */\n      add\n        /* \"#utility.yul\":4344:4350   */\n      dup5\n        /* \"#utility.yul\":4306:4373   */\n      tag_76\n      jump\t// in\n    tag_152:\n        /* \"#utility.yul\":3225:4380   */\n      swap10\n      swap9\n      pop\n      pop\n      pop\n      pop\n      pop\n      pop\n      pop\n      pop\n      pop\n      jump\t// out\n        /* \"#utility.yul\":4386:4503   */\n    tag_77:\n        /* \"#utility.yul\":4495:4496   */\n      0x00\n        /* \"#utility.yul\":4492:4493   */\n      dup1\n        /* \"#utility.yul\":4485:4497   */\n      revert\n        /* \"#utility.yul\":4509:4626   */\n    tag_78:\n        /* \"#utility.yul\":4618:4619   */\n      0x00\n        /* \"#utility.yul\":4615:4616   */\n      dup1\n        /* \"#utility.yul\":4608:4620   */\n      revert\n        /* \"#utility.yul\":4632:4749   */\n    tag_79:\n        /* \"#utility.yul\":4741:4742   */\n      0x00\n        /* \"#utility.yul\":4738:4739   */\n      dup1\n        /* \"#utility.yul\":4731:4743   */\n      revert\n        /* \"#utility.yul\":4769:5322   */\n    tag_80:\n        /* \"#utility.yul\":4827:4835   */\n      0x00\n        /* \"#utility.yul\":4837:4843   */\n      dup1\n        /* \"#utility.yul\":4887:4890   */\n      dup4\n        /* \"#utility.yul\":4880:4884   */\n      0x1f\n        /* \"#utility.yul\":4872:4878   */\n      dup5\n        /* \"#utility.yul\":4868:4885   */\n      add\n        /* \"#utility.yul\":4864:4891   */\n      slt\n        /* \"#utility.yul\":4854:4976   */\n      tag_157\n      jumpi\n        /* \"#utility.yul\":4895:4974   */\n      tag_158\n      tag_77\n      jump\t// in\n    tag_158:\n        /* \"#utility.yul\":4854:4976   */\n    tag_157:\n        /* \"#utility.yul\":5008:5014   */\n      dup3\n        /* \"#utility.yul\":4995:5015   */\n      calldataload\n        /* \"#utility.yul\":4985:5015   */\n      swap1\n      pop\n        /* \"#utility.yul\":5038:5056   */\n      0xffffffffffffffff\n        /* \"#utility.yul\":5030:5036   */\n      dup2\n        /* \"#utility.yul\":5027:5057   */\n      gt\n        /* \"#utility.yul\":5024:5141   */\n      iszero\n      tag_159\n      jumpi\n        /* \"#utility.yul\":5060:5139   */\n      tag_160\n      tag_78\n      jump\t// in\n    tag_160:\n        /* \"#utility.yul\":5024:5141   */\n    tag_159:\n        /* \"#utility.yul\":5174:5178   */\n      0x20\n        /* \"#utility.yul\":5166:5172   */\n      dup4\n        /* \"#utility.yul\":5162:5179   */\n      add\n        /* \"#utility.yul\":5150:5179   */\n      swap2\n      pop\n        /* \"#utility.yul\":5228:5231   */\n      dup4\n        /* \"#utility.yul\":5220:5224   */\n      0x01\n        /* \"#utility.yul\":5212:5218   */\n      dup3\n        /* \"#utility.yul\":5208:5225   */\n      mul\n        /* \"#utility.yul\":5198:5206   */\n      dup4\n        /* \"#utility.yul\":5194:5226   */\n      add\n        /* \"#utility.yul\":5191:5232   */\n      gt\n        /* \"#utility.yul\":5188:5316   */\n      iszero\n      tag_161\n      jumpi\n        /* \"#utility.yul\":5235:5314   */\n      tag_162\n      tag_79\n      jump\t// in\n    tag_162:\n        /* \"#utility.yul\":5188:5316   */\n    tag_161:\n        /* \"#utility.yul\":4769:5322   */\n      swap3\n      pop\n      swap3\n      swap1\n      pop\n      jump\t// out\n        /* \"#utility.yul\":5328:6347   */\n    tag_20:\n        /* \"#utility.yul\":5429:5435   */\n      0x00\n        /* \"#utility.yul\":5437:5443   */\n      dup1\n        /* \"#utility.yul\":5445:5451   */\n      0x00\n        /* \"#utility.yul\":5453:5459   */\n      dup1\n        /* \"#utility.yul\":5461:5467   */\n      0x00\n        /* \"#utility.yul\":5510:5512   */\n      0x60\n        /* \"#utility.yul\":5498:5507   */\n      dup7\n        /* \"#utility.yul\":5489:5496   */\n      dup9\n        /* \"#utility.yul\":5485:5508   */\n      sub\n        /* \"#utility.yul\":5481:5513   */\n      slt\n        /* \"#utility.yul\":5478:5597   */\n      iszero\n      tag_164\n      jumpi\n        /* \"#utility.yul\":5516:5595   */\n      tag_165\n      tag_60\n      jump\t// in\n    tag_165:\n        /* \"#utility.yul\":5478:5597   */\n    tag_164:\n        /* \"#utility.yul\":5664:5665   */\n      0x00\n        /* \"#utility.yul\":5653:5662   */\n      dup7\n        /* \"#utility.yul\":5649:5666   */\n      add\n        /* \"#utility.yul\":5636:5667   */\n      calldataload\n        /* \"#utility.yul\":5694:5712   */\n      0xffffffffffffffff\n        /* \"#utility.yul\":5686:5692   */\n      dup2\n        /* \"#utility.yul\":5683:5713   */\n      gt\n        /* \"#utility.yul\":5680:5797   */\n      iszero\n      tag_166\n      jumpi\n        /* \"#utility.yul\":5716:5795   */\n      tag_167\n      tag_61\n      jump\t// in\n    tag_167:\n        /* \"#utility.yul\":5680:5797   */\n    tag_166:\n        /* \"#utility.yul\":5829:5894   */\n      tag_168\n        /* \"#utility.yul\":5886:5893   */\n      dup9\n        /* \"#utility.yul\":5877:5883   */\n      dup3\n        /* \"#utility.yul\":5866:5875   */\n      dup10\n        /* \"#utility.yul\":5862:5884   */\n      add\n        /* \"#utility.yul\":5829:5894   */\n      tag_80\n      jump\t// in\n    tag_168:\n        /* \"#utility.yul\":5811:5894   */\n      swap6\n      pop\n      swap6\n      pop\n        /* \"#utility.yul\":5607:5904   */\n      pop\n        /* \"#utility.yul\":5971:5973   */\n      0x20\n        /* \"#utility.yul\":5960:5969   */\n      dup7\n        /* \"#utility.yul\":5956:5974   */\n      add\n        /* \"#utility.yul\":5943:5975   */\n      calldataload\n        /* \"#utility.yul\":6002:6020   */\n      0xffffffffffffffff\n        /* \"#utility.yul\":5994:6000   */\n      dup2\n        /* \"#utility.yul\":5991:6021   */\n      gt\n        /* \"#utility.yul\":5988:6105   */\n      iszero\n      tag_169\n      jumpi\n        /* \"#utility.yul\":6024:6103   */\n      tag_170\n      tag_61\n      jump\t// in\n    tag_170:\n        /* \"#utility.yul\":5988:6105   */\n    tag_169:\n        /* \"#utility.yul\":6137:6202   */\n      tag_171\n        /* \"#utility.yul\":6194:6201   */\n      dup9\n        /* \"#utility.yul\":6185:6191   */\n      dup3\n        /* \"#utility.yul\":6174:6183   */\n      dup10\n        /* \"#utility.yul\":6170:6192   */\n      add\n        /* \"#utility.yul\":6137:6202   */\n      tag_80\n      jump\t// in\n    tag_171:\n        /* \"#utility.yul\":6119:6202   */\n      swap4\n      pop\n      swap4\n      pop\n        /* \"#utility.yul\":5914:6212   */\n      pop\n        /* \"#utility.yul\":6251:6253   */\n      0x40\n        /* \"#utility.yul\":6277:6330   */\n      tag_172\n        /* \"#utility.yul\":6322:6329   */\n      dup9\n        /* \"#utility.yul\":6313:6319   */\n      dup3\n        /* \"#utility.yul\":6302:6311   */\n      dup10\n        /* \"#utility.yul\":6298:6320   */\n      add\n        /* \"#utility.yul\":6277:6330   */\n      tag_68\n      jump\t// in\n    tag_172:\n        /* \"#utility.yul\":6267:6330   */\n      swap2\n      pop\n        /* \"#utility.yul\":6222:6340   */\n      pop\n        /* \"#utility.yul\":5328:6347   */\n      swap3\n      swap6\n      pop\n      swap3\n      swap6\n      swap1\n      swap4\n      pop\n      jump\t// out\n        /* \"#utility.yul\":6353:6471   */\n    tag_81:\n        /* \"#utility.yul\":6440:6464   */\n      tag_174\n        /* \"#utility.yul\":6458:6463   */\n      dup2\n        /* \"#utility.yul\":6440:6464   */\n      tag_63\n      jump\t// in\n    tag_174:\n        /* \"#utility.yul\":6435:6438   */\n      dup3\n        /* \"#utility.yul\":6428:6465   */\n      mstore\n        /* \"#utility.yul\":6353:6471   */\n      pop\n      pop\n      jump\t// out\n        /* \"#utility.yul\":6477:6699   */\n    tag_25:\n        /* \"#utility.yul\":6570:6574   */\n      0x00\n        /* \"#utility.yul\":6608:6610   */\n      0x20\n        /* \"#utility.yul\":6597:6606   */\n      dup3\n        /* \"#utility.yul\":6593:6611   */\n      add\n        /* \"#utility.yul\":6585:6611   */\n      swap1\n      pop\n        /* \"#utility.yul\":6621:6692   */\n      tag_176\n        /* \"#utility.yul\":6689:6690   */\n      0x00\n        /* \"#utility.yul\":6678:6687   */\n      dup4\n        /* \"#utility.yul\":6674:6691   */\n      add\n        /* \"#utility.yul\":6665:6671   */\n      dup5\n        /* \"#utility.yul\":6621:6692   */\n      tag_81\n      jump\t// in\n    tag_176:\n        /* \"#utility.yul\":6477:6699   */\n      swap3\n      swap2\n      pop\n      pop\n      jump\t// out\n        /* \"#utility.yul\":6705:6925   */\n    tag_82:\n        /* \"#utility.yul\":6845:6879   */\n      0x4f6e6c79206f776e65722063616e2063616c6c20746869732066756e6374696f\n        /* \"#utility.yul\":6841:6842   */\n      0x00\n        /* \"#utility.yul\":6833:6839   */\n      dup3\n        /* \"#utility.yul\":6829:6843   */\n      add\n        /* \"#utility.yul\":6822:6880   */\n      mstore\n        /* \"#utility.yul\":6914:6917   */\n      0x6e00000000000000000000000000000000000000000000000000000000000000\n        /* \"#utility.yul\":6909:6911   */\n      0x20\n        /* \"#utility.yul\":6901:6907   */\n      dup3\n        /* \"#utility.yul\":6897:6912   */\n      add\n        /* \"#utility.yul\":6890:6918   */\n      mstore\n        /* \"#utility.yul\":6705:6925   */\n      pop\n      jump\t// out\n        /* \"#utility.yul\":6931:7297   */\n    tag_83:\n        /* \"#utility.yul\":7073:7076   */\n      0x00\n        /* \"#utility.yul\":7094:7161   */\n      tag_179\n        /* \"#utility.yul\":7158:7160   */\n      0x21\n        /* \"#utility.yul\":7153:7156   */\n      dup4\n        /* \"#utility.yul\":7094:7161   */\n      tag_70\n      jump\t// in\n    tag_179:\n        /* \"#utility.yul\":7087:7161   */\n      swap2\n      pop\n        /* \"#utility.yul\":7170:7263   */\n      tag_180\n        /* \"#utility.yul\":7259:7262   */\n      dup3\n        /* \"#utility.yul\":7170:7263   */\n      tag_82\n      jump\t// in\n    tag_180:\n        /* \"#utility.yul\":7288:7290   */\n      0x40\n        /* \"#utility.yul\":7283:7286   */\n      dup3\n        /* \"#utility.yul\":7279:7291   */\n      add\n        /* \"#utility.yul\":7272:7291   */\n      swap1\n      pop\n        /* \"#utility.yul\":6931:7297   */\n      swap2\n      swap1\n      pop\n      jump\t// out\n        /* \"#utility.yul\":7303:7722   */\n    tag_32:\n        /* \"#utility.yul\":7469:7473   */\n      0x00\n        /* \"#utility.yul\":7507:7509   */\n      0x20\n        /* \"#utility.yul\":7496:7505   */\n      dup3\n        /* \"#utility.yul\":7492:7510   */\n      add\n        /* \"#utility.yul\":7484:7510   */\n      swap1\n      pop\n        /* \"#utility.yul\":7556:7565   */\n      dup2\n        /* \"#utility.yul\":7550:7554   */\n      dup2\n        /* \"#utility.yul\":7546:7566   */\n      sub\n        /* \"#utility.yul\":7542:7543   */\n      0x00\n        /* \"#utility.yul\":7531:7540   */\n      dup4\n        /* \"#utility.yul\":7527:7544   */\n      add\n        /* \"#utility.yul\":7520:7567   */\n      mstore\n        /* \"#utility.yul\":7584:7715   */\n      tag_182\n        /* \"#utility.yul\":7710:7714   */\n      dup2\n        /* \"#utility.yul\":7584:7715   */\n      tag_83\n      jump\t// in\n    tag_182:\n        /* \"#utility.yul\":7576:7715   */\n      swap1\n      pop\n        /* \"#utility.yul\":7303:7722   */\n      swap2\n      swap1\n      pop\n      jump\t// out\n        /* \"#utility.yul\":7728:7908   */\n    tag_84:\n        /* \"#utility.yul\":7776:7853   */\n      0x4e487b7100000000000000000000000000000000000000000000000000000000\n        /* \"#utility.yul\":7773:7774   */\n      0x00\n        /* \"#utility.yul\":7766:7854   */\n      mstore\n        /* \"#utility.yul\":7873:7877   */\n      0x22\n        /* \"#utility.yul\":7870:7871   */\n      0x04\n        /* \"#utility.yul\":7863:7878   */\n      mstore\n        /* \"#utility.yul\":7897:7901   */\n      0x24\n        /* \"#utility.yul\":7894:7895   */\n      0x00\n        /* \"#utility.yul\":7887:7902   */\n      revert\n        /* \"#utility.yul\":7914:8234   */\n    tag_35:\n        /* \"#utility.yul\":7958:7964   */\n      0x00\n        /* \"#utility.yul\":7995:7996   */\n      0x02\n        /* \"#utility.yul\":7989:7993   */\n      dup3\n        /* \"#utility.yul\":7985:7997   */\n      div\n        /* \"#utility.yul\":7975:7997   */\n      swap1\n      pop\n        /* \"#utility.yul\":8042:8043   */\n      0x01\n        /* \"#utility.yul\":8036:8040   */\n      dup3\n        /* \"#utility.yul\":8032:8044   */\n      and\n        /* \"#utility.yul\":8063:8081   */\n      dup1\n        /* \"#utility.yul\":8053:8134   */\n      tag_185\n      jumpi\n        /* \"#utility.yul\":8119:8123   */\n      0x7f\n        /* \"#utility.yul\":8111:8117   */\n      dup3\n        /* \"#utility.yul\":8107:8124   */\n      and\n        /* \"#utility.yul\":8097:8124   */\n      swap2\n      pop\n        /* \"#utility.yul\":8053:8134   */\n    tag_185:\n        /* \"#utility.yul\":8181:8183   */\n      0x20\n        /* \"#utility.yul\":8173:8179   */\n      dup3\n        /* \"#utility.yul\":8170:8184   */\n      lt\n        /* \"#utility.yul\":8150:8168   */\n      dup2\n        /* \"#utility.yul\":8147:8185   */\n      sub\n        /* \"#utility.yul\":8144:8228   */\n      tag_186\n      jumpi\n        /* \"#utility.yul\":8200:8218   */\n      tag_187\n      tag_84\n      jump\t// in\n    tag_187:\n        /* \"#utility.yul\":8144:8228   */\n    tag_186:\n        /* \"#utility.yul\":7965:8234   */\n      pop\n        /* \"#utility.yul\":7914:8234   */\n      swap2\n      swap1\n      pop\n      jump\t// out\n        /* \"#utility.yul\":8240:8420   */\n    tag_85:\n        /* \"#utility.yul\":8288:8365   */\n      0x4e487b7100000000000000000000000000000000000000000000000000000000\n        /* \"#utility.yul\":8285:8286   */\n      0x00\n        /* \"#utility.yul\":8278:8366   */\n      mstore\n        /* \"#utility.yul\":8385:8389   */\n      0x41\n        /* \"#utility.yul\":8382:8383   */\n      0x04\n        /* \"#utility.yul\":8375:8390   */\n      mstore\n        /* \"#utility.yul\":8409:8413   */\n      0x24\n        /* \"#utility.yul\":8406:8407   */\n      0x00\n        /* \"#utility.yul\":8399:8414   */\n      revert\n        /* \"#utility.yul\":8426:8567   */\n    tag_86:\n        /* \"#utility.yul\":8475:8479   */\n      0x00\n        /* \"#utility.yul\":8498:8501   */\n      dup2\n        /* \"#utility.yul\":8490:8501   */\n      swap1\n      pop\n        /* \"#utility.yul\":8521:8524   */\n      dup2\n        /* \"#utility.yul\":8518:8519   */\n      0x00\n        /* \"#utility.yul\":8511:8525   */\n      mstore\n        /* \"#utility.yul\":8555:8559   */\n      0x20\n        /* \"#utility.yul\":8552:8553   */\n      0x00\n        /* \"#utility.yul\":8542:8560   */\n      keccak256\n        /* \"#utility.yul\":8534:8560   */\n      swap1\n      pop\n        /* \"#utility.yul\":8426:8567   */\n      swap2\n      swap1\n      pop\n      jump\t// out\n        /* \"#utility.yul\":8573:8666   */\n    tag_87:\n        /* \"#utility.yul\":8610:8616   */\n      0x00\n        /* \"#utility.yul\":8657:8659   */\n      0x20\n        /* \"#utility.yul\":8652:8654   */\n      0x1f\n        /* \"#utility.yul\":8645:8650   */\n      dup4\n        /* \"#utility.yul\":8641:8655   */\n      add\n        /* \"#utility.yul\":8637:8660   */\n      div\n        /* \"#utility.yul\":8627:8660   */\n      swap1\n      pop\n        /* \"#utility.yul\":8573:8666   */\n      swap2\n      swap1\n      pop\n      jump\t// out\n        /* \"#utility.yul\":8672:8779   */\n    tag_88:\n        /* \"#utility.yul\":8716:8724   */\n      0x00\n        /* \"#utility.yul\":8766:8771   */\n      dup3\n        /* \"#utility.yul\":8760:8764   */\n      dup3\n        /* \"#utility.yul\":8756:8772   */\n      shl\n        /* \"#utility.yul\":8735:8772   */\n      swap1\n      pop\n        /* \"#utility.yul\":8672:8779   */\n      swap3\n      swap2\n      pop\n      pop\n      jump\t// out\n        /* \"#utility.yul\":8785:9178   */\n    tag_89:\n        /* \"#utility.yul\":8854:8860   */\n      0x00\n        /* \"#utility.yul\":8904:8905   */\n      0x08\n        /* \"#utility.yul\":8892:8902   */\n      dup4\n        /* \"#utility.yul\":8888:8906   */\n      mul\n        /* \"#utility.yul\":8927:9024   */\n      tag_193\n        /* \"#utility.yul\":8957:9023   */\n      0xffffffffffffffffffffffffffffffffffffffffffffffffffffffffffffffff\n        /* \"#utility.yul\":8946:8955   */\n      dup3\n        /* \"#utility.yul\":8927:9024   */\n      tag_88\n      jump\t// in\n    tag_193:\n        /* \"#utility.yul\":9045:9084   */\n      tag_194\n        /* \"#utility.yul\":9075:9083   */\n      dup7\n        /* \"#utility.yul\":9064:9073   */\n      dup4\n        /* \"#utility.yul\":9045:9084   */\n      tag_88\n      jump\t// in\n    tag_194:\n        /* \"#utility.yul\":9033:9084   */\n      swap6\n      pop\n        /* \"#utility.yul\":9117:9121   */\n      dup1\n        /* \"#utility.yul\":9113:9122   */\n      not\n        /* \"#utility.yul\":9106:9111   */\n      dup5\n        /* \"#utility.yul\":9102:9123   */\n      and\n        /* \"#utility.yul\":9093:9123   */\n      swap4\n      pop\n        /* \"#utility.yul\":9166:9170   */\n      dup1\n        /* \"#utility.yul\":9156:9164   */\n      dup7\n        /* \"#utility.yul\":9152:9171   */\n      and\n        /* \"#utility.yul\":9145:9150   */\n      dup5\n        /* \"#utility.yul\":9142:9172   */\n      or\n        /* \"#utility.yul\":9132:9172   */\n      swap3\n      pop\n        /* \"#utility.yul\":8861:9178   */\n      pop\n      pop\n        /* \"#utility.yul\":8785:9178   */\n      swap4\n      swap3\n      pop\n      pop\n      pop\n      jump\t// out\n        /* \"#utility.yul\":9184:9244   */\n    tag_90:\n        /* \"#utility.yul\":9212:9215   */\n      0x00\n        /* \"#utility.yul\":9233:9238   */\n      dup2\n        /* \"#utility.yul\":9226:9238   */\n      swap1\n      pop\n        /* \"#utility.yul\":9184:9244   */\n      swap2\n      swap1\n      pop\n      jump\t// out\n        /* \"#utility.yul\":9250:9392   */\n    tag_91:\n        /* \"#utility.yul\":9300:9309   */\n      0x00\n        /* \"#utility.yul\":9333:9386   */\n      tag_197\n        /* \"#utility.yul\":9351:9385   */\n      tag_198\n        /* \"#utility.yul\":9360:9384   */\n      tag_199\n        /* \"#utility.yul\":9378:9383   */\n      dup5\n        /* \"#utility.yul\":9360:9384   */\n      tag_66\n      jump\t// in\n    tag_199:\n        /* \"#utility.yul\":9351:9385   */\n      tag_90\n      jump\t// in\n    tag_198:\n        /* \"#utility.yul\":9333:9386   */\n      tag_66\n      jump\t// in\n    tag_197:\n        /* \"#utility.yul\":9320:9386   */\n      swap1\n      pop\n        /* \"#utility.yul\":9250:9392   */\n      swap2\n      swap1\n      pop\n      jump\t// out\n        /* \"#utility.yul\":9398:9473   */\n    tag_92:\n        /* \"#utility.yul\":9441:9444   */\n      0x00\n        /* \"#utility.yul\":9462:9467   */\n      dup2\n        /* \"#utility.yul\":9455:9467   */\n      swap1\n      pop\n        /* \"#utility.yul\":9398:9473   */\n      swap2\n      swap1\n      pop\n      jump\t// out\n        /* \"#utility.yul\":9479:9748   */\n    tag_93:\n        /* \"#utility.yul\":9589:9628   */\n      tag_202\n        /* \"#utility.yul\":9620:9627   */\n      dup4\n        /* \"#utility.yul\":9589:9628   */\n      tag_91\n      jump\t// in\n    tag_202:\n        /* \"#utility.yul\":9650:9741   */\n      tag_203\n        /* \"#utility.yul\":9699:9740   */\n      tag_204\n        /* \"#utility.yul\":9723:9739   */\n      dup3\n        /* \"#utility.yul\":9699:9740   */\n      tag_92\n      jump\t// in\n    tag_204:\n        /* \"#utility.yul\":9691:9697   */\n      dup5\n        /* \"#utility.yul\":9684:9688   */\n      dup5\n        /* \"#utility.yul\":9678:9689   */\n      sload\n        /* \"#utility.yul\":9650:9741   */\n      tag_89\n      jump\t// in\n    tag_203:\n        /* \"#utility.yul\":9644:9648   */\n      dup3\n        /* \"#utility.yul\":9637:9742   */\n      sstore\n        /* \"#utility.yul\":9555:9748   */\n      pop\n        /* \"#utility.yul\":9479:9748   */\n      pop\n      pop\n      pop\n      jump\t// out\n        /* \"#utility.yul\":9754:9827   */\n    tag_94:\n        /* \"#utility.yul\":9799:9802   */\n      0x00\n        /* \"#utility.yul\":9754:9827   */\n      swap1\n      jump\t// out\n        /* \"#utility.yul\":9833:10022   */\n    tag_95:\n        /* \"#utility.yul\":9910:9942   */\n      tag_207\n      tag_94\n      jump\t// in\n    tag_207:\n        /* \"#utility.yul\":9951:10016   */\n      tag_208\n        /* \"#utility.yul\":10009:10015   */\n      dup2\n        /* \"#utility.yul\":10001:10007   */\n      dup5\n        /* \"#utility.yul\":9995:9999   */\n      dup5\n        /* \"#utility.yul\":9951:10016   */\n      tag_93\n      jump\t// in\n    tag_208:\n        /* \"#utility.yul\":9886:10022   */\n      pop\n        /* \"#utility.yul\":9833:10022   */\n      pop\n      pop\n      jump\t// out\n        /* \"#utility.yul\":10028:10214   */\n    tag_96:\n        /* \"#utility.yul\":10088:10208   */\n    tag_210:\n        /* \"#utility.yul\":10105:10108   */\n      dup2\n        /* \"#utility.yul\":10098:10103   */\n      dup2\n        /* \"#utility.yul\":10095:10109   */\n      lt\n        /* \"#utility.yul\":10088:10208   */\n      iszero\n      tag_212\n      jumpi\n        /* \"#utility.yul\":10159:10198   */\n      tag_213\n        /* \"#utility.yul\":10196:10197   */\n      0x00\n        /* \"#utility.yul\":10189:10194   */\n      dup3\n        /* \"#utility.yul\":10159:10198   */\n      tag_95\n      jump\t// in\n    tag_213:\n        /* \"#utility.yul\":10132:10133   */\n      0x01\n        /* \"#utility.yul\":10125:10130   */\n      dup2\n        /* \"#utility.yul\":10121:10134   */\n      add\n        /* \"#utility.yul\":10112:10134   */\n      swap1\n      pop\n        /* \"#utility.yul\":10088:10208   */\n      jump(tag_210)\n    tag_212:\n        /* \"#utility.yul\":10028:10214   */\n      pop\n      pop\n      jump\t// out\n        /* \"#utility.yul\":10220:10763   */\n    tag_97:\n        /* \"#utility.yul\":10321:10323   */\n      0x1f\n        /* \"#utility.yul\":10316:10319   */\n      dup3\n        /* \"#utility.yul\":10313:10324   */\n      gt\n        /* \"#utility.yul\":10310:10756   */\n      iszero\n      tag_215\n      jumpi\n        /* \"#utility.yul\":10355:10393   */\n      tag_216\n        /* \"#utility.yul\":10387:10392   */\n      dup2\n        /* \"#utility.yul\":10355:10393   */\n      tag_86\n      jump\t// in\n    tag_216:\n        /* \"#utility.yul\":10439:10468   */\n      tag_217\n        /* \"#utility.yul\":10457:10467   */\n      dup5\n        /* \"#utility.yul\":10439:10468   */\n      tag_87\n      jump\t// in\n    tag_217:\n        /* \"#utility.yul\":10429:10437   */\n      dup2\n        /* \"#utility.yul\":10425:10469   */\n      add\n        /* \"#utility.yul\":10622:10624   */\n      0x20\n        /* \"#utility.yul\":10610:10620   */\n      dup6\n        /* \"#utility.yul\":10607:10625   */\n      lt\n        /* \"#utility.yul\":10604:10653   */\n      iszero\n      tag_218\n      jumpi\n        /* \"#utility.yul\":10643:10651   */\n      dup2\n        /* \"#utility.yul\":10628:10651   */\n      swap1\n      pop\n        /* \"#utility.yul\":10604:10653   */\n    tag_218:\n        /* \"#utility.yul\":10666:10746   */\n      tag_219\n        /* \"#utility.yul\":10722:10744   */\n      tag_220\n        /* \"#utility.yul\":10740:10743   */\n      dup6\n        /* \"#utility.yul\":10722:10744   */\n      tag_87\n      jump\t// in\n    tag_220:\n        /* \"#utility.yul\":10712:10720   */\n      dup4\n        /* \"#utility.yul\":10708:10745   */\n      add\n        /* \"#utility.yul\":10695:10706   */\n      dup3\n        /* \"#utility.yul\":10666:10746   */\n      tag_96\n      jump\t// in\n    tag_219:\n        /* \"#utility.yul\":10325:10756   */\n      pop\n      pop\n        /* \"#utility.yul\":10310:10756   */\n    tag_215:\n        /* \"#utility.yul\":10220:10763   */\n      pop\n      pop\n      pop\n      jump\t// out\n        /* \"#utility.yul\":10769:10886   */\n    tag_98:\n        /* \"#utility.yul\":10823:10831   */\n      0x00\n        /* \"#utility.yul\":10873:10878   */\n      dup3\n        /* \"#utility.yul\":10867:10871   */\n      dup3\n        /* \"#utility.yul\":10863:10879   */\n      shr\n        /* \"#utility.yul\":10842:10879   */\n      swap1\n      pop\n        /* \"#utility.yul\":10769:10886   */\n      swap3\n      swap2\n      pop\n      pop\n      jump\t// out\n        /* \"#utility.yul\":10892:11061   */\n    tag_99:\n        /* \"#utility.yul\":10936:10942   */\n      0x00\n        /* \"#utility.yul\":10969:11020   */\n      tag_223\n        /* \"#utility.yul\":11017:11018   */\n      0x00\n        /* \"#utility.yul\":11013:11019   */\n      not\n        /* \"#utility.yul\":11005:11010   */\n      dup5\n        /* \"#utility.yul\":11002:11003   */\n      0x08\n        /* \"#utility.yul\":10998:11011   */\n      mul\n        /* \"#utility.yul\":10969:11020   */\n      tag_98\n      jump\t// in\n    tag_223:\n        /* \"#utility.yul\":10965:11021   */\n      not\n        /* \"#utility.yul\":11050:11054   */\n      dup1\n        /* \"#utility.yul\":11044:11048   */\n      dup4\n        /* \"#utility.yul\":11040:11055   */\n      and\n        /* \"#utility.yul\":11030:11055   */\n      swap2\n      pop\n        /* \"#utility.yul\":10943:11061   */\n      pop\n        /* \"#utility.yul\":10892:11061   */\n      swap3\n      swap2\n      pop\n      pop\n      jump\t// out\n        /* \"#utility.yul\":11066:11361   */\n    tag_100:\n        /* \"#utility.yul\":11142:11146   */\n      0x00\n        /* \"#utility.yul\":11288:11317   */\n      tag_225\n        /* \"#utility.yul\":11313:11316   */\n      dup4\n        /* \"#utility.yul\":11307:11311   */\n      dup4\n        /* \"#utility.yul\":11288:11317   */\n      tag_99\n      jump\t// in\n    tag_225:\n        /* \"#utility.yul\":11280:11317   */\n      swap2\n      pop\n        /* \"#utility.yul\":11350:11353   */\n      dup3\n        /* \"#utility.yul\":11347:11348   */\n      0x02\n        /* \"#utility.yul\":11343:11354   */\n      mul\n        /* \"#utility.yul\":11337:11341   */\n      dup3\n        /* \"#utility.yul\":11334:11355   */\n      or\n        /* \"#utility.yul\":11326:11355   */\n      swap1\n      pop\n        /* \"#utility.yul\":11066:11361   */\n      swap3\n      swap2\n      pop\n      pop\n      jump\t// out\n        /* \"#utility.yul\":11366:12761   */\n    tag_54:\n        /* \"#utility.yul\":11483:11520   */\n      tag_227\n        /* \"#utility.yul\":11516:11519   */\n      dup3\n        /* \"#utility.yul\":11483:11520   */\n      tag_69\n      jump\t// in\n    tag_227:\n        /* \"#utility.yul\":11585:11603   */\n      0xffffffffffffffff\n        /* \"#utility.yul\":11577:11583   */\n      dup2\n        /* \"#utility.yul\":11574:11604   */\n      gt\n        /* \"#utility.yul\":11571:11627   */\n      iszero\n      tag_228\n      jumpi\n        /* \"#utility.yul\":11607:11625   */\n      tag_229\n      tag_85\n      jump\t// in\n    tag_229:\n        /* \"#utility.yul\":11571:11627   */\n    tag_228:\n        /* \"#utility.yul\":11651:11689   */\n      tag_230\n        /* \"#utility.yul\":11683:11687   */\n      dup3\n        /* \"#utility.yul\":11677:11688   */\n      sload\n        /* \"#utility.yul\":11651:11689   */\n      tag_35\n      jump\t// in\n    tag_230:\n        /* \"#utility.yul\":11736:11803   */\n      tag_231\n        /* \"#utility.yul\":11796:11802   */\n      dup3\n        /* \"#utility.yul\":11788:11794   */\n      dup3\n        /* \"#utility.yul\":11782:11786   */\n      dup6\n        /* \"#utility.yul\":11736:11803   */\n      tag_97\n      jump\t// in\n    tag_231:\n        /* \"#utility.yul\":11830:11831   */\n      0x00\n        /* \"#utility.yul\":11854:11858   */\n      0x20\n        /* \"#utility.yul\":11841:11858   */\n      swap1\n      pop\n        /* \"#utility.yul\":11886:11888   */\n      0x1f\n        /* \"#utility.yul\":11878:11884   */\n      dup4\n        /* \"#utility.yul\":11875:11889   */\n      gt\n        /* \"#utility.yul\":11903:11904   */\n      0x01\n        /* \"#utility.yul\":11898:12516   */\n      dup2\n      eq\n      tag_233\n      jumpi\n        /* \"#utility.yul\":12560:12561   */\n      0x00\n        /* \"#utility.yul\":12577:12583   */\n      dup5\n        /* \"#utility.yul\":12574:12651   */\n      iszero\n      tag_234\n      jumpi\n        /* \"#utility.yul\":12626:12635   */\n      dup3\n        /* \"#utility.yul\":12621:12624   */\n      dup8\n        /* \"#utility.yul\":12617:12636   */\n      add\n        /* \"#utility.yul\":12611:12637   */\n      mload\n        /* \"#utility.yul\":12602:12637   */\n      swap1\n      pop\n        /* \"#utility.yul\":12574:12651   */\n    tag_234:\n        /* \"#utility.yul\":12677:12744   */\n      tag_235\n        /* \"#utility.yul\":12737:12743   */\n      dup6\n        /* \"#utility.yul\":12730:12735   */\n      dup3\n        /* \"#utility.yul\":12677:12744   */\n      tag_100\n      jump\t// in\n    tag_235:\n        /* \"#utility.yul\":12671:12675   */\n      dup7\n        /* \"#utility.yul\":12664:12745   */\n      sstore\n        /* \"#utility.yul\":12533:12755   */\n      pop\n        /* \"#utility.yul\":11868:12755   */\n      jump(tag_232)\n        /* \"#utility.yul\":11898:12516   */\n    tag_233:\n        /* \"#utility.yul\":11950:11954   */\n      0x1f\n        /* \"#utility.yul\":11946:11955   */\n      not\n        /* \"#utility.yul\":11938:11944   */\n      dup5\n        /* \"#utility.yul\":11934:11956   */\n      and\n        /* \"#utility.yul\":11984:12021   */\n      tag_236\n        /* \"#utility.yul\":12016:12020   */\n      dup7\n        /* \"#utility.yul\":11984:12021   */\n      tag_86\n      jump\t// in\n    tag_236:\n        /* \"#utility.yul\":12043:12044   */\n      0x00\n        /* \"#utility.yul\":12057:12265   */\n    tag_237:\n        /* \"#utility.yul\":12071:12078   */\n      dup3\n        /* \"#utility.yul\":12068:12069   */\n      dup2\n        /* \"#utility.yul\":12065:12079   */\n      lt\n        /* \"#utility.yul\":12057:12265   */\n      iszero\n      tag_239\n      jumpi\n        /* \"#utility.yul\":12150:12159   */\n      dup5\n        /* \"#utility.yul\":12145:12148   */\n      dup10\n        /* \"#utility.yul\":12141:12160   */\n      add\n        /* \"#utility.yul\":12135:12161   */\n      mload\n        /* \"#utility.yul\":12127:12133   */\n      dup3\n        /* \"#utility.yul\":12120:12162   */\n      sstore\n        /* \"#utility.yul\":12201:12202   */\n      0x01\n        /* \"#utility.yul\":12193:12199   */\n      dup3\n        /* \"#utility.yul\":12189:12203   */\n      add\n        /* \"#utility.yul\":12179:12203   */\n      swap2\n      pop\n        /* \"#utility.yul\":12248:12250   */\n      0x20\n        /* \"#utility.yul\":12237:12246   */\n      dup6\n        /* \"#utility.yul\":12233:12251   */\n      add\n        /* \"#utility.yul\":12220:12251   */\n      swap5\n      pop\n        /* \"#utility.yul\":12094:12098   */\n      0x20\n        /* \"#utility.yul\":12091:12092   */\n      dup2\n        /* \"#utility.yul\":12087:12099   */\n      add\n        /* \"#utility.yul\":12082:12099   */\n      swap1\n      pop\n        /* \"#utility.yul\":12057:12265   */\n      jump(tag_237)\n    tag_239:\n        /* \"#utility.yul\":12293:12299   */\n      dup7\n        /* \"#utility.yul\":12284:12291   */\n      dup4\n        /* \"#utility.yul\":12281:12300   */\n      lt\n        /* \"#utility.yul\":12278:12457   */\n      iszero\n      tag_240\n      jumpi\n        /* \"#utility.yul\":12351:12360   */\n      dup5\n        /* \"#utility.yul\":12346:12349   */\n      dup10\n        /* \"#utility.yul\":12342:12361   */\n      add\n        /* \"#utility.yul\":12336:12362   */\n      mload\n        /* \"#utility.yul\":12394:12442   */\n      tag_241\n        /* \"#utility.yul\":12436:12440   */\n      0x1f\n        /* \"#utility.yul\":12428:12434   */\n      dup10\n        /* \"#utility.yul\":12424:12441   */\n      and\n        /* \"#utility.yul\":12413:12422   */\n      dup3\n        /* \"#utility.yul\":12394:12442   */\n      tag_99\n      jump\t// in\n    tag_241:\n        /* \"#utility.yul\":12386:12392   */\n      dup4\n        /* \"#utility.yul\":12379:12443   */\n      sstore\n        /* \"#utility.yul\":12301:12457   */\n      pop\n        /* \"#utility.yul\":12278:12457   */\n    tag_240:\n        /* \"#utility.yul\":12503:12504   */\n      0x01\n        /* \"#utility.yul\":12499:12500   */\n      0x02\n        /* \"#utility.yul\":12491:12497   */\n      dup9\n        /* \"#utility.yul\":12487:12501   */\n      mul\n        /* \"#utility.yul\":12483:12505   */\n      add\n        /* \"#utility.yul\":12477:12481   */\n      dup9\n        /* \"#utility.yul\":12470:12506   */\n      sstore\n        /* \"#utility.yul\":11905:12516   */\n      pop\n      pop\n      pop\n        /* \"#utility.yul\":11868:12755   */\n    tag_232:\n      pop\n        /* \"#utility.yul\":11458:12761   */\n      pop\n      pop\n      pop\n        /* \"#utility.yul\":11366:12761   */\n      pop\n      pop\n      jump\t// out\n\n    auxdata: 0xa26469706673582212204a5b0385d3cbc65ced83a778a522fb6e4c53b0bf9eb88c24d4bed188c4a889ea64736f6c63430008160033\n}\n",
				"bytecode": {
					"linkReferences": {},
					"object": "608060405234801561000f575f80fd5b503360015f6101000a81548173ffffffffffffffffffffffffffffffffffffffff021916908373ffffffffffffffffffffffffffffffffffffffff160217905550610cbe8061005d5f395ff3fe608060405234801561000f575f80fd5b5060043610610055575f3560e01c806313af4035146100595780631c7e379f146100755780633ca6d100146100ac5780638da5cb5b146100c8578063bc677b46146100e6575b5f80fd5b610073600480360381019061006e9190610624565b610104565b005b61008f600480360381019061008a9190610682565b6101d6565b6040516100a3989796959493929190610760565b60405180910390f35b6100c660048036038101906100c1919061084b565b61033f565b005b6100d0610555565b6040516100dd91906108eb565b60405180910390f35b6100ee61057a565b6040516100fb91906108eb565b60405180910390f35b60015f9054906101000a900473ffffffffffffffffffffffffffffffffffffffff1673ffffffffffffffffffffffffffffffffffffffff163373ffffffffffffffffffffffffffffffffffffffff1614610193576040517f08c379a000000000000000000000000000000000000000000000000000000000815260040161018a90610974565b60405180910390fd5b8060015f6101000a81548173ffffffffffffffffffffffffffffffffffffffff021916908373ffffffffffffffffffffffffffffffffffffffff16021790555050565b6002602052805f5260405f205f91509050805f0180546101f5906109bf565b80601f0160208091040260200160405190810160405280929190818152602001828054610221906109bf565b801561026c5780601f106102435761010080835404028352916020019161026c565b820191905f5260205f20905b81548152906001019060200180831161024f57829003601f168201915b505050505090806001018054610281906109bf565b80601f01602080910402602001604051908101604052809291908181526020018280546102ad906109bf565b80156102f85780601f106102cf576101008083540402835291602001916102f8565b820191905f5260205f20905b8154815290600101906020018083116102db57829003601f168201915b505050505090806002015490806003015490806004015490806005015490806006015f9054906101000a900460ff16908060060160019054906101000a900460ff16905088565b60015f9054906101000a900473ffffffffffffffffffffffffffffffffffffffff1673ffffffffffffffffffffffffffffffffffffffff163373ffffffffffffffffffffffffffffffffffffffff16146103ce576040517f08c379a00000000000000000000000000000000000000000000000000000000081526004016103c590610974565b60405180910390fd5b6103d75f6105a2565b5f6103e15f6105b6565b905060405180610100016040528087878080601f0160208091040260200160405190810160405280939291908181526020018383808284375f81840152601f19601f82011690508083019250505050505050815260200185858080601f0160208091040260200160405190810160405280939291908181526020018383808284375f81840152601f19601f8201169050808301925050505050505081526020015f81526020015f81526020015f81526020018381526020015f151581526020016001151581525060025f8381526020019081526020015f205f820151815f0190816104cc9190610bb9565b5060208201518160010190816104e29190610bb9565b5060408201518160020155606082015181600301556080820151816004015560a0820151816005015560c0820151816006015f6101000a81548160ff02191690831515021790555060e08201518160060160016101000a81548160ff021916908315150217905550905050505050505050565b60015f9054906101000a900473ffffffffffffffffffffffffffffffffffffffff1681565b5f60015f9054906101000a900473ffffffffffffffffffffffffffffffffffffffff16905090565b6001815f015f828254019250508190555050565b5f815f01549050919050565b5f80fd5b5f80fd5b5f73ffffffffffffffffffffffffffffffffffffffff82169050919050565b5f6105f3826105ca565b9050919050565b610603816105e9565b811461060d575f80fd5b50565b5f8135905061061e816105fa565b92915050565b5f60208284031215610639576106386105c2565b5b5f61064684828501610610565b91505092915050565b5f819050919050565b6106618161064f565b811461066b575f80fd5b50565b5f8135905061067c81610658565b92915050565b5f60208284031215610697576106966105c2565b5b5f6106a48482850161066e565b91505092915050565b5f81519050919050565b5f82825260208201905092915050565b5f5b838110156106e45780820151818401526020810190506106c9565b5f8484015250505050565b5f601f19601f8301169050919050565b5f610709826106ad565b61071381856106b7565b93506107238185602086016106c7565b61072c816106ef565b840191505092915050565b6107408161064f565b82525050565b5f8115159050919050565b61075a81610746565b82525050565b5f610100820190508181035f830152610779818b6106ff565b9050818103602083015261078d818a6106ff565b905061079c6040830189610737565b6107a96060830188610737565b6107b66080830187610737565b6107c360a0830186610737565b6107d060c0830185610751565b6107dd60e0830184610751565b9998505050505050505050565b5f80fd5b5f80fd5b5f80fd5b5f8083601f84011261080b5761080a6107ea565b5b8235905067ffffffffffffffff811115610828576108276107ee565b5b602083019150836001820283011115610844576108436107f2565b5b9250929050565b5f805f805f60608688031215610864576108636105c2565b5b5f86013567ffffffffffffffff811115610881576108806105c6565b5b61088d888289016107f6565b9550955050602086013567ffffffffffffffff8111156108b0576108af6105c6565b5b6108bc888289016107f6565b935093505060406108cf8882890161066e565b9150509295509295909350565b6108e5816105e9565b82525050565b5f6020820190506108fe5f8301846108dc565b92915050565b7f4f6e6c79206f776e65722063616e2063616c6c20746869732066756e6374696f5f8201527f6e00000000000000000000000000000000000000000000000000000000000000602082015250565b5f61095e6021836106b7565b915061096982610904565b604082019050919050565b5f6020820190508181035f83015261098b81610952565b9050919050565b7f4e487b71000000000000000000000000000000000000000000000000000000005f52602260045260245ffd5b5f60028204905060018216806109d657607f821691505b6020821081036109e9576109e8610992565b5b50919050565b7f4e487b71000000000000000000000000000000000000000000000000000000005f52604160045260245ffd5b5f819050815f5260205f209050919050565b5f6020601f8301049050919050565b5f82821b905092915050565b5f60088302610a787fffffffffffffffffffffffffffffffffffffffffffffffffffffffffffffffff82610a3d565b610a828683610a3d565b95508019841693508086168417925050509392505050565b5f819050919050565b5f610abd610ab8610ab38461064f565b610a9a565b61064f565b9050919050565b5f819050919050565b610ad683610aa3565b610aea610ae282610ac4565b848454610a49565b825550505050565b5f90565b610afe610af2565b610b09818484610acd565b505050565b5b81811015610b2c57610b215f82610af6565b600181019050610b0f565b5050565b601f821115610b7157610b4281610a1c565b610b4b84610a2e565b81016020851015610b5a578190505b610b6e610b6685610a2e565b830182610b0e565b50505b505050565b5f82821c905092915050565b5f610b915f1984600802610b76565b1980831691505092915050565b5f610ba98383610b82565b9150826002028217905092915050565b610bc2826106ad565b67ffffffffffffffff811115610bdb57610bda6109ef565b5b610be582546109bf565b610bf0828285610b30565b5f60209050601f831160018114610c21575f8415610c0f578287015190505b610c198582610b9e565b865550610c80565b601f198416610c2f86610a1c565b5f5b82811015610c5657848901518255600182019150602085019450602081019050610c31565b86831015610c735784890151610c6f601f891682610b82565b8355505b6001600288020188555050505b50505050505056fea26469706673582212204a5b0385d3cbc65ced83a778a522fb6e4c53b0bf9eb88c24d4bed188c4a889ea64736f6c63430008160033",
					"opcodes": "PUSH1 0x80 PUSH1 0x40 MSTORE CALLVALUE DUP1 ISZERO PUSH2 0xF JUMPI PUSH0 DUP1 REVERT JUMPDEST POP CALLER PUSH1 0x1 PUSH0 PUSH2 0x100 EXP DUP2 SLOAD DUP2 PUSH20 0xFFFFFFFFFFFFFFFFFFFFFFFFFFFFFFFFFFFFFFFF MUL NOT AND SWAP1 DUP4 PUSH20 0xFFFFFFFFFFFFFFFFFFFFFFFFFFFFFFFFFFFFFFFF AND MUL OR SWAP1 SSTORE POP PUSH2 0xCBE DUP1 PUSH2 0x5D PUSH0 CODECOPY PUSH0 RETURN INVALID PUSH1 0x80 PUSH1 0x40 MSTORE CALLVALUE DUP1 ISZERO PUSH2 0xF JUMPI PUSH0 DUP1 REVERT JUMPDEST POP PUSH1 0x4 CALLDATASIZE LT PUSH2 0x55 JUMPI PUSH0 CALLDATALOAD PUSH1 0xE0 SHR DUP1 PUSH4 0x13AF4035 EQ PUSH2 0x59 JUMPI DUP1 PUSH4 0x1C7E379F EQ PUSH2 0x75 JUMPI DUP1 PUSH4 0x3CA6D100 EQ PUSH2 0xAC JUMPI DUP1 PUSH4 0x8DA5CB5B EQ PUSH2 0xC8 JUMPI DUP1 PUSH4 0xBC677B46 EQ PUSH2 0xE6 JUMPI JUMPDEST PUSH0 DUP1 REVERT JUMPDEST PUSH2 0x73 PUSH1 0x4 DUP1 CALLDATASIZE SUB DUP2 ADD SWAP1 PUSH2 0x6E SWAP2 SWAP1 PUSH2 0x624 JUMP JUMPDEST PUSH2 0x104 JUMP JUMPDEST STOP JUMPDEST PUSH2 0x8F PUSH1 0x4 DUP1 CALLDATASIZE SUB DUP2 ADD SWAP1 PUSH2 0x8A SWAP2 SWAP1 PUSH2 0x682 JUMP JUMPDEST PUSH2 0x1D6 JUMP JUMPDEST PUSH1 0x40 MLOAD PUSH2 0xA3 SWAP9 SWAP8 SWAP7 SWAP6 SWAP5 SWAP4 SWAP3 SWAP2 SWAP1 PUSH2 0x760 JUMP JUMPDEST PUSH1 0x40 MLOAD DUP1 SWAP2 SUB SWAP1 RETURN JUMPDEST PUSH2 0xC6 PUSH1 0x4 DUP1 CALLDATASIZE SUB DUP2 ADD SWAP1 PUSH2 0xC1 SWAP2 SWAP1 PUSH2 0x84B JUMP JUMPDEST PUSH2 0x33F JUMP JUMPDEST STOP JUMPDEST PUSH2 0xD0 PUSH2 0x555 JUMP JUMPDEST PUSH1 0x40 MLOAD PUSH2 0xDD SWAP2 SWAP1 PUSH2 0x8EB JUMP JUMPDEST PUSH1 0x40 MLOAD DUP1 SWAP2 SUB SWAP1 RETURN JUMPDEST PUSH2 0xEE PUSH2 0x57A JUMP JUMPDEST PUSH1 0x40 MLOAD PUSH2 0xFB SWAP2 SWAP1 PUSH2 0x8EB JUMP JUMPDEST PUSH1 0x40 MLOAD DUP1 SWAP2 SUB SWAP1 RETURN JUMPDEST PUSH1 0x1 PUSH0 SWAP1 SLOAD SWAP1 PUSH2 0x100 EXP SWAP1 DIV PUSH20 0xFFFFFFFFFFFFFFFFFFFFFFFFFFFFFFFFFFFFFFFF AND PUSH20 0xFFFFFFFFFFFFFFFFFFFFFFFFFFFFFFFFFFFFFFFF AND CALLER PUSH20 0xFFFFFFFFFFFFFFFFFFFFFFFFFFFFFFFFFFFFFFFF AND EQ PUSH2 0x193 JUMPI PUSH1 0x40 MLOAD PUSH32 0x8C379A000000000000000000000000000000000000000000000000000000000 DUP2 MSTORE PUSH1 0x4 ADD PUSH2 0x18A SWAP1 PUSH2 0x974 JUMP JUMPDEST PUSH1 0x40 MLOAD DUP1 SWAP2 SUB SWAP1 REVERT JUMPDEST DUP1 PUSH1 0x1 PUSH0 PUSH2 0x100 EXP DUP2 SLOAD DUP2 PUSH20 0xFFFFFFFFFFFFFFFFFFFFFFFFFFFFFFFFFFFFFFFF MUL NOT AND SWAP1 DUP4 PUSH20 0xFFFFFFFFFFFFFFFFFFFFFFFFFFFFFFFFFFFFFFFF AND MUL OR SWAP1 SSTORE POP POP JUMP JUMPDEST PUSH1 0x2 PUSH1 0x20 MSTORE DUP1 PUSH0 MSTORE PUSH1 0x40 PUSH0 KECCAK256 PUSH0 SWAP2 POP SWAP1 POP DUP1 PUSH0 ADD DUP1 SLOAD PUSH2 0x1F5 SWAP1 PUSH2 0x9BF JUMP JUMPDEST DUP1 PUSH1 0x1F ADD PUSH1 0x20 DUP1 SWAP2 DIV MUL PUSH1 0x20 ADD PUSH1 0x40 MLOAD SWAP1 DUP2 ADD PUSH1 0x40 MSTORE DUP1 SWAP3 SWAP2 SWAP1 DUP2 DUP2 MSTORE PUSH1 0x20 ADD DUP3 DUP1 SLOAD PUSH2 0x221 SWAP1 PUSH2 0x9BF JUMP JUMPDEST DUP1 ISZERO PUSH2 0x26C JUMPI DUP1 PUSH1 0x1F LT PUSH2 0x243 JUMPI PUSH2 0x100 DUP1 DUP4 SLOAD DIV MUL DUP4 MSTORE SWAP2 PUSH1 0x20 ADD SWAP2 PUSH2 0x26C JUMP JUMPDEST DUP3 ADD SWAP2 SWAP1 PUSH0 MSTORE PUSH1 0x20 PUSH0 KECCAK256 SWAP1 JUMPDEST DUP2 SLOAD DUP2 MSTORE SWAP1 PUSH1 0x1 ADD SWAP1 PUSH1 0x20 ADD DUP1 DUP4 GT PUSH2 0x24F JUMPI DUP3 SWAP1 SUB PUSH1 0x1F AND DUP3 ADD SWAP2 JUMPDEST POP POP POP POP POP SWAP1 DUP1 PUSH1 0x1 ADD DUP1 SLOAD PUSH2 0x281 SWAP1 PUSH2 0x9BF JUMP JUMPDEST DUP1 PUSH1 0x1F ADD PUSH1 0x20 DUP1 SWAP2 DIV MUL PUSH1 0x20 ADD PUSH1 0x40 MLOAD SWAP1 DUP2 ADD PUSH1 0x40 MSTORE DUP1 SWAP3 SWAP2 SWAP1 DUP2 DUP2 MSTORE PUSH1 0x20 ADD DUP3 DUP1 SLOAD PUSH2 0x2AD SWAP1 PUSH2 0x9BF JUMP JUMPDEST DUP1 ISZERO PUSH2 0x2F8 JUMPI DUP1 PUSH1 0x1F LT PUSH2 0x2CF JUMPI PUSH2 0x100 DUP1 DUP4 SLOAD DIV MUL DUP4 MSTORE SWAP2 PUSH1 0x20 ADD SWAP2 PUSH2 0x2F8 JUMP JUMPDEST DUP3 ADD SWAP2 SWAP1 PUSH0 MSTORE PUSH1 0x20 PUSH0 KECCAK256 SWAP1 JUMPDEST DUP2 SLOAD DUP2 MSTORE SWAP1 PUSH1 0x1 ADD SWAP1 PUSH1 0x20 ADD DUP1 DUP4 GT PUSH2 0x2DB JUMPI DUP3 SWAP1 SUB PUSH1 0x1F AND DUP3 ADD SWAP2 JUMPDEST POP POP POP POP POP SWAP1 DUP1 PUSH1 0x2 ADD SLOAD SWAP1 DUP1 PUSH1 0x3 ADD SLOAD SWAP1 DUP1 PUSH1 0x4 ADD SLOAD SWAP1 DUP1 PUSH1 0x5 ADD SLOAD SWAP1 DUP1 PUSH1 0x6 ADD PUSH0 SWAP1 SLOAD SWAP1 PUSH2 0x100 EXP SWAP1 DIV PUSH1 0xFF AND SWAP1 DUP1 PUSH1 0x6 ADD PUSH1 0x1 SWAP1 SLOAD SWAP1 PUSH2 0x100 EXP SWAP1 DIV PUSH1 0xFF AND SWAP1 POP DUP9 JUMP JUMPDEST PUSH1 0x1 PUSH0 SWAP1 SLOAD SWAP1 PUSH2 0x100 EXP SWAP1 DIV PUSH20 0xFFFFFFFFFFFFFFFFFFFFFFFFFFFFFFFFFFFFFFFF AND PUSH20 0xFFFFFFFFFFFFFFFFFFFFFFFFFFFFFFFFFFFFFFFF AND CALLER PUSH20 0xFFFFFFFFFFFFFFFFFFFFFFFFFFFFFFFFFFFFFFFF AND EQ PUSH2 0x3CE JUMPI PUSH1 0x40 MLOAD PUSH32 0x8C379A000000000000000000000000000000000000000000000000000000000 DUP2 MSTORE PUSH1 0x4 ADD PUSH2 0x3C5 SWAP1 PUSH2 0x974 JUMP JUMPDEST PUSH1 0x40 MLOAD DUP1 SWAP2 SUB SWAP1 REVERT JUMPDEST PUSH2 0x3D7 PUSH0 PUSH2 0x5A2 JUMP JUMPDEST PUSH0 PUSH2 0x3E1 PUSH0 PUSH2 0x5B6 JUMP JUMPDEST SWAP1 POP PUSH1 0x40 MLOAD DUP1 PUSH2 0x100 ADD PUSH1 0x40 MSTORE DUP1 DUP8 DUP8 DUP1 DUP1 PUSH1 0x1F ADD PUSH1 0x20 DUP1 SWAP2 DIV MUL PUSH1 0x20 ADD PUSH1 0x40 MLOAD SWAP1 DUP2 ADD PUSH1 0x40 MSTORE DUP1 SWAP4 SWAP3 SWAP2 SWAP1 DUP2 DUP2 MSTORE PUSH1 0x20 ADD DUP4 DUP4 DUP1 DUP3 DUP5 CALLDATACOPY PUSH0 DUP2 DUP5 ADD MSTORE PUSH1 0x1F NOT PUSH1 0x1F DUP3 ADD AND SWAP1 POP DUP1 DUP4 ADD SWAP3 POP POP POP POP POP POP POP DUP2 MSTORE PUSH1 0x20 ADD DUP6 DUP6 DUP1 DUP1 PUSH1 0x1F ADD PUSH1 0x20 DUP1 SWAP2 DIV MUL PUSH1 0x20 ADD PUSH1 0x40 MLOAD SWAP1 DUP2 ADD PUSH1 0x40 MSTORE DUP1 SWAP4 SWAP3 SWAP2 SWAP1 DUP2 DUP2 MSTORE PUSH1 0x20 ADD DUP4 DUP4 DUP1 DUP3 DUP5 CALLDATACOPY PUSH0 DUP2 DUP5 ADD MSTORE PUSH1 0x1F NOT PUSH1 0x1F DUP3 ADD AND SWAP1 POP DUP1 DUP4 ADD SWAP3 POP POP POP POP POP POP POP DUP2 MSTORE PUSH1 0x20 ADD PUSH0 DUP2 MSTORE PUSH1 0x20 ADD PUSH0 DUP2 MSTORE PUSH1 0x20 ADD PUSH0 DUP2 MSTORE PUSH1 0x20 ADD DUP4 DUP2 MSTORE PUSH1 0x20 ADD PUSH0 ISZERO ISZERO DUP2 MSTORE PUSH1 0x20 ADD PUSH1 0x1 ISZERO ISZERO DUP2 MSTORE POP PUSH1 0x2 PUSH0 DUP4 DUP2 MSTORE PUSH1 0x20 ADD SWAP1 DUP2 MSTORE PUSH1 0x20 ADD PUSH0 KECCAK256 PUSH0 DUP3 ADD MLOAD DUP2 PUSH0 ADD SWAP1 DUP2 PUSH2 0x4CC SWAP2 SWAP1 PUSH2 0xBB9 JUMP JUMPDEST POP PUSH1 0x20 DUP3 ADD MLOAD DUP2 PUSH1 0x1 ADD SWAP1 DUP2 PUSH2 0x4E2 SWAP2 SWAP1 PUSH2 0xBB9 JUMP JUMPDEST POP PUSH1 0x40 DUP3 ADD MLOAD DUP2 PUSH1 0x2 ADD SSTORE PUSH1 0x60 DUP3 ADD MLOAD DUP2 PUSH1 0x3 ADD SSTORE PUSH1 0x80 DUP3 ADD MLOAD DUP2 PUSH1 0x4 ADD SSTORE PUSH1 0xA0 DUP3 ADD MLOAD DUP2 PUSH1 0x5 ADD SSTORE PUSH1 0xC0 DUP3 ADD MLOAD DUP2 PUSH1 0x6 ADD PUSH0 PUSH2 0x100 EXP DUP2 SLOAD DUP2 PUSH1 0xFF MUL NOT AND SWAP1 DUP4 ISZERO ISZERO MUL OR SWAP1 SSTORE POP PUSH1 0xE0 DUP3 ADD MLOAD DUP2 PUSH1 0x6 ADD PUSH1 0x1 PUSH2 0x100 EXP DUP2 SLOAD DUP2 PUSH1 0xFF MUL NOT AND SWAP1 DUP4 ISZERO ISZERO MUL OR SWAP1 SSTORE POP SWAP1 POP POP POP POP POP POP POP POP JUMP JUMPDEST PUSH1 0x1 PUSH0 SWAP1 SLOAD SWAP1 PUSH2 0x100 EXP SWAP1 DIV PUSH20 0xFFFFFFFFFFFFFFFFFFFFFFFFFFFFFFFFFFFFFFFF AND DUP2 JUMP JUMPDEST PUSH0 PUSH1 0x1 PUSH0 SWAP1 SLOAD SWAP1 PUSH2 0x100 EXP SWAP1 DIV PUSH20 0xFFFFFFFFFFFFFFFFFFFFFFFFFFFFFFFFFFFFFFFF AND SWAP1 POP SWAP1 JUMP JUMPDEST PUSH1 0x1 DUP2 PUSH0 ADD PUSH0 DUP3 DUP3 SLOAD ADD SWAP3 POP POP DUP2 SWAP1 SSTORE POP POP JUMP JUMPDEST PUSH0 DUP2 PUSH0 ADD SLOAD SWAP1 POP SWAP2 SWAP1 POP JUMP JUMPDEST PUSH0 DUP1 REVERT JUMPDEST PUSH0 DUP1 REVERT JUMPDEST PUSH0 PUSH20 0xFFFFFFFFFFFFFFFFFFFFFFFFFFFFFFFFFFFFFFFF DUP3 AND SWAP1 POP SWAP2 SWAP1 POP JUMP JUMPDEST PUSH0 PUSH2 0x5F3 DUP3 PUSH2 0x5CA JUMP JUMPDEST SWAP1 POP SWAP2 SWAP1 POP JUMP JUMPDEST PUSH2 0x603 DUP2 PUSH2 0x5E9 JUMP JUMPDEST DUP2 EQ PUSH2 0x60D JUMPI PUSH0 DUP1 REVERT JUMPDEST POP JUMP JUMPDEST PUSH0 DUP2 CALLDATALOAD SWAP1 POP PUSH2 0x61E DUP2 PUSH2 0x5FA JUMP JUMPDEST SWAP3 SWAP2 POP POP JUMP JUMPDEST PUSH0 PUSH1 0x20 DUP3 DUP5 SUB SLT ISZERO PUSH2 0x639 JUMPI PUSH2 0x638 PUSH2 0x5C2 JUMP JUMPDEST JUMPDEST PUSH0 PUSH2 0x646 DUP5 DUP3 DUP6 ADD PUSH2 0x610 JUMP JUMPDEST SWAP2 POP POP SWAP3 SWAP2 POP POP JUMP JUMPDEST PUSH0 DUP2 SWAP1 POP SWAP2 SWAP1 POP JUMP JUMPDEST PUSH2 0x661 DUP2 PUSH2 0x64F JUMP JUMPDEST DUP2 EQ PUSH2 0x66B JUMPI PUSH0 DUP1 REVERT JUMPDEST POP JUMP JUMPDEST PUSH0 DUP2 CALLDATALOAD SWAP1 POP PUSH2 0x67C DUP2 PUSH2 0x658 JUMP JUMPDEST SWAP3 SWAP2 POP POP JUMP JUMPDEST PUSH0 PUSH1 0x20 DUP3 DUP5 SUB SLT ISZERO PUSH2 0x697 JUMPI PUSH2 0x696 PUSH2 0x5C2 JUMP JUMPDEST JUMPDEST PUSH0 PUSH2 0x6A4 DUP5 DUP3 DUP6 ADD PUSH2 0x66E JUMP JUMPDEST SWAP2 POP POP SWAP3 SWAP2 POP POP JUMP JUMPDEST PUSH0 DUP2 MLOAD SWAP1 POP SWAP2 SWAP1 POP JUMP JUMPDEST PUSH0 DUP3 DUP3 MSTORE PUSH1 0x20 DUP3 ADD SWAP1 POP SWAP3 SWAP2 POP POP JUMP JUMPDEST PUSH0 JUMPDEST DUP4 DUP2 LT ISZERO PUSH2 0x6E4 JUMPI DUP1 DUP3 ADD MLOAD DUP2 DUP5 ADD MSTORE PUSH1 0x20 DUP2 ADD SWAP1 POP PUSH2 0x6C9 JUMP JUMPDEST PUSH0 DUP5 DUP5 ADD MSTORE POP POP POP POP JUMP JUMPDEST PUSH0 PUSH1 0x1F NOT PUSH1 0x1F DUP4 ADD AND SWAP1 POP SWAP2 SWAP1 POP JUMP JUMPDEST PUSH0 PUSH2 0x709 DUP3 PUSH2 0x6AD JUMP JUMPDEST PUSH2 0x713 DUP2 DUP6 PUSH2 0x6B7 JUMP JUMPDEST SWAP4 POP PUSH2 0x723 DUP2 DUP6 PUSH1 0x20 DUP7 ADD PUSH2 0x6C7 JUMP JUMPDEST PUSH2 0x72C DUP2 PUSH2 0x6EF JUMP JUMPDEST DUP5 ADD SWAP2 POP POP SWAP3 SWAP2 POP POP JUMP JUMPDEST PUSH2 0x740 DUP2 PUSH2 0x64F JUMP JUMPDEST DUP3 MSTORE POP POP JUMP JUMPDEST PUSH0 DUP2 ISZERO ISZERO SWAP1 POP SWAP2 SWAP1 POP JUMP JUMPDEST PUSH2 0x75A DUP2 PUSH2 0x746 JUMP JUMPDEST DUP3 MSTORE POP POP JUMP JUMPDEST PUSH0 PUSH2 0x100 DUP3 ADD SWAP1 POP DUP2 DUP2 SUB PUSH0 DUP4 ADD MSTORE PUSH2 0x779 DUP2 DUP12 PUSH2 0x6FF JUMP JUMPDEST SWAP1 POP DUP2 DUP2 SUB PUSH1 0x20 DUP4 ADD MSTORE PUSH2 0x78D DUP2 DUP11 PUSH2 0x6FF JUMP JUMPDEST SWAP1 POP PUSH2 0x79C PUSH1 0x40 DUP4 ADD DUP10 PUSH2 0x737 JUMP JUMPDEST PUSH2 0x7A9 PUSH1 0x60 DUP4 ADD DUP9 PUSH2 0x737 JUMP JUMPDEST PUSH2 0x7B6 PUSH1 0x80 DUP4 ADD DUP8 PUSH2 0x737 JUMP JUMPDEST PUSH2 0x7C3 PUSH1 0xA0 DUP4 ADD DUP7 PUSH2 0x737 JUMP JUMPDEST PUSH2 0x7D0 PUSH1 0xC0 DUP4 ADD DUP6 PUSH2 0x751 JUMP JUMPDEST PUSH2 0x7DD PUSH1 0xE0 DUP4 ADD DUP5 PUSH2 0x751 JUMP JUMPDEST SWAP10 SWAP9 POP POP POP POP POP POP POP POP POP JUMP JUMPDEST PUSH0 DUP1 REVERT JUMPDEST PUSH0 DUP1 REVERT JUMPDEST PUSH0 DUP1 REVERT JUMPDEST PUSH0 DUP1 DUP4 PUSH1 0x1F DUP5 ADD SLT PUSH2 0x80B JUMPI PUSH2 0x80A PUSH2 0x7EA JUMP JUMPDEST JUMPDEST DUP3 CALLDATALOAD SWAP1 POP PUSH8 0xFFFFFFFFFFFFFFFF DUP2 GT ISZERO PUSH2 0x828 JUMPI PUSH2 0x827 PUSH2 0x7EE JUMP JUMPDEST JUMPDEST PUSH1 0x20 DUP4 ADD SWAP2 POP DUP4 PUSH1 0x1 DUP3 MUL DUP4 ADD GT ISZERO PUSH2 0x844 JUMPI PUSH2 0x843 PUSH2 0x7F2 JUMP JUMPDEST JUMPDEST SWAP3 POP SWAP3 SWAP1 POP JUMP JUMPDEST PUSH0 DUP1 PUSH0 DUP1 PUSH0 PUSH1 0x60 DUP7 DUP9 SUB SLT ISZERO PUSH2 0x864 JUMPI PUSH2 0x863 PUSH2 0x5C2 JUMP JUMPDEST JUMPDEST PUSH0 DUP7 ADD CALLDATALOAD PUSH8 0xFFFFFFFFFFFFFFFF DUP2 GT ISZERO PUSH2 0x881 JUMPI PUSH2 0x880 PUSH2 0x5C6 JUMP JUMPDEST JUMPDEST PUSH2 0x88D DUP9 DUP3 DUP10 ADD PUSH2 0x7F6 JUMP JUMPDEST SWAP6 POP SWAP6 POP POP PUSH1 0x20 DUP7 ADD CALLDATALOAD PUSH8 0xFFFFFFFFFFFFFFFF DUP2 GT ISZERO PUSH2 0x8B0 JUMPI PUSH2 0x8AF PUSH2 0x5C6 JUMP JUMPDEST JUMPDEST PUSH2 0x8BC DUP9 DUP3 DUP10 ADD PUSH2 0x7F6 JUMP JUMPDEST SWAP4 POP SWAP4 POP POP PUSH1 0x40 PUSH2 0x8CF DUP9 DUP3 DUP10 ADD PUSH2 0x66E JUMP JUMPDEST SWAP2 POP POP SWAP3 SWAP6 POP SWAP3 SWAP6 SWAP1 SWAP4 POP JUMP JUMPDEST PUSH2 0x8E5 DUP2 PUSH2 0x5E9 JUMP JUMPDEST DUP3 MSTORE POP POP JUMP JUMPDEST PUSH0 PUSH1 0x20 DUP3 ADD SWAP1 POP PUSH2 0x8FE PUSH0 DUP4 ADD DUP5 PUSH2 0x8DC JUMP JUMPDEST SWAP3 SWAP2 POP POP JUMP JUMPDEST PUSH32 0x4F6E6C79206F776E65722063616E2063616C6C20746869732066756E6374696F PUSH0 DUP3 ADD MSTORE PUSH32 0x6E00000000000000000000000000000000000000000000000000000000000000 PUSH1 0x20 DUP3 ADD MSTORE POP JUMP JUMPDEST PUSH0 PUSH2 0x95E PUSH1 0x21 DUP4 PUSH2 0x6B7 JUMP JUMPDEST SWAP2 POP PUSH2 0x969 DUP3 PUSH2 0x904 JUMP JUMPDEST PUSH1 0x40 DUP3 ADD SWAP1 POP SWAP2 SWAP1 POP JUMP JUMPDEST PUSH0 PUSH1 0x20 DUP3 ADD SWAP1 POP DUP2 DUP2 SUB PUSH0 DUP4 ADD MSTORE PUSH2 0x98B DUP2 PUSH2 0x952 JUMP JUMPDEST SWAP1 POP SWAP2 SWAP1 POP JUMP JUMPDEST PUSH32 0x4E487B7100000000000000000000000000000000000000000000000000000000 PUSH0 MSTORE PUSH1 0x22 PUSH1 0x4 MSTORE PUSH1 0x24 PUSH0 REVERT JUMPDEST PUSH0 PUSH1 0x2 DUP3 DIV SWAP1 POP PUSH1 0x1 DUP3 AND DUP1 PUSH2 0x9D6 JUMPI PUSH1 0x7F DUP3 AND SWAP2 POP JUMPDEST PUSH1 0x20 DUP3 LT DUP2 SUB PUSH2 0x9E9 JUMPI PUSH2 0x9E8 PUSH2 0x992 JUMP JUMPDEST JUMPDEST POP SWAP2 SWAP1 POP JUMP JUMPDEST PUSH32 0x4E487B7100000000000000000000000000000000000000000000000000000000 PUSH0 MSTORE PUSH1 0x41 PUSH1 0x4 MSTORE PUSH1 0x24 PUSH0 REVERT JUMPDEST PUSH0 DUP2 SWAP1 POP DUP2 PUSH0 MSTORE PUSH1 0x20 PUSH0 KECCAK256 SWAP1 POP SWAP2 SWAP1 POP JUMP JUMPDEST PUSH0 PUSH1 0x20 PUSH1 0x1F DUP4 ADD DIV SWAP1 POP SWAP2 SWAP1 POP JUMP JUMPDEST PUSH0 DUP3 DUP3 SHL SWAP1 POP SWAP3 SWAP2 POP POP JUMP JUMPDEST PUSH0 PUSH1 0x8 DUP4 MUL PUSH2 0xA78 PUSH32 0xFFFFFFFFFFFFFFFFFFFFFFFFFFFFFFFFFFFFFFFFFFFFFFFFFFFFFFFFFFFFFFFF DUP3 PUSH2 0xA3D JUMP JUMPDEST PUSH2 0xA82 DUP7 DUP4 PUSH2 0xA3D JUMP JUMPDEST SWAP6 POP DUP1 NOT DUP5 AND SWAP4 POP DUP1 DUP7 AND DUP5 OR SWAP3 POP POP POP SWAP4 SWAP3 POP POP POP JUMP JUMPDEST PUSH0 DUP2 SWAP1 POP SWAP2 SWAP1 POP JUMP JUMPDEST PUSH0 PUSH2 0xABD PUSH2 0xAB8 PUSH2 0xAB3 DUP5 PUSH2 0x64F JUMP JUMPDEST PUSH2 0xA9A JUMP JUMPDEST PUSH2 0x64F JUMP JUMPDEST SWAP1 POP SWAP2 SWAP1 POP JUMP JUMPDEST PUSH0 DUP2 SWAP1 POP SWAP2 SWAP1 POP JUMP JUMPDEST PUSH2 0xAD6 DUP4 PUSH2 0xAA3 JUMP JUMPDEST PUSH2 0xAEA PUSH2 0xAE2 DUP3 PUSH2 0xAC4 JUMP JUMPDEST DUP5 DUP5 SLOAD PUSH2 0xA49 JUMP JUMPDEST DUP3 SSTORE POP POP POP POP JUMP JUMPDEST PUSH0 SWAP1 JUMP JUMPDEST PUSH2 0xAFE PUSH2 0xAF2 JUMP JUMPDEST PUSH2 0xB09 DUP2 DUP5 DUP5 PUSH2 0xACD JUMP JUMPDEST POP POP POP JUMP JUMPDEST JUMPDEST DUP2 DUP2 LT ISZERO PUSH2 0xB2C JUMPI PUSH2 0xB21 PUSH0 DUP3 PUSH2 0xAF6 JUMP JUMPDEST PUSH1 0x1 DUP2 ADD SWAP1 POP PUSH2 0xB0F JUMP JUMPDEST POP POP JUMP JUMPDEST PUSH1 0x1F DUP3 GT ISZERO PUSH2 0xB71 JUMPI PUSH2 0xB42 DUP2 PUSH2 0xA1C JUMP JUMPDEST PUSH2 0xB4B DUP5 PUSH2 0xA2E JUMP JUMPDEST DUP2 ADD PUSH1 0x20 DUP6 LT ISZERO PUSH2 0xB5A JUMPI DUP2 SWAP1 POP JUMPDEST PUSH2 0xB6E PUSH2 0xB66 DUP6 PUSH2 0xA2E JUMP JUMPDEST DUP4 ADD DUP3 PUSH2 0xB0E JUMP JUMPDEST POP POP JUMPDEST POP POP POP JUMP JUMPDEST PUSH0 DUP3 DUP3 SHR SWAP1 POP SWAP3 SWAP2 POP POP JUMP JUMPDEST PUSH0 PUSH2 0xB91 PUSH0 NOT DUP5 PUSH1 0x8 MUL PUSH2 0xB76 JUMP JUMPDEST NOT DUP1 DUP4 AND SWAP2 POP POP SWAP3 SWAP2 POP POP JUMP JUMPDEST PUSH0 PUSH2 0xBA9 DUP4 DUP4 PUSH2 0xB82 JUMP JUMPDEST SWAP2 POP DUP3 PUSH1 0x2 MUL DUP3 OR SWAP1 POP SWAP3 SWAP2 POP POP JUMP JUMPDEST PUSH2 0xBC2 DUP3 PUSH2 0x6AD JUMP JUMPDEST PUSH8 0xFFFFFFFFFFFFFFFF DUP2 GT ISZERO PUSH2 0xBDB JUMPI PUSH2 0xBDA PUSH2 0x9EF JUMP JUMPDEST JUMPDEST PUSH2 0xBE5 DUP3 SLOAD PUSH2 0x9BF JUMP JUMPDEST PUSH2 0xBF0 DUP3 DUP3 DUP6 PUSH2 0xB30 JUMP JUMPDEST PUSH0 PUSH1 0x20 SWAP1 POP PUSH1 0x1F DUP4 GT PUSH1 0x1 DUP2 EQ PUSH2 0xC21 JUMPI PUSH0 DUP5 ISZERO PUSH2 0xC0F JUMPI DUP3 DUP8 ADD MLOAD SWAP1 POP JUMPDEST PUSH2 0xC19 DUP6 DUP3 PUSH2 0xB9E JUMP JUMPDEST DUP7 SSTORE POP PUSH2 0xC80 JUMP JUMPDEST PUSH1 0x1F NOT DUP5 AND PUSH2 0xC2F DUP7 PUSH2 0xA1C JUMP JUMPDEST PUSH0 JUMPDEST DUP3 DUP2 LT ISZERO PUSH2 0xC56 JUMPI DUP5 DUP10 ADD MLOAD DUP3 SSTORE PUSH1 0x1 DUP3 ADD SWAP2 POP PUSH1 0x20 DUP6 ADD SWAP5 POP PUSH1 0x20 DUP2 ADD SWAP1 POP PUSH2 0xC31 JUMP JUMPDEST DUP7 DUP4 LT ISZERO PUSH2 0xC73 JUMPI DUP5 DUP10 ADD MLOAD PUSH2 0xC6F PUSH1 0x1F DUP10 AND DUP3 PUSH2 0xB82 JUMP JUMPDEST DUP4 SSTORE POP JUMPDEST PUSH1 0x1 PUSH1 0x2 DUP9 MUL ADD DUP9 SSTORE POP POP POP JUMPDEST POP POP POP POP POP POP JUMP INVALID LOG2 PUSH5 0x6970667358 0x22 SLT KECCAK256 0x4A JUMPDEST SUB DUP6 0xD3 0xCB 0xC6 0x5C 0xED DUP4 0xA7 PUSH25 0xA522FB6E4C53B0BF9EB88C24D4BED188C4A889EA64736F6C63 NUMBER STOP ADDMOD AND STOP CALLER "
				},
				"gasEstimates": {
					"creation": {
						"codeDepositCost": "652400",
						"executionCost": "24946",
						"totalCost": "677346"
					},
					"external": {
						"create(string,string,uint256)": "infinite",
						"owner()": "2552",
						"proposalHistory(uint256)": "infinite",
						"setOwner(address)": "26862",
						"viewOwner()": "2581"
					}
				},
				"methodIdentifiers": {
					"create(string,string,uint256)": "3ca6d100",
					"owner()": "8da5cb5b",
					"proposalHistory(uint256)": "1c7e379f",
					"setOwner(address)": "13af4035",
					"viewOwner()": "bc677b46"
				}
			},
			"storageLayout": {
				"storage": [
					{
						"astId": 83,
						"contract": "Contracts/Prop.sol:ProposalContract",
						"label": "_counter",
						"offset": 0,
						"slot": "0",
						"type": "t_struct(Counter)5_storage"
					},
					{
						"astId": 85,
						"contract": "Contracts/Prop.sol:ProposalContract",
						"label": "owner",
						"offset": 0,
						"slot": "1",
						"type": "t_address"
					},
					{
						"astId": 128,
						"contract": "Contracts/Prop.sol:ProposalContract",
						"label": "proposalHistory",
						"offset": 0,
						"slot": "2",
						"type": "t_mapping(t_uint256,t_struct(Proposal)123_storage)"
					}
				],
				"types": {
					"t_address": {
						"encoding": "inplace",
						"label": "address",
						"numberOfBytes": "20"
					},
					"t_bool": {
						"encoding": "inplace",
						"label": "bool",
						"numberOfBytes": "1"
					},
					"t_mapping(t_uint256,t_struct(Proposal)123_storage)": {
						"encoding": "mapping",
						"key": "t_uint256",
						"label": "mapping(uint256 => struct ProposalContract.Proposal)",
						"numberOfBytes": "32",
						"value": "t_struct(Proposal)123_storage"
					},
					"t_string_storage": {
						"encoding": "bytes",
						"label": "string",
						"numberOfBytes": "32"
					},
					"t_struct(Counter)5_storage": {
						"encoding": "inplace",
						"label": "struct Counters.Counter",
						"members": [
							{
								"astId": 4,
								"contract": "Contracts/Prop.sol:ProposalContract",
								"label": "_value",
								"offset": 0,
								"slot": "0",
								"type": "t_uint256"
							}
						],
						"numberOfBytes": "32"
					},
					"t_struct(Proposal)123_storage": {
						"encoding": "inplace",
						"label": "struct ProposalContract.Proposal",
						"members": [
							{
								"astId": 108,
								"contract": "Contracts/Prop.sol:ProposalContract",
								"label": "title",
								"offset": 0,
								"slot": "0",
								"type": "t_string_storage"
							},
							{
								"astId": 110,
								"contract": "Contracts/Prop.sol:ProposalContract",
								"label": "description",
								"offset": 0,
								"slot": "1",
								"type": "t_string_storage"
							},
							{
								"astId": 112,
								"contract": "Contracts/Prop.sol:ProposalContract",
								"label": "approve",
								"offset": 0,
								"slot": "2",
								"type": "t_uint256"
							},
							{
								"astId": 114,
								"contract": "Contracts/Prop.sol:ProposalContract",
								"label": "reject",
								"offset": 0,
								"slot": "3",
								"type": "t_uint256"
							},
							{
								"astId": 116,
								"contract": "Contracts/Prop.sol:ProposalContract",
								"label": "pass",
								"offset": 0,
								"slot": "4",
								"type": "t_uint256"
							},
							{
								"astId": 118,
								"contract": "Contracts/Prop.sol:ProposalContract",
								"label": "totalVoteToEnd",
								"offset": 0,
								"slot": "5",
								"type": "t_uint256"
							},
							{
								"astId": 120,
								"contract": "Contracts/Prop.sol:ProposalContract",
								"label": "currentState",
								"offset": 0,
								"slot": "6",
								"type": "t_bool"
							},
							{
								"astId": 122,
								"contract": "Contracts/Prop.sol:ProposalContract",
								"label": "isActive",
								"offset": 1,
								"slot": "6",
								"type": "t_bool"
							}
						],
						"numberOfBytes": "224"
					},
					"t_uint256": {
						"encoding": "inplace",
						"label": "uint256",
						"numberOfBytes": "32"
					}
				}
			},
			"userdoc": {
				"kind": "user",
				"methods": {},
				"version": 1
			}
		}
	}
}