{
	"Contracts/Proposal.sol": {
		"ProposalContract": {
			"abi": [
				{
					"inputs": [],
					"stateMutability": "nonpayable",
					"type": "constructor"
				},
				{
					"inputs": [
						{
							"internalType": "string",
							"name": "title",
							"type": "string"
						},
						{
							"internalType": "string",
							"name": "description",
							"type": "string"
						},
						{
							"internalType": "uint256",
							"name": "totalVoteToEnd",
							"type": "uint256"
						}
					],
					"name": "create",
					"outputs": [],
					"stateMutability": "nonpayable",
					"type": "function"
				},
				{
					"inputs": [
						{
							"internalType": "uint256",
							"name": "",
							"type": "uint256"
						}
					],
					"name": "proposalHistory",
					"outputs": [
						{
							"internalType": "string",
							"name": "title",
							"type": "string"
						},
						{
							"internalType": "string",
							"name": "description",
							"type": "string"
						},
						{
							"internalType": "uint256",
							"name": "approve",
							"type": "uint256"
						},
						{
							"internalType": "uint256",
							"name": "reject",
							"type": "uint256"
						},
						{
							"internalType": "uint256",
							"name": "pass",
							"type": "uint256"
						},
						{
							"internalType": "uint256",
							"name": "totalVoteToEnd",
							"type": "uint256"
						},
						{
							"internalType": "bool",
							"name": "currentState",
							"type": "bool"
						},
						{
							"internalType": "bool",
							"name": "isActive",
							"type": "bool"
						}
					],
					"stateMutability": "view",
					"type": "function"
				},
				{
					"inputs": [
						{
							"internalType": "address",
							"name": "new_owner",
							"type": "address"
						}
					],
					"name": "setOwner",
					"outputs": [],
					"stateMutability": "nonpayable",
					"type": "function"
				},
				{
					"inputs": [],
					"name": "viewOwner",
					"outputs": [
						{
							"internalType": "address",
							"name": "",
							"type": "address"
						}
					],
					"stateMutability": "view",
					"type": "function"
				},
				{
					"inputs": [
						{
							"internalType": "uint8",
							"name": "choice",
							"type": "uint8"
						}
					],
					"name": "vote",
					"outputs": [],
					"stateMutability": "nonpayable",
					"type": "function"
				}
			],
			"devdoc": {
				"kind": "dev",
				"methods": {},
				"version": 1
			},
			"evm": {
				"assembly": "    /* \"Contracts/Proposal.sol\":113:1715  contract ProposalContract {... */\n  mstore(0x40, 0x80)\n    /* \"Contracts/Proposal.sol\":246:319  constructor (){... */\n  callvalue\n  dup1\n  iszero\n  tag_1\n  jumpi\n  0x00\n  dup1\n  revert\ntag_1:\n  pop\n    /* \"Contracts/Proposal.sol\":278:288  msg.sender */\n  caller\n    /* \"Contracts/Proposal.sol\":270:275  owner */\n  0x01\n  0x00\n    /* \"Contracts/Proposal.sol\":270:288  owner = msg.sender */\n  0x0100\n  exp\n  dup2\n  sload\n  dup2\n  0xffffffffffffffffffffffffffffffffffffffff\n  mul\n  not\n  and\n  swap1\n  dup4\n  0xffffffffffffffffffffffffffffffffffffffff\n  and\n  mul\n  or\n  swap1\n  sstore\n  pop\n    /* \"Contracts/Proposal.sol\":113:1715  contract ProposalContract {... */\n  dataSize(sub_0)\n  dup1\n  dataOffset(sub_0)\n  0x00\n  codecopy\n  0x00\n  return\nstop\n\nsub_0: assembly {\n        /* \"Contracts/Proposal.sol\":113:1715  contract ProposalContract {... */\n      mstore(0x40, 0x80)\n      callvalue\n      dup1\n      iszero\n      tag_1\n      jumpi\n      0x00\n      dup1\n      revert\n    tag_1:\n      pop\n      jumpi(tag_2, lt(calldatasize, 0x04))\n      shr(0xe0, calldataload(0x00))\n      dup1\n      0x13af4035\n      eq\n      tag_3\n      jumpi\n      dup1\n      0x1c7e379f\n      eq\n      tag_4\n      jumpi\n      dup1\n      0x3ca6d100\n      eq\n      tag_5\n      jumpi\n      dup1\n      0xb3f98adc\n      eq\n      tag_6\n      jumpi\n      dup1\n      0xbc677b46\n      eq\n      tag_7\n      jumpi\n    tag_2:\n      0x00\n      dup1\n      revert\n        /* \"Contracts/Proposal.sol\":1463:1552  function setOwner(address new_owner) external onlyOwner{... */\n    tag_3:\n      tag_8\n      0x04\n      dup1\n      calldatasize\n      sub\n      dup2\n      add\n      swap1\n      tag_9\n      swap2\n      swap1\n      tag_10\n      jump\t// in\n    tag_9:\n      tag_11\n      jump\t// in\n    tag_8:\n      stop\n        /* \"Contracts/Proposal.sol\":1062:1113  mapping(uint256 => Proposal) public proposalHistory */\n    tag_4:\n      tag_12\n      0x04\n      dup1\n      calldatasize\n      sub\n      dup2\n      add\n      swap1\n      tag_13\n      swap2\n      swap1\n      tag_14\n      jump\t// in\n    tag_13:\n      tag_15\n      jump\t// in\n    tag_12:\n      mload(0x40)\n      tag_16\n      swap9\n      swap8\n      swap7\n      swap6\n      swap5\n      swap4\n      swap3\n      swap2\n      swap1\n      tag_17\n      jump\t// in\n    tag_16:\n      mload(0x40)\n      dup1\n      swap2\n      sub\n      swap1\n      return\n        /* \"Contracts/Proposal.sol\":1156:1458  function create(string calldata title, string calldata description, uint256 totalVoteToEnd) external onlyOwner{... */\n    tag_5:\n      tag_18\n      0x04\n      dup1\n      calldatasize\n      sub\n      dup2\n      add\n      swap1\n      tag_19\n      swap2\n      swap1\n      tag_20\n      jump\t// in\n    tag_19:\n      tag_21\n      jump\t// in\n    tag_18:\n      stop\n        /* \"Contracts/Proposal.sol\":1642:1713  function vote(uint8 choice) external {... */\n    tag_6:\n      tag_22\n      0x04\n      dup1\n      calldatasize\n      sub\n      dup2\n      add\n      swap1\n      tag_23\n      swap2\n      swap1\n      tag_24\n      jump\t// in\n    tag_23:\n      tag_25\n      jump\t// in\n    tag_22:\n      stop\n        /* \"Contracts/Proposal.sol\":1557:1636  function viewOwner() public view returns(address) {... */\n    tag_7:\n      tag_26\n      tag_27\n      jump\t// in\n    tag_26:\n      mload(0x40)\n      tag_28\n      swap2\n      swap1\n      tag_29\n      jump\t// in\n    tag_28:\n      mload(0x40)\n      dup1\n      swap2\n      sub\n      swap1\n      return\n        /* \"Contracts/Proposal.sol\":1463:1552  function setOwner(address new_owner) external onlyOwner{... */\n    tag_11:\n        /* \"Contracts/Proposal.sol\":377:382  owner */\n      0x01\n      0x00\n      swap1\n      sload\n      swap1\n      0x0100\n      exp\n      swap1\n      div\n      0xffffffffffffffffffffffffffffffffffffffff\n      and\n        /* \"Contracts/Proposal.sol\":363:382  msg.sender == owner */\n      0xffffffffffffffffffffffffffffffffffffffff\n      and\n        /* \"Contracts/Proposal.sol\":363:373  msg.sender */\n      caller\n        /* \"Contracts/Proposal.sol\":363:382  msg.sender == owner */\n      0xffffffffffffffffffffffffffffffffffffffff\n      and\n      eq\n        /* \"Contracts/Proposal.sol\":355:424  require(msg.sender == owner, \"Only the owner can call this function\") */\n      tag_31\n      jumpi\n      mload(0x40)\n      0x08c379a000000000000000000000000000000000000000000000000000000000\n      dup2\n      mstore\n      0x04\n      add\n      tag_32\n      swap1\n      tag_33\n      jump\t// in\n    tag_32:\n      mload(0x40)\n      dup1\n      swap2\n      sub\n      swap1\n      revert\n    tag_31:\n        /* \"Contracts/Proposal.sol\":1536:1545  new_owner */\n      dup1\n        /* \"Contracts/Proposal.sol\":1528:1533  owner */\n      0x01\n      0x00\n        /* \"Contracts/Proposal.sol\":1528:1545  owner = new_owner */\n      0x0100\n      exp\n      dup2\n      sload\n      dup2\n      0xffffffffffffffffffffffffffffffffffffffff\n      mul\n      not\n      and\n      swap1\n      dup4\n      0xffffffffffffffffffffffffffffffffffffffff\n      and\n      mul\n      or\n      swap1\n      sstore\n      pop\n        /* \"Contracts/Proposal.sol\":1463:1552  function setOwner(address new_owner) external onlyOwner{... */\n      pop\n      jump\t// out\n        /* \"Contracts/Proposal.sol\":1062:1113  mapping(uint256 => Proposal) public proposalHistory */\n    tag_15:\n      mstore(0x20, 0x02)\n      dup1\n      0x00\n      mstore\n      keccak256(0x00, 0x40)\n      0x00\n      swap2\n      pop\n      swap1\n      pop\n      dup1\n      0x00\n      add\n      dup1\n      sload\n      tag_35\n      swap1\n      tag_36\n      jump\t// in\n    tag_35:\n      dup1\n      0x1f\n      add\n      0x20\n      dup1\n      swap2\n      div\n      mul\n      0x20\n      add\n      mload(0x40)\n      swap1\n      dup2\n      add\n      0x40\n      mstore\n      dup1\n      swap3\n      swap2\n      swap1\n      dup2\n      dup2\n      mstore\n      0x20\n      add\n      dup3\n      dup1\n      sload\n      tag_37\n      swap1\n      tag_36\n      jump\t// in\n    tag_37:\n      dup1\n      iszero\n      tag_38\n      jumpi\n      dup1\n      0x1f\n      lt\n      tag_39\n      jumpi\n      0x0100\n      dup1\n      dup4\n      sload\n      div\n      mul\n      dup4\n      mstore\n      swap2\n      0x20\n      add\n      swap2\n      jump(tag_38)\n    tag_39:\n      dup3\n      add\n      swap2\n      swap1\n      0x00\n      mstore\n      keccak256(0x00, 0x20)\n      swap1\n    tag_40:\n      dup2\n      sload\n      dup2\n      mstore\n      swap1\n      0x01\n      add\n      swap1\n      0x20\n      add\n      dup1\n      dup4\n      gt\n      tag_40\n      jumpi\n      dup3\n      swap1\n      sub\n      0x1f\n      and\n      dup3\n      add\n      swap2\n    tag_38:\n      pop\n      pop\n      pop\n      pop\n      pop\n      swap1\n      dup1\n      0x01\n      add\n      dup1\n      sload\n      tag_41\n      swap1\n      tag_36\n      jump\t// in\n    tag_41:\n      dup1\n      0x1f\n      add\n      0x20\n      dup1\n      swap2\n      div\n      mul\n      0x20\n      add\n      mload(0x40)\n      swap1\n      dup2\n      add\n      0x40\n      mstore\n      dup1\n      swap3\n      swap2\n      swap1\n      dup2\n      dup2\n      mstore\n      0x20\n      add\n      dup3\n      dup1\n      sload\n      tag_42\n      swap1\n      tag_36\n      jump\t// in\n    tag_42:\n      dup1\n      iszero\n      tag_43\n      jumpi\n      dup1\n      0x1f\n      lt\n      tag_44\n      jumpi\n      0x0100\n      dup1\n      dup4\n      sload\n      div\n      mul\n      dup4\n      mstore\n      swap2\n      0x20\n      add\n      swap2\n      jump(tag_43)\n    tag_44:\n      dup3\n      add\n      swap2\n      swap1\n      0x00\n      mstore\n      keccak256(0x00, 0x20)\n      swap1\n    tag_45:\n      dup2\n      sload\n      dup2\n      mstore\n      swap1\n      0x01\n      add\n      swap1\n      0x20\n      add\n      dup1\n      dup4\n      gt\n      tag_45\n      jumpi\n      dup3\n      swap1\n      sub\n      0x1f\n      and\n      dup3\n      add\n      swap2\n    tag_43:\n      pop\n      pop\n      pop\n      pop\n      pop\n      swap1\n      dup1\n      0x02\n      add\n      sload\n      swap1\n      dup1\n      0x03\n      add\n      sload\n      swap1\n      dup1\n      0x04\n      add\n      sload\n      swap1\n      dup1\n      0x05\n      add\n      sload\n      swap1\n      dup1\n      0x06\n      add\n      0x00\n      swap1\n      sload\n      swap1\n      0x0100\n      exp\n      swap1\n      div\n      0xff\n      and\n      swap1\n      dup1\n      0x06\n      add\n      0x01\n      swap1\n      sload\n      swap1\n      0x0100\n      exp\n      swap1\n      div\n      0xff\n      and\n      swap1\n      pop\n      dup9\n      jump\t// out\n        /* \"Contracts/Proposal.sol\":1156:1458  function create(string calldata title, string calldata description, uint256 totalVoteToEnd) external onlyOwner{... */\n    tag_21:\n        /* \"Contracts/Proposal.sol\":377:382  owner */\n      0x01\n      0x00\n      swap1\n      sload\n      swap1\n      0x0100\n      exp\n      swap1\n      div\n      0xffffffffffffffffffffffffffffffffffffffff\n      and\n        /* \"Contracts/Proposal.sol\":363:382  msg.sender == owner */\n      0xffffffffffffffffffffffffffffffffffffffff\n      and\n        /* \"Contracts/Proposal.sol\":363:373  msg.sender */\n      caller\n        /* \"Contracts/Proposal.sol\":363:382  msg.sender == owner */\n      0xffffffffffffffffffffffffffffffffffffffff\n      and\n      eq\n        /* \"Contracts/Proposal.sol\":355:424  require(msg.sender == owner, \"Only the owner can call this function\") */\n      tag_47\n      jumpi\n      mload(0x40)\n      0x08c379a000000000000000000000000000000000000000000000000000000000\n      dup2\n      mstore\n      0x04\n      add\n      tag_48\n      swap1\n      tag_33\n      jump\t// in\n    tag_48:\n      mload(0x40)\n      dup1\n      swap2\n      sub\n      swap1\n      revert\n    tag_47:\n        /* \"Contracts/Proposal.sol\":1276:1296  _counter.increment() */\n      tag_50\n        /* \"Contracts/Proposal.sol\":1276:1284  _counter */\n      0x00\n        /* \"Contracts/Proposal.sol\":1276:1294  _counter.increment */\n      tag_51\n        /* \"Contracts/Proposal.sol\":1276:1296  _counter.increment() */\n      jump\t// in\n    tag_50:\n        /* \"Contracts/Proposal.sol\":1306:1324  uint256 proposalId */\n      0x00\n        /* \"Contracts/Proposal.sol\":1327:1345  _counter.current() */\n      tag_52\n        /* \"Contracts/Proposal.sol\":1327:1335  _counter */\n      0x00\n        /* \"Contracts/Proposal.sol\":1327:1343  _counter.current */\n      tag_53\n        /* \"Contracts/Proposal.sol\":1327:1345  _counter.current() */\n      jump\t// in\n    tag_52:\n        /* \"Contracts/Proposal.sol\":1306:1345  uint256 proposalId = _counter.current() */\n      swap1\n      pop\n        /* \"Contracts/Proposal.sol\":1385:1451  Proposal(title, description, 0, 0, 0, totalVoteToEnd, false, true) */\n      mload(0x40)\n      dup1\n      0x0100\n      add\n      0x40\n      mstore\n      dup1\n        /* \"Contracts/Proposal.sol\":1394:1399  title */\n      dup8\n      dup8\n        /* \"Contracts/Proposal.sol\":1385:1451  Proposal(title, description, 0, 0, 0, totalVoteToEnd, false, true) */\n      dup1\n      dup1\n      0x1f\n      add\n      0x20\n      dup1\n      swap2\n      div\n      mul\n      0x20\n      add\n      mload(0x40)\n      swap1\n      dup2\n      add\n      0x40\n      mstore\n      dup1\n      swap4\n      swap3\n      swap2\n      swap1\n      dup2\n      dup2\n      mstore\n      0x20\n      add\n      dup4\n      dup4\n      dup1\n      dup3\n      dup5\n      calldatacopy\n      0x00\n      dup2\n      dup5\n      add\n      mstore\n      not(0x1f)\n      0x1f\n      dup3\n      add\n      and\n      swap1\n      pop\n      dup1\n      dup4\n      add\n      swap3\n      pop\n      pop\n      pop\n      pop\n      pop\n      pop\n      pop\n      dup2\n      mstore\n      0x20\n      add\n        /* \"Contracts/Proposal.sol\":1401:1412  description */\n      dup6\n      dup6\n        /* \"Contracts/Proposal.sol\":1385:1451  Proposal(title, description, 0, 0, 0, totalVoteToEnd, false, true) */\n      dup1\n      dup1\n      0x1f\n      add\n      0x20\n      dup1\n      swap2\n      div\n      mul\n      0x20\n      add\n      mload(0x40)\n      swap1\n      dup2\n      add\n      0x40\n      mstore\n      dup1\n      swap4\n      swap3\n      swap2\n      swap1\n      dup2\n      dup2\n      mstore\n      0x20\n      add\n      dup4\n      dup4\n      dup1\n      dup3\n      dup5\n      calldatacopy\n      0x00\n      dup2\n      dup5\n      add\n      mstore\n      not(0x1f)\n      0x1f\n      dup3\n      add\n      and\n      swap1\n      pop\n      dup1\n      dup4\n      add\n      swap3\n      pop\n      pop\n      pop\n      pop\n      pop\n      pop\n      pop\n      dup2\n      mstore\n      0x20\n      add\n        /* \"Contracts/Proposal.sol\":1414:1415  0 */\n      0x00\n        /* \"Contracts/Proposal.sol\":1385:1451  Proposal(title, description, 0, 0, 0, totalVoteToEnd, false, true) */\n      dup2\n      mstore\n      0x20\n      add\n        /* \"Contracts/Proposal.sol\":1417:1418  0 */\n      0x00\n        /* \"Contracts/Proposal.sol\":1385:1451  Proposal(title, description, 0, 0, 0, totalVoteToEnd, false, true) */\n      dup2\n      mstore\n      0x20\n      add\n        /* \"Contracts/Proposal.sol\":1420:1421  0 */\n      0x00\n        /* \"Contracts/Proposal.sol\":1385:1451  Proposal(title, description, 0, 0, 0, totalVoteToEnd, false, true) */\n      dup2\n      mstore\n      0x20\n      add\n        /* \"Contracts/Proposal.sol\":1423:1437  totalVoteToEnd */\n      dup4\n        /* \"Contracts/Proposal.sol\":1385:1451  Proposal(title, description, 0, 0, 0, totalVoteToEnd, false, true) */\n      dup2\n      mstore\n      0x20\n      add\n        /* \"Contracts/Proposal.sol\":1439:1444  false */\n      0x00\n        /* \"Contracts/Proposal.sol\":1385:1451  Proposal(title, description, 0, 0, 0, totalVoteToEnd, false, true) */\n      iszero\n      iszero\n      dup2\n      mstore\n      0x20\n      add\n        /* \"Contracts/Proposal.sol\":1446:1450  true */\n      0x01\n        /* \"Contracts/Proposal.sol\":1385:1451  Proposal(title, description, 0, 0, 0, totalVoteToEnd, false, true) */\n      iszero\n      iszero\n      dup2\n      mstore\n      pop\n        /* \"Contracts/Proposal.sol\":1355:1370  proposalHistory */\n      0x02\n        /* \"Contracts/Proposal.sol\":1355:1382  proposalHistory[proposalId] */\n      0x00\n        /* \"Contracts/Proposal.sol\":1371:1381  proposalId */\n      dup4\n        /* \"Contracts/Proposal.sol\":1355:1382  proposalHistory[proposalId] */\n      dup2\n      mstore\n      0x20\n      add\n      swap1\n      dup2\n      mstore\n      0x20\n      add\n      0x00\n      keccak256\n        /* \"Contracts/Proposal.sol\":1355:1451  proposalHistory[proposalId] = Proposal(title, description, 0, 0, 0, totalVoteToEnd, false, true) */\n      0x00\n      dup3\n      add\n      mload\n      dup2\n      0x00\n      add\n      swap1\n      dup2\n      tag_54\n      swap2\n      swap1\n      tag_55\n      jump\t// in\n    tag_54:\n      pop\n      0x20\n      dup3\n      add\n      mload\n      dup2\n      0x01\n      add\n      swap1\n      dup2\n      tag_56\n      swap2\n      swap1\n      tag_55\n      jump\t// in\n    tag_56:\n      pop\n      0x40\n      dup3\n      add\n      mload\n      dup2\n      0x02\n      add\n      sstore\n      0x60\n      dup3\n      add\n      mload\n      dup2\n      0x03\n      add\n      sstore\n      0x80\n      dup3\n      add\n      mload\n      dup2\n      0x04\n      add\n      sstore\n      0xa0\n      dup3\n      add\n      mload\n      dup2\n      0x05\n      add\n      sstore\n      0xc0\n      dup3\n      add\n      mload\n      dup2\n      0x06\n      add\n      exp(0x0100, 0x00)\n      dup2\n      sload\n      dup2\n      0xff\n      mul\n      not\n      and\n      swap1\n      dup4\n      iszero\n      iszero\n      mul\n      or\n      swap1\n      sstore\n      pop\n      0xe0\n      dup3\n      add\n      mload\n      dup2\n      0x06\n      add\n      exp(0x0100, 0x01)\n      dup2\n      sload\n      dup2\n      0xff\n      mul\n      not\n      and\n      swap1\n      dup4\n      iszero\n      iszero\n      mul\n      or\n      swap1\n      sstore\n      pop\n      swap1\n      pop\n      pop\n        /* \"Contracts/Proposal.sol\":1266:1458  {... */\n      pop\n        /* \"Contracts/Proposal.sol\":1156:1458  function create(string calldata title, string calldata description, uint256 totalVoteToEnd) external onlyOwner{... */\n      pop\n      pop\n      pop\n      pop\n      pop\n      jump\t// out\n        /* \"Contracts/Proposal.sol\":1642:1713  function vote(uint8 choice) external {... */\n    tag_25:\n      pop\n      jump\t// out\n        /* \"Contracts/Proposal.sol\":1557:1636  function viewOwner() public view returns(address) {... */\n    tag_27:\n        /* \"Contracts/Proposal.sol\":1598:1605  address */\n      0x00\n        /* \"Contracts/Proposal.sol\":1624:1629  owner */\n      0x01\n      0x00\n      swap1\n      sload\n      swap1\n      0x0100\n      exp\n      swap1\n      div\n      0xffffffffffffffffffffffffffffffffffffffff\n      and\n        /* \"Contracts/Proposal.sol\":1617:1629  return owner */\n      swap1\n      pop\n        /* \"Contracts/Proposal.sol\":1557:1636  function viewOwner() public view returns(address) {... */\n      swap1\n      jump\t// out\n        /* \"@openzeppelin/contracts/utils/Counters.sol\":945:1068  function increment(Counter storage counter) internal {... */\n    tag_51:\n        /* \"@openzeppelin/contracts/utils/Counters.sol\":1050:1051  1 */\n      0x01\n        /* \"@openzeppelin/contracts/utils/Counters.sol\":1032:1039  counter */\n      dup2\n        /* \"@openzeppelin/contracts/utils/Counters.sol\":1032:1046  counter._value */\n      0x00\n      add\n      0x00\n        /* \"@openzeppelin/contracts/utils/Counters.sol\":1032:1051  counter._value += 1 */\n      dup3\n      dup3\n      sload\n      add\n      swap3\n      pop\n      pop\n      dup2\n      swap1\n      sstore\n      pop\n        /* \"@openzeppelin/contracts/utils/Counters.sol\":945:1068  function increment(Counter storage counter) internal {... */\n      pop\n      jump\t// out\n        /* \"@openzeppelin/contracts/utils/Counters.sol\":827:939  function current(Counter storage counter) internal view returns (uint256) {... */\n    tag_53:\n        /* \"@openzeppelin/contracts/utils/Counters.sol\":892:899  uint256 */\n      0x00\n        /* \"@openzeppelin/contracts/utils/Counters.sol\":918:925  counter */\n      dup2\n        /* \"@openzeppelin/contracts/utils/Counters.sol\":918:932  counter._value */\n      0x00\n      add\n      sload\n        /* \"@openzeppelin/contracts/utils/Counters.sol\":911:932  return counter._value */\n      swap1\n      pop\n        /* \"@openzeppelin/contracts/utils/Counters.sol\":827:939  function current(Counter storage counter) internal view returns (uint256) {... */\n      swap2\n      swap1\n      pop\n      jump\t// out\n        /* \"#utility.yul\":88:205   */\n    tag_62:\n        /* \"#utility.yul\":197:198   */\n      0x00\n        /* \"#utility.yul\":194:195   */\n      dup1\n        /* \"#utility.yul\":187:199   */\n      revert\n        /* \"#utility.yul\":211:328   */\n    tag_63:\n        /* \"#utility.yul\":320:321   */\n      0x00\n        /* \"#utility.yul\":317:318   */\n      dup1\n        /* \"#utility.yul\":310:322   */\n      revert\n        /* \"#utility.yul\":334:460   */\n    tag_64:\n        /* \"#utility.yul\":371:378   */\n      0x00\n        /* \"#utility.yul\":411:453   */\n      0xffffffffffffffffffffffffffffffffffffffff\n        /* \"#utility.yul\":404:409   */\n      dup3\n        /* \"#utility.yul\":400:454   */\n      and\n        /* \"#utility.yul\":389:454   */\n      swap1\n      pop\n        /* \"#utility.yul\":334:460   */\n      swap2\n      swap1\n      pop\n      jump\t// out\n        /* \"#utility.yul\":466:562   */\n    tag_65:\n        /* \"#utility.yul\":503:510   */\n      0x00\n        /* \"#utility.yul\":532:556   */\n      tag_112\n        /* \"#utility.yul\":550:555   */\n      dup3\n        /* \"#utility.yul\":532:556   */\n      tag_64\n      jump\t// in\n    tag_112:\n        /* \"#utility.yul\":521:556   */\n      swap1\n      pop\n        /* \"#utility.yul\":466:562   */\n      swap2\n      swap1\n      pop\n      jump\t// out\n        /* \"#utility.yul\":568:690   */\n    tag_66:\n        /* \"#utility.yul\":641:665   */\n      tag_114\n        /* \"#utility.yul\":659:664   */\n      dup2\n        /* \"#utility.yul\":641:665   */\n      tag_65\n      jump\t// in\n    tag_114:\n        /* \"#utility.yul\":634:639   */\n      dup2\n        /* \"#utility.yul\":631:666   */\n      eq\n        /* \"#utility.yul\":621:684   */\n      tag_115\n      jumpi\n        /* \"#utility.yul\":680:681   */\n      0x00\n        /* \"#utility.yul\":677:678   */\n      dup1\n        /* \"#utility.yul\":670:682   */\n      revert\n        /* \"#utility.yul\":621:684   */\n    tag_115:\n        /* \"#utility.yul\":568:690   */\n      pop\n      jump\t// out\n        /* \"#utility.yul\":696:835   */\n    tag_67:\n        /* \"#utility.yul\":742:747   */\n      0x00\n        /* \"#utility.yul\":780:786   */\n      dup2\n        /* \"#utility.yul\":767:787   */\n      calldataload\n        /* \"#utility.yul\":758:787   */\n      swap1\n      pop\n        /* \"#utility.yul\":796:829   */\n      tag_117\n        /* \"#utility.yul\":823:828   */\n      dup2\n        /* \"#utility.yul\":796:829   */\n      tag_66\n      jump\t// in\n    tag_117:\n        /* \"#utility.yul\":696:835   */\n      swap3\n      swap2\n      pop\n      pop\n      jump\t// out\n        /* \"#utility.yul\":841:1170   */\n    tag_10:\n        /* \"#utility.yul\":900:906   */\n      0x00\n        /* \"#utility.yul\":949:951   */\n      0x20\n        /* \"#utility.yul\":937:946   */\n      dup3\n        /* \"#utility.yul\":928:935   */\n      dup5\n        /* \"#utility.yul\":924:947   */\n      sub\n        /* \"#utility.yul\":920:952   */\n      slt\n        /* \"#utility.yul\":917:1036   */\n      iszero\n      tag_119\n      jumpi\n        /* \"#utility.yul\":955:1034   */\n      tag_120\n      tag_62\n      jump\t// in\n    tag_120:\n        /* \"#utility.yul\":917:1036   */\n    tag_119:\n        /* \"#utility.yul\":1075:1076   */\n      0x00\n        /* \"#utility.yul\":1100:1153   */\n      tag_121\n        /* \"#utility.yul\":1145:1152   */\n      dup5\n        /* \"#utility.yul\":1136:1142   */\n      dup3\n        /* \"#utility.yul\":1125:1134   */\n      dup6\n        /* \"#utility.yul\":1121:1143   */\n      add\n        /* \"#utility.yul\":1100:1153   */\n      tag_67\n      jump\t// in\n    tag_121:\n        /* \"#utility.yul\":1090:1153   */\n      swap2\n      pop\n        /* \"#utility.yul\":1046:1163   */\n      pop\n        /* \"#utility.yul\":841:1170   */\n      swap3\n      swap2\n      pop\n      pop\n      jump\t// out\n        /* \"#utility.yul\":1176:1253   */\n    tag_68:\n        /* \"#utility.yul\":1213:1220   */\n      0x00\n        /* \"#utility.yul\":1242:1247   */\n      dup2\n        /* \"#utility.yul\":1231:1247   */\n      swap1\n      pop\n        /* \"#utility.yul\":1176:1253   */\n      swap2\n      swap1\n      pop\n      jump\t// out\n        /* \"#utility.yul\":1259:1381   */\n    tag_69:\n        /* \"#utility.yul\":1332:1356   */\n      tag_124\n        /* \"#utility.yul\":1350:1355   */\n      dup2\n        /* \"#utility.yul\":1332:1356   */\n      tag_68\n      jump\t// in\n    tag_124:\n        /* \"#utility.yul\":1325:1330   */\n      dup2\n        /* \"#utility.yul\":1322:1357   */\n      eq\n        /* \"#utility.yul\":1312:1375   */\n      tag_125\n      jumpi\n        /* \"#utility.yul\":1371:1372   */\n      0x00\n        /* \"#utility.yul\":1368:1369   */\n      dup1\n        /* \"#utility.yul\":1361:1373   */\n      revert\n        /* \"#utility.yul\":1312:1375   */\n    tag_125:\n        /* \"#utility.yul\":1259:1381   */\n      pop\n      jump\t// out\n        /* \"#utility.yul\":1387:1526   */\n    tag_70:\n        /* \"#utility.yul\":1433:1438   */\n      0x00\n        /* \"#utility.yul\":1471:1477   */\n      dup2\n        /* \"#utility.yul\":1458:1478   */\n      calldataload\n        /* \"#utility.yul\":1449:1478   */\n      swap1\n      pop\n        /* \"#utility.yul\":1487:1520   */\n      tag_127\n        /* \"#utility.yul\":1514:1519   */\n      dup2\n        /* \"#utility.yul\":1487:1520   */\n      tag_69\n      jump\t// in\n    tag_127:\n        /* \"#utility.yul\":1387:1526   */\n      swap3\n      swap2\n      pop\n      pop\n      jump\t// out\n        /* \"#utility.yul\":1532:1861   */\n    tag_14:\n        /* \"#utility.yul\":1591:1597   */\n      0x00\n        /* \"#utility.yul\":1640:1642   */\n      0x20\n        /* \"#utility.yul\":1628:1637   */\n      dup3\n        /* \"#utility.yul\":1619:1626   */\n      dup5\n        /* \"#utility.yul\":1615:1638   */\n      sub\n        /* \"#utility.yul\":1611:1643   */\n      slt\n        /* \"#utility.yul\":1608:1727   */\n      iszero\n      tag_129\n      jumpi\n        /* \"#utility.yul\":1646:1725   */\n      tag_130\n      tag_62\n      jump\t// in\n    tag_130:\n        /* \"#utility.yul\":1608:1727   */\n    tag_129:\n        /* \"#utility.yul\":1766:1767   */\n      0x00\n        /* \"#utility.yul\":1791:1844   */\n      tag_131\n        /* \"#utility.yul\":1836:1843   */\n      dup5\n        /* \"#utility.yul\":1827:1833   */\n      dup3\n        /* \"#utility.yul\":1816:1825   */\n      dup6\n        /* \"#utility.yul\":1812:1834   */\n      add\n        /* \"#utility.yul\":1791:1844   */\n      tag_70\n      jump\t// in\n    tag_131:\n        /* \"#utility.yul\":1781:1844   */\n      swap2\n      pop\n        /* \"#utility.yul\":1737:1854   */\n      pop\n        /* \"#utility.yul\":1532:1861   */\n      swap3\n      swap2\n      pop\n      pop\n      jump\t// out\n        /* \"#utility.yul\":1867:1966   */\n    tag_71:\n        /* \"#utility.yul\":1919:1925   */\n      0x00\n        /* \"#utility.yul\":1953:1958   */\n      dup2\n        /* \"#utility.yul\":1947:1959   */\n      mload\n        /* \"#utility.yul\":1937:1959   */\n      swap1\n      pop\n        /* \"#utility.yul\":1867:1966   */\n      swap2\n      swap1\n      pop\n      jump\t// out\n        /* \"#utility.yul\":1972:2141   */\n    tag_72:\n        /* \"#utility.yul\":2056:2067   */\n      0x00\n        /* \"#utility.yul\":2090:2096   */\n      dup3\n        /* \"#utility.yul\":2085:2088   */\n      dup3\n        /* \"#utility.yul\":2078:2097   */\n      mstore\n        /* \"#utility.yul\":2130:2134   */\n      0x20\n        /* \"#utility.yul\":2125:2128   */\n      dup3\n        /* \"#utility.yul\":2121:2135   */\n      add\n        /* \"#utility.yul\":2106:2135   */\n      swap1\n      pop\n        /* \"#utility.yul\":1972:2141   */\n      swap3\n      swap2\n      pop\n      pop\n      jump\t// out\n        /* \"#utility.yul\":2147:2393   */\n    tag_73:\n        /* \"#utility.yul\":2228:2229   */\n      0x00\n        /* \"#utility.yul\":2238:2351   */\n    tag_135:\n        /* \"#utility.yul\":2252:2258   */\n      dup4\n        /* \"#utility.yul\":2249:2250   */\n      dup2\n        /* \"#utility.yul\":2246:2259   */\n      lt\n        /* \"#utility.yul\":2238:2351   */\n      iszero\n      tag_137\n      jumpi\n        /* \"#utility.yul\":2337:2338   */\n      dup1\n        /* \"#utility.yul\":2332:2335   */\n      dup3\n        /* \"#utility.yul\":2328:2339   */\n      add\n        /* \"#utility.yul\":2322:2340   */\n      mload\n        /* \"#utility.yul\":2318:2319   */\n      dup2\n        /* \"#utility.yul\":2313:2316   */\n      dup5\n        /* \"#utility.yul\":2309:2320   */\n      add\n        /* \"#utility.yul\":2302:2341   */\n      mstore\n        /* \"#utility.yul\":2274:2276   */\n      0x20\n        /* \"#utility.yul\":2271:2272   */\n      dup2\n        /* \"#utility.yul\":2267:2277   */\n      add\n        /* \"#utility.yul\":2262:2277   */\n      swap1\n      pop\n        /* \"#utility.yul\":2238:2351   */\n      jump(tag_135)\n    tag_137:\n        /* \"#utility.yul\":2385:2386   */\n      0x00\n        /* \"#utility.yul\":2376:2382   */\n      dup5\n        /* \"#utility.yul\":2371:2374   */\n      dup5\n        /* \"#utility.yul\":2367:2383   */\n      add\n        /* \"#utility.yul\":2360:2387   */\n      mstore\n        /* \"#utility.yul\":2209:2393   */\n      pop\n        /* \"#utility.yul\":2147:2393   */\n      pop\n      pop\n      pop\n      jump\t// out\n        /* \"#utility.yul\":2399:2501   */\n    tag_74:\n        /* \"#utility.yul\":2440:2446   */\n      0x00\n        /* \"#utility.yul\":2491:2493   */\n      0x1f\n        /* \"#utility.yul\":2487:2494   */\n      not\n        /* \"#utility.yul\":2482:2484   */\n      0x1f\n        /* \"#utility.yul\":2475:2480   */\n      dup4\n        /* \"#utility.yul\":2471:2485   */\n      add\n        /* \"#utility.yul\":2467:2495   */\n      and\n        /* \"#utility.yul\":2457:2495   */\n      swap1\n      pop\n        /* \"#utility.yul\":2399:2501   */\n      swap2\n      swap1\n      pop\n      jump\t// out\n        /* \"#utility.yul\":2507:2884   */\n    tag_75:\n        /* \"#utility.yul\":2595:2598   */\n      0x00\n        /* \"#utility.yul\":2623:2662   */\n      tag_140\n        /* \"#utility.yul\":2656:2661   */\n      dup3\n        /* \"#utility.yul\":2623:2662   */\n      tag_71\n      jump\t// in\n    tag_140:\n        /* \"#utility.yul\":2678:2749   */\n      tag_141\n        /* \"#utility.yul\":2742:2748   */\n      dup2\n        /* \"#utility.yul\":2737:2740   */\n      dup6\n        /* \"#utility.yul\":2678:2749   */\n      tag_72\n      jump\t// in\n    tag_141:\n        /* \"#utility.yul\":2671:2749   */\n      swap4\n      pop\n        /* \"#utility.yul\":2758:2823   */\n      tag_142\n        /* \"#utility.yul\":2816:2822   */\n      dup2\n        /* \"#utility.yul\":2811:2814   */\n      dup6\n        /* \"#utility.yul\":2804:2808   */\n      0x20\n        /* \"#utility.yul\":2797:2802   */\n      dup7\n        /* \"#utility.yul\":2793:2809   */\n      add\n        /* \"#utility.yul\":2758:2823   */\n      tag_73\n      jump\t// in\n    tag_142:\n        /* \"#utility.yul\":2848:2877   */\n      tag_143\n        /* \"#utility.yul\":2870:2876   */\n      dup2\n        /* \"#utility.yul\":2848:2877   */\n      tag_74\n      jump\t// in\n    tag_143:\n        /* \"#utility.yul\":2843:2846   */\n      dup5\n        /* \"#utility.yul\":2839:2878   */\n      add\n        /* \"#utility.yul\":2832:2878   */\n      swap2\n      pop\n        /* \"#utility.yul\":2599:2884   */\n      pop\n        /* \"#utility.yul\":2507:2884   */\n      swap3\n      swap2\n      pop\n      pop\n      jump\t// out\n        /* \"#utility.yul\":2890:3008   */\n    tag_76:\n        /* \"#utility.yul\":2977:3001   */\n      tag_145\n        /* \"#utility.yul\":2995:3000   */\n      dup2\n        /* \"#utility.yul\":2977:3001   */\n      tag_68\n      jump\t// in\n    tag_145:\n        /* \"#utility.yul\":2972:2975   */\n      dup3\n        /* \"#utility.yul\":2965:3002   */\n      mstore\n        /* \"#utility.yul\":2890:3008   */\n      pop\n      pop\n      jump\t// out\n        /* \"#utility.yul\":3014:3104   */\n    tag_77:\n        /* \"#utility.yul\":3048:3055   */\n      0x00\n        /* \"#utility.yul\":3091:3096   */\n      dup2\n        /* \"#utility.yul\":3084:3097   */\n      iszero\n        /* \"#utility.yul\":3077:3098   */\n      iszero\n        /* \"#utility.yul\":3066:3098   */\n      swap1\n      pop\n        /* \"#utility.yul\":3014:3104   */\n      swap2\n      swap1\n      pop\n      jump\t// out\n        /* \"#utility.yul\":3110:3219   */\n    tag_78:\n        /* \"#utility.yul\":3191:3212   */\n      tag_148\n        /* \"#utility.yul\":3206:3211   */\n      dup2\n        /* \"#utility.yul\":3191:3212   */\n      tag_77\n      jump\t// in\n    tag_148:\n        /* \"#utility.yul\":3186:3189   */\n      dup3\n        /* \"#utility.yul\":3179:3213   */\n      mstore\n        /* \"#utility.yul\":3110:3219   */\n      pop\n      pop\n      jump\t// out\n        /* \"#utility.yul\":3225:4380   */\n    tag_17:\n        /* \"#utility.yul\":3542:3546   */\n      0x00\n        /* \"#utility.yul\":3580:3583   */\n      0x0100\n        /* \"#utility.yul\":3569:3578   */\n      dup3\n        /* \"#utility.yul\":3565:3584   */\n      add\n        /* \"#utility.yul\":3557:3584   */\n      swap1\n      pop\n        /* \"#utility.yul\":3630:3639   */\n      dup2\n        /* \"#utility.yul\":3624:3628   */\n      dup2\n        /* \"#utility.yul\":3620:3640   */\n      sub\n        /* \"#utility.yul\":3616:3617   */\n      0x00\n        /* \"#utility.yul\":3605:3614   */\n      dup4\n        /* \"#utility.yul\":3601:3618   */\n      add\n        /* \"#utility.yul\":3594:3641   */\n      mstore\n        /* \"#utility.yul\":3658:3736   */\n      tag_150\n        /* \"#utility.yul\":3731:3735   */\n      dup2\n        /* \"#utility.yul\":3722:3728   */\n      dup12\n        /* \"#utility.yul\":3658:3736   */\n      tag_75\n      jump\t// in\n    tag_150:\n        /* \"#utility.yul\":3650:3736   */\n      swap1\n      pop\n        /* \"#utility.yul\":3783:3792   */\n      dup2\n        /* \"#utility.yul\":3777:3781   */\n      dup2\n        /* \"#utility.yul\":3773:3793   */\n      sub\n        /* \"#utility.yul\":3768:3770   */\n      0x20\n        /* \"#utility.yul\":3757:3766   */\n      dup4\n        /* \"#utility.yul\":3753:3771   */\n      add\n        /* \"#utility.yul\":3746:3794   */\n      mstore\n        /* \"#utility.yul\":3811:3889   */\n      tag_151\n        /* \"#utility.yul\":3884:3888   */\n      dup2\n        /* \"#utility.yul\":3875:3881   */\n      dup11\n        /* \"#utility.yul\":3811:3889   */\n      tag_75\n      jump\t// in\n    tag_151:\n        /* \"#utility.yul\":3803:3889   */\n      swap1\n      pop\n        /* \"#utility.yul\":3899:3971   */\n      tag_152\n        /* \"#utility.yul\":3967:3969   */\n      0x40\n        /* \"#utility.yul\":3956:3965   */\n      dup4\n        /* \"#utility.yul\":3952:3970   */\n      add\n        /* \"#utility.yul\":3943:3949   */\n      dup10\n        /* \"#utility.yul\":3899:3971   */\n      tag_76\n      jump\t// in\n    tag_152:\n        /* \"#utility.yul\":3981:4053   */\n      tag_153\n        /* \"#utility.yul\":4049:4051   */\n      0x60\n        /* \"#utility.yul\":4038:4047   */\n      dup4\n        /* \"#utility.yul\":4034:4052   */\n      add\n        /* \"#utility.yul\":4025:4031   */\n      dup9\n        /* \"#utility.yul\":3981:4053   */\n      tag_76\n      jump\t// in\n    tag_153:\n        /* \"#utility.yul\":4063:4136   */\n      tag_154\n        /* \"#utility.yul\":4131:4134   */\n      0x80\n        /* \"#utility.yul\":4120:4129   */\n      dup4\n        /* \"#utility.yul\":4116:4135   */\n      add\n        /* \"#utility.yul\":4107:4113   */\n      dup8\n        /* \"#utility.yul\":4063:4136   */\n      tag_76\n      jump\t// in\n    tag_154:\n        /* \"#utility.yul\":4146:4219   */\n      tag_155\n        /* \"#utility.yul\":4214:4217   */\n      0xa0\n        /* \"#utility.yul\":4203:4212   */\n      dup4\n        /* \"#utility.yul\":4199:4218   */\n      add\n        /* \"#utility.yul\":4190:4196   */\n      dup7\n        /* \"#utility.yul\":4146:4219   */\n      tag_76\n      jump\t// in\n    tag_155:\n        /* \"#utility.yul\":4229:4296   */\n      tag_156\n        /* \"#utility.yul\":4291:4294   */\n      0xc0\n        /* \"#utility.yul\":4280:4289   */\n      dup4\n        /* \"#utility.yul\":4276:4295   */\n      add\n        /* \"#utility.yul\":4267:4273   */\n      dup6\n        /* \"#utility.yul\":4229:4296   */\n      tag_78\n      jump\t// in\n    tag_156:\n        /* \"#utility.yul\":4306:4373   */\n      tag_157\n        /* \"#utility.yul\":4368:4371   */\n      0xe0\n        /* \"#utility.yul\":4357:4366   */\n      dup4\n        /* \"#utility.yul\":4353:4372   */\n      add\n        /* \"#utility.yul\":4344:4350   */\n      dup5\n        /* \"#utility.yul\":4306:4373   */\n      tag_78\n      jump\t// in\n    tag_157:\n        /* \"#utility.yul\":3225:4380   */\n      swap10\n      swap9\n      pop\n      pop\n      pop\n      pop\n      pop\n      pop\n      pop\n      pop\n      pop\n      jump\t// out\n        /* \"#utility.yul\":4386:4503   */\n    tag_79:\n        /* \"#utility.yul\":4495:4496   */\n      0x00\n        /* \"#utility.yul\":4492:4493   */\n      dup1\n        /* \"#utility.yul\":4485:4497   */\n      revert\n        /* \"#utility.yul\":4509:4626   */\n    tag_80:\n        /* \"#utility.yul\":4618:4619   */\n      0x00\n        /* \"#utility.yul\":4615:4616   */\n      dup1\n        /* \"#utility.yul\":4608:4620   */\n      revert\n        /* \"#utility.yul\":4632:4749   */\n    tag_81:\n        /* \"#utility.yul\":4741:4742   */\n      0x00\n        /* \"#utility.yul\":4738:4739   */\n      dup1\n        /* \"#utility.yul\":4731:4743   */\n      revert\n        /* \"#utility.yul\":4769:5322   */\n    tag_82:\n        /* \"#utility.yul\":4827:4835   */\n      0x00\n        /* \"#utility.yul\":4837:4843   */\n      dup1\n        /* \"#utility.yul\":4887:4890   */\n      dup4\n        /* \"#utility.yul\":4880:4884   */\n      0x1f\n        /* \"#utility.yul\":4872:4878   */\n      dup5\n        /* \"#utility.yul\":4868:4885   */\n      add\n        /* \"#utility.yul\":4864:4891   */\n      slt\n        /* \"#utility.yul\":4854:4976   */\n      tag_162\n      jumpi\n        /* \"#utility.yul\":4895:4974   */\n      tag_163\n      tag_79\n      jump\t// in\n    tag_163:\n        /* \"#utility.yul\":4854:4976   */\n    tag_162:\n        /* \"#utility.yul\":5008:5014   */\n      dup3\n        /* \"#utility.yul\":4995:5015   */\n      calldataload\n        /* \"#utility.yul\":4985:5015   */\n      swap1\n      pop\n        /* \"#utility.yul\":5038:5056   */\n      0xffffffffffffffff\n        /* \"#utility.yul\":5030:5036   */\n      dup2\n        /* \"#utility.yul\":5027:5057   */\n      gt\n        /* \"#utility.yul\":5024:5141   */\n      iszero\n      tag_164\n      jumpi\n        /* \"#utility.yul\":5060:5139   */\n      tag_165\n      tag_80\n      jump\t// in\n    tag_165:\n        /* \"#utility.yul\":5024:5141   */\n    tag_164:\n        /* \"#utility.yul\":5174:5178   */\n      0x20\n        /* \"#utility.yul\":5166:5172   */\n      dup4\n        /* \"#utility.yul\":5162:5179   */\n      add\n        /* \"#utility.yul\":5150:5179   */\n      swap2\n      pop\n        /* \"#utility.yul\":5228:5231   */\n      dup4\n        /* \"#utility.yul\":5220:5224   */\n      0x01\n        /* \"#utility.yul\":5212:5218   */\n      dup3\n        /* \"#utility.yul\":5208:5225   */\n      mul\n        /* \"#utility.yul\":5198:5206   */\n      dup4\n        /* \"#utility.yul\":5194:5226   */\n      add\n        /* \"#utility.yul\":5191:5232   */\n      gt\n        /* \"#utility.yul\":5188:5316   */\n      iszero\n      tag_166\n      jumpi\n        /* \"#utility.yul\":5235:5314   */\n      tag_167\n      tag_81\n      jump\t// in\n    tag_167:\n        /* \"#utility.yul\":5188:5316   */\n    tag_166:\n        /* \"#utility.yul\":4769:5322   */\n      swap3\n      pop\n      swap3\n      swap1\n      pop\n      jump\t// out\n        /* \"#utility.yul\":5328:6347   */\n    tag_20:\n        /* \"#utility.yul\":5429:5435   */\n      0x00\n        /* \"#utility.yul\":5437:5443   */\n      dup1\n        /* \"#utility.yul\":5445:5451   */\n      0x00\n        /* \"#utility.yul\":5453:5459   */\n      dup1\n        /* \"#utility.yul\":5461:5467   */\n      0x00\n        /* \"#utility.yul\":5510:5512   */\n      0x60\n        /* \"#utility.yul\":5498:5507   */\n      dup7\n        /* \"#utility.yul\":5489:5496   */\n      dup9\n        /* \"#utility.yul\":5485:5508   */\n      sub\n        /* \"#utility.yul\":5481:5513   */\n      slt\n        /* \"#utility.yul\":5478:5597   */\n      iszero\n      tag_169\n      jumpi\n        /* \"#utility.yul\":5516:5595   */\n      tag_170\n      tag_62\n      jump\t// in\n    tag_170:\n        /* \"#utility.yul\":5478:5597   */\n    tag_169:\n        /* \"#utility.yul\":5664:5665   */\n      0x00\n        /* \"#utility.yul\":5653:5662   */\n      dup7\n        /* \"#utility.yul\":5649:5666   */\n      add\n        /* \"#utility.yul\":5636:5667   */\n      calldataload\n        /* \"#utility.yul\":5694:5712   */\n      0xffffffffffffffff\n        /* \"#utility.yul\":5686:5692   */\n      dup2\n        /* \"#utility.yul\":5683:5713   */\n      gt\n        /* \"#utility.yul\":5680:5797   */\n      iszero\n      tag_171\n      jumpi\n        /* \"#utility.yul\":5716:5795   */\n      tag_172\n      tag_63\n      jump\t// in\n    tag_172:\n        /* \"#utility.yul\":5680:5797   */\n    tag_171:\n        /* \"#utility.yul\":5829:5894   */\n      tag_173\n        /* \"#utility.yul\":5886:5893   */\n      dup9\n        /* \"#utility.yul\":5877:5883   */\n      dup3\n        /* \"#utility.yul\":5866:5875   */\n      dup10\n        /* \"#utility.yul\":5862:5884   */\n      add\n        /* \"#utility.yul\":5829:5894   */\n      tag_82\n      jump\t// in\n    tag_173:\n        /* \"#utility.yul\":5811:5894   */\n      swap6\n      pop\n      swap6\n      pop\n        /* \"#utility.yul\":5607:5904   */\n      pop\n        /* \"#utility.yul\":5971:5973   */\n      0x20\n        /* \"#utility.yul\":5960:5969   */\n      dup7\n        /* \"#utility.yul\":5956:5974   */\n      add\n        /* \"#utility.yul\":5943:5975   */\n      calldataload\n        /* \"#utility.yul\":6002:6020   */\n      0xffffffffffffffff\n        /* \"#utility.yul\":5994:6000   */\n      dup2\n        /* \"#utility.yul\":5991:6021   */\n      gt\n        /* \"#utility.yul\":5988:6105   */\n      iszero\n      tag_174\n      jumpi\n        /* \"#utility.yul\":6024:6103   */\n      tag_175\n      tag_63\n      jump\t// in\n    tag_175:\n        /* \"#utility.yul\":5988:6105   */\n    tag_174:\n        /* \"#utility.yul\":6137:6202   */\n      tag_176\n        /* \"#utility.yul\":6194:6201   */\n      dup9\n        /* \"#utility.yul\":6185:6191   */\n      dup3\n        /* \"#utility.yul\":6174:6183   */\n      dup10\n        /* \"#utility.yul\":6170:6192   */\n      add\n        /* \"#utility.yul\":6137:6202   */\n      tag_82\n      jump\t// in\n    tag_176:\n        /* \"#utility.yul\":6119:6202   */\n      swap4\n      pop\n      swap4\n      pop\n        /* \"#utility.yul\":5914:6212   */\n      pop\n        /* \"#utility.yul\":6251:6253   */\n      0x40\n        /* \"#utility.yul\":6277:6330   */\n      tag_177\n        /* \"#utility.yul\":6322:6329   */\n      dup9\n        /* \"#utility.yul\":6313:6319   */\n      dup3\n        /* \"#utility.yul\":6302:6311   */\n      dup10\n        /* \"#utility.yul\":6298:6320   */\n      add\n        /* \"#utility.yul\":6277:6330   */\n      tag_70\n      jump\t// in\n    tag_177:\n        /* \"#utility.yul\":6267:6330   */\n      swap2\n      pop\n        /* \"#utility.yul\":6222:6340   */\n      pop\n        /* \"#utility.yul\":5328:6347   */\n      swap3\n      swap6\n      pop\n      swap3\n      swap6\n      swap1\n      swap4\n      pop\n      jump\t// out\n        /* \"#utility.yul\":6353:6439   */\n    tag_83:\n        /* \"#utility.yul\":6388:6395   */\n      0x00\n        /* \"#utility.yul\":6428:6432   */\n      0xff\n        /* \"#utility.yul\":6421:6426   */\n      dup3\n        /* \"#utility.yul\":6417:6433   */\n      and\n        /* \"#utility.yul\":6406:6433   */\n      swap1\n      pop\n        /* \"#utility.yul\":6353:6439   */\n      swap2\n      swap1\n      pop\n      jump\t// out\n        /* \"#utility.yul\":6445:6563   */\n    tag_84:\n        /* \"#utility.yul\":6516:6538   */\n      tag_180\n        /* \"#utility.yul\":6532:6537   */\n      dup2\n        /* \"#utility.yul\":6516:6538   */\n      tag_83\n      jump\t// in\n    tag_180:\n        /* \"#utility.yul\":6509:6514   */\n      dup2\n        /* \"#utility.yul\":6506:6539   */\n      eq\n        /* \"#utility.yul\":6496:6557   */\n      tag_181\n      jumpi\n        /* \"#utility.yul\":6553:6554   */\n      0x00\n        /* \"#utility.yul\":6550:6551   */\n      dup1\n        /* \"#utility.yul\":6543:6555   */\n      revert\n        /* \"#utility.yul\":6496:6557   */\n    tag_181:\n        /* \"#utility.yul\":6445:6563   */\n      pop\n      jump\t// out\n        /* \"#utility.yul\":6569:6704   */\n    tag_85:\n        /* \"#utility.yul\":6613:6618   */\n      0x00\n        /* \"#utility.yul\":6651:6657   */\n      dup2\n        /* \"#utility.yul\":6638:6658   */\n      calldataload\n        /* \"#utility.yul\":6629:6658   */\n      swap1\n      pop\n        /* \"#utility.yul\":6667:6698   */\n      tag_183\n        /* \"#utility.yul\":6692:6697   */\n      dup2\n        /* \"#utility.yul\":6667:6698   */\n      tag_84\n      jump\t// in\n    tag_183:\n        /* \"#utility.yul\":6569:6704   */\n      swap3\n      swap2\n      pop\n      pop\n      jump\t// out\n        /* \"#utility.yul\":6710:7035   */\n    tag_24:\n        /* \"#utility.yul\":6767:6773   */\n      0x00\n        /* \"#utility.yul\":6816:6818   */\n      0x20\n        /* \"#utility.yul\":6804:6813   */\n      dup3\n        /* \"#utility.yul\":6795:6802   */\n      dup5\n        /* \"#utility.yul\":6791:6814   */\n      sub\n        /* \"#utility.yul\":6787:6819   */\n      slt\n        /* \"#utility.yul\":6784:6903   */\n      iszero\n      tag_185\n      jumpi\n        /* \"#utility.yul\":6822:6901   */\n      tag_186\n      tag_62\n      jump\t// in\n    tag_186:\n        /* \"#utility.yul\":6784:6903   */\n    tag_185:\n        /* \"#utility.yul\":6942:6943   */\n      0x00\n        /* \"#utility.yul\":6967:7018   */\n      tag_187\n        /* \"#utility.yul\":7010:7017   */\n      dup5\n        /* \"#utility.yul\":7001:7007   */\n      dup3\n        /* \"#utility.yul\":6990:6999   */\n      dup6\n        /* \"#utility.yul\":6986:7008   */\n      add\n        /* \"#utility.yul\":6967:7018   */\n      tag_85\n      jump\t// in\n    tag_187:\n        /* \"#utility.yul\":6957:7018   */\n      swap2\n      pop\n        /* \"#utility.yul\":6913:7028   */\n      pop\n        /* \"#utility.yul\":6710:7035   */\n      swap3\n      swap2\n      pop\n      pop\n      jump\t// out\n        /* \"#utility.yul\":7041:7159   */\n    tag_86:\n        /* \"#utility.yul\":7128:7152   */\n      tag_189\n        /* \"#utility.yul\":7146:7151   */\n      dup2\n        /* \"#utility.yul\":7128:7152   */\n      tag_65\n      jump\t// in\n    tag_189:\n        /* \"#utility.yul\":7123:7126   */\n      dup3\n        /* \"#utility.yul\":7116:7153   */\n      mstore\n        /* \"#utility.yul\":7041:7159   */\n      pop\n      pop\n      jump\t// out\n        /* \"#utility.yul\":7165:7387   */\n    tag_29:\n        /* \"#utility.yul\":7258:7262   */\n      0x00\n        /* \"#utility.yul\":7296:7298   */\n      0x20\n        /* \"#utility.yul\":7285:7294   */\n      dup3\n        /* \"#utility.yul\":7281:7299   */\n      add\n        /* \"#utility.yul\":7273:7299   */\n      swap1\n      pop\n        /* \"#utility.yul\":7309:7380   */\n      tag_191\n        /* \"#utility.yul\":7377:7378   */\n      0x00\n        /* \"#utility.yul\":7366:7375   */\n      dup4\n        /* \"#utility.yul\":7362:7379   */\n      add\n        /* \"#utility.yul\":7353:7359   */\n      dup5\n        /* \"#utility.yul\":7309:7380   */\n      tag_86\n      jump\t// in\n    tag_191:\n        /* \"#utility.yul\":7165:7387   */\n      swap3\n      swap2\n      pop\n      pop\n      jump\t// out\n        /* \"#utility.yul\":7393:7617   */\n    tag_87:\n        /* \"#utility.yul\":7533:7567   */\n      0x4f6e6c7920746865206f776e65722063616e2063616c6c20746869732066756e\n        /* \"#utility.yul\":7529:7530   */\n      0x00\n        /* \"#utility.yul\":7521:7527   */\n      dup3\n        /* \"#utility.yul\":7517:7531   */\n      add\n        /* \"#utility.yul\":7510:7568   */\n      mstore\n        /* \"#utility.yul\":7602:7609   */\n      0x6374696f6e000000000000000000000000000000000000000000000000000000\n        /* \"#utility.yul\":7597:7599   */\n      0x20\n        /* \"#utility.yul\":7589:7595   */\n      dup3\n        /* \"#utility.yul\":7585:7600   */\n      add\n        /* \"#utility.yul\":7578:7610   */\n      mstore\n        /* \"#utility.yul\":7393:7617   */\n      pop\n      jump\t// out\n        /* \"#utility.yul\":7623:7989   */\n    tag_88:\n        /* \"#utility.yul\":7765:7768   */\n      0x00\n        /* \"#utility.yul\":7786:7853   */\n      tag_194\n        /* \"#utility.yul\":7850:7852   */\n      0x25\n        /* \"#utility.yul\":7845:7848   */\n      dup4\n        /* \"#utility.yul\":7786:7853   */\n      tag_72\n      jump\t// in\n    tag_194:\n        /* \"#utility.yul\":7779:7853   */\n      swap2\n      pop\n        /* \"#utility.yul\":7862:7955   */\n      tag_195\n        /* \"#utility.yul\":7951:7954   */\n      dup3\n        /* \"#utility.yul\":7862:7955   */\n      tag_87\n      jump\t// in\n    tag_195:\n        /* \"#utility.yul\":7980:7982   */\n      0x40\n        /* \"#utility.yul\":7975:7978   */\n      dup3\n        /* \"#utility.yul\":7971:7983   */\n      add\n        /* \"#utility.yul\":7964:7983   */\n      swap1\n      pop\n        /* \"#utility.yul\":7623:7989   */\n      swap2\n      swap1\n      pop\n      jump\t// out\n        /* \"#utility.yul\":7995:8414   */\n    tag_33:\n        /* \"#utility.yul\":8161:8165   */\n      0x00\n        /* \"#utility.yul\":8199:8201   */\n      0x20\n        /* \"#utility.yul\":8188:8197   */\n      dup3\n        /* \"#utility.yul\":8184:8202   */\n      add\n        /* \"#utility.yul\":8176:8202   */\n      swap1\n      pop\n        /* \"#utility.yul\":8248:8257   */\n      dup2\n        /* \"#utility.yul\":8242:8246   */\n      dup2\n        /* \"#utility.yul\":8238:8258   */\n      sub\n        /* \"#utility.yul\":8234:8235   */\n      0x00\n        /* \"#utility.yul\":8223:8232   */\n      dup4\n        /* \"#utility.yul\":8219:8236   */\n      add\n        /* \"#utility.yul\":8212:8259   */\n      mstore\n        /* \"#utility.yul\":8276:8407   */\n      tag_197\n        /* \"#utility.yul\":8402:8406   */\n      dup2\n        /* \"#utility.yul\":8276:8407   */\n      tag_88\n      jump\t// in\n    tag_197:\n        /* \"#utility.yul\":8268:8407   */\n      swap1\n      pop\n        /* \"#utility.yul\":7995:8414   */\n      swap2\n      swap1\n      pop\n      jump\t// out\n        /* \"#utility.yul\":8420:8600   */\n    tag_89:\n        /* \"#utility.yul\":8468:8545   */\n      0x4e487b7100000000000000000000000000000000000000000000000000000000\n        /* \"#utility.yul\":8465:8466   */\n      0x00\n        /* \"#utility.yul\":8458:8546   */\n      mstore\n        /* \"#utility.yul\":8565:8569   */\n      0x22\n        /* \"#utility.yul\":8562:8563   */\n      0x04\n        /* \"#utility.yul\":8555:8570   */\n      mstore\n        /* \"#utility.yul\":8589:8593   */\n      0x24\n        /* \"#utility.yul\":8586:8587   */\n      0x00\n        /* \"#utility.yul\":8579:8594   */\n      revert\n        /* \"#utility.yul\":8606:8926   */\n    tag_36:\n        /* \"#utility.yul\":8650:8656   */\n      0x00\n        /* \"#utility.yul\":8687:8688   */\n      0x02\n        /* \"#utility.yul\":8681:8685   */\n      dup3\n        /* \"#utility.yul\":8677:8689   */\n      div\n        /* \"#utility.yul\":8667:8689   */\n      swap1\n      pop\n        /* \"#utility.yul\":8734:8735   */\n      0x01\n        /* \"#utility.yul\":8728:8732   */\n      dup3\n        /* \"#utility.yul\":8724:8736   */\n      and\n        /* \"#utility.yul\":8755:8773   */\n      dup1\n        /* \"#utility.yul\":8745:8826   */\n      tag_200\n      jumpi\n        /* \"#utility.yul\":8811:8815   */\n      0x7f\n        /* \"#utility.yul\":8803:8809   */\n      dup3\n        /* \"#utility.yul\":8799:8816   */\n      and\n        /* \"#utility.yul\":8789:8816   */\n      swap2\n      pop\n        /* \"#utility.yul\":8745:8826   */\n    tag_200:\n        /* \"#utility.yul\":8873:8875   */\n      0x20\n        /* \"#utility.yul\":8865:8871   */\n      dup3\n        /* \"#utility.yul\":8862:8876   */\n      lt\n        /* \"#utility.yul\":8842:8860   */\n      dup2\n        /* \"#utility.yul\":8839:8877   */\n      sub\n        /* \"#utility.yul\":8836:8920   */\n      tag_201\n      jumpi\n        /* \"#utility.yul\":8892:8910   */\n      tag_202\n      tag_89\n      jump\t// in\n    tag_202:\n        /* \"#utility.yul\":8836:8920   */\n    tag_201:\n        /* \"#utility.yul\":8657:8926   */\n      pop\n        /* \"#utility.yul\":8606:8926   */\n      swap2\n      swap1\n      pop\n      jump\t// out\n        /* \"#utility.yul\":8932:9112   */\n    tag_90:\n        /* \"#utility.yul\":8980:9057   */\n      0x4e487b7100000000000000000000000000000000000000000000000000000000\n        /* \"#utility.yul\":8977:8978   */\n      0x00\n        /* \"#utility.yul\":8970:9058   */\n      mstore\n        /* \"#utility.yul\":9077:9081   */\n      0x41\n        /* \"#utility.yul\":9074:9075   */\n      0x04\n        /* \"#utility.yul\":9067:9082   */\n      mstore\n        /* \"#utility.yul\":9101:9105   */\n      0x24\n        /* \"#utility.yul\":9098:9099   */\n      0x00\n        /* \"#utility.yul\":9091:9106   */\n      revert\n        /* \"#utility.yul\":9118:9259   */\n    tag_91:\n        /* \"#utility.yul\":9167:9171   */\n      0x00\n        /* \"#utility.yul\":9190:9193   */\n      dup2\n        /* \"#utility.yul\":9182:9193   */\n      swap1\n      pop\n        /* \"#utility.yul\":9213:9216   */\n      dup2\n        /* \"#utility.yul\":9210:9211   */\n      0x00\n        /* \"#utility.yul\":9203:9217   */\n      mstore\n        /* \"#utility.yul\":9247:9251   */\n      0x20\n        /* \"#utility.yul\":9244:9245   */\n      0x00\n        /* \"#utility.yul\":9234:9252   */\n      keccak256\n        /* \"#utility.yul\":9226:9252   */\n      swap1\n      pop\n        /* \"#utility.yul\":9118:9259   */\n      swap2\n      swap1\n      pop\n      jump\t// out\n        /* \"#utility.yul\":9265:9358   */\n    tag_92:\n        /* \"#utility.yul\":9302:9308   */\n      0x00\n        /* \"#utility.yul\":9349:9351   */\n      0x20\n        /* \"#utility.yul\":9344:9346   */\n      0x1f\n        /* \"#utility.yul\":9337:9342   */\n      dup4\n        /* \"#utility.yul\":9333:9347   */\n      add\n        /* \"#utility.yul\":9329:9352   */\n      div\n        /* \"#utility.yul\":9319:9352   */\n      swap1\n      pop\n        /* \"#utility.yul\":9265:9358   */\n      swap2\n      swap1\n      pop\n      jump\t// out\n        /* \"#utility.yul\":9364:9471   */\n    tag_93:\n        /* \"#utility.yul\":9408:9416   */\n      0x00\n        /* \"#utility.yul\":9458:9463   */\n      dup3\n        /* \"#utility.yul\":9452:9456   */\n      dup3\n        /* \"#utility.yul\":9448:9464   */\n      shl\n        /* \"#utility.yul\":9427:9464   */\n      swap1\n      pop\n        /* \"#utility.yul\":9364:9471   */\n      swap3\n      swap2\n      pop\n      pop\n      jump\t// out\n        /* \"#utility.yul\":9477:9870   */\n    tag_94:\n        /* \"#utility.yul\":9546:9552   */\n      0x00\n        /* \"#utility.yul\":9596:9597   */\n      0x08\n        /* \"#utility.yul\":9584:9594   */\n      dup4\n        /* \"#utility.yul\":9580:9598   */\n      mul\n        /* \"#utility.yul\":9619:9716   */\n      tag_208\n        /* \"#utility.yul\":9649:9715   */\n      0xffffffffffffffffffffffffffffffffffffffffffffffffffffffffffffffff\n        /* \"#utility.yul\":9638:9647   */\n      dup3\n        /* \"#utility.yul\":9619:9716   */\n      tag_93\n      jump\t// in\n    tag_208:\n        /* \"#utility.yul\":9737:9776   */\n      tag_209\n        /* \"#utility.yul\":9767:9775   */\n      dup7\n        /* \"#utility.yul\":9756:9765   */\n      dup4\n        /* \"#utility.yul\":9737:9776   */\n      tag_93\n      jump\t// in\n    tag_209:\n        /* \"#utility.yul\":9725:9776   */\n      swap6\n      pop\n        /* \"#utility.yul\":9809:9813   */\n      dup1\n        /* \"#utility.yul\":9805:9814   */\n      not\n        /* \"#utility.yul\":9798:9803   */\n      dup5\n        /* \"#utility.yul\":9794:9815   */\n      and\n        /* \"#utility.yul\":9785:9815   */\n      swap4\n      pop\n        /* \"#utility.yul\":9858:9862   */\n      dup1\n        /* \"#utility.yul\":9848:9856   */\n      dup7\n        /* \"#utility.yul\":9844:9863   */\n      and\n        /* \"#utility.yul\":9837:9842   */\n      dup5\n        /* \"#utility.yul\":9834:9864   */\n      or\n        /* \"#utility.yul\":9824:9864   */\n      swap3\n      pop\n        /* \"#utility.yul\":9553:9870   */\n      pop\n      pop\n        /* \"#utility.yul\":9477:9870   */\n      swap4\n      swap3\n      pop\n      pop\n      pop\n      jump\t// out\n        /* \"#utility.yul\":9876:9936   */\n    tag_95:\n        /* \"#utility.yul\":9904:9907   */\n      0x00\n        /* \"#utility.yul\":9925:9930   */\n      dup2\n        /* \"#utility.yul\":9918:9930   */\n      swap1\n      pop\n        /* \"#utility.yul\":9876:9936   */\n      swap2\n      swap1\n      pop\n      jump\t// out\n        /* \"#utility.yul\":9942:10084   */\n    tag_96:\n        /* \"#utility.yul\":9992:10001   */\n      0x00\n        /* \"#utility.yul\":10025:10078   */\n      tag_212\n        /* \"#utility.yul\":10043:10077   */\n      tag_213\n        /* \"#utility.yul\":10052:10076   */\n      tag_214\n        /* \"#utility.yul\":10070:10075   */\n      dup5\n        /* \"#utility.yul\":10052:10076   */\n      tag_68\n      jump\t// in\n    tag_214:\n        /* \"#utility.yul\":10043:10077   */\n      tag_95\n      jump\t// in\n    tag_213:\n        /* \"#utility.yul\":10025:10078   */\n      tag_68\n      jump\t// in\n    tag_212:\n        /* \"#utility.yul\":10012:10078   */\n      swap1\n      pop\n        /* \"#utility.yul\":9942:10084   */\n      swap2\n      swap1\n      pop\n      jump\t// out\n        /* \"#utility.yul\":10090:10165   */\n    tag_97:\n        /* \"#utility.yul\":10133:10136   */\n      0x00\n        /* \"#utility.yul\":10154:10159   */\n      dup2\n        /* \"#utility.yul\":10147:10159   */\n      swap1\n      pop\n        /* \"#utility.yul\":10090:10165   */\n      swap2\n      swap1\n      pop\n      jump\t// out\n        /* \"#utility.yul\":10171:10440   */\n    tag_98:\n        /* \"#utility.yul\":10281:10320   */\n      tag_217\n        /* \"#utility.yul\":10312:10319   */\n      dup4\n        /* \"#utility.yul\":10281:10320   */\n      tag_96\n      jump\t// in\n    tag_217:\n        /* \"#utility.yul\":10342:10433   */\n      tag_218\n        /* \"#utility.yul\":10391:10432   */\n      tag_219\n        /* \"#utility.yul\":10415:10431   */\n      dup3\n        /* \"#utility.yul\":10391:10432   */\n      tag_97\n      jump\t// in\n    tag_219:\n        /* \"#utility.yul\":10383:10389   */\n      dup5\n        /* \"#utility.yul\":10376:10380   */\n      dup5\n        /* \"#utility.yul\":10370:10381   */\n      sload\n        /* \"#utility.yul\":10342:10433   */\n      tag_94\n      jump\t// in\n    tag_218:\n        /* \"#utility.yul\":10336:10340   */\n      dup3\n        /* \"#utility.yul\":10329:10434   */\n      sstore\n        /* \"#utility.yul\":10247:10440   */\n      pop\n        /* \"#utility.yul\":10171:10440   */\n      pop\n      pop\n      pop\n      jump\t// out\n        /* \"#utility.yul\":10446:10519   */\n    tag_99:\n        /* \"#utility.yul\":10491:10494   */\n      0x00\n        /* \"#utility.yul\":10446:10519   */\n      swap1\n      jump\t// out\n        /* \"#utility.yul\":10525:10714   */\n    tag_100:\n        /* \"#utility.yul\":10602:10634   */\n      tag_222\n      tag_99\n      jump\t// in\n    tag_222:\n        /* \"#utility.yul\":10643:10708   */\n      tag_223\n        /* \"#utility.yul\":10701:10707   */\n      dup2\n        /* \"#utility.yul\":10693:10699   */\n      dup5\n        /* \"#utility.yul\":10687:10691   */\n      dup5\n        /* \"#utility.yul\":10643:10708   */\n      tag_98\n      jump\t// in\n    tag_223:\n        /* \"#utility.yul\":10578:10714   */\n      pop\n        /* \"#utility.yul\":10525:10714   */\n      pop\n      pop\n      jump\t// out\n        /* \"#utility.yul\":10720:10906   */\n    tag_101:\n        /* \"#utility.yul\":10780:10900   */\n    tag_225:\n        /* \"#utility.yul\":10797:10800   */\n      dup2\n        /* \"#utility.yul\":10790:10795   */\n      dup2\n        /* \"#utility.yul\":10787:10801   */\n      lt\n        /* \"#utility.yul\":10780:10900   */\n      iszero\n      tag_227\n      jumpi\n        /* \"#utility.yul\":10851:10890   */\n      tag_228\n        /* \"#utility.yul\":10888:10889   */\n      0x00\n        /* \"#utility.yul\":10881:10886   */\n      dup3\n        /* \"#utility.yul\":10851:10890   */\n      tag_100\n      jump\t// in\n    tag_228:\n        /* \"#utility.yul\":10824:10825   */\n      0x01\n        /* \"#utility.yul\":10817:10822   */\n      dup2\n        /* \"#utility.yul\":10813:10826   */\n      add\n        /* \"#utility.yul\":10804:10826   */\n      swap1\n      pop\n        /* \"#utility.yul\":10780:10900   */\n      jump(tag_225)\n    tag_227:\n        /* \"#utility.yul\":10720:10906   */\n      pop\n      pop\n      jump\t// out\n        /* \"#utility.yul\":10912:11455   */\n    tag_102:\n        /* \"#utility.yul\":11013:11015   */\n      0x1f\n        /* \"#utility.yul\":11008:11011   */\n      dup3\n        /* \"#utility.yul\":11005:11016   */\n      gt\n        /* \"#utility.yul\":11002:11448   */\n      iszero\n      tag_230\n      jumpi\n        /* \"#utility.yul\":11047:11085   */\n      tag_231\n        /* \"#utility.yul\":11079:11084   */\n      dup2\n        /* \"#utility.yul\":11047:11085   */\n      tag_91\n      jump\t// in\n    tag_231:\n        /* \"#utility.yul\":11131:11160   */\n      tag_232\n        /* \"#utility.yul\":11149:11159   */\n      dup5\n        /* \"#utility.yul\":11131:11160   */\n      tag_92\n      jump\t// in\n    tag_232:\n        /* \"#utility.yul\":11121:11129   */\n      dup2\n        /* \"#utility.yul\":11117:11161   */\n      add\n        /* \"#utility.yul\":11314:11316   */\n      0x20\n        /* \"#utility.yul\":11302:11312   */\n      dup6\n        /* \"#utility.yul\":11299:11317   */\n      lt\n        /* \"#utility.yul\":11296:11345   */\n      iszero\n      tag_233\n      jumpi\n        /* \"#utility.yul\":11335:11343   */\n      dup2\n        /* \"#utility.yul\":11320:11343   */\n      swap1\n      pop\n        /* \"#utility.yul\":11296:11345   */\n    tag_233:\n        /* \"#utility.yul\":11358:11438   */\n      tag_234\n        /* \"#utility.yul\":11414:11436   */\n      tag_235\n        /* \"#utility.yul\":11432:11435   */\n      dup6\n        /* \"#utility.yul\":11414:11436   */\n      tag_92\n      jump\t// in\n    tag_235:\n        /* \"#utility.yul\":11404:11412   */\n      dup4\n        /* \"#utility.yul\":11400:11437   */\n      add\n        /* \"#utility.yul\":11387:11398   */\n      dup3\n        /* \"#utility.yul\":11358:11438   */\n      tag_101\n      jump\t// in\n    tag_234:\n        /* \"#utility.yul\":11017:11448   */\n      pop\n      pop\n        /* \"#utility.yul\":11002:11448   */\n    tag_230:\n        /* \"#utility.yul\":10912:11455   */\n      pop\n      pop\n      pop\n      jump\t// out\n        /* \"#utility.yul\":11461:11578   */\n    tag_103:\n        /* \"#utility.yul\":11515:11523   */\n      0x00\n        /* \"#utility.yul\":11565:11570   */\n      dup3\n        /* \"#utility.yul\":11559:11563   */\n      dup3\n        /* \"#utility.yul\":11555:11571   */\n      shr\n        /* \"#utility.yul\":11534:11571   */\n      swap1\n      pop\n        /* \"#utility.yul\":11461:11578   */\n      swap3\n      swap2\n      pop\n      pop\n      jump\t// out\n        /* \"#utility.yul\":11584:11753   */\n    tag_104:\n        /* \"#utility.yul\":11628:11634   */\n      0x00\n        /* \"#utility.yul\":11661:11712   */\n      tag_238\n        /* \"#utility.yul\":11709:11710   */\n      0x00\n        /* \"#utility.yul\":11705:11711   */\n      not\n        /* \"#utility.yul\":11697:11702   */\n      dup5\n        /* \"#utility.yul\":11694:11695   */\n      0x08\n        /* \"#utility.yul\":11690:11703   */\n      mul\n        /* \"#utility.yul\":11661:11712   */\n      tag_103\n      jump\t// in\n    tag_238:\n        /* \"#utility.yul\":11657:11713   */\n      not\n        /* \"#utility.yul\":11742:11746   */\n      dup1\n        /* \"#utility.yul\":11736:11740   */\n      dup4\n        /* \"#utility.yul\":11732:11747   */\n      and\n        /* \"#utility.yul\":11722:11747   */\n      swap2\n      pop\n        /* \"#utility.yul\":11635:11753   */\n      pop\n        /* \"#utility.yul\":11584:11753   */\n      swap3\n      swap2\n      pop\n      pop\n      jump\t// out\n        /* \"#utility.yul\":11758:12053   */\n    tag_105:\n        /* \"#utility.yul\":11834:11838   */\n      0x00\n        /* \"#utility.yul\":11980:12009   */\n      tag_240\n        /* \"#utility.yul\":12005:12008   */\n      dup4\n        /* \"#utility.yul\":11999:12003   */\n      dup4\n        /* \"#utility.yul\":11980:12009   */\n      tag_104\n      jump\t// in\n    tag_240:\n        /* \"#utility.yul\":11972:12009   */\n      swap2\n      pop\n        /* \"#utility.yul\":12042:12045   */\n      dup3\n        /* \"#utility.yul\":12039:12040   */\n      0x02\n        /* \"#utility.yul\":12035:12046   */\n      mul\n        /* \"#utility.yul\":12029:12033   */\n      dup3\n        /* \"#utility.yul\":12026:12047   */\n      or\n        /* \"#utility.yul\":12018:12047   */\n      swap1\n      pop\n        /* \"#utility.yul\":11758:12053   */\n      swap3\n      swap2\n      pop\n      pop\n      jump\t// out\n        /* \"#utility.yul\":12058:13453   */\n    tag_55:\n        /* \"#utility.yul\":12175:12212   */\n      tag_242\n        /* \"#utility.yul\":12208:12211   */\n      dup3\n        /* \"#utility.yul\":12175:12212   */\n      tag_71\n      jump\t// in\n    tag_242:\n        /* \"#utility.yul\":12277:12295   */\n      0xffffffffffffffff\n        /* \"#utility.yul\":12269:12275   */\n      dup2\n        /* \"#utility.yul\":12266:12296   */\n      gt\n        /* \"#utility.yul\":12263:12319   */\n      iszero\n      tag_243\n      jumpi\n        /* \"#utility.yul\":12299:12317   */\n      tag_244\n      tag_90\n      jump\t// in\n    tag_244:\n        /* \"#utility.yul\":12263:12319   */\n    tag_243:\n        /* \"#utility.yul\":12343:12381   */\n      tag_245\n        /* \"#utility.yul\":12375:12379   */\n      dup3\n        /* \"#utility.yul\":12369:12380   */\n      sload\n        /* \"#utility.yul\":12343:12381   */\n      tag_36\n      jump\t// in\n    tag_245:\n        /* \"#utility.yul\":12428:12495   */\n      tag_246\n        /* \"#utility.yul\":12488:12494   */\n      dup3\n        /* \"#utility.yul\":12480:12486   */\n      dup3\n        /* \"#utility.yul\":12474:12478   */\n      dup6\n        /* \"#utility.yul\":12428:12495   */\n      tag_102\n      jump\t// in\n    tag_246:\n        /* \"#utility.yul\":12522:12523   */\n      0x00\n        /* \"#utility.yul\":12546:12550   */\n      0x20\n        /* \"#utility.yul\":12533:12550   */\n      swap1\n      pop\n        /* \"#utility.yul\":12578:12580   */\n      0x1f\n        /* \"#utility.yul\":12570:12576   */\n      dup4\n        /* \"#utility.yul\":12567:12581   */\n      gt\n        /* \"#utility.yul\":12595:12596   */\n      0x01\n        /* \"#utility.yul\":12590:13208   */\n      dup2\n      eq\n      tag_248\n      jumpi\n        /* \"#utility.yul\":13252:13253   */\n      0x00\n        /* \"#utility.yul\":13269:13275   */\n      dup5\n        /* \"#utility.yul\":13266:13343   */\n      iszero\n      tag_249\n      jumpi\n        /* \"#utility.yul\":13318:13327   */\n      dup3\n        /* \"#utility.yul\":13313:13316   */\n      dup8\n        /* \"#utility.yul\":13309:13328   */\n      add\n        /* \"#utility.yul\":13303:13329   */\n      mload\n        /* \"#utility.yul\":13294:13329   */\n      swap1\n      pop\n        /* \"#utility.yul\":13266:13343   */\n    tag_249:\n        /* \"#utility.yul\":13369:13436   */\n      tag_250\n        /* \"#utility.yul\":13429:13435   */\n      dup6\n        /* \"#utility.yul\":13422:13427   */\n      dup3\n        /* \"#utility.yul\":13369:13436   */\n      tag_105\n      jump\t// in\n    tag_250:\n        /* \"#utility.yul\":13363:13367   */\n      dup7\n        /* \"#utility.yul\":13356:13437   */\n      sstore\n        /* \"#utility.yul\":13225:13447   */\n      pop\n        /* \"#utility.yul\":12560:13447   */\n      jump(tag_247)\n        /* \"#utility.yul\":12590:13208   */\n    tag_248:\n        /* \"#utility.yul\":12642:12646   */\n      0x1f\n        /* \"#utility.yul\":12638:12647   */\n      not\n        /* \"#utility.yul\":12630:12636   */\n      dup5\n        /* \"#utility.yul\":12626:12648   */\n      and\n        /* \"#utility.yul\":12676:12713   */\n      tag_251\n        /* \"#utility.yul\":12708:12712   */\n      dup7\n        /* \"#utility.yul\":12676:12713   */\n      tag_91\n      jump\t// in\n    tag_251:\n        /* \"#utility.yul\":12735:12736   */\n      0x00\n        /* \"#utility.yul\":12749:12957   */\n    tag_252:\n        /* \"#utility.yul\":12763:12770   */\n      dup3\n        /* \"#utility.yul\":12760:12761   */\n      dup2\n        /* \"#utility.yul\":12757:12771   */\n      lt\n        /* \"#utility.yul\":12749:12957   */\n      iszero\n      tag_254\n      jumpi\n        /* \"#utility.yul\":12842:12851   */\n      dup5\n        /* \"#utility.yul\":12837:12840   */\n      dup10\n        /* \"#utility.yul\":12833:12852   */\n      add\n        /* \"#utility.yul\":12827:12853   */\n      mload\n        /* \"#utility.yul\":12819:12825   */\n      dup3\n        /* \"#utility.yul\":12812:12854   */\n      sstore\n        /* \"#utility.yul\":12893:12894   */\n      0x01\n        /* \"#utility.yul\":12885:12891   */\n      dup3\n        /* \"#utility.yul\":12881:12895   */\n      add\n        /* \"#utility.yul\":12871:12895   */\n      swap2\n      pop\n        /* \"#utility.yul\":12940:12942   */\n      0x20\n        /* \"#utility.yul\":12929:12938   */\n      dup6\n        /* \"#utility.yul\":12925:12943   */\n      add\n        /* \"#utility.yul\":12912:12943   */\n      swap5\n      pop\n        /* \"#utility.yul\":12786:12790   */\n      0x20\n        /* \"#utility.yul\":12783:12784   */\n      dup2\n        /* \"#utility.yul\":12779:12791   */\n      add\n        /* \"#utility.yul\":12774:12791   */\n      swap1\n      pop\n        /* \"#utility.yul\":12749:12957   */\n      jump(tag_252)\n    tag_254:\n        /* \"#utility.yul\":12985:12991   */\n      dup7\n        /* \"#utility.yul\":12976:12983   */\n      dup4\n        /* \"#utility.yul\":12973:12992   */\n      lt\n        /* \"#utility.yul\":12970:13149   */\n      iszero\n      tag_255\n      jumpi\n        /* \"#utility.yul\":13043:13052   */\n      dup5\n        /* \"#utility.yul\":13038:13041   */\n      dup10\n        /* \"#utility.yul\":13034:13053   */\n      add\n        /* \"#utility.yul\":13028:13054   */\n      mload\n        /* \"#utility.yul\":13086:13134   */\n      tag_256\n        /* \"#utility.yul\":13128:13132   */\n      0x1f\n        /* \"#utility.yul\":13120:13126   */\n      dup10\n        /* \"#utility.yul\":13116:13133   */\n      and\n        /* \"#utility.yul\":13105:13114   */\n      dup3\n        /* \"#utility.yul\":13086:13134   */\n      tag_104\n      jump\t// in\n    tag_256:\n        /* \"#utility.yul\":13078:13084   */\n      dup4\n        /* \"#utility.yul\":13071:13135   */\n      sstore\n        /* \"#utility.yul\":12993:13149   */\n      pop\n        /* \"#utility.yul\":12970:13149   */\n    tag_255:\n        /* \"#utility.yul\":13195:13196   */\n      0x01\n        /* \"#utility.yul\":13191:13192   */\n      0x02\n        /* \"#utility.yul\":13183:13189   */\n      dup9\n        /* \"#utility.yul\":13179:13193   */\n      mul\n        /* \"#utility.yul\":13175:13197   */\n      add\n        /* \"#utility.yul\":13169:13173   */\n      dup9\n        /* \"#utility.yul\":13162:13198   */\n      sstore\n        /* \"#utility.yul\":12597:13208   */\n      pop\n      pop\n      pop\n        /* \"#utility.yul\":12560:13447   */\n    tag_247:\n      pop\n        /* \"#utility.yul\":12150:13453   */\n      pop\n      pop\n      pop\n        /* \"#utility.yul\":12058:13453   */\n      pop\n      pop\n      jump\t// out\n\n    auxdata: 0xa2646970667358221220ac4e6aa52cd5049f91db9add83323cdb9e339621ef20a1727d928c7e1078669264736f6c63430008160033\n}\n",
				"bytecode": {
					"linkReferences": {},
					"object": "608060405234801561000f575f80fd5b503360015f6101000a81548173ffffffffffffffffffffffffffffffffffffffff021916908373ffffffffffffffffffffffffffffffffffffffff160217905550610cfb8061005d5f395ff3fe608060405234801561000f575f80fd5b5060043610610055575f3560e01c806313af4035146100595780631c7e379f146100755780633ca6d100146100ac578063b3f98adc146100c8578063bc677b46146100e4575b5f80fd5b610073600480360381019061006e9190610600565b610102565b005b61008f600480360381019061008a919061065e565b6101d4565b6040516100a398979695949392919061073c565b60405180910390f35b6100c660048036038101906100c19190610827565b61033d565b005b6100e260048036038101906100dd91906108ee565b610553565b005b6100ec610556565b6040516100f99190610928565b60405180910390f35b60015f9054906101000a900473ffffffffffffffffffffffffffffffffffffffff1673ffffffffffffffffffffffffffffffffffffffff163373ffffffffffffffffffffffffffffffffffffffff1614610191576040517f08c379a0000000000000000000000000000000000000000000000000000000008152600401610188906109b1565b60405180910390fd5b8060015f6101000a81548173ffffffffffffffffffffffffffffffffffffffff021916908373ffffffffffffffffffffffffffffffffffffffff16021790555050565b6002602052805f5260405f205f91509050805f0180546101f3906109fc565b80601f016020809104026020016040519081016040528092919081815260200182805461021f906109fc565b801561026a5780601f106102415761010080835404028352916020019161026a565b820191905f5260205f20905b81548152906001019060200180831161024d57829003601f168201915b50505050509080600101805461027f906109fc565b80601f01602080910402602001604051908101604052809291908181526020018280546102ab906109fc565b80156102f65780601f106102cd576101008083540402835291602001916102f6565b820191905f5260205f20905b8154815290600101906020018083116102d957829003601f168201915b505050505090806002015490806003015490806004015490806005015490806006015f9054906101000a900460ff16908060060160019054906101000a900460ff16905088565b60015f9054906101000a900473ffffffffffffffffffffffffffffffffffffffff1673ffffffffffffffffffffffffffffffffffffffff163373ffffffffffffffffffffffffffffffffffffffff16146103cc576040517f08c379a00000000000000000000000000000000000000000000000000000000081526004016103c3906109b1565b60405180910390fd5b6103d55f61057e565b5f6103df5f610592565b905060405180610100016040528087878080601f0160208091040260200160405190810160405280939291908181526020018383808284375f81840152601f19601f82011690508083019250505050505050815260200185858080601f0160208091040260200160405190810160405280939291908181526020018383808284375f81840152601f19601f8201169050808301925050505050505081526020015f81526020015f81526020015f81526020018381526020015f151581526020016001151581525060025f8381526020019081526020015f205f820151815f0190816104ca9190610bf6565b5060208201518160010190816104e09190610bf6565b5060408201518160020155606082015181600301556080820151816004015560a0820151816005015560c0820151816006015f6101000a81548160ff02191690831515021790555060e08201518160060160016101000a81548160ff021916908315150217905550905050505050505050565b50565b5f60015f9054906101000a900473ffffffffffffffffffffffffffffffffffffffff16905090565b6001815f015f828254019250508190555050565b5f815f01549050919050565b5f80fd5b5f80fd5b5f73ffffffffffffffffffffffffffffffffffffffff82169050919050565b5f6105cf826105a6565b9050919050565b6105df816105c5565b81146105e9575f80fd5b50565b5f813590506105fa816105d6565b92915050565b5f602082840312156106155761061461059e565b5b5f610622848285016105ec565b91505092915050565b5f819050919050565b61063d8161062b565b8114610647575f80fd5b50565b5f8135905061065881610634565b92915050565b5f602082840312156106735761067261059e565b5b5f6106808482850161064a565b91505092915050565b5f81519050919050565b5f82825260208201905092915050565b5f5b838110156106c05780820151818401526020810190506106a5565b5f8484015250505050565b5f601f19601f8301169050919050565b5f6106e582610689565b6106ef8185610693565b93506106ff8185602086016106a3565b610708816106cb565b840191505092915050565b61071c8161062b565b82525050565b5f8115159050919050565b61073681610722565b82525050565b5f610100820190508181035f830152610755818b6106db565b90508181036020830152610769818a6106db565b90506107786040830189610713565b6107856060830188610713565b6107926080830187610713565b61079f60a0830186610713565b6107ac60c083018561072d565b6107b960e083018461072d565b9998505050505050505050565b5f80fd5b5f80fd5b5f80fd5b5f8083601f8401126107e7576107e66107c6565b5b8235905067ffffffffffffffff811115610804576108036107ca565b5b6020830191508360018202830111156108205761081f6107ce565b5b9250929050565b5f805f805f606086880312156108405761083f61059e565b5b5f86013567ffffffffffffffff81111561085d5761085c6105a2565b5b610869888289016107d2565b9550955050602086013567ffffffffffffffff81111561088c5761088b6105a2565b5b610898888289016107d2565b935093505060406108ab8882890161064a565b9150509295509295909350565b5f60ff82169050919050565b6108cd816108b8565b81146108d7575f80fd5b50565b5f813590506108e8816108c4565b92915050565b5f602082840312156109035761090261059e565b5b5f610910848285016108da565b91505092915050565b610922816105c5565b82525050565b5f60208201905061093b5f830184610919565b92915050565b7f4f6e6c7920746865206f776e65722063616e2063616c6c20746869732066756e5f8201527f6374696f6e000000000000000000000000000000000000000000000000000000602082015250565b5f61099b602583610693565b91506109a682610941565b604082019050919050565b5f6020820190508181035f8301526109c88161098f565b9050919050565b7f4e487b71000000000000000000000000000000000000000000000000000000005f52602260045260245ffd5b5f6002820490506001821680610a1357607f821691505b602082108103610a2657610a256109cf565b5b50919050565b7f4e487b71000000000000000000000000000000000000000000000000000000005f52604160045260245ffd5b5f819050815f5260205f209050919050565b5f6020601f8301049050919050565b5f82821b905092915050565b5f60088302610ab57fffffffffffffffffffffffffffffffffffffffffffffffffffffffffffffffff82610a7a565b610abf8683610a7a565b95508019841693508086168417925050509392505050565b5f819050919050565b5f610afa610af5610af08461062b565b610ad7565b61062b565b9050919050565b5f819050919050565b610b1383610ae0565b610b27610b1f82610b01565b848454610a86565b825550505050565b5f90565b610b3b610b2f565b610b46818484610b0a565b505050565b5b81811015610b6957610b5e5f82610b33565b600181019050610b4c565b5050565b601f821115610bae57610b7f81610a59565b610b8884610a6b565b81016020851015610b97578190505b610bab610ba385610a6b565b830182610b4b565b50505b505050565b5f82821c905092915050565b5f610bce5f1984600802610bb3565b1980831691505092915050565b5f610be68383610bbf565b9150826002028217905092915050565b610bff82610689565b67ffffffffffffffff811115610c1857610c17610a2c565b5b610c2282546109fc565b610c2d828285610b6d565b5f60209050601f831160018114610c5e575f8415610c4c578287015190505b610c568582610bdb565b865550610cbd565b601f198416610c6c86610a59565b5f5b82811015610c9357848901518255600182019150602085019450602081019050610c6e565b86831015610cb05784890151610cac601f891682610bbf565b8355505b6001600288020188555050505b50505050505056fea2646970667358221220ac4e6aa52cd5049f91db9add83323cdb9e339621ef20a1727d928c7e1078669264736f6c63430008160033",
					"opcodes": "PUSH1 0x80 PUSH1 0x40 MSTORE CALLVALUE DUP1 ISZERO PUSH2 0xF JUMPI PUSH0 DUP1 REVERT JUMPDEST POP CALLER PUSH1 0x1 PUSH0 PUSH2 0x100 EXP DUP2 SLOAD DUP2 PUSH20 0xFFFFFFFFFFFFFFFFFFFFFFFFFFFFFFFFFFFFFFFF MUL NOT AND SWAP1 DUP4 PUSH20 0xFFFFFFFFFFFFFFFFFFFFFFFFFFFFFFFFFFFFFFFF AND MUL OR SWAP1 SSTORE POP PUSH2 0xCFB DUP1 PUSH2 0x5D PUSH0 CODECOPY PUSH0 RETURN INVALID PUSH1 0x80 PUSH1 0x40 MSTORE CALLVALUE DUP1 ISZERO PUSH2 0xF JUMPI PUSH0 DUP1 REVERT JUMPDEST POP PUSH1 0x4 CALLDATASIZE LT PUSH2 0x55 JUMPI PUSH0 CALLDATALOAD PUSH1 0xE0 SHR DUP1 PUSH4 0x13AF4035 EQ PUSH2 0x59 JUMPI DUP1 PUSH4 0x1C7E379F EQ PUSH2 0x75 JUMPI DUP1 PUSH4 0x3CA6D100 EQ PUSH2 0xAC JUMPI DUP1 PUSH4 0xB3F98ADC EQ PUSH2 0xC8 JUMPI DUP1 PUSH4 0xBC677B46 EQ PUSH2 0xE4 JUMPI JUMPDEST PUSH0 DUP1 REVERT JUMPDEST PUSH2 0x73 PUSH1 0x4 DUP1 CALLDATASIZE SUB DUP2 ADD SWAP1 PUSH2 0x6E SWAP2 SWAP1 PUSH2 0x600 JUMP JUMPDEST PUSH2 0x102 JUMP JUMPDEST STOP JUMPDEST PUSH2 0x8F PUSH1 0x4 DUP1 CALLDATASIZE SUB DUP2 ADD SWAP1 PUSH2 0x8A SWAP2 SWAP1 PUSH2 0x65E JUMP JUMPDEST PUSH2 0x1D4 JUMP JUMPDEST PUSH1 0x40 MLOAD PUSH2 0xA3 SWAP9 SWAP8 SWAP7 SWAP6 SWAP5 SWAP4 SWAP3 SWAP2 SWAP1 PUSH2 0x73C JUMP JUMPDEST PUSH1 0x40 MLOAD DUP1 SWAP2 SUB SWAP1 RETURN JUMPDEST PUSH2 0xC6 PUSH1 0x4 DUP1 CALLDATASIZE SUB DUP2 ADD SWAP1 PUSH2 0xC1 SWAP2 SWAP1 PUSH2 0x827 JUMP JUMPDEST PUSH2 0x33D JUMP JUMPDEST STOP JUMPDEST PUSH2 0xE2 PUSH1 0x4 DUP1 CALLDATASIZE SUB DUP2 ADD SWAP1 PUSH2 0xDD SWAP2 SWAP1 PUSH2 0x8EE JUMP JUMPDEST PUSH2 0x553 JUMP JUMPDEST STOP JUMPDEST PUSH2 0xEC PUSH2 0x556 JUMP JUMPDEST PUSH1 0x40 MLOAD PUSH2 0xF9 SWAP2 SWAP1 PUSH2 0x928 JUMP JUMPDEST PUSH1 0x40 MLOAD DUP1 SWAP2 SUB SWAP1 RETURN JUMPDEST PUSH1 0x1 PUSH0 SWAP1 SLOAD SWAP1 PUSH2 0x100 EXP SWAP1 DIV PUSH20 0xFFFFFFFFFFFFFFFFFFFFFFFFFFFFFFFFFFFFFFFF AND PUSH20 0xFFFFFFFFFFFFFFFFFFFFFFFFFFFFFFFFFFFFFFFF AND CALLER PUSH20 0xFFFFFFFFFFFFFFFFFFFFFFFFFFFFFFFFFFFFFFFF AND EQ PUSH2 0x191 JUMPI PUSH1 0x40 MLOAD PUSH32 0x8C379A000000000000000000000000000000000000000000000000000000000 DUP2 MSTORE PUSH1 0x4 ADD PUSH2 0x188 SWAP1 PUSH2 0x9B1 JUMP JUMPDEST PUSH1 0x40 MLOAD DUP1 SWAP2 SUB SWAP1 REVERT JUMPDEST DUP1 PUSH1 0x1 PUSH0 PUSH2 0x100 EXP DUP2 SLOAD DUP2 PUSH20 0xFFFFFFFFFFFFFFFFFFFFFFFFFFFFFFFFFFFFFFFF MUL NOT AND SWAP1 DUP4 PUSH20 0xFFFFFFFFFFFFFFFFFFFFFFFFFFFFFFFFFFFFFFFF AND MUL OR SWAP1 SSTORE POP POP JUMP JUMPDEST PUSH1 0x2 PUSH1 0x20 MSTORE DUP1 PUSH0 MSTORE PUSH1 0x40 PUSH0 KECCAK256 PUSH0 SWAP2 POP SWAP1 POP DUP1 PUSH0 ADD DUP1 SLOAD PUSH2 0x1F3 SWAP1 PUSH2 0x9FC JUMP JUMPDEST DUP1 PUSH1 0x1F ADD PUSH1 0x20 DUP1 SWAP2 DIV MUL PUSH1 0x20 ADD PUSH1 0x40 MLOAD SWAP1 DUP2 ADD PUSH1 0x40 MSTORE DUP1 SWAP3 SWAP2 SWAP1 DUP2 DUP2 MSTORE PUSH1 0x20 ADD DUP3 DUP1 SLOAD PUSH2 0x21F SWAP1 PUSH2 0x9FC JUMP JUMPDEST DUP1 ISZERO PUSH2 0x26A JUMPI DUP1 PUSH1 0x1F LT PUSH2 0x241 JUMPI PUSH2 0x100 DUP1 DUP4 SLOAD DIV MUL DUP4 MSTORE SWAP2 PUSH1 0x20 ADD SWAP2 PUSH2 0x26A JUMP JUMPDEST DUP3 ADD SWAP2 SWAP1 PUSH0 MSTORE PUSH1 0x20 PUSH0 KECCAK256 SWAP1 JUMPDEST DUP2 SLOAD DUP2 MSTORE SWAP1 PUSH1 0x1 ADD SWAP1 PUSH1 0x20 ADD DUP1 DUP4 GT PUSH2 0x24D JUMPI DUP3 SWAP1 SUB PUSH1 0x1F AND DUP3 ADD SWAP2 JUMPDEST POP POP POP POP POP SWAP1 DUP1 PUSH1 0x1 ADD DUP1 SLOAD PUSH2 0x27F SWAP1 PUSH2 0x9FC JUMP JUMPDEST DUP1 PUSH1 0x1F ADD PUSH1 0x20 DUP1 SWAP2 DIV MUL PUSH1 0x20 ADD PUSH1 0x40 MLOAD SWAP1 DUP2 ADD PUSH1 0x40 MSTORE DUP1 SWAP3 SWAP2 SWAP1 DUP2 DUP2 MSTORE PUSH1 0x20 ADD DUP3 DUP1 SLOAD PUSH2 0x2AB SWAP1 PUSH2 0x9FC JUMP JUMPDEST DUP1 ISZERO PUSH2 0x2F6 JUMPI DUP1 PUSH1 0x1F LT PUSH2 0x2CD JUMPI PUSH2 0x100 DUP1 DUP4 SLOAD DIV MUL DUP4 MSTORE SWAP2 PUSH1 0x20 ADD SWAP2 PUSH2 0x2F6 JUMP JUMPDEST DUP3 ADD SWAP2 SWAP1 PUSH0 MSTORE PUSH1 0x20 PUSH0 KECCAK256 SWAP1 JUMPDEST DUP2 SLOAD DUP2 MSTORE SWAP1 PUSH1 0x1 ADD SWAP1 PUSH1 0x20 ADD DUP1 DUP4 GT PUSH2 0x2D9 JUMPI DUP3 SWAP1 SUB PUSH1 0x1F AND DUP3 ADD SWAP2 JUMPDEST POP POP POP POP POP SWAP1 DUP1 PUSH1 0x2 ADD SLOAD SWAP1 DUP1 PUSH1 0x3 ADD SLOAD SWAP1 DUP1 PUSH1 0x4 ADD SLOAD SWAP1 DUP1 PUSH1 0x5 ADD SLOAD SWAP1 DUP1 PUSH1 0x6 ADD PUSH0 SWAP1 SLOAD SWAP1 PUSH2 0x100 EXP SWAP1 DIV PUSH1 0xFF AND SWAP1 DUP1 PUSH1 0x6 ADD PUSH1 0x1 SWAP1 SLOAD SWAP1 PUSH2 0x100 EXP SWAP1 DIV PUSH1 0xFF AND SWAP1 POP DUP9 JUMP JUMPDEST PUSH1 0x1 PUSH0 SWAP1 SLOAD SWAP1 PUSH2 0x100 EXP SWAP1 DIV PUSH20 0xFFFFFFFFFFFFFFFFFFFFFFFFFFFFFFFFFFFFFFFF AND PUSH20 0xFFFFFFFFFFFFFFFFFFFFFFFFFFFFFFFFFFFFFFFF AND CALLER PUSH20 0xFFFFFFFFFFFFFFFFFFFFFFFFFFFFFFFFFFFFFFFF AND EQ PUSH2 0x3CC JUMPI PUSH1 0x40 MLOAD PUSH32 0x8C379A000000000000000000000000000000000000000000000000000000000 DUP2 MSTORE PUSH1 0x4 ADD PUSH2 0x3C3 SWAP1 PUSH2 0x9B1 JUMP JUMPDEST PUSH1 0x40 MLOAD DUP1 SWAP2 SUB SWAP1 REVERT JUMPDEST PUSH2 0x3D5 PUSH0 PUSH2 0x57E JUMP JUMPDEST PUSH0 PUSH2 0x3DF PUSH0 PUSH2 0x592 JUMP JUMPDEST SWAP1 POP PUSH1 0x40 MLOAD DUP1 PUSH2 0x100 ADD PUSH1 0x40 MSTORE DUP1 DUP8 DUP8 DUP1 DUP1 PUSH1 0x1F ADD PUSH1 0x20 DUP1 SWAP2 DIV MUL PUSH1 0x20 ADD PUSH1 0x40 MLOAD SWAP1 DUP2 ADD PUSH1 0x40 MSTORE DUP1 SWAP4 SWAP3 SWAP2 SWAP1 DUP2 DUP2 MSTORE PUSH1 0x20 ADD DUP4 DUP4 DUP1 DUP3 DUP5 CALLDATACOPY PUSH0 DUP2 DUP5 ADD MSTORE PUSH1 0x1F NOT PUSH1 0x1F DUP3 ADD AND SWAP1 POP DUP1 DUP4 ADD SWAP3 POP POP POP POP POP POP POP DUP2 MSTORE PUSH1 0x20 ADD DUP6 DUP6 DUP1 DUP1 PUSH1 0x1F ADD PUSH1 0x20 DUP1 SWAP2 DIV MUL PUSH1 0x20 ADD PUSH1 0x40 MLOAD SWAP1 DUP2 ADD PUSH1 0x40 MSTORE DUP1 SWAP4 SWAP3 SWAP2 SWAP1 DUP2 DUP2 MSTORE PUSH1 0x20 ADD DUP4 DUP4 DUP1 DUP3 DUP5 CALLDATACOPY PUSH0 DUP2 DUP5 ADD MSTORE PUSH1 0x1F NOT PUSH1 0x1F DUP3 ADD AND SWAP1 POP DUP1 DUP4 ADD SWAP3 POP POP POP POP POP POP POP DUP2 MSTORE PUSH1 0x20 ADD PUSH0 DUP2 MSTORE PUSH1 0x20 ADD PUSH0 DUP2 MSTORE PUSH1 0x20 ADD PUSH0 DUP2 MSTORE PUSH1 0x20 ADD DUP4 DUP2 MSTORE PUSH1 0x20 ADD PUSH0 ISZERO ISZERO DUP2 MSTORE PUSH1 0x20 ADD PUSH1 0x1 ISZERO ISZERO DUP2 MSTORE POP PUSH1 0x2 PUSH0 DUP4 DUP2 MSTORE PUSH1 0x20 ADD SWAP1 DUP2 MSTORE PUSH1 0x20 ADD PUSH0 KECCAK256 PUSH0 DUP3 ADD MLOAD DUP2 PUSH0 ADD SWAP1 DUP2 PUSH2 0x4CA SWAP2 SWAP1 PUSH2 0xBF6 JUMP JUMPDEST POP PUSH1 0x20 DUP3 ADD MLOAD DUP2 PUSH1 0x1 ADD SWAP1 DUP2 PUSH2 0x4E0 SWAP2 SWAP1 PUSH2 0xBF6 JUMP JUMPDEST POP PUSH1 0x40 DUP3 ADD MLOAD DUP2 PUSH1 0x2 ADD SSTORE PUSH1 0x60 DUP3 ADD MLOAD DUP2 PUSH1 0x3 ADD SSTORE PUSH1 0x80 DUP3 ADD MLOAD DUP2 PUSH1 0x4 ADD SSTORE PUSH1 0xA0 DUP3 ADD MLOAD DUP2 PUSH1 0x5 ADD SSTORE PUSH1 0xC0 DUP3 ADD MLOAD DUP2 PUSH1 0x6 ADD PUSH0 PUSH2 0x100 EXP DUP2 SLOAD DUP2 PUSH1 0xFF MUL NOT AND SWAP1 DUP4 ISZERO ISZERO MUL OR SWAP1 SSTORE POP PUSH1 0xE0 DUP3 ADD MLOAD DUP2 PUSH1 0x6 ADD PUSH1 0x1 PUSH2 0x100 EXP DUP2 SLOAD DUP2 PUSH1 0xFF MUL NOT AND SWAP1 DUP4 ISZERO ISZERO MUL OR SWAP1 SSTORE POP SWAP1 POP POP POP POP POP POP POP POP JUMP JUMPDEST POP JUMP JUMPDEST PUSH0 PUSH1 0x1 PUSH0 SWAP1 SLOAD SWAP1 PUSH2 0x100 EXP SWAP1 DIV PUSH20 0xFFFFFFFFFFFFFFFFFFFFFFFFFFFFFFFFFFFFFFFF AND SWAP1 POP SWAP1 JUMP JUMPDEST PUSH1 0x1 DUP2 PUSH0 ADD PUSH0 DUP3 DUP3 SLOAD ADD SWAP3 POP POP DUP2 SWAP1 SSTORE POP POP JUMP JUMPDEST PUSH0 DUP2 PUSH0 ADD SLOAD SWAP1 POP SWAP2 SWAP1 POP JUMP JUMPDEST PUSH0 DUP1 REVERT JUMPDEST PUSH0 DUP1 REVERT JUMPDEST PUSH0 PUSH20 0xFFFFFFFFFFFFFFFFFFFFFFFFFFFFFFFFFFFFFFFF DUP3 AND SWAP1 POP SWAP2 SWAP1 POP JUMP JUMPDEST PUSH0 PUSH2 0x5CF DUP3 PUSH2 0x5A6 JUMP JUMPDEST SWAP1 POP SWAP2 SWAP1 POP JUMP JUMPDEST PUSH2 0x5DF DUP2 PUSH2 0x5C5 JUMP JUMPDEST DUP2 EQ PUSH2 0x5E9 JUMPI PUSH0 DUP1 REVERT JUMPDEST POP JUMP JUMPDEST PUSH0 DUP2 CALLDATALOAD SWAP1 POP PUSH2 0x5FA DUP2 PUSH2 0x5D6 JUMP JUMPDEST SWAP3 SWAP2 POP POP JUMP JUMPDEST PUSH0 PUSH1 0x20 DUP3 DUP5 SUB SLT ISZERO PUSH2 0x615 JUMPI PUSH2 0x614 PUSH2 0x59E JUMP JUMPDEST JUMPDEST PUSH0 PUSH2 0x622 DUP5 DUP3 DUP6 ADD PUSH2 0x5EC JUMP JUMPDEST SWAP2 POP POP SWAP3 SWAP2 POP POP JUMP JUMPDEST PUSH0 DUP2 SWAP1 POP SWAP2 SWAP1 POP JUMP JUMPDEST PUSH2 0x63D DUP2 PUSH2 0x62B JUMP JUMPDEST DUP2 EQ PUSH2 0x647 JUMPI PUSH0 DUP1 REVERT JUMPDEST POP JUMP JUMPDEST PUSH0 DUP2 CALLDATALOAD SWAP1 POP PUSH2 0x658 DUP2 PUSH2 0x634 JUMP JUMPDEST SWAP3 SWAP2 POP POP JUMP JUMPDEST PUSH0 PUSH1 0x20 DUP3 DUP5 SUB SLT ISZERO PUSH2 0x673 JUMPI PUSH2 0x672 PUSH2 0x59E JUMP JUMPDEST JUMPDEST PUSH0 PUSH2 0x680 DUP5 DUP3 DUP6 ADD PUSH2 0x64A JUMP JUMPDEST SWAP2 POP POP SWAP3 SWAP2 POP POP JUMP JUMPDEST PUSH0 DUP2 MLOAD SWAP1 POP SWAP2 SWAP1 POP JUMP JUMPDEST PUSH0 DUP3 DUP3 MSTORE PUSH1 0x20 DUP3 ADD SWAP1 POP SWAP3 SWAP2 POP POP JUMP JUMPDEST PUSH0 JUMPDEST DUP4 DUP2 LT ISZERO PUSH2 0x6C0 JUMPI DUP1 DUP3 ADD MLOAD DUP2 DUP5 ADD MSTORE PUSH1 0x20 DUP2 ADD SWAP1 POP PUSH2 0x6A5 JUMP JUMPDEST PUSH0 DUP5 DUP5 ADD MSTORE POP POP POP POP JUMP JUMPDEST PUSH0 PUSH1 0x1F NOT PUSH1 0x1F DUP4 ADD AND SWAP1 POP SWAP2 SWAP1 POP JUMP JUMPDEST PUSH0 PUSH2 0x6E5 DUP3 PUSH2 0x689 JUMP JUMPDEST PUSH2 0x6EF DUP2 DUP6 PUSH2 0x693 JUMP JUMPDEST SWAP4 POP PUSH2 0x6FF DUP2 DUP6 PUSH1 0x20 DUP7 ADD PUSH2 0x6A3 JUMP JUMPDEST PUSH2 0x708 DUP2 PUSH2 0x6CB JUMP JUMPDEST DUP5 ADD SWAP2 POP POP SWAP3 SWAP2 POP POP JUMP JUMPDEST PUSH2 0x71C DUP2 PUSH2 0x62B JUMP JUMPDEST DUP3 MSTORE POP POP JUMP JUMPDEST PUSH0 DUP2 ISZERO ISZERO SWAP1 POP SWAP2 SWAP1 POP JUMP JUMPDEST PUSH2 0x736 DUP2 PUSH2 0x722 JUMP JUMPDEST DUP3 MSTORE POP POP JUMP JUMPDEST PUSH0 PUSH2 0x100 DUP3 ADD SWAP1 POP DUP2 DUP2 SUB PUSH0 DUP4 ADD MSTORE PUSH2 0x755 DUP2 DUP12 PUSH2 0x6DB JUMP JUMPDEST SWAP1 POP DUP2 DUP2 SUB PUSH1 0x20 DUP4 ADD MSTORE PUSH2 0x769 DUP2 DUP11 PUSH2 0x6DB JUMP JUMPDEST SWAP1 POP PUSH2 0x778 PUSH1 0x40 DUP4 ADD DUP10 PUSH2 0x713 JUMP JUMPDEST PUSH2 0x785 PUSH1 0x60 DUP4 ADD DUP9 PUSH2 0x713 JUMP JUMPDEST PUSH2 0x792 PUSH1 0x80 DUP4 ADD DUP8 PUSH2 0x713 JUMP JUMPDEST PUSH2 0x79F PUSH1 0xA0 DUP4 ADD DUP7 PUSH2 0x713 JUMP JUMPDEST PUSH2 0x7AC PUSH1 0xC0 DUP4 ADD DUP6 PUSH2 0x72D JUMP JUMPDEST PUSH2 0x7B9 PUSH1 0xE0 DUP4 ADD DUP5 PUSH2 0x72D JUMP JUMPDEST SWAP10 SWAP9 POP POP POP POP POP POP POP POP POP JUMP JUMPDEST PUSH0 DUP1 REVERT JUMPDEST PUSH0 DUP1 REVERT JUMPDEST PUSH0 DUP1 REVERT JUMPDEST PUSH0 DUP1 DUP4 PUSH1 0x1F DUP5 ADD SLT PUSH2 0x7E7 JUMPI PUSH2 0x7E6 PUSH2 0x7C6 JUMP JUMPDEST JUMPDEST DUP3 CALLDATALOAD SWAP1 POP PUSH8 0xFFFFFFFFFFFFFFFF DUP2 GT ISZERO PUSH2 0x804 JUMPI PUSH2 0x803 PUSH2 0x7CA JUMP JUMPDEST JUMPDEST PUSH1 0x20 DUP4 ADD SWAP2 POP DUP4 PUSH1 0x1 DUP3 MUL DUP4 ADD GT ISZERO PUSH2 0x820 JUMPI PUSH2 0x81F PUSH2 0x7CE JUMP JUMPDEST JUMPDEST SWAP3 POP SWAP3 SWAP1 POP JUMP JUMPDEST PUSH0 DUP1 PUSH0 DUP1 PUSH0 PUSH1 0x60 DUP7 DUP9 SUB SLT ISZERO PUSH2 0x840 JUMPI PUSH2 0x83F PUSH2 0x59E JUMP JUMPDEST JUMPDEST PUSH0 DUP7 ADD CALLDATALOAD PUSH8 0xFFFFFFFFFFFFFFFF DUP2 GT ISZERO PUSH2 0x85D JUMPI PUSH2 0x85C PUSH2 0x5A2 JUMP JUMPDEST JUMPDEST PUSH2 0x869 DUP9 DUP3 DUP10 ADD PUSH2 0x7D2 JUMP JUMPDEST SWAP6 POP SWAP6 POP POP PUSH1 0x20 DUP7 ADD CALLDATALOAD PUSH8 0xFFFFFFFFFFFFFFFF DUP2 GT ISZERO PUSH2 0x88C JUMPI PUSH2 0x88B PUSH2 0x5A2 JUMP JUMPDEST JUMPDEST PUSH2 0x898 DUP9 DUP3 DUP10 ADD PUSH2 0x7D2 JUMP JUMPDEST SWAP4 POP SWAP4 POP POP PUSH1 0x40 PUSH2 0x8AB DUP9 DUP3 DUP10 ADD PUSH2 0x64A JUMP JUMPDEST SWAP2 POP POP SWAP3 SWAP6 POP SWAP3 SWAP6 SWAP1 SWAP4 POP JUMP JUMPDEST PUSH0 PUSH1 0xFF DUP3 AND SWAP1 POP SWAP2 SWAP1 POP JUMP JUMPDEST PUSH2 0x8CD DUP2 PUSH2 0x8B8 JUMP JUMPDEST DUP2 EQ PUSH2 0x8D7 JUMPI PUSH0 DUP1 REVERT JUMPDEST POP JUMP JUMPDEST PUSH0 DUP2 CALLDATALOAD SWAP1 POP PUSH2 0x8E8 DUP2 PUSH2 0x8C4 JUMP JUMPDEST SWAP3 SWAP2 POP POP JUMP JUMPDEST PUSH0 PUSH1 0x20 DUP3 DUP5 SUB SLT ISZERO PUSH2 0x903 JUMPI PUSH2 0x902 PUSH2 0x59E JUMP JUMPDEST JUMPDEST PUSH0 PUSH2 0x910 DUP5 DUP3 DUP6 ADD PUSH2 0x8DA JUMP JUMPDEST SWAP2 POP POP SWAP3 SWAP2 POP POP JUMP JUMPDEST PUSH2 0x922 DUP2 PUSH2 0x5C5 JUMP JUMPDEST DUP3 MSTORE POP POP JUMP JUMPDEST PUSH0 PUSH1 0x20 DUP3 ADD SWAP1 POP PUSH2 0x93B PUSH0 DUP4 ADD DUP5 PUSH2 0x919 JUMP JUMPDEST SWAP3 SWAP2 POP POP JUMP JUMPDEST PUSH32 0x4F6E6C7920746865206F776E65722063616E2063616C6C20746869732066756E PUSH0 DUP3 ADD MSTORE PUSH32 0x6374696F6E000000000000000000000000000000000000000000000000000000 PUSH1 0x20 DUP3 ADD MSTORE POP JUMP JUMPDEST PUSH0 PUSH2 0x99B PUSH1 0x25 DUP4 PUSH2 0x693 JUMP JUMPDEST SWAP2 POP PUSH2 0x9A6 DUP3 PUSH2 0x941 JUMP JUMPDEST PUSH1 0x40 DUP3 ADD SWAP1 POP SWAP2 SWAP1 POP JUMP JUMPDEST PUSH0 PUSH1 0x20 DUP3 ADD SWAP1 POP DUP2 DUP2 SUB PUSH0 DUP4 ADD MSTORE PUSH2 0x9C8 DUP2 PUSH2 0x98F JUMP JUMPDEST SWAP1 POP SWAP2 SWAP1 POP JUMP JUMPDEST PUSH32 0x4E487B7100000000000000000000000000000000000000000000000000000000 PUSH0 MSTORE PUSH1 0x22 PUSH1 0x4 MSTORE PUSH1 0x24 PUSH0 REVERT JUMPDEST PUSH0 PUSH1 0x2 DUP3 DIV SWAP1 POP PUSH1 0x1 DUP3 AND DUP1 PUSH2 0xA13 JUMPI PUSH1 0x7F DUP3 AND SWAP2 POP JUMPDEST PUSH1 0x20 DUP3 LT DUP2 SUB PUSH2 0xA26 JUMPI PUSH2 0xA25 PUSH2 0x9CF JUMP JUMPDEST JUMPDEST POP SWAP2 SWAP1 POP JUMP JUMPDEST PUSH32 0x4E487B7100000000000000000000000000000000000000000000000000000000 PUSH0 MSTORE PUSH1 0x41 PUSH1 0x4 MSTORE PUSH1 0x24 PUSH0 REVERT JUMPDEST PUSH0 DUP2 SWAP1 POP DUP2 PUSH0 MSTORE PUSH1 0x20 PUSH0 KECCAK256 SWAP1 POP SWAP2 SWAP1 POP JUMP JUMPDEST PUSH0 PUSH1 0x20 PUSH1 0x1F DUP4 ADD DIV SWAP1 POP SWAP2 SWAP1 POP JUMP JUMPDEST PUSH0 DUP3 DUP3 SHL SWAP1 POP SWAP3 SWAP2 POP POP JUMP JUMPDEST PUSH0 PUSH1 0x8 DUP4 MUL PUSH2 0xAB5 PUSH32 0xFFFFFFFFFFFFFFFFFFFFFFFFFFFFFFFFFFFFFFFFFFFFFFFFFFFFFFFFFFFFFFFF DUP3 PUSH2 0xA7A JUMP JUMPDEST PUSH2 0xABF DUP7 DUP4 PUSH2 0xA7A JUMP JUMPDEST SWAP6 POP DUP1 NOT DUP5 AND SWAP4 POP DUP1 DUP7 AND DUP5 OR SWAP3 POP POP POP SWAP4 SWAP3 POP POP POP JUMP JUMPDEST PUSH0 DUP2 SWAP1 POP SWAP2 SWAP1 POP JUMP JUMPDEST PUSH0 PUSH2 0xAFA PUSH2 0xAF5 PUSH2 0xAF0 DUP5 PUSH2 0x62B JUMP JUMPDEST PUSH2 0xAD7 JUMP JUMPDEST PUSH2 0x62B JUMP JUMPDEST SWAP1 POP SWAP2 SWAP1 POP JUMP JUMPDEST PUSH0 DUP2 SWAP1 POP SWAP2 SWAP1 POP JUMP JUMPDEST PUSH2 0xB13 DUP4 PUSH2 0xAE0 JUMP JUMPDEST PUSH2 0xB27 PUSH2 0xB1F DUP3 PUSH2 0xB01 JUMP JUMPDEST DUP5 DUP5 SLOAD PUSH2 0xA86 JUMP JUMPDEST DUP3 SSTORE POP POP POP POP JUMP JUMPDEST PUSH0 SWAP1 JUMP JUMPDEST PUSH2 0xB3B PUSH2 0xB2F JUMP JUMPDEST PUSH2 0xB46 DUP2 DUP5 DUP5 PUSH2 0xB0A JUMP JUMPDEST POP POP POP JUMP JUMPDEST JUMPDEST DUP2 DUP2 LT ISZERO PUSH2 0xB69 JUMPI PUSH2 0xB5E PUSH0 DUP3 PUSH2 0xB33 JUMP JUMPDEST PUSH1 0x1 DUP2 ADD SWAP1 POP PUSH2 0xB4C JUMP JUMPDEST POP POP JUMP JUMPDEST PUSH1 0x1F DUP3 GT ISZERO PUSH2 0xBAE JUMPI PUSH2 0xB7F DUP2 PUSH2 0xA59 JUMP JUMPDEST PUSH2 0xB88 DUP5 PUSH2 0xA6B JUMP JUMPDEST DUP2 ADD PUSH1 0x20 DUP6 LT ISZERO PUSH2 0xB97 JUMPI DUP2 SWAP1 POP JUMPDEST PUSH2 0xBAB PUSH2 0xBA3 DUP6 PUSH2 0xA6B JUMP JUMPDEST DUP4 ADD DUP3 PUSH2 0xB4B JUMP JUMPDEST POP POP JUMPDEST POP POP POP JUMP JUMPDEST PUSH0 DUP3 DUP3 SHR SWAP1 POP SWAP3 SWAP2 POP POP JUMP JUMPDEST PUSH0 PUSH2 0xBCE PUSH0 NOT DUP5 PUSH1 0x8 MUL PUSH2 0xBB3 JUMP JUMPDEST NOT DUP1 DUP4 AND SWAP2 POP POP SWAP3 SWAP2 POP POP JUMP JUMPDEST PUSH0 PUSH2 0xBE6 DUP4 DUP4 PUSH2 0xBBF JUMP JUMPDEST SWAP2 POP DUP3 PUSH1 0x2 MUL DUP3 OR SWAP1 POP SWAP3 SWAP2 POP POP JUMP JUMPDEST PUSH2 0xBFF DUP3 PUSH2 0x689 JUMP JUMPDEST PUSH8 0xFFFFFFFFFFFFFFFF DUP2 GT ISZERO PUSH2 0xC18 JUMPI PUSH2 0xC17 PUSH2 0xA2C JUMP JUMPDEST JUMPDEST PUSH2 0xC22 DUP3 SLOAD PUSH2 0x9FC JUMP JUMPDEST PUSH2 0xC2D DUP3 DUP3 DUP6 PUSH2 0xB6D JUMP JUMPDEST PUSH0 PUSH1 0x20 SWAP1 POP PUSH1 0x1F DUP4 GT PUSH1 0x1 DUP2 EQ PUSH2 0xC5E JUMPI PUSH0 DUP5 ISZERO PUSH2 0xC4C JUMPI DUP3 DUP8 ADD MLOAD SWAP1 POP JUMPDEST PUSH2 0xC56 DUP6 DUP3 PUSH2 0xBDB JUMP JUMPDEST DUP7 SSTORE POP PUSH2 0xCBD JUMP JUMPDEST PUSH1 0x1F NOT DUP5 AND PUSH2 0xC6C DUP7 PUSH2 0xA59 JUMP JUMPDEST PUSH0 JUMPDEST DUP3 DUP2 LT ISZERO PUSH2 0xC93 JUMPI DUP5 DUP10 ADD MLOAD DUP3 SSTORE PUSH1 0x1 DUP3 ADD SWAP2 POP PUSH1 0x20 DUP6 ADD SWAP5 POP PUSH1 0x20 DUP2 ADD SWAP1 POP PUSH2 0xC6E JUMP JUMPDEST DUP7 DUP4 LT ISZERO PUSH2 0xCB0 JUMPI DUP5 DUP10 ADD MLOAD PUSH2 0xCAC PUSH1 0x1F DUP10 AND DUP3 PUSH2 0xBBF JUMP JUMPDEST DUP4 SSTORE POP JUMPDEST PUSH1 0x1 PUSH1 0x2 DUP9 MUL ADD DUP9 SSTORE POP POP POP JUMPDEST POP POP POP POP POP POP JUMP INVALID LOG2 PUSH5 0x6970667358 0x22 SLT KECCAK256 0xAC 0x4E PUSH11 0xA52CD5049F91DB9ADD8332 EXTCODECOPY 0xDB SWAP15 CALLER SWAP7 0x21 0xEF KECCAK256 LOG1 PUSH19 0x7D928C7E1078669264736F6C63430008160033 "
				},
				"gasEstimates": {
					"creation": {
						"codeDepositCost": "664600",
						"executionCost": "24959",
						"totalCost": "689559"
					},
					"external": {
						"create(string,string,uint256)": "infinite",
						"proposalHistory(uint256)": "infinite",
						"setOwner(address)": "26862",
						"viewOwner()": "2581",
						"vote(uint8)": "451"
					}
				},
				"methodIdentifiers": {
					"create(string,string,uint256)": "3ca6d100",
					"proposalHistory(uint256)": "1c7e379f",
					"setOwner(address)": "13af4035",
					"viewOwner()": "bc677b46",
					"vote(uint8)": "b3f98adc"
				}
			},
			"storageLayout": {
				"storage": [
					{
						"astId": 83,
						"contract": "Contracts/Proposal.sol:ProposalContract",
						"label": "_counter",
						"offset": 0,
						"slot": "0",
						"type": "t_struct(Counter)5_storage"
					},
					{
						"astId": 85,
						"contract": "Contracts/Proposal.sol:ProposalContract",
						"label": "owner",
						"offset": 0,
						"slot": "1",
						"type": "t_address"
					},
					{
						"astId": 128,
						"contract": "Contracts/Proposal.sol:ProposalContract",
						"label": "proposalHistory",
						"offset": 0,
						"slot": "2",
						"type": "t_mapping(t_uint256,t_struct(Proposal)123_storage)"
					}
				],
				"types": {
					"t_address": {
						"encoding": "inplace",
						"label": "address",
						"numberOfBytes": "20"
					},
					"t_bool": {
						"encoding": "inplace",
						"label": "bool",
						"numberOfBytes": "1"
					},
					"t_mapping(t_uint256,t_struct(Proposal)123_storage)": {
						"encoding": "mapping",
						"key": "t_uint256",
						"label": "mapping(uint256 => struct ProposalContract.Proposal)",
						"numberOfBytes": "32",
						"value": "t_struct(Proposal)123_storage"
					},
					"t_string_storage": {
						"encoding": "bytes",
						"label": "string",
						"numberOfBytes": "32"
					},
					"t_struct(Counter)5_storage": {
						"encoding": "inplace",
						"label": "struct Counters.Counter",
						"members": [
							{
								"astId": 4,
								"contract": "Contracts/Proposal.sol:ProposalContract",
								"label": "_value",
								"offset": 0,
								"slot": "0",
								"type": "t_uint256"
							}
						],
						"numberOfBytes": "32"
					},
					"t_struct(Proposal)123_storage": {
						"encoding": "inplace",
						"label": "struct ProposalContract.Proposal",
						"members": [
							{
								"astId": 108,
								"contract": "Contracts/Proposal.sol:ProposalContract",
								"label": "title",
								"offset": 0,
								"slot": "0",
								"type": "t_string_storage"
							},
							{
								"astId": 110,
								"contract": "Contracts/Proposal.sol:ProposalContract",
								"label": "description",
								"offset": 0,
								"slot": "1",
								"type": "t_string_storage"
							},
							{
								"astId": 112,
								"contract": "Contracts/Proposal.sol:ProposalContract",
								"label": "approve",
								"offset": 0,
								"slot": "2",
								"type": "t_uint256"
							},
							{
								"astId": 114,
								"contract": "Contracts/Proposal.sol:ProposalContract",
								"label": "reject",
								"offset": 0,
								"slot": "3",
								"type": "t_uint256"
							},
							{
								"astId": 116,
								"contract": "Contracts/Proposal.sol:ProposalContract",
								"label": "pass",
								"offset": 0,
								"slot": "4",
								"type": "t_uint256"
							},
							{
								"astId": 118,
								"contract": "Contracts/Proposal.sol:ProposalContract",
								"label": "totalVoteToEnd",
								"offset": 0,
								"slot": "5",
								"type": "t_uint256"
							},
							{
								"astId": 120,
								"contract": "Contracts/Proposal.sol:ProposalContract",
								"label": "currentState",
								"offset": 0,
								"slot": "6",
								"type": "t_bool"
							},
							{
								"astId": 122,
								"contract": "Contracts/Proposal.sol:ProposalContract",
								"label": "isActive",
								"offset": 1,
								"slot": "6",
								"type": "t_bool"
							}
						],
						"numberOfBytes": "224"
					},
					"t_uint256": {
						"encoding": "inplace",
						"label": "uint256",
						"numberOfBytes": "32"
					}
				}
			},
			"userdoc": {
				"kind": "user",
				"methods": {},
				"version": 1
			}
		}
	}
}