{
	"Contracts/prop.sol": {
		"ProposalContract": {
			"abi": [
				{
					"inputs": [],
					"stateMutability": "nonpayable",
					"type": "constructor"
				},
				{
					"inputs": [
						{
							"internalType": "string",
							"name": "title",
							"type": "string"
						},
						{
							"internalType": "string",
							"name": "description",
							"type": "string"
						},
						{
							"internalType": "uint256",
							"name": "totalVoteToEnd",
							"type": "uint256"
						}
					],
					"name": "create",
					"outputs": [],
					"stateMutability": "nonpayable",
					"type": "function"
				},
				{
					"inputs": [],
					"name": "getCurrentProposal",
					"outputs": [
						{
							"components": [
								{
									"internalType": "string",
									"name": "title",
									"type": "string"
								},
								{
									"internalType": "string",
									"name": "description",
									"type": "string"
								},
								{
									"internalType": "uint256",
									"name": "approve",
									"type": "uint256"
								},
								{
									"internalType": "uint256",
									"name": "reject",
									"type": "uint256"
								},
								{
									"internalType": "uint256",
									"name": "pass",
									"type": "uint256"
								},
								{
									"internalType": "uint256",
									"name": "totalVoteToEnd",
									"type": "uint256"
								},
								{
									"internalType": "bool",
									"name": "currentState",
									"type": "bool"
								},
								{
									"internalType": "bool",
									"name": "isActive",
									"type": "bool"
								}
							],
							"internalType": "struct ProposalContract.Proposal",
							"name": "",
							"type": "tuple"
						}
					],
					"stateMutability": "view",
					"type": "function"
				},
				{
					"inputs": [
						{
							"internalType": "uint256",
							"name": "number",
							"type": "uint256"
						}
					],
					"name": "getProposal",
					"outputs": [
						{
							"components": [
								{
									"internalType": "string",
									"name": "title",
									"type": "string"
								},
								{
									"internalType": "string",
									"name": "description",
									"type": "string"
								},
								{
									"internalType": "uint256",
									"name": "approve",
									"type": "uint256"
								},
								{
									"internalType": "uint256",
									"name": "reject",
									"type": "uint256"
								},
								{
									"internalType": "uint256",
									"name": "pass",
									"type": "uint256"
								},
								{
									"internalType": "uint256",
									"name": "totalVoteToEnd",
									"type": "uint256"
								},
								{
									"internalType": "bool",
									"name": "currentState",
									"type": "bool"
								},
								{
									"internalType": "bool",
									"name": "isActive",
									"type": "bool"
								}
							],
							"internalType": "struct ProposalContract.Proposal",
							"name": "",
							"type": "tuple"
						}
					],
					"stateMutability": "view",
					"type": "function"
				},
				{
					"inputs": [
						{
							"internalType": "address",
							"name": "_address",
							"type": "address"
						}
					],
					"name": "isVoted",
					"outputs": [
						{
							"internalType": "bool",
							"name": "",
							"type": "bool"
						}
					],
					"stateMutability": "view",
					"type": "function"
				},
				{
					"inputs": [
						{
							"internalType": "uint256",
							"name": "",
							"type": "uint256"
						}
					],
					"name": "proposalHistory",
					"outputs": [
						{
							"internalType": "string",
							"name": "title",
							"type": "string"
						},
						{
							"internalType": "string",
							"name": "description",
							"type": "string"
						},
						{
							"internalType": "uint256",
							"name": "approve",
							"type": "uint256"
						},
						{
							"internalType": "uint256",
							"name": "reject",
							"type": "uint256"
						},
						{
							"internalType": "uint256",
							"name": "pass",
							"type": "uint256"
						},
						{
							"internalType": "uint256",
							"name": "totalVoteToEnd",
							"type": "uint256"
						},
						{
							"internalType": "bool",
							"name": "currentState",
							"type": "bool"
						},
						{
							"internalType": "bool",
							"name": "isActive",
							"type": "bool"
						}
					],
					"stateMutability": "view",
					"type": "function"
				},
				{
					"inputs": [
						{
							"internalType": "address",
							"name": "new_owner",
							"type": "address"
						}
					],
					"name": "setOwner",
					"outputs": [],
					"stateMutability": "nonpayable",
					"type": "function"
				},
				{
					"inputs": [],
					"name": "terminateProposal",
					"outputs": [],
					"stateMutability": "nonpayable",
					"type": "function"
				},
				{
					"inputs": [],
					"name": "viewOwner",
					"outputs": [
						{
							"internalType": "address",
							"name": "",
							"type": "address"
						}
					],
					"stateMutability": "view",
					"type": "function"
				},
				{
					"inputs": [
						{
							"internalType": "uint8",
							"name": "choice",
							"type": "uint8"
						}
					],
					"name": "vote",
					"outputs": [],
					"stateMutability": "nonpayable",
					"type": "function"
				}
			],
			"devdoc": {
				"kind": "dev",
				"methods": {},
				"version": 1
			},
			"evm": {
				"assembly": "    /* \"Contracts/prop.sol\":113:3892  contract ProposalContract {... */\n  mstore(0x40, 0x80)\n    /* \"Contracts/prop.sol\":285:371  constructor() {... */\n  callvalue\n  dup1\n  iszero\n  tag_1\n  jumpi\n  0x00\n  dup1\n  revert\ntag_1:\n  pop\n    /* \"Contracts/prop.sol\":317:327  msg.sender */\n  caller\n    /* \"Contracts/prop.sol\":309:314  owner */\n  0x01\n  0x00\n    /* \"Contracts/prop.sol\":309:327  owner = msg.sender */\n  0x0100\n  exp\n  dup2\n  sload\n  dup2\n  0xffffffffffffffffffffffffffffffffffffffff\n  mul\n  not\n  and\n  swap1\n  dup4\n  0xffffffffffffffffffffffffffffffffffffffff\n  and\n  mul\n  or\n  swap1\n  sstore\n  pop\n    /* \"Contracts/prop.sol\":337:352  voted_addresses */\n  0x02\n    /* \"Contracts/prop.sol\":358:363  owner */\n  0x01\n  0x00\n  swap1\n  sload\n  swap1\n  0x0100\n  exp\n  swap1\n  div\n  0xffffffffffffffffffffffffffffffffffffffff\n  and\n    /* \"Contracts/prop.sol\":337:364  voted_addresses.push(owner) */\n  swap1\n  dup1\n  0x01\n  dup2\n  sload\n  add\n  dup1\n  dup3\n  sstore\n  dup1\n  swap2\n  pop\n  pop\n  0x01\n  swap1\n  sub\n  swap1\n  0x00\n  mstore\n  keccak256(0x00, 0x20)\n  add\n  0x00\n  swap1\n  swap2\n  swap1\n  swap2\n  swap1\n  swap2\n  0x0100\n  exp\n  dup2\n  sload\n  dup2\n  0xffffffffffffffffffffffffffffffffffffffff\n  mul\n  not\n  and\n  swap1\n  dup4\n  0xffffffffffffffffffffffffffffffffffffffff\n  and\n  mul\n  or\n  swap1\n  sstore\n  pop\n    /* \"Contracts/prop.sol\":113:3892  contract ProposalContract {... */\n  dataSize(sub_0)\n  dup1\n  dataOffset(sub_0)\n  0x00\n  codecopy\n  0x00\n  return\nstop\n\nsub_0: assembly {\n        /* \"Contracts/prop.sol\":113:3892  contract ProposalContract {... */\n      mstore(0x40, 0x80)\n      callvalue\n      dup1\n      iszero\n      tag_1\n      jumpi\n      0x00\n      dup1\n      revert\n    tag_1:\n      pop\n      jumpi(tag_2, lt(calldatasize, 0x04))\n      shr(0xe0, calldataload(0x00))\n      dup1\n      0xb3f98adc\n      gt\n      tag_12\n      jumpi\n      dup1\n      0xb3f98adc\n      eq\n      tag_7\n      jumpi\n      dup1\n      0xbc677b46\n      eq\n      tag_8\n      jumpi\n      dup1\n      0xc7f758a8\n      eq\n      tag_9\n      jumpi\n      dup1\n      0xcbff75cb\n      eq\n      tag_10\n      jumpi\n      dup1\n      0xdbddc7aa\n      eq\n      tag_11\n      jumpi\n      jump(tag_2)\n    tag_12:\n      dup1\n      0x13af4035\n      eq\n      tag_3\n      jumpi\n      dup1\n      0x1c7e379f\n      eq\n      tag_4\n      jumpi\n      dup1\n      0x3ca6d100\n      eq\n      tag_5\n      jumpi\n      dup1\n      0x41ec6870\n      eq\n      tag_6\n      jumpi\n    tag_2:\n      0x00\n      dup1\n      revert\n        /* \"Contracts/prop.sol\":1906:1996  function setOwner(address new_owner) external onlyOwner {... */\n    tag_3:\n      tag_13\n      0x04\n      dup1\n      calldatasize\n      sub\n      dup2\n      add\n      swap1\n      tag_14\n      swap2\n      swap1\n      tag_15\n      jump\t// in\n    tag_14:\n      tag_16\n      jump\t// in\n    tag_13:\n      stop\n        /* \"Contracts/prop.sol\":1367:1418  mapping(uint256 => Proposal) public proposalHistory */\n    tag_4:\n      tag_17\n      0x04\n      dup1\n      calldatasize\n      sub\n      dup2\n      add\n      swap1\n      tag_18\n      swap2\n      swap1\n      tag_19\n      jump\t// in\n    tag_18:\n      tag_20\n      jump\t// in\n    tag_17:\n      mload(0x40)\n      tag_21\n      swap9\n      swap8\n      swap7\n      swap6\n      swap5\n      swap4\n      swap3\n      swap2\n      swap1\n      tag_22\n      jump\t// in\n    tag_21:\n      mload(0x40)\n      dup1\n      swap2\n      sub\n      swap1\n      return\n        /* \"Contracts/prop.sol\":1461:1900  function create(... */\n    tag_5:\n      tag_23\n      0x04\n      dup1\n      calldatasize\n      sub\n      dup2\n      add\n      swap1\n      tag_24\n      swap2\n      swap1\n      tag_25\n      jump\t// in\n    tag_24:\n      tag_26\n      jump\t// in\n    tag_23:\n      stop\n        /* \"Contracts/prop.sol\":3641:3769  function getCurrentProposal() external view returns(Proposal memory) {... */\n    tag_6:\n      tag_27\n      tag_28\n      jump\t// in\n    tag_27:\n      mload(0x40)\n      tag_29\n      swap2\n      swap1\n      tag_30\n      jump\t// in\n    tag_29:\n      mload(0x40)\n      dup1\n      swap2\n      sub\n      swap1\n      return\n        /* \"Contracts/prop.sol\":2088:3070  function vote(uint8 choice) external active {... */\n    tag_7:\n      tag_31\n      0x04\n      dup1\n      calldatasize\n      sub\n      dup2\n      add\n      swap1\n      tag_32\n      swap2\n      swap1\n      tag_33\n      jump\t// in\n    tag_32:\n      tag_34\n      jump\t// in\n    tag_31:\n      stop\n        /* \"Contracts/prop.sol\":2002:2082  function viewOwner() public view returns (address) {... */\n    tag_8:\n      tag_35\n      tag_36\n      jump\t// in\n    tag_35:\n      mload(0x40)\n      tag_37\n      swap2\n      swap1\n      tag_38\n      jump\t// in\n    tag_37:\n      mload(0x40)\n      dup1\n      swap2\n      sub\n      swap1\n      return\n        /* \"Contracts/prop.sol\":3775:3890  function getProposal(uint256 number) external view returns(Proposal memory) {... */\n    tag_9:\n      tag_39\n      0x04\n      dup1\n      calldatasize\n      sub\n      dup2\n      add\n      swap1\n      tag_40\n      swap2\n      swap1\n      tag_19\n      jump\t// in\n    tag_40:\n      tag_41\n      jump\t// in\n    tag_39:\n      mload(0x40)\n      tag_42\n      swap2\n      swap1\n      tag_30\n      jump\t// in\n    tag_42:\n      mload(0x40)\n      dup1\n      swap2\n      sub\n      swap1\n      return\n        /* \"Contracts/prop.sol\":3255:3505  function isVoted(address _address) public view returns (bool) {... */\n    tag_10:\n      tag_43\n      0x04\n      dup1\n      calldatasize\n      sub\n      dup2\n      add\n      swap1\n      tag_44\n      swap2\n      swap1\n      tag_15\n      jump\t// in\n    tag_44:\n      tag_45\n      jump\t// in\n    tag_43:\n      mload(0x40)\n      tag_46\n      swap2\n      swap1\n      tag_47\n      jump\t// in\n    tag_46:\n      mload(0x40)\n      dup1\n      swap2\n      sub\n      swap1\n      return\n        /* \"Contracts/prop.sol\":3511:3635  function terminateProposal() external onlyOwner active {... */\n    tag_11:\n      tag_48\n      tag_49\n      jump\t// in\n    tag_48:\n      stop\n        /* \"Contracts/prop.sol\":1906:1996  function setOwner(address new_owner) external onlyOwner {... */\n    tag_16:\n        /* \"Contracts/prop.sol\":430:435  owner */\n      0x01\n      0x00\n      swap1\n      sload\n      swap1\n      0x0100\n      exp\n      swap1\n      div\n      0xffffffffffffffffffffffffffffffffffffffff\n      and\n        /* \"Contracts/prop.sol\":416:435  msg.sender == owner */\n      0xffffffffffffffffffffffffffffffffffffffff\n      and\n        /* \"Contracts/prop.sol\":416:426  msg.sender */\n      caller\n        /* \"Contracts/prop.sol\":416:435  msg.sender == owner */\n      0xffffffffffffffffffffffffffffffffffffffff\n      and\n      eq\n        /* \"Contracts/prop.sol\":408:477  require(msg.sender == owner, \"Only the owner can call this function\") */\n      tag_51\n      jumpi\n      mload(0x40)\n      0x08c379a000000000000000000000000000000000000000000000000000000000\n      dup2\n      mstore\n      0x04\n      add\n      tag_52\n      swap1\n      tag_53\n      jump\t// in\n    tag_52:\n      mload(0x40)\n      dup1\n      swap2\n      sub\n      swap1\n      revert\n    tag_51:\n        /* \"Contracts/prop.sol\":1980:1989  new_owner */\n      dup1\n        /* \"Contracts/prop.sol\":1972:1977  owner */\n      0x01\n      0x00\n        /* \"Contracts/prop.sol\":1972:1989  owner = new_owner */\n      0x0100\n      exp\n      dup2\n      sload\n      dup2\n      0xffffffffffffffffffffffffffffffffffffffff\n      mul\n      not\n      and\n      swap1\n      dup4\n      0xffffffffffffffffffffffffffffffffffffffff\n      and\n      mul\n      or\n      swap1\n      sstore\n      pop\n        /* \"Contracts/prop.sol\":1906:1996  function setOwner(address new_owner) external onlyOwner {... */\n      pop\n      jump\t// out\n        /* \"Contracts/prop.sol\":1367:1418  mapping(uint256 => Proposal) public proposalHistory */\n    tag_20:\n      mstore(0x20, 0x03)\n      dup1\n      0x00\n      mstore\n      keccak256(0x00, 0x40)\n      0x00\n      swap2\n      pop\n      swap1\n      pop\n      dup1\n      0x00\n      add\n      dup1\n      sload\n      tag_55\n      swap1\n      tag_56\n      jump\t// in\n    tag_55:\n      dup1\n      0x1f\n      add\n      0x20\n      dup1\n      swap2\n      div\n      mul\n      0x20\n      add\n      mload(0x40)\n      swap1\n      dup2\n      add\n      0x40\n      mstore\n      dup1\n      swap3\n      swap2\n      swap1\n      dup2\n      dup2\n      mstore\n      0x20\n      add\n      dup3\n      dup1\n      sload\n      tag_57\n      swap1\n      tag_56\n      jump\t// in\n    tag_57:\n      dup1\n      iszero\n      tag_58\n      jumpi\n      dup1\n      0x1f\n      lt\n      tag_59\n      jumpi\n      0x0100\n      dup1\n      dup4\n      sload\n      div\n      mul\n      dup4\n      mstore\n      swap2\n      0x20\n      add\n      swap2\n      jump(tag_58)\n    tag_59:\n      dup3\n      add\n      swap2\n      swap1\n      0x00\n      mstore\n      keccak256(0x00, 0x20)\n      swap1\n    tag_60:\n      dup2\n      sload\n      dup2\n      mstore\n      swap1\n      0x01\n      add\n      swap1\n      0x20\n      add\n      dup1\n      dup4\n      gt\n      tag_60\n      jumpi\n      dup3\n      swap1\n      sub\n      0x1f\n      and\n      dup3\n      add\n      swap2\n    tag_58:\n      pop\n      pop\n      pop\n      pop\n      pop\n      swap1\n      dup1\n      0x01\n      add\n      dup1\n      sload\n      tag_61\n      swap1\n      tag_56\n      jump\t// in\n    tag_61:\n      dup1\n      0x1f\n      add\n      0x20\n      dup1\n      swap2\n      div\n      mul\n      0x20\n      add\n      mload(0x40)\n      swap1\n      dup2\n      add\n      0x40\n      mstore\n      dup1\n      swap3\n      swap2\n      swap1\n      dup2\n      dup2\n      mstore\n      0x20\n      add\n      dup3\n      dup1\n      sload\n      tag_62\n      swap1\n      tag_56\n      jump\t// in\n    tag_62:\n      dup1\n      iszero\n      tag_63\n      jumpi\n      dup1\n      0x1f\n      lt\n      tag_64\n      jumpi\n      0x0100\n      dup1\n      dup4\n      sload\n      div\n      mul\n      dup4\n      mstore\n      swap2\n      0x20\n      add\n      swap2\n      jump(tag_63)\n    tag_64:\n      dup3\n      add\n      swap2\n      swap1\n      0x00\n      mstore\n      keccak256(0x00, 0x20)\n      swap1\n    tag_65:\n      dup2\n      sload\n      dup2\n      mstore\n      swap1\n      0x01\n      add\n      swap1\n      0x20\n      add\n      dup1\n      dup4\n      gt\n      tag_65\n      jumpi\n      dup3\n      swap1\n      sub\n      0x1f\n      and\n      dup3\n      add\n      swap2\n    tag_63:\n      pop\n      pop\n      pop\n      pop\n      pop\n      swap1\n      dup1\n      0x02\n      add\n      sload\n      swap1\n      dup1\n      0x03\n      add\n      sload\n      swap1\n      dup1\n      0x04\n      add\n      sload\n      swap1\n      dup1\n      0x05\n      add\n      sload\n      swap1\n      dup1\n      0x06\n      add\n      0x00\n      swap1\n      sload\n      swap1\n      0x0100\n      exp\n      swap1\n      div\n      0xff\n      and\n      swap1\n      dup1\n      0x06\n      add\n      0x01\n      swap1\n      sload\n      swap1\n      0x0100\n      exp\n      swap1\n      div\n      0xff\n      and\n      swap1\n      pop\n      dup9\n      jump\t// out\n        /* \"Contracts/prop.sol\":1461:1900  function create(... */\n    tag_26:\n        /* \"Contracts/prop.sol\":430:435  owner */\n      0x01\n      0x00\n      swap1\n      sload\n      swap1\n      0x0100\n      exp\n      swap1\n      div\n      0xffffffffffffffffffffffffffffffffffffffff\n      and\n        /* \"Contracts/prop.sol\":416:435  msg.sender == owner */\n      0xffffffffffffffffffffffffffffffffffffffff\n      and\n        /* \"Contracts/prop.sol\":416:426  msg.sender */\n      caller\n        /* \"Contracts/prop.sol\":416:435  msg.sender == owner */\n      0xffffffffffffffffffffffffffffffffffffffff\n      and\n      eq\n        /* \"Contracts/prop.sol\":408:477  require(msg.sender == owner, \"Only the owner can call this function\") */\n      tag_67\n      jumpi\n      mload(0x40)\n      0x08c379a000000000000000000000000000000000000000000000000000000000\n      dup2\n      mstore\n      0x04\n      add\n      tag_68\n      swap1\n      tag_53\n      jump\t// in\n    tag_68:\n      mload(0x40)\n      dup1\n      swap2\n      sub\n      swap1\n      revert\n    tag_67:\n        /* \"Contracts/prop.sol\":1612:1632  _counter.increment() */\n      tag_70\n        /* \"Contracts/prop.sol\":1612:1620  _counter */\n      0x00\n        /* \"Contracts/prop.sol\":1612:1630  _counter.increment */\n      tag_71\n        /* \"Contracts/prop.sol\":1612:1632  _counter.increment() */\n      jump\t// in\n    tag_70:\n        /* \"Contracts/prop.sol\":1642:1660  uint256 proposalId */\n      0x00\n        /* \"Contracts/prop.sol\":1663:1681  _counter.current() */\n      tag_72\n        /* \"Contracts/prop.sol\":1663:1671  _counter */\n      0x00\n        /* \"Contracts/prop.sol\":1663:1679  _counter.current */\n      tag_73\n        /* \"Contracts/prop.sol\":1663:1681  _counter.current() */\n      jump\t// in\n    tag_72:\n        /* \"Contracts/prop.sol\":1642:1681  uint256 proposalId = _counter.current() */\n      swap1\n      pop\n        /* \"Contracts/prop.sol\":1721:1893  Proposal(... */\n      mload(0x40)\n      dup1\n      0x0100\n      add\n      0x40\n      mstore\n      dup1\n        /* \"Contracts/prop.sol\":1743:1748  title */\n      dup8\n      dup8\n        /* \"Contracts/prop.sol\":1721:1893  Proposal(... */\n      dup1\n      dup1\n      0x1f\n      add\n      0x20\n      dup1\n      swap2\n      div\n      mul\n      0x20\n      add\n      mload(0x40)\n      swap1\n      dup2\n      add\n      0x40\n      mstore\n      dup1\n      swap4\n      swap3\n      swap2\n      swap1\n      dup2\n      dup2\n      mstore\n      0x20\n      add\n      dup4\n      dup4\n      dup1\n      dup3\n      dup5\n      calldatacopy\n      0x00\n      dup2\n      dup5\n      add\n      mstore\n      not(0x1f)\n      0x1f\n      dup3\n      add\n      and\n      swap1\n      pop\n      dup1\n      dup4\n      add\n      swap3\n      pop\n      pop\n      pop\n      pop\n      pop\n      pop\n      pop\n      dup2\n      mstore\n      0x20\n      add\n        /* \"Contracts/prop.sol\":1762:1773  description */\n      dup6\n      dup6\n        /* \"Contracts/prop.sol\":1721:1893  Proposal(... */\n      dup1\n      dup1\n      0x1f\n      add\n      0x20\n      dup1\n      swap2\n      div\n      mul\n      0x20\n      add\n      mload(0x40)\n      swap1\n      dup2\n      add\n      0x40\n      mstore\n      dup1\n      swap4\n      swap3\n      swap2\n      swap1\n      dup2\n      dup2\n      mstore\n      0x20\n      add\n      dup4\n      dup4\n      dup1\n      dup3\n      dup5\n      calldatacopy\n      0x00\n      dup2\n      dup5\n      add\n      mstore\n      not(0x1f)\n      0x1f\n      dup3\n      add\n      and\n      swap1\n      pop\n      dup1\n      dup4\n      add\n      swap3\n      pop\n      pop\n      pop\n      pop\n      pop\n      pop\n      pop\n      dup2\n      mstore\n      0x20\n      add\n        /* \"Contracts/prop.sol\":1787:1788  0 */\n      0x00\n        /* \"Contracts/prop.sol\":1721:1893  Proposal(... */\n      dup2\n      mstore\n      0x20\n      add\n        /* \"Contracts/prop.sol\":1802:1803  0 */\n      0x00\n        /* \"Contracts/prop.sol\":1721:1893  Proposal(... */\n      dup2\n      mstore\n      0x20\n      add\n        /* \"Contracts/prop.sol\":1817:1818  0 */\n      0x00\n        /* \"Contracts/prop.sol\":1721:1893  Proposal(... */\n      dup2\n      mstore\n      0x20\n      add\n        /* \"Contracts/prop.sol\":1832:1846  totalVoteToEnd */\n      dup4\n        /* \"Contracts/prop.sol\":1721:1893  Proposal(... */\n      dup2\n      mstore\n      0x20\n      add\n        /* \"Contracts/prop.sol\":1860:1865  false */\n      0x00\n        /* \"Contracts/prop.sol\":1721:1893  Proposal(... */\n      iszero\n      iszero\n      dup2\n      mstore\n      0x20\n      add\n        /* \"Contracts/prop.sol\":1879:1883  true */\n      0x01\n        /* \"Contracts/prop.sol\":1721:1893  Proposal(... */\n      iszero\n      iszero\n      dup2\n      mstore\n      pop\n        /* \"Contracts/prop.sol\":1691:1706  proposalHistory */\n      0x03\n        /* \"Contracts/prop.sol\":1691:1718  proposalHistory[proposalId] */\n      0x00\n        /* \"Contracts/prop.sol\":1707:1717  proposalId */\n      dup4\n        /* \"Contracts/prop.sol\":1691:1718  proposalHistory[proposalId] */\n      dup2\n      mstore\n      0x20\n      add\n      swap1\n      dup2\n      mstore\n      0x20\n      add\n      0x00\n      keccak256\n        /* \"Contracts/prop.sol\":1691:1893  proposalHistory[proposalId] = Proposal(... */\n      0x00\n      dup3\n      add\n      mload\n      dup2\n      0x00\n      add\n      swap1\n      dup2\n      tag_74\n      swap2\n      swap1\n      tag_75\n      jump\t// in\n    tag_74:\n      pop\n      0x20\n      dup3\n      add\n      mload\n      dup2\n      0x01\n      add\n      swap1\n      dup2\n      tag_76\n      swap2\n      swap1\n      tag_75\n      jump\t// in\n    tag_76:\n      pop\n      0x40\n      dup3\n      add\n      mload\n      dup2\n      0x02\n      add\n      sstore\n      0x60\n      dup3\n      add\n      mload\n      dup2\n      0x03\n      add\n      sstore\n      0x80\n      dup3\n      add\n      mload\n      dup2\n      0x04\n      add\n      sstore\n      0xa0\n      dup3\n      add\n      mload\n      dup2\n      0x05\n      add\n      sstore\n      0xc0\n      dup3\n      add\n      mload\n      dup2\n      0x06\n      add\n      exp(0x0100, 0x00)\n      dup2\n      sload\n      dup2\n      0xff\n      mul\n      not\n      and\n      swap1\n      dup4\n      iszero\n      iszero\n      mul\n      or\n      swap1\n      sstore\n      pop\n      0xe0\n      dup3\n      add\n      mload\n      dup2\n      0x06\n      add\n      exp(0x0100, 0x01)\n      dup2\n      sload\n      dup2\n      0xff\n      mul\n      not\n      and\n      swap1\n      dup4\n      iszero\n      iszero\n      mul\n      or\n      swap1\n      sstore\n      pop\n      swap1\n      pop\n      pop\n        /* \"Contracts/prop.sol\":1602:1900  {... */\n      pop\n        /* \"Contracts/prop.sol\":1461:1900  function create(... */\n      pop\n      pop\n      pop\n      pop\n      pop\n      jump\t// out\n        /* \"Contracts/prop.sol\":3641:3769  function getCurrentProposal() external view returns(Proposal memory) {... */\n    tag_28:\n        /* \"Contracts/prop.sol\":3693:3708  Proposal memory */\n      tag_77\n      tag_78\n      jump\t// in\n    tag_77:\n        /* \"Contracts/prop.sol\":3727:3742  proposalHistory */\n      0x03\n        /* \"Contracts/prop.sol\":3727:3762  proposalHistory[_counter.current()] */\n      0x00\n        /* \"Contracts/prop.sol\":3743:3761  _counter.current() */\n      tag_80\n        /* \"Contracts/prop.sol\":3743:3751  _counter */\n      0x00\n        /* \"Contracts/prop.sol\":3743:3759  _counter.current */\n      tag_73\n        /* \"Contracts/prop.sol\":3743:3761  _counter.current() */\n      jump\t// in\n    tag_80:\n        /* \"Contracts/prop.sol\":3727:3762  proposalHistory[_counter.current()] */\n      dup2\n      mstore\n      0x20\n      add\n      swap1\n      dup2\n      mstore\n      0x20\n      add\n      0x00\n      keccak256\n        /* \"Contracts/prop.sol\":3720:3762  return proposalHistory[_counter.current()] */\n      mload(0x40)\n      dup1\n      0x0100\n      add\n      0x40\n      mstore\n      swap1\n      dup2\n      0x00\n      dup3\n      add\n      dup1\n      sload\n      tag_81\n      swap1\n      tag_56\n      jump\t// in\n    tag_81:\n      dup1\n      0x1f\n      add\n      0x20\n      dup1\n      swap2\n      div\n      mul\n      0x20\n      add\n      mload(0x40)\n      swap1\n      dup2\n      add\n      0x40\n      mstore\n      dup1\n      swap3\n      swap2\n      swap1\n      dup2\n      dup2\n      mstore\n      0x20\n      add\n      dup3\n      dup1\n      sload\n      tag_82\n      swap1\n      tag_56\n      jump\t// in\n    tag_82:\n      dup1\n      iszero\n      tag_83\n      jumpi\n      dup1\n      0x1f\n      lt\n      tag_84\n      jumpi\n      0x0100\n      dup1\n      dup4\n      sload\n      div\n      mul\n      dup4\n      mstore\n      swap2\n      0x20\n      add\n      swap2\n      jump(tag_83)\n    tag_84:\n      dup3\n      add\n      swap2\n      swap1\n      0x00\n      mstore\n      keccak256(0x00, 0x20)\n      swap1\n    tag_85:\n      dup2\n      sload\n      dup2\n      mstore\n      swap1\n      0x01\n      add\n      swap1\n      0x20\n      add\n      dup1\n      dup4\n      gt\n      tag_85\n      jumpi\n      dup3\n      swap1\n      sub\n      0x1f\n      and\n      dup3\n      add\n      swap2\n    tag_83:\n      pop\n      pop\n      pop\n      pop\n      pop\n      dup2\n      mstore\n      0x20\n      add\n      0x01\n      dup3\n      add\n      dup1\n      sload\n      tag_86\n      swap1\n      tag_56\n      jump\t// in\n    tag_86:\n      dup1\n      0x1f\n      add\n      0x20\n      dup1\n      swap2\n      div\n      mul\n      0x20\n      add\n      mload(0x40)\n      swap1\n      dup2\n      add\n      0x40\n      mstore\n      dup1\n      swap3\n      swap2\n      swap1\n      dup2\n      dup2\n      mstore\n      0x20\n      add\n      dup3\n      dup1\n      sload\n      tag_87\n      swap1\n      tag_56\n      jump\t// in\n    tag_87:\n      dup1\n      iszero\n      tag_88\n      jumpi\n      dup1\n      0x1f\n      lt\n      tag_89\n      jumpi\n      0x0100\n      dup1\n      dup4\n      sload\n      div\n      mul\n      dup4\n      mstore\n      swap2\n      0x20\n      add\n      swap2\n      jump(tag_88)\n    tag_89:\n      dup3\n      add\n      swap2\n      swap1\n      0x00\n      mstore\n      keccak256(0x00, 0x20)\n      swap1\n    tag_90:\n      dup2\n      sload\n      dup2\n      mstore\n      swap1\n      0x01\n      add\n      swap1\n      0x20\n      add\n      dup1\n      dup4\n      gt\n      tag_90\n      jumpi\n      dup3\n      swap1\n      sub\n      0x1f\n      and\n      dup3\n      add\n      swap2\n    tag_88:\n      pop\n      pop\n      pop\n      pop\n      pop\n      dup2\n      mstore\n      0x20\n      add\n      0x02\n      dup3\n      add\n      sload\n      dup2\n      mstore\n      0x20\n      add\n      0x03\n      dup3\n      add\n      sload\n      dup2\n      mstore\n      0x20\n      add\n      0x04\n      dup3\n      add\n      sload\n      dup2\n      mstore\n      0x20\n      add\n      0x05\n      dup3\n      add\n      sload\n      dup2\n      mstore\n      0x20\n      add\n      0x06\n      dup3\n      add\n      0x00\n      swap1\n      sload\n      swap1\n      0x0100\n      exp\n      swap1\n      div\n      0xff\n      and\n      iszero\n      iszero\n      iszero\n      iszero\n      dup2\n      mstore\n      0x20\n      add\n      0x06\n      dup3\n      add\n      0x01\n      swap1\n      sload\n      swap1\n      0x0100\n      exp\n      swap1\n      div\n      0xff\n      and\n      iszero\n      iszero\n      iszero\n      iszero\n      dup2\n      mstore\n      pop\n      pop\n      swap1\n      pop\n        /* \"Contracts/prop.sol\":3641:3769  function getCurrentProposal() external view returns(Proposal memory) {... */\n      swap1\n      jump\t// out\n        /* \"Contracts/prop.sol\":2088:3070  function vote(uint8 choice) external active {... */\n    tag_34:\n        /* \"Contracts/prop.sol\":585:589  true */\n      0x01\n        /* \"Contracts/prop.sol\":537:589  proposalHistory[_counter.current()].isActive == true */\n      iszero\n      iszero\n        /* \"Contracts/prop.sol\":537:552  proposalHistory */\n      0x03\n        /* \"Contracts/prop.sol\":537:572  proposalHistory[_counter.current()] */\n      0x00\n        /* \"Contracts/prop.sol\":553:571  _counter.current() */\n      tag_92\n        /* \"Contracts/prop.sol\":553:561  _counter */\n      0x00\n        /* \"Contracts/prop.sol\":553:569  _counter.current */\n      tag_73\n        /* \"Contracts/prop.sol\":553:571  _counter.current() */\n      jump\t// in\n    tag_92:\n        /* \"Contracts/prop.sol\":537:572  proposalHistory[_counter.current()] */\n      dup2\n      mstore\n      0x20\n      add\n      swap1\n      dup2\n      mstore\n      0x20\n      add\n      0x00\n      keccak256\n        /* \"Contracts/prop.sol\":537:581  proposalHistory[_counter.current()].isActive */\n      0x06\n      add\n      0x01\n      swap1\n      sload\n      swap1\n      0x0100\n      exp\n      swap1\n      div\n      0xff\n      and\n        /* \"Contracts/prop.sol\":537:589  proposalHistory[_counter.current()].isActive == true */\n      iszero\n      iszero\n      eq\n        /* \"Contracts/prop.sol\":529:620  require(proposalHistory[_counter.current()].isActive == true, \"The proposal is not active\") */\n      tag_93\n      jumpi\n      mload(0x40)\n      0x08c379a000000000000000000000000000000000000000000000000000000000\n      dup2\n      mstore\n      0x04\n      add\n      tag_94\n      swap1\n      tag_95\n      jump\t// in\n    tag_94:\n      mload(0x40)\n      dup1\n      swap2\n      sub\n      swap1\n      revert\n    tag_93:\n        /* \"Contracts/prop.sol\":2160:2161  0 */\n      0x00\n        /* \"Contracts/prop.sol\":2150:2156  choice */\n      dup2\n        /* \"Contracts/prop.sol\":2150:2161  choice >= 0 */\n      0xff\n      and\n      lt\n      iszero\n        /* \"Contracts/prop.sol\":2150:2176  choice >= 0 && choice <= 2 */\n      dup1\n      iszero\n      tag_97\n      jumpi\n      pop\n        /* \"Contracts/prop.sol\":2175:2176  2 */\n      0x02\n        /* \"Contracts/prop.sol\":2165:2171  choice */\n      dup2\n        /* \"Contracts/prop.sol\":2165:2176  choice <= 2 */\n      0xff\n      and\n      gt\n      iszero\n        /* \"Contracts/prop.sol\":2150:2176  choice >= 0 && choice <= 2 */\n    tag_97:\n        /* \"Contracts/prop.sol\":2142:2202  require(choice >= 0 && choice <= 2, \"Invalid voting choice\") */\n      tag_98\n      jumpi\n      mload(0x40)\n      0x08c379a000000000000000000000000000000000000000000000000000000000\n      dup2\n      mstore\n      0x04\n      add\n      tag_99\n      swap1\n      tag_100\n      jump\t// in\n    tag_99:\n      mload(0x40)\n      dup1\n      swap2\n      sub\n      swap1\n      revert\n    tag_98:\n        /* \"Contracts/prop.sol\":2317:2342  Proposal storage proposal */\n      0x00\n        /* \"Contracts/prop.sol\":2345:2360  proposalHistory */\n      0x03\n        /* \"Contracts/prop.sol\":2345:2380  proposalHistory[_counter.current()] */\n      0x00\n        /* \"Contracts/prop.sol\":2361:2379  _counter.current() */\n      tag_101\n        /* \"Contracts/prop.sol\":2361:2369  _counter */\n      0x00\n        /* \"Contracts/prop.sol\":2361:2377  _counter.current */\n      tag_73\n        /* \"Contracts/prop.sol\":2361:2379  _counter.current() */\n      jump\t// in\n    tag_101:\n        /* \"Contracts/prop.sol\":2345:2380  proposalHistory[_counter.current()] */\n      dup2\n      mstore\n      0x20\n      add\n      swap1\n      dup2\n      mstore\n      0x20\n      add\n      0x00\n      keccak256\n        /* \"Contracts/prop.sol\":2317:2380  Proposal storage proposal = proposalHistory[_counter.current()] */\n      swap1\n      pop\n        /* \"Contracts/prop.sol\":2415:2420  false */\n      0x00\n        /* \"Contracts/prop.sol\":2394:2420  proposal.isActive == false */\n      iszero\n      iszero\n        /* \"Contracts/prop.sol\":2394:2402  proposal */\n      dup2\n        /* \"Contracts/prop.sol\":2394:2411  proposal.isActive */\n      0x06\n      add\n      0x01\n      swap1\n      sload\n      swap1\n      0x0100\n      exp\n      swap1\n      div\n      0xff\n      and\n        /* \"Contracts/prop.sol\":2394:2420  proposal.isActive == false */\n      iszero\n      iszero\n      sub\n        /* \"Contracts/prop.sol\":2390:2449  if (proposal.isActive == false) {... */\n      tag_102\n      jumpi\n        /* \"Contracts/prop.sol\":2436:2443  return; */\n      pop\n      jump(tag_96)\n        /* \"Contracts/prop.sol\":2390:2449  if (proposal.isActive == false) {... */\n    tag_102:\n        /* \"Contracts/prop.sol\":2459:2476  uint256 totalVote */\n      0x00\n        /* \"Contracts/prop.sol\":2516:2524  proposal */\n      dup2\n        /* \"Contracts/prop.sol\":2516:2529  proposal.pass */\n      0x04\n      add\n      sload\n        /* \"Contracts/prop.sol\":2498:2506  proposal */\n      dup3\n        /* \"Contracts/prop.sol\":2498:2513  proposal.reject */\n      0x03\n      add\n      sload\n        /* \"Contracts/prop.sol\":2479:2487  proposal */\n      dup4\n        /* \"Contracts/prop.sol\":2479:2495  proposal.approve */\n      0x02\n      add\n      sload\n        /* \"Contracts/prop.sol\":2479:2513  proposal.approve + proposal.reject */\n      tag_103\n      swap2\n      swap1\n      tag_104\n      jump\t// in\n    tag_103:\n        /* \"Contracts/prop.sol\":2479:2529  proposal.approve + proposal.reject + proposal.pass */\n      tag_105\n      swap2\n      swap1\n      tag_104\n      jump\t// in\n    tag_105:\n        /* \"Contracts/prop.sol\":2459:2529  uint256 totalVote = proposal.approve + proposal.reject + proposal.pass */\n      swap1\n      pop\n        /* \"Contracts/prop.sol\":2540:2555  voted_addresses */\n      0x02\n        /* \"Contracts/prop.sol\":2561:2571  msg.sender */\n      caller\n        /* \"Contracts/prop.sol\":2540:2572  voted_addresses.push(msg.sender) */\n      swap1\n      dup1\n      0x01\n      dup2\n      sload\n      add\n      dup1\n      dup3\n      sstore\n      dup1\n      swap2\n      pop\n      pop\n      0x01\n      swap1\n      sub\n      swap1\n      0x00\n      mstore\n      keccak256(0x00, 0x20)\n      add\n      0x00\n      swap1\n      swap2\n      swap1\n      swap2\n      swap1\n      swap2\n      0x0100\n      exp\n      dup2\n      sload\n      dup2\n      0xffffffffffffffffffffffffffffffffffffffff\n      mul\n      not\n      and\n      swap1\n      dup4\n      0xffffffffffffffffffffffffffffffffffffffff\n      and\n      mul\n      or\n      swap1\n      sstore\n      pop\n        /* \"Contracts/prop.sol\":2597:2598  1 */\n      0x01\n        /* \"Contracts/prop.sol\":2587:2593  choice */\n      dup4\n        /* \"Contracts/prop.sol\":2587:2598  choice == 1 */\n      0xff\n      and\n      sub\n        /* \"Contracts/prop.sol\":2583:2780  if (choice == 1) {... */\n      tag_107\n      jumpi\n        /* \"Contracts/prop.sol\":2634:2635  1 */\n      0x01\n        /* \"Contracts/prop.sol\":2614:2622  proposal */\n      dup3\n        /* \"Contracts/prop.sol\":2614:2630  proposal.approve */\n      0x02\n      add\n      0x00\n        /* \"Contracts/prop.sol\":2614:2635  proposal.approve += 1 */\n      dup3\n      dup3\n      sload\n      tag_108\n      swap2\n      swap1\n      tag_104\n      jump\t// in\n    tag_108:\n      swap3\n      pop\n      pop\n      dup2\n      swap1\n      sstore\n      pop\n        /* \"Contracts/prop.sol\":2583:2780  if (choice == 1) {... */\n      jump(tag_109)\n    tag_107:\n        /* \"Contracts/prop.sol\":2666:2667  2 */\n      0x02\n        /* \"Contracts/prop.sol\":2656:2662  choice */\n      dup4\n        /* \"Contracts/prop.sol\":2656:2667  choice == 2 */\n      0xff\n      and\n      sub\n        /* \"Contracts/prop.sol\":2652:2780  if (choice == 2) {... */\n      tag_110\n      jumpi\n        /* \"Contracts/prop.sol\":2702:2703  1 */\n      0x01\n        /* \"Contracts/prop.sol\":2683:2691  proposal */\n      dup3\n        /* \"Contracts/prop.sol\":2683:2698  proposal.reject */\n      0x03\n      add\n      0x00\n        /* \"Contracts/prop.sol\":2683:2703  proposal.reject += 1 */\n      dup3\n      dup3\n      sload\n      tag_111\n      swap2\n      swap1\n      tag_104\n      jump\t// in\n    tag_111:\n      swap3\n      pop\n      pop\n      dup2\n      swap1\n      sstore\n      pop\n        /* \"Contracts/prop.sol\":2652:2780  if (choice == 2) {... */\n      jump(tag_112)\n    tag_110:\n        /* \"Contracts/prop.sol\":2734:2735  0 */\n      0x00\n        /* \"Contracts/prop.sol\":2724:2730  choice */\n      dup4\n        /* \"Contracts/prop.sol\":2724:2735  choice == 0 */\n      0xff\n      and\n      sub\n        /* \"Contracts/prop.sol\":2720:2780  if (choice == 0) {... */\n      tag_113\n      jumpi\n        /* \"Contracts/prop.sol\":2768:2769  1 */\n      0x01\n        /* \"Contracts/prop.sol\":2751:2759  proposal */\n      dup3\n        /* \"Contracts/prop.sol\":2751:2764  proposal.pass */\n      0x04\n      add\n      0x00\n        /* \"Contracts/prop.sol\":2751:2769  proposal.pass += 1 */\n      dup3\n      dup3\n      sload\n      tag_114\n      swap2\n      swap1\n      tag_104\n      jump\t// in\n    tag_114:\n      swap3\n      pop\n      pop\n      dup2\n      swap1\n      sstore\n      pop\n        /* \"Contracts/prop.sol\":2720:2780  if (choice == 0) {... */\n    tag_113:\n        /* \"Contracts/prop.sol\":2652:2780  if (choice == 2) {... */\n    tag_112:\n        /* \"Contracts/prop.sol\":2583:2780  if (choice == 1) {... */\n    tag_109:\n        /* \"Contracts/prop.sol\":2814:2837  calculateCurrentState() */\n      tag_115\n        /* \"Contracts/prop.sol\":2814:2835  calculateCurrentState */\n      tag_116\n        /* \"Contracts/prop.sol\":2814:2837  calculateCurrentState() */\n      jump\t// in\n    tag_115:\n        /* \"Contracts/prop.sol\":2790:2798  proposal */\n      dup3\n        /* \"Contracts/prop.sol\":2790:2811  proposal.currentState */\n      0x06\n      add\n      0x00\n        /* \"Contracts/prop.sol\":2790:2837  proposal.currentState = calculateCurrentState() */\n      0x0100\n      exp\n      dup2\n      sload\n      dup2\n      0xff\n      mul\n      not\n      and\n      swap1\n      dup4\n      iszero\n      iszero\n      mul\n      or\n      swap1\n      sstore\n      pop\n        /* \"Contracts/prop.sol\":2904:2905  1 */\n      0x01\n        /* \"Contracts/prop.sol\":2891:2900  totalVote */\n      dup2\n        /* \"Contracts/prop.sol\":2865:2873  proposal */\n      dup4\n        /* \"Contracts/prop.sol\":2865:2888  proposal.totalVoteToEnd */\n      0x05\n      add\n      sload\n        /* \"Contracts/prop.sol\":2865:2900  proposal.totalVoteToEnd - totalVote */\n      tag_117\n      swap2\n      swap1\n      tag_118\n      jump\t// in\n    tag_117:\n        /* \"Contracts/prop.sol\":2865:2905  proposal.totalVoteToEnd - totalVote == 1 */\n      eq\n        /* \"Contracts/prop.sol\":2865:2964  proposal.totalVoteToEnd - totalVote == 1 &&... */\n      dup1\n      iszero\n      tag_119\n      jumpi\n      pop\n        /* \"Contracts/prop.sol\":2932:2933  1 */\n      0x01\n        /* \"Contracts/prop.sol\":2922:2928  choice */\n      dup4\n        /* \"Contracts/prop.sol\":2922:2933  choice == 1 */\n      0xff\n      and\n      eq\n        /* \"Contracts/prop.sol\":2922:2948  choice == 1 || choice == 2 */\n      dup1\n      tag_120\n      jumpi\n      pop\n        /* \"Contracts/prop.sol\":2947:2948  2 */\n      0x02\n        /* \"Contracts/prop.sol\":2937:2943  choice */\n      dup4\n        /* \"Contracts/prop.sol\":2937:2948  choice == 2 */\n      0xff\n      and\n      eq\n        /* \"Contracts/prop.sol\":2922:2948  choice == 1 || choice == 2 */\n    tag_120:\n        /* \"Contracts/prop.sol\":2922:2963  choice == 1 || choice == 2 || choice == 0 */\n      dup1\n      tag_121\n      jumpi\n      pop\n        /* \"Contracts/prop.sol\":2962:2963  0 */\n      0x00\n        /* \"Contracts/prop.sol\":2952:2958  choice */\n      dup4\n        /* \"Contracts/prop.sol\":2952:2963  choice == 0 */\n      0xff\n      and\n      eq\n        /* \"Contracts/prop.sol\":2922:2963  choice == 1 || choice == 2 || choice == 0 */\n    tag_121:\n        /* \"Contracts/prop.sol\":2865:2964  proposal.totalVoteToEnd - totalVote == 1 &&... */\n    tag_119:\n        /* \"Contracts/prop.sol\":2848:3064  if (... */\n      iszero\n      tag_122\n      jumpi\n        /* \"Contracts/prop.sol\":3009:3014  false */\n      0x00\n        /* \"Contracts/prop.sol\":2989:2997  proposal */\n      dup3\n        /* \"Contracts/prop.sol\":2989:3006  proposal.isActive */\n      0x06\n      add\n      0x01\n        /* \"Contracts/prop.sol\":2989:3014  proposal.isActive = false */\n      0x0100\n      exp\n      dup2\n      sload\n      dup2\n      0xff\n      mul\n      not\n      and\n      swap1\n      dup4\n      iszero\n      iszero\n      mul\n      or\n      swap1\n      sstore\n      pop\n        /* \"Contracts/prop.sol\":3028:3053  voted_addresses = [owner] */\n      mload(0x40)\n      dup1\n      0x20\n      add\n      0x40\n      mstore\n      dup1\n        /* \"Contracts/prop.sol\":3047:3052  owner */\n      0x01\n      0x00\n      swap1\n      sload\n      swap1\n      0x0100\n      exp\n      swap1\n      div\n      0xffffffffffffffffffffffffffffffffffffffff\n      and\n        /* \"Contracts/prop.sol\":3028:3053  voted_addresses = [owner] */\n      0xffffffffffffffffffffffffffffffffffffffff\n      and\n      0xffffffffffffffffffffffffffffffffffffffff\n      and\n      dup2\n      mstore\n      pop\n        /* \"Contracts/prop.sol\":3028:3043  voted_addresses */\n      0x02\n        /* \"Contracts/prop.sol\":3028:3053  voted_addresses = [owner] */\n      swap1\n      0x01\n      tag_123\n      swap3\n      swap2\n      swap1\n      tag_124\n      jump\t// in\n    tag_123:\n      pop\n        /* \"Contracts/prop.sol\":2848:3064  if (... */\n    tag_122:\n        /* \"Contracts/prop.sol\":2132:3070  {... */\n      pop\n      pop\n        /* \"Contracts/prop.sol\":630:631  _ */\n    tag_96:\n        /* \"Contracts/prop.sol\":2088:3070  function vote(uint8 choice) external active {... */\n      pop\n      jump\t// out\n        /* \"Contracts/prop.sol\":2002:2082  function viewOwner() public view returns (address) {... */\n    tag_36:\n        /* \"Contracts/prop.sol\":2044:2051  address */\n      0x00\n        /* \"Contracts/prop.sol\":2070:2075  owner */\n      0x01\n      0x00\n      swap1\n      sload\n      swap1\n      0x0100\n      exp\n      swap1\n      div\n      0xffffffffffffffffffffffffffffffffffffffff\n      and\n        /* \"Contracts/prop.sol\":2063:2075  return owner */\n      swap1\n      pop\n        /* \"Contracts/prop.sol\":2002:2082  function viewOwner() public view returns (address) {... */\n      swap1\n      jump\t// out\n        /* \"Contracts/prop.sol\":3775:3890  function getProposal(uint256 number) external view returns(Proposal memory) {... */\n    tag_41:\n        /* \"Contracts/prop.sol\":3834:3849  Proposal memory */\n      tag_126\n      tag_78\n      jump\t// in\n    tag_126:\n        /* \"Contracts/prop.sol\":3864:3879  proposalHistory */\n      0x03\n        /* \"Contracts/prop.sol\":3864:3887  proposalHistory[number] */\n      0x00\n        /* \"Contracts/prop.sol\":3880:3886  number */\n      dup4\n        /* \"Contracts/prop.sol\":3864:3887  proposalHistory[number] */\n      dup2\n      mstore\n      0x20\n      add\n      swap1\n      dup2\n      mstore\n      0x20\n      add\n      0x00\n      keccak256\n        /* \"Contracts/prop.sol\":3857:3887  return proposalHistory[number] */\n      mload(0x40)\n      dup1\n      0x0100\n      add\n      0x40\n      mstore\n      swap1\n      dup2\n      0x00\n      dup3\n      add\n      dup1\n      sload\n      tag_128\n      swap1\n      tag_56\n      jump\t// in\n    tag_128:\n      dup1\n      0x1f\n      add\n      0x20\n      dup1\n      swap2\n      div\n      mul\n      0x20\n      add\n      mload(0x40)\n      swap1\n      dup2\n      add\n      0x40\n      mstore\n      dup1\n      swap3\n      swap2\n      swap1\n      dup2\n      dup2\n      mstore\n      0x20\n      add\n      dup3\n      dup1\n      sload\n      tag_129\n      swap1\n      tag_56\n      jump\t// in\n    tag_129:\n      dup1\n      iszero\n      tag_130\n      jumpi\n      dup1\n      0x1f\n      lt\n      tag_131\n      jumpi\n      0x0100\n      dup1\n      dup4\n      sload\n      div\n      mul\n      dup4\n      mstore\n      swap2\n      0x20\n      add\n      swap2\n      jump(tag_130)\n    tag_131:\n      dup3\n      add\n      swap2\n      swap1\n      0x00\n      mstore\n      keccak256(0x00, 0x20)\n      swap1\n    tag_132:\n      dup2\n      sload\n      dup2\n      mstore\n      swap1\n      0x01\n      add\n      swap1\n      0x20\n      add\n      dup1\n      dup4\n      gt\n      tag_132\n      jumpi\n      dup3\n      swap1\n      sub\n      0x1f\n      and\n      dup3\n      add\n      swap2\n    tag_130:\n      pop\n      pop\n      pop\n      pop\n      pop\n      dup2\n      mstore\n      0x20\n      add\n      0x01\n      dup3\n      add\n      dup1\n      sload\n      tag_133\n      swap1\n      tag_56\n      jump\t// in\n    tag_133:\n      dup1\n      0x1f\n      add\n      0x20\n      dup1\n      swap2\n      div\n      mul\n      0x20\n      add\n      mload(0x40)\n      swap1\n      dup2\n      add\n      0x40\n      mstore\n      dup1\n      swap3\n      swap2\n      swap1\n      dup2\n      dup2\n      mstore\n      0x20\n      add\n      dup3\n      dup1\n      sload\n      tag_134\n      swap1\n      tag_56\n      jump\t// in\n    tag_134:\n      dup1\n      iszero\n      tag_135\n      jumpi\n      dup1\n      0x1f\n      lt\n      tag_136\n      jumpi\n      0x0100\n      dup1\n      dup4\n      sload\n      div\n      mul\n      dup4\n      mstore\n      swap2\n      0x20\n      add\n      swap2\n      jump(tag_135)\n    tag_136:\n      dup3\n      add\n      swap2\n      swap1\n      0x00\n      mstore\n      keccak256(0x00, 0x20)\n      swap1\n    tag_137:\n      dup2\n      sload\n      dup2\n      mstore\n      swap1\n      0x01\n      add\n      swap1\n      0x20\n      add\n      dup1\n      dup4\n      gt\n      tag_137\n      jumpi\n      dup3\n      swap1\n      sub\n      0x1f\n      and\n      dup3\n      add\n      swap2\n    tag_135:\n      pop\n      pop\n      pop\n      pop\n      pop\n      dup2\n      mstore\n      0x20\n      add\n      0x02\n      dup3\n      add\n      sload\n      dup2\n      mstore\n      0x20\n      add\n      0x03\n      dup3\n      add\n      sload\n      dup2\n      mstore\n      0x20\n      add\n      0x04\n      dup3\n      add\n      sload\n      dup2\n      mstore\n      0x20\n      add\n      0x05\n      dup3\n      add\n      sload\n      dup2\n      mstore\n      0x20\n      add\n      0x06\n      dup3\n      add\n      0x00\n      swap1\n      sload\n      swap1\n      0x0100\n      exp\n      swap1\n      div\n      0xff\n      and\n      iszero\n      iszero\n      iszero\n      iszero\n      dup2\n      mstore\n      0x20\n      add\n      0x06\n      dup3\n      add\n      0x01\n      swap1\n      sload\n      swap1\n      0x0100\n      exp\n      swap1\n      div\n      0xff\n      and\n      iszero\n      iszero\n      iszero\n      iszero\n      dup2\n      mstore\n      pop\n      pop\n      swap1\n      pop\n        /* \"Contracts/prop.sol\":3775:3890  function getProposal(uint256 number) external view returns(Proposal memory) {... */\n      swap2\n      swap1\n      pop\n      jump\t// out\n        /* \"Contracts/prop.sol\":3255:3505  function isVoted(address _address) public view returns (bool) {... */\n    tag_45:\n        /* \"Contracts/prop.sol\":3311:3315  bool */\n      0x00\n        /* \"Contracts/prop.sol\":3332:3338  uint i */\n      dup1\n        /* \"Contracts/prop.sol\":3341:3342  0 */\n      0x00\n        /* \"Contracts/prop.sol\":3332:3342  uint i = 0 */\n      swap1\n      pop\n        /* \"Contracts/prop.sol\":3327:3481  for (uint i = 0; i < voted_addresses.length; i++) {... */\n    tag_139:\n        /* \"Contracts/prop.sol\":3348:3363  voted_addresses */\n      0x02\n        /* \"Contracts/prop.sol\":3348:3370  voted_addresses.length */\n      dup1\n      sload\n      swap1\n      pop\n        /* \"Contracts/prop.sol\":3344:3345  i */\n      dup2\n        /* \"Contracts/prop.sol\":3344:3370  i < voted_addresses.length */\n      lt\n        /* \"Contracts/prop.sol\":3327:3481  for (uint i = 0; i < voted_addresses.length; i++) {... */\n      iszero\n      tag_140\n      jumpi\n        /* \"Contracts/prop.sol\":3417:3425  _address */\n      dup3\n        /* \"Contracts/prop.sol\":3395:3425  voted_addresses[i] == _address */\n      0xffffffffffffffffffffffffffffffffffffffff\n      and\n        /* \"Contracts/prop.sol\":3395:3410  voted_addresses */\n      0x02\n        /* \"Contracts/prop.sol\":3411:3412  i */\n      dup3\n        /* \"Contracts/prop.sol\":3395:3413  voted_addresses[i] */\n      dup2\n      sload\n      dup2\n      lt\n      tag_142\n      jumpi\n      tag_143\n      tag_144\n      jump\t// in\n    tag_143:\n    tag_142:\n      swap1\n      0x00\n      mstore\n      keccak256(0x00, 0x20)\n      add\n      0x00\n      swap1\n      sload\n      swap1\n      0x0100\n      exp\n      swap1\n      div\n      0xffffffffffffffffffffffffffffffffffffffff\n      and\n        /* \"Contracts/prop.sol\":3395:3425  voted_addresses[i] == _address */\n      0xffffffffffffffffffffffffffffffffffffffff\n      and\n      sub\n        /* \"Contracts/prop.sol\":3391:3471  if (voted_addresses[i] == _address) {... */\n      tag_146\n      jumpi\n        /* \"Contracts/prop.sol\":3452:3456  true */\n      0x01\n        /* \"Contracts/prop.sol\":3445:3456  return true */\n      swap2\n      pop\n      pop\n      jump(tag_138)\n        /* \"Contracts/prop.sol\":3391:3471  if (voted_addresses[i] == _address) {... */\n    tag_146:\n        /* \"Contracts/prop.sol\":3372:3375  i++ */\n      dup1\n      dup1\n      0x01\n      add\n      swap2\n      pop\n      pop\n        /* \"Contracts/prop.sol\":3327:3481  for (uint i = 0; i < voted_addresses.length; i++) {... */\n      jump(tag_139)\n    tag_140:\n      pop\n        /* \"Contracts/prop.sol\":3493:3498  false */\n      0x00\n        /* \"Contracts/prop.sol\":3486:3498  return false */\n      swap1\n      pop\n        /* \"Contracts/prop.sol\":3255:3505  function isVoted(address _address) public view returns (bool) {... */\n    tag_138:\n      swap2\n      swap1\n      pop\n      jump\t// out\n        /* \"Contracts/prop.sol\":3511:3635  function terminateProposal() external onlyOwner active {... */\n    tag_49:\n        /* \"Contracts/prop.sol\":430:435  owner */\n      0x01\n      0x00\n      swap1\n      sload\n      swap1\n      0x0100\n      exp\n      swap1\n      div\n      0xffffffffffffffffffffffffffffffffffffffff\n      and\n        /* \"Contracts/prop.sol\":416:435  msg.sender == owner */\n      0xffffffffffffffffffffffffffffffffffffffff\n      and\n        /* \"Contracts/prop.sol\":416:426  msg.sender */\n      caller\n        /* \"Contracts/prop.sol\":416:435  msg.sender == owner */\n      0xffffffffffffffffffffffffffffffffffffffff\n      and\n      eq\n        /* \"Contracts/prop.sol\":408:477  require(msg.sender == owner, \"Only the owner can call this function\") */\n      tag_148\n      jumpi\n      mload(0x40)\n      0x08c379a000000000000000000000000000000000000000000000000000000000\n      dup2\n      mstore\n      0x04\n      add\n      tag_149\n      swap1\n      tag_53\n      jump\t// in\n    tag_149:\n      mload(0x40)\n      dup1\n      swap2\n      sub\n      swap1\n      revert\n    tag_148:\n        /* \"Contracts/prop.sol\":585:589  true */\n      0x01\n        /* \"Contracts/prop.sol\":537:589  proposalHistory[_counter.current()].isActive == true */\n      iszero\n      iszero\n        /* \"Contracts/prop.sol\":537:552  proposalHistory */\n      0x03\n        /* \"Contracts/prop.sol\":537:572  proposalHistory[_counter.current()] */\n      0x00\n        /* \"Contracts/prop.sol\":553:571  _counter.current() */\n      tag_151\n        /* \"Contracts/prop.sol\":553:561  _counter */\n      0x00\n        /* \"Contracts/prop.sol\":553:569  _counter.current */\n      tag_73\n        /* \"Contracts/prop.sol\":553:571  _counter.current() */\n      jump\t// in\n    tag_151:\n        /* \"Contracts/prop.sol\":537:572  proposalHistory[_counter.current()] */\n      dup2\n      mstore\n      0x20\n      add\n      swap1\n      dup2\n      mstore\n      0x20\n      add\n      0x00\n      keccak256\n        /* \"Contracts/prop.sol\":537:581  proposalHistory[_counter.current()].isActive */\n      0x06\n      add\n      0x01\n      swap1\n      sload\n      swap1\n      0x0100\n      exp\n      swap1\n      div\n      0xff\n      and\n        /* \"Contracts/prop.sol\":537:589  proposalHistory[_counter.current()].isActive == true */\n      iszero\n      iszero\n      eq\n        /* \"Contracts/prop.sol\":529:620  require(proposalHistory[_counter.current()].isActive == true, \"The proposal is not active\") */\n      tag_152\n      jumpi\n      mload(0x40)\n      0x08c379a000000000000000000000000000000000000000000000000000000000\n      dup2\n      mstore\n      0x04\n      add\n      tag_153\n      swap1\n      tag_95\n      jump\t// in\n    tag_153:\n      mload(0x40)\n      dup1\n      swap2\n      sub\n      swap1\n      revert\n    tag_152:\n        /* \"Contracts/prop.sol\":3623:3628  false */\n      0x00\n        /* \"Contracts/prop.sol\":3576:3591  proposalHistory */\n      0x03\n        /* \"Contracts/prop.sol\":3576:3611  proposalHistory[_counter.current()] */\n      0x00\n        /* \"Contracts/prop.sol\":3592:3610  _counter.current() */\n      tag_155\n        /* \"Contracts/prop.sol\":3592:3600  _counter */\n      0x00\n        /* \"Contracts/prop.sol\":3592:3608  _counter.current */\n      tag_73\n        /* \"Contracts/prop.sol\":3592:3610  _counter.current() */\n      jump\t// in\n    tag_155:\n        /* \"Contracts/prop.sol\":3576:3611  proposalHistory[_counter.current()] */\n      dup2\n      mstore\n      0x20\n      add\n      swap1\n      dup2\n      mstore\n      0x20\n      add\n      0x00\n      keccak256\n        /* \"Contracts/prop.sol\":3576:3620  proposalHistory[_counter.current()].isActive */\n      0x06\n      add\n      0x01\n        /* \"Contracts/prop.sol\":3576:3628  proposalHistory[_counter.current()].isActive = false */\n      0x0100\n      exp\n      dup2\n      sload\n      dup2\n      0xff\n      mul\n      not\n      and\n      swap1\n      dup4\n      iszero\n      iszero\n      mul\n      or\n      swap1\n      sstore\n      pop\n        /* \"Contracts/prop.sol\":3511:3635  function terminateProposal() external onlyOwner active {... */\n      jump\t// out\n        /* \"@openzeppelin/contracts/utils/Counters.sol\":945:1068  function increment(Counter storage counter) internal {... */\n    tag_71:\n        /* \"@openzeppelin/contracts/utils/Counters.sol\":1050:1051  1 */\n      0x01\n        /* \"@openzeppelin/contracts/utils/Counters.sol\":1032:1039  counter */\n      dup2\n        /* \"@openzeppelin/contracts/utils/Counters.sol\":1032:1046  counter._value */\n      0x00\n      add\n      0x00\n        /* \"@openzeppelin/contracts/utils/Counters.sol\":1032:1051  counter._value += 1 */\n      dup3\n      dup3\n      sload\n      add\n      swap3\n      pop\n      pop\n      dup2\n      swap1\n      sstore\n      pop\n        /* \"@openzeppelin/contracts/utils/Counters.sol\":945:1068  function increment(Counter storage counter) internal {... */\n      pop\n      jump\t// out\n        /* \"@openzeppelin/contracts/utils/Counters.sol\":827:939  function current(Counter storage counter) internal view returns (uint256) {... */\n    tag_73:\n        /* \"@openzeppelin/contracts/utils/Counters.sol\":892:899  uint256 */\n      0x00\n        /* \"@openzeppelin/contracts/utils/Counters.sol\":918:925  counter */\n      dup2\n        /* \"@openzeppelin/contracts/utils/Counters.sol\":918:932  counter._value */\n      0x00\n      add\n      sload\n        /* \"@openzeppelin/contracts/utils/Counters.sol\":911:932  return counter._value */\n      swap1\n      pop\n        /* \"@openzeppelin/contracts/utils/Counters.sol\":827:939  function current(Counter storage counter) internal view returns (uint256) {... */\n      swap2\n      swap1\n      pop\n      jump\t// out\n        /* \"Contracts/prop.sol\":3076:3249  function calculateCurrentState() private view returns (bool) {... */\n    tag_116:\n        /* \"Contracts/prop.sol\":3131:3135  bool */\n      0x00\n        /* \"Contracts/prop.sol\":3200:3215  proposalHistory */\n      0x03\n        /* \"Contracts/prop.sol\":3200:3235  proposalHistory[_counter.current()] */\n      0x00\n        /* \"Contracts/prop.sol\":3216:3234  _counter.current() */\n      tag_159\n        /* \"Contracts/prop.sol\":3216:3224  _counter */\n      0x00\n        /* \"Contracts/prop.sol\":3216:3232  _counter.current */\n      tag_73\n        /* \"Contracts/prop.sol\":3216:3234  _counter.current() */\n      jump\t// in\n    tag_159:\n        /* \"Contracts/prop.sol\":3200:3235  proposalHistory[_counter.current()] */\n      dup2\n      mstore\n      0x20\n      add\n      swap1\n      dup2\n      mstore\n      0x20\n      add\n      0x00\n      keccak256\n        /* \"Contracts/prop.sol\":3200:3242  proposalHistory[_counter.current()].reject */\n      0x03\n      add\n      sload\n        /* \"Contracts/prop.sol\":3154:3169  proposalHistory */\n      0x03\n        /* \"Contracts/prop.sol\":3154:3189  proposalHistory[_counter.current()] */\n      0x00\n        /* \"Contracts/prop.sol\":3170:3188  _counter.current() */\n      tag_160\n        /* \"Contracts/prop.sol\":3170:3178  _counter */\n      0x00\n        /* \"Contracts/prop.sol\":3170:3186  _counter.current */\n      tag_73\n        /* \"Contracts/prop.sol\":3170:3188  _counter.current() */\n      jump\t// in\n    tag_160:\n        /* \"Contracts/prop.sol\":3154:3189  proposalHistory[_counter.current()] */\n      dup2\n      mstore\n      0x20\n      add\n      swap1\n      dup2\n      mstore\n      0x20\n      add\n      0x00\n      keccak256\n        /* \"Contracts/prop.sol\":3154:3197  proposalHistory[_counter.current()].approve */\n      0x02\n      add\n      sload\n        /* \"Contracts/prop.sol\":3154:3242  proposalHistory[_counter.current()].approve > proposalHistory[_counter.current()].reject */\n      gt\n        /* \"Contracts/prop.sol\":3147:3242  return proposalHistory[_counter.current()].approve > proposalHistory[_counter.current()].reject */\n      swap1\n      pop\n        /* \"Contracts/prop.sol\":3076:3249  function calculateCurrentState() private view returns (bool) {... */\n      swap1\n      jump\t// out\n    tag_78:\n      mload(0x40)\n      dup1\n      0x0100\n      add\n      0x40\n      mstore\n      dup1\n      0x60\n      dup2\n      mstore\n      0x20\n      add\n      0x60\n      dup2\n      mstore\n      0x20\n      add\n      0x00\n      dup2\n      mstore\n      0x20\n      add\n      0x00\n      dup2\n      mstore\n      0x20\n      add\n      0x00\n      dup2\n      mstore\n      0x20\n      add\n      0x00\n      dup2\n      mstore\n      0x20\n      add\n      iszero(iszero(0x00))\n      dup2\n      mstore\n      0x20\n      add\n      iszero(iszero(0x00))\n      dup2\n      mstore\n      pop\n      swap1\n      jump\t// out\n    tag_124:\n      dup3\n      dup1\n      sload\n      dup3\n      dup3\n      sstore\n      swap1\n      0x00\n      mstore\n      keccak256(0x00, 0x20)\n      swap1\n      dup2\n      add\n      swap3\n      dup3\n      iszero\n      tag_161\n      jumpi\n      swap2\n      0x20\n      mul\n      dup3\n      add\n    tag_162:\n      dup3\n      dup2\n      gt\n      iszero\n      tag_163\n      jumpi\n      dup3\n      mload\n      dup3\n      exp(0x0100, 0x00)\n      dup2\n      sload\n      dup2\n      0xffffffffffffffffffffffffffffffffffffffff\n      mul\n      not\n      and\n      swap1\n      dup4\n      0xffffffffffffffffffffffffffffffffffffffff\n      and\n      mul\n      or\n      swap1\n      sstore\n      pop\n      swap2\n      0x20\n      add\n      swap2\n      swap1\n      0x01\n      add\n      swap1\n      jump(tag_162)\n    tag_163:\n    tag_161:\n      pop\n      swap1\n      pop\n      tag_164\n      swap2\n      swap1\n      tag_165\n      jump\t// in\n    tag_164:\n      pop\n      swap1\n      jump\t// out\n    tag_165:\n    tag_166:\n      dup1\n      dup3\n      gt\n      iszero\n      tag_167\n      jumpi\n      0x00\n      dup2\n      0x00\n      swap1\n      sstore\n      pop\n      0x01\n      add\n      jump(tag_166)\n    tag_167:\n      pop\n      swap1\n      jump\t// out\n        /* \"#utility.yul\":88:205   */\n    tag_169:\n        /* \"#utility.yul\":197:198   */\n      0x00\n        /* \"#utility.yul\":194:195   */\n      dup1\n        /* \"#utility.yul\":187:199   */\n      revert\n        /* \"#utility.yul\":211:328   */\n    tag_170:\n        /* \"#utility.yul\":320:321   */\n      0x00\n        /* \"#utility.yul\":317:318   */\n      dup1\n        /* \"#utility.yul\":310:322   */\n      revert\n        /* \"#utility.yul\":334:460   */\n    tag_171:\n        /* \"#utility.yul\":371:378   */\n      0x00\n        /* \"#utility.yul\":411:453   */\n      0xffffffffffffffffffffffffffffffffffffffff\n        /* \"#utility.yul\":404:409   */\n      dup3\n        /* \"#utility.yul\":400:454   */\n      and\n        /* \"#utility.yul\":389:454   */\n      swap1\n      pop\n        /* \"#utility.yul\":334:460   */\n      swap2\n      swap1\n      pop\n      jump\t// out\n        /* \"#utility.yul\":466:562   */\n    tag_172:\n        /* \"#utility.yul\":503:510   */\n      0x00\n        /* \"#utility.yul\":532:556   */\n      tag_229\n        /* \"#utility.yul\":550:555   */\n      dup3\n        /* \"#utility.yul\":532:556   */\n      tag_171\n      jump\t// in\n    tag_229:\n        /* \"#utility.yul\":521:556   */\n      swap1\n      pop\n        /* \"#utility.yul\":466:562   */\n      swap2\n      swap1\n      pop\n      jump\t// out\n        /* \"#utility.yul\":568:690   */\n    tag_173:\n        /* \"#utility.yul\":641:665   */\n      tag_231\n        /* \"#utility.yul\":659:664   */\n      dup2\n        /* \"#utility.yul\":641:665   */\n      tag_172\n      jump\t// in\n    tag_231:\n        /* \"#utility.yul\":634:639   */\n      dup2\n        /* \"#utility.yul\":631:666   */\n      eq\n        /* \"#utility.yul\":621:684   */\n      tag_232\n      jumpi\n        /* \"#utility.yul\":680:681   */\n      0x00\n        /* \"#utility.yul\":677:678   */\n      dup1\n        /* \"#utility.yul\":670:682   */\n      revert\n        /* \"#utility.yul\":621:684   */\n    tag_232:\n        /* \"#utility.yul\":568:690   */\n      pop\n      jump\t// out\n        /* \"#utility.yul\":696:835   */\n    tag_174:\n        /* \"#utility.yul\":742:747   */\n      0x00\n        /* \"#utility.yul\":780:786   */\n      dup2\n        /* \"#utility.yul\":767:787   */\n      calldataload\n        /* \"#utility.yul\":758:787   */\n      swap1\n      pop\n        /* \"#utility.yul\":796:829   */\n      tag_234\n        /* \"#utility.yul\":823:828   */\n      dup2\n        /* \"#utility.yul\":796:829   */\n      tag_173\n      jump\t// in\n    tag_234:\n        /* \"#utility.yul\":696:835   */\n      swap3\n      swap2\n      pop\n      pop\n      jump\t// out\n        /* \"#utility.yul\":841:1170   */\n    tag_15:\n        /* \"#utility.yul\":900:906   */\n      0x00\n        /* \"#utility.yul\":949:951   */\n      0x20\n        /* \"#utility.yul\":937:946   */\n      dup3\n        /* \"#utility.yul\":928:935   */\n      dup5\n        /* \"#utility.yul\":924:947   */\n      sub\n        /* \"#utility.yul\":920:952   */\n      slt\n        /* \"#utility.yul\":917:1036   */\n      iszero\n      tag_236\n      jumpi\n        /* \"#utility.yul\":955:1034   */\n      tag_237\n      tag_169\n      jump\t// in\n    tag_237:\n        /* \"#utility.yul\":917:1036   */\n    tag_236:\n        /* \"#utility.yul\":1075:1076   */\n      0x00\n        /* \"#utility.yul\":1100:1153   */\n      tag_238\n        /* \"#utility.yul\":1145:1152   */\n      dup5\n        /* \"#utility.yul\":1136:1142   */\n      dup3\n        /* \"#utility.yul\":1125:1134   */\n      dup6\n        /* \"#utility.yul\":1121:1143   */\n      add\n        /* \"#utility.yul\":1100:1153   */\n      tag_174\n      jump\t// in\n    tag_238:\n        /* \"#utility.yul\":1090:1153   */\n      swap2\n      pop\n        /* \"#utility.yul\":1046:1163   */\n      pop\n        /* \"#utility.yul\":841:1170   */\n      swap3\n      swap2\n      pop\n      pop\n      jump\t// out\n        /* \"#utility.yul\":1176:1253   */\n    tag_175:\n        /* \"#utility.yul\":1213:1220   */\n      0x00\n        /* \"#utility.yul\":1242:1247   */\n      dup2\n        /* \"#utility.yul\":1231:1247   */\n      swap1\n      pop\n        /* \"#utility.yul\":1176:1253   */\n      swap2\n      swap1\n      pop\n      jump\t// out\n        /* \"#utility.yul\":1259:1381   */\n    tag_176:\n        /* \"#utility.yul\":1332:1356   */\n      tag_241\n        /* \"#utility.yul\":1350:1355   */\n      dup2\n        /* \"#utility.yul\":1332:1356   */\n      tag_175\n      jump\t// in\n    tag_241:\n        /* \"#utility.yul\":1325:1330   */\n      dup2\n        /* \"#utility.yul\":1322:1357   */\n      eq\n        /* \"#utility.yul\":1312:1375   */\n      tag_242\n      jumpi\n        /* \"#utility.yul\":1371:1372   */\n      0x00\n        /* \"#utility.yul\":1368:1369   */\n      dup1\n        /* \"#utility.yul\":1361:1373   */\n      revert\n        /* \"#utility.yul\":1312:1375   */\n    tag_242:\n        /* \"#utility.yul\":1259:1381   */\n      pop\n      jump\t// out\n        /* \"#utility.yul\":1387:1526   */\n    tag_177:\n        /* \"#utility.yul\":1433:1438   */\n      0x00\n        /* \"#utility.yul\":1471:1477   */\n      dup2\n        /* \"#utility.yul\":1458:1478   */\n      calldataload\n        /* \"#utility.yul\":1449:1478   */\n      swap1\n      pop\n        /* \"#utility.yul\":1487:1520   */\n      tag_244\n        /* \"#utility.yul\":1514:1519   */\n      dup2\n        /* \"#utility.yul\":1487:1520   */\n      tag_176\n      jump\t// in\n    tag_244:\n        /* \"#utility.yul\":1387:1526   */\n      swap3\n      swap2\n      pop\n      pop\n      jump\t// out\n        /* \"#utility.yul\":1532:1861   */\n    tag_19:\n        /* \"#utility.yul\":1591:1597   */\n      0x00\n        /* \"#utility.yul\":1640:1642   */\n      0x20\n        /* \"#utility.yul\":1628:1637   */\n      dup3\n        /* \"#utility.yul\":1619:1626   */\n      dup5\n        /* \"#utility.yul\":1615:1638   */\n      sub\n        /* \"#utility.yul\":1611:1643   */\n      slt\n        /* \"#utility.yul\":1608:1727   */\n      iszero\n      tag_246\n      jumpi\n        /* \"#utility.yul\":1646:1725   */\n      tag_247\n      tag_169\n      jump\t// in\n    tag_247:\n        /* \"#utility.yul\":1608:1727   */\n    tag_246:\n        /* \"#utility.yul\":1766:1767   */\n      0x00\n        /* \"#utility.yul\":1791:1844   */\n      tag_248\n        /* \"#utility.yul\":1836:1843   */\n      dup5\n        /* \"#utility.yul\":1827:1833   */\n      dup3\n        /* \"#utility.yul\":1816:1825   */\n      dup6\n        /* \"#utility.yul\":1812:1834   */\n      add\n        /* \"#utility.yul\":1791:1844   */\n      tag_177\n      jump\t// in\n    tag_248:\n        /* \"#utility.yul\":1781:1844   */\n      swap2\n      pop\n        /* \"#utility.yul\":1737:1854   */\n      pop\n        /* \"#utility.yul\":1532:1861   */\n      swap3\n      swap2\n      pop\n      pop\n      jump\t// out\n        /* \"#utility.yul\":1867:1966   */\n    tag_178:\n        /* \"#utility.yul\":1919:1925   */\n      0x00\n        /* \"#utility.yul\":1953:1958   */\n      dup2\n        /* \"#utility.yul\":1947:1959   */\n      mload\n        /* \"#utility.yul\":1937:1959   */\n      swap1\n      pop\n        /* \"#utility.yul\":1867:1966   */\n      swap2\n      swap1\n      pop\n      jump\t// out\n        /* \"#utility.yul\":1972:2141   */\n    tag_179:\n        /* \"#utility.yul\":2056:2067   */\n      0x00\n        /* \"#utility.yul\":2090:2096   */\n      dup3\n        /* \"#utility.yul\":2085:2088   */\n      dup3\n        /* \"#utility.yul\":2078:2097   */\n      mstore\n        /* \"#utility.yul\":2130:2134   */\n      0x20\n        /* \"#utility.yul\":2125:2128   */\n      dup3\n        /* \"#utility.yul\":2121:2135   */\n      add\n        /* \"#utility.yul\":2106:2135   */\n      swap1\n      pop\n        /* \"#utility.yul\":1972:2141   */\n      swap3\n      swap2\n      pop\n      pop\n      jump\t// out\n        /* \"#utility.yul\":2147:2393   */\n    tag_180:\n        /* \"#utility.yul\":2228:2229   */\n      0x00\n        /* \"#utility.yul\":2238:2351   */\n    tag_252:\n        /* \"#utility.yul\":2252:2258   */\n      dup4\n        /* \"#utility.yul\":2249:2250   */\n      dup2\n        /* \"#utility.yul\":2246:2259   */\n      lt\n        /* \"#utility.yul\":2238:2351   */\n      iszero\n      tag_254\n      jumpi\n        /* \"#utility.yul\":2337:2338   */\n      dup1\n        /* \"#utility.yul\":2332:2335   */\n      dup3\n        /* \"#utility.yul\":2328:2339   */\n      add\n        /* \"#utility.yul\":2322:2340   */\n      mload\n        /* \"#utility.yul\":2318:2319   */\n      dup2\n        /* \"#utility.yul\":2313:2316   */\n      dup5\n        /* \"#utility.yul\":2309:2320   */\n      add\n        /* \"#utility.yul\":2302:2341   */\n      mstore\n        /* \"#utility.yul\":2274:2276   */\n      0x20\n        /* \"#utility.yul\":2271:2272   */\n      dup2\n        /* \"#utility.yul\":2267:2277   */\n      add\n        /* \"#utility.yul\":2262:2277   */\n      swap1\n      pop\n        /* \"#utility.yul\":2238:2351   */\n      jump(tag_252)\n    tag_254:\n        /* \"#utility.yul\":2385:2386   */\n      0x00\n        /* \"#utility.yul\":2376:2382   */\n      dup5\n        /* \"#utility.yul\":2371:2374   */\n      dup5\n        /* \"#utility.yul\":2367:2383   */\n      add\n        /* \"#utility.yul\":2360:2387   */\n      mstore\n        /* \"#utility.yul\":2209:2393   */\n      pop\n        /* \"#utility.yul\":2147:2393   */\n      pop\n      pop\n      pop\n      jump\t// out\n        /* \"#utility.yul\":2399:2501   */\n    tag_181:\n        /* \"#utility.yul\":2440:2446   */\n      0x00\n        /* \"#utility.yul\":2491:2493   */\n      0x1f\n        /* \"#utility.yul\":2487:2494   */\n      not\n        /* \"#utility.yul\":2482:2484   */\n      0x1f\n        /* \"#utility.yul\":2475:2480   */\n      dup4\n        /* \"#utility.yul\":2471:2485   */\n      add\n        /* \"#utility.yul\":2467:2495   */\n      and\n        /* \"#utility.yul\":2457:2495   */\n      swap1\n      pop\n        /* \"#utility.yul\":2399:2501   */\n      swap2\n      swap1\n      pop\n      jump\t// out\n        /* \"#utility.yul\":2507:2884   */\n    tag_182:\n        /* \"#utility.yul\":2595:2598   */\n      0x00\n        /* \"#utility.yul\":2623:2662   */\n      tag_257\n        /* \"#utility.yul\":2656:2661   */\n      dup3\n        /* \"#utility.yul\":2623:2662   */\n      tag_178\n      jump\t// in\n    tag_257:\n        /* \"#utility.yul\":2678:2749   */\n      tag_258\n        /* \"#utility.yul\":2742:2748   */\n      dup2\n        /* \"#utility.yul\":2737:2740   */\n      dup6\n        /* \"#utility.yul\":2678:2749   */\n      tag_179\n      jump\t// in\n    tag_258:\n        /* \"#utility.yul\":2671:2749   */\n      swap4\n      pop\n        /* \"#utility.yul\":2758:2823   */\n      tag_259\n        /* \"#utility.yul\":2816:2822   */\n      dup2\n        /* \"#utility.yul\":2811:2814   */\n      dup6\n        /* \"#utility.yul\":2804:2808   */\n      0x20\n        /* \"#utility.yul\":2797:2802   */\n      dup7\n        /* \"#utility.yul\":2793:2809   */\n      add\n        /* \"#utility.yul\":2758:2823   */\n      tag_180\n      jump\t// in\n    tag_259:\n        /* \"#utility.yul\":2848:2877   */\n      tag_260\n        /* \"#utility.yul\":2870:2876   */\n      dup2\n        /* \"#utility.yul\":2848:2877   */\n      tag_181\n      jump\t// in\n    tag_260:\n        /* \"#utility.yul\":2843:2846   */\n      dup5\n        /* \"#utility.yul\":2839:2878   */\n      add\n        /* \"#utility.yul\":2832:2878   */\n      swap2\n      pop\n        /* \"#utility.yul\":2599:2884   */\n      pop\n        /* \"#utility.yul\":2507:2884   */\n      swap3\n      swap2\n      pop\n      pop\n      jump\t// out\n        /* \"#utility.yul\":2890:3008   */\n    tag_183:\n        /* \"#utility.yul\":2977:3001   */\n      tag_262\n        /* \"#utility.yul\":2995:3000   */\n      dup2\n        /* \"#utility.yul\":2977:3001   */\n      tag_175\n      jump\t// in\n    tag_262:\n        /* \"#utility.yul\":2972:2975   */\n      dup3\n        /* \"#utility.yul\":2965:3002   */\n      mstore\n        /* \"#utility.yul\":2890:3008   */\n      pop\n      pop\n      jump\t// out\n        /* \"#utility.yul\":3014:3104   */\n    tag_184:\n        /* \"#utility.yul\":3048:3055   */\n      0x00\n        /* \"#utility.yul\":3091:3096   */\n      dup2\n        /* \"#utility.yul\":3084:3097   */\n      iszero\n        /* \"#utility.yul\":3077:3098   */\n      iszero\n        /* \"#utility.yul\":3066:3098   */\n      swap1\n      pop\n        /* \"#utility.yul\":3014:3104   */\n      swap2\n      swap1\n      pop\n      jump\t// out\n        /* \"#utility.yul\":3110:3219   */\n    tag_185:\n        /* \"#utility.yul\":3191:3212   */\n      tag_265\n        /* \"#utility.yul\":3206:3211   */\n      dup2\n        /* \"#utility.yul\":3191:3212   */\n      tag_184\n      jump\t// in\n    tag_265:\n        /* \"#utility.yul\":3186:3189   */\n      dup3\n        /* \"#utility.yul\":3179:3213   */\n      mstore\n        /* \"#utility.yul\":3110:3219   */\n      pop\n      pop\n      jump\t// out\n        /* \"#utility.yul\":3225:4380   */\n    tag_22:\n        /* \"#utility.yul\":3542:3546   */\n      0x00\n        /* \"#utility.yul\":3580:3583   */\n      0x0100\n        /* \"#utility.yul\":3569:3578   */\n      dup3\n        /* \"#utility.yul\":3565:3584   */\n      add\n        /* \"#utility.yul\":3557:3584   */\n      swap1\n      pop\n        /* \"#utility.yul\":3630:3639   */\n      dup2\n        /* \"#utility.yul\":3624:3628   */\n      dup2\n        /* \"#utility.yul\":3620:3640   */\n      sub\n        /* \"#utility.yul\":3616:3617   */\n      0x00\n        /* \"#utility.yul\":3605:3614   */\n      dup4\n        /* \"#utility.yul\":3601:3618   */\n      add\n        /* \"#utility.yul\":3594:3641   */\n      mstore\n        /* \"#utility.yul\":3658:3736   */\n      tag_267\n        /* \"#utility.yul\":3731:3735   */\n      dup2\n        /* \"#utility.yul\":3722:3728   */\n      dup12\n        /* \"#utility.yul\":3658:3736   */\n      tag_182\n      jump\t// in\n    tag_267:\n        /* \"#utility.yul\":3650:3736   */\n      swap1\n      pop\n        /* \"#utility.yul\":3783:3792   */\n      dup2\n        /* \"#utility.yul\":3777:3781   */\n      dup2\n        /* \"#utility.yul\":3773:3793   */\n      sub\n        /* \"#utility.yul\":3768:3770   */\n      0x20\n        /* \"#utility.yul\":3757:3766   */\n      dup4\n        /* \"#utility.yul\":3753:3771   */\n      add\n        /* \"#utility.yul\":3746:3794   */\n      mstore\n        /* \"#utility.yul\":3811:3889   */\n      tag_268\n        /* \"#utility.yul\":3884:3888   */\n      dup2\n        /* \"#utility.yul\":3875:3881   */\n      dup11\n        /* \"#utility.yul\":3811:3889   */\n      tag_182\n      jump\t// in\n    tag_268:\n        /* \"#utility.yul\":3803:3889   */\n      swap1\n      pop\n        /* \"#utility.yul\":3899:3971   */\n      tag_269\n        /* \"#utility.yul\":3967:3969   */\n      0x40\n        /* \"#utility.yul\":3956:3965   */\n      dup4\n        /* \"#utility.yul\":3952:3970   */\n      add\n        /* \"#utility.yul\":3943:3949   */\n      dup10\n        /* \"#utility.yul\":3899:3971   */\n      tag_183\n      jump\t// in\n    tag_269:\n        /* \"#utility.yul\":3981:4053   */\n      tag_270\n        /* \"#utility.yul\":4049:4051   */\n      0x60\n        /* \"#utility.yul\":4038:4047   */\n      dup4\n        /* \"#utility.yul\":4034:4052   */\n      add\n        /* \"#utility.yul\":4025:4031   */\n      dup9\n        /* \"#utility.yul\":3981:4053   */\n      tag_183\n      jump\t// in\n    tag_270:\n        /* \"#utility.yul\":4063:4136   */\n      tag_271\n        /* \"#utility.yul\":4131:4134   */\n      0x80\n        /* \"#utility.yul\":4120:4129   */\n      dup4\n        /* \"#utility.yul\":4116:4135   */\n      add\n        /* \"#utility.yul\":4107:4113   */\n      dup8\n        /* \"#utility.yul\":4063:4136   */\n      tag_183\n      jump\t// in\n    tag_271:\n        /* \"#utility.yul\":4146:4219   */\n      tag_272\n        /* \"#utility.yul\":4214:4217   */\n      0xa0\n        /* \"#utility.yul\":4203:4212   */\n      dup4\n        /* \"#utility.yul\":4199:4218   */\n      add\n        /* \"#utility.yul\":4190:4196   */\n      dup7\n        /* \"#utility.yul\":4146:4219   */\n      tag_183\n      jump\t// in\n    tag_272:\n        /* \"#utility.yul\":4229:4296   */\n      tag_273\n        /* \"#utility.yul\":4291:4294   */\n      0xc0\n        /* \"#utility.yul\":4280:4289   */\n      dup4\n        /* \"#utility.yul\":4276:4295   */\n      add\n        /* \"#utility.yul\":4267:4273   */\n      dup6\n        /* \"#utility.yul\":4229:4296   */\n      tag_185\n      jump\t// in\n    tag_273:\n        /* \"#utility.yul\":4306:4373   */\n      tag_274\n        /* \"#utility.yul\":4368:4371   */\n      0xe0\n        /* \"#utility.yul\":4357:4366   */\n      dup4\n        /* \"#utility.yul\":4353:4372   */\n      add\n        /* \"#utility.yul\":4344:4350   */\n      dup5\n        /* \"#utility.yul\":4306:4373   */\n      tag_185\n      jump\t// in\n    tag_274:\n        /* \"#utility.yul\":3225:4380   */\n      swap10\n      swap9\n      pop\n      pop\n      pop\n      pop\n      pop\n      pop\n      pop\n      pop\n      pop\n      jump\t// out\n        /* \"#utility.yul\":4386:4503   */\n    tag_186:\n        /* \"#utility.yul\":4495:4496   */\n      0x00\n        /* \"#utility.yul\":4492:4493   */\n      dup1\n        /* \"#utility.yul\":4485:4497   */\n      revert\n        /* \"#utility.yul\":4509:4626   */\n    tag_187:\n        /* \"#utility.yul\":4618:4619   */\n      0x00\n        /* \"#utility.yul\":4615:4616   */\n      dup1\n        /* \"#utility.yul\":4608:4620   */\n      revert\n        /* \"#utility.yul\":4632:4749   */\n    tag_188:\n        /* \"#utility.yul\":4741:4742   */\n      0x00\n        /* \"#utility.yul\":4738:4739   */\n      dup1\n        /* \"#utility.yul\":4731:4743   */\n      revert\n        /* \"#utility.yul\":4769:5322   */\n    tag_189:\n        /* \"#utility.yul\":4827:4835   */\n      0x00\n        /* \"#utility.yul\":4837:4843   */\n      dup1\n        /* \"#utility.yul\":4887:4890   */\n      dup4\n        /* \"#utility.yul\":4880:4884   */\n      0x1f\n        /* \"#utility.yul\":4872:4878   */\n      dup5\n        /* \"#utility.yul\":4868:4885   */\n      add\n        /* \"#utility.yul\":4864:4891   */\n      slt\n        /* \"#utility.yul\":4854:4976   */\n      tag_279\n      jumpi\n        /* \"#utility.yul\":4895:4974   */\n      tag_280\n      tag_186\n      jump\t// in\n    tag_280:\n        /* \"#utility.yul\":4854:4976   */\n    tag_279:\n        /* \"#utility.yul\":5008:5014   */\n      dup3\n        /* \"#utility.yul\":4995:5015   */\n      calldataload\n        /* \"#utility.yul\":4985:5015   */\n      swap1\n      pop\n        /* \"#utility.yul\":5038:5056   */\n      0xffffffffffffffff\n        /* \"#utility.yul\":5030:5036   */\n      dup2\n        /* \"#utility.yul\":5027:5057   */\n      gt\n        /* \"#utility.yul\":5024:5141   */\n      iszero\n      tag_281\n      jumpi\n        /* \"#utility.yul\":5060:5139   */\n      tag_282\n      tag_187\n      jump\t// in\n    tag_282:\n        /* \"#utility.yul\":5024:5141   */\n    tag_281:\n        /* \"#utility.yul\":5174:5178   */\n      0x20\n        /* \"#utility.yul\":5166:5172   */\n      dup4\n        /* \"#utility.yul\":5162:5179   */\n      add\n        /* \"#utility.yul\":5150:5179   */\n      swap2\n      pop\n        /* \"#utility.yul\":5228:5231   */\n      dup4\n        /* \"#utility.yul\":5220:5224   */\n      0x01\n        /* \"#utility.yul\":5212:5218   */\n      dup3\n        /* \"#utility.yul\":5208:5225   */\n      mul\n        /* \"#utility.yul\":5198:5206   */\n      dup4\n        /* \"#utility.yul\":5194:5226   */\n      add\n        /* \"#utility.yul\":5191:5232   */\n      gt\n        /* \"#utility.yul\":5188:5316   */\n      iszero\n      tag_283\n      jumpi\n        /* \"#utility.yul\":5235:5314   */\n      tag_284\n      tag_188\n      jump\t// in\n    tag_284:\n        /* \"#utility.yul\":5188:5316   */\n    tag_283:\n        /* \"#utility.yul\":4769:5322   */\n      swap3\n      pop\n      swap3\n      swap1\n      pop\n      jump\t// out\n        /* \"#utility.yul\":5328:6347   */\n    tag_25:\n        /* \"#utility.yul\":5429:5435   */\n      0x00\n        /* \"#utility.yul\":5437:5443   */\n      dup1\n        /* \"#utility.yul\":5445:5451   */\n      0x00\n        /* \"#utility.yul\":5453:5459   */\n      dup1\n        /* \"#utility.yul\":5461:5467   */\n      0x00\n        /* \"#utility.yul\":5510:5512   */\n      0x60\n        /* \"#utility.yul\":5498:5507   */\n      dup7\n        /* \"#utility.yul\":5489:5496   */\n      dup9\n        /* \"#utility.yul\":5485:5508   */\n      sub\n        /* \"#utility.yul\":5481:5513   */\n      slt\n        /* \"#utility.yul\":5478:5597   */\n      iszero\n      tag_286\n      jumpi\n        /* \"#utility.yul\":5516:5595   */\n      tag_287\n      tag_169\n      jump\t// in\n    tag_287:\n        /* \"#utility.yul\":5478:5597   */\n    tag_286:\n        /* \"#utility.yul\":5664:5665   */\n      0x00\n        /* \"#utility.yul\":5653:5662   */\n      dup7\n        /* \"#utility.yul\":5649:5666   */\n      add\n        /* \"#utility.yul\":5636:5667   */\n      calldataload\n        /* \"#utility.yul\":5694:5712   */\n      0xffffffffffffffff\n        /* \"#utility.yul\":5686:5692   */\n      dup2\n        /* \"#utility.yul\":5683:5713   */\n      gt\n        /* \"#utility.yul\":5680:5797   */\n      iszero\n      tag_288\n      jumpi\n        /* \"#utility.yul\":5716:5795   */\n      tag_289\n      tag_170\n      jump\t// in\n    tag_289:\n        /* \"#utility.yul\":5680:5797   */\n    tag_288:\n        /* \"#utility.yul\":5829:5894   */\n      tag_290\n        /* \"#utility.yul\":5886:5893   */\n      dup9\n        /* \"#utility.yul\":5877:5883   */\n      dup3\n        /* \"#utility.yul\":5866:5875   */\n      dup10\n        /* \"#utility.yul\":5862:5884   */\n      add\n        /* \"#utility.yul\":5829:5894   */\n      tag_189\n      jump\t// in\n    tag_290:\n        /* \"#utility.yul\":5811:5894   */\n      swap6\n      pop\n      swap6\n      pop\n        /* \"#utility.yul\":5607:5904   */\n      pop\n        /* \"#utility.yul\":5971:5973   */\n      0x20\n        /* \"#utility.yul\":5960:5969   */\n      dup7\n        /* \"#utility.yul\":5956:5974   */\n      add\n        /* \"#utility.yul\":5943:5975   */\n      calldataload\n        /* \"#utility.yul\":6002:6020   */\n      0xffffffffffffffff\n        /* \"#utility.yul\":5994:6000   */\n      dup2\n        /* \"#utility.yul\":5991:6021   */\n      gt\n        /* \"#utility.yul\":5988:6105   */\n      iszero\n      tag_291\n      jumpi\n        /* \"#utility.yul\":6024:6103   */\n      tag_292\n      tag_170\n      jump\t// in\n    tag_292:\n        /* \"#utility.yul\":5988:6105   */\n    tag_291:\n        /* \"#utility.yul\":6137:6202   */\n      tag_293\n        /* \"#utility.yul\":6194:6201   */\n      dup9\n        /* \"#utility.yul\":6185:6191   */\n      dup3\n        /* \"#utility.yul\":6174:6183   */\n      dup10\n        /* \"#utility.yul\":6170:6192   */\n      add\n        /* \"#utility.yul\":6137:6202   */\n      tag_189\n      jump\t// in\n    tag_293:\n        /* \"#utility.yul\":6119:6202   */\n      swap4\n      pop\n      swap4\n      pop\n        /* \"#utility.yul\":5914:6212   */\n      pop\n        /* \"#utility.yul\":6251:6253   */\n      0x40\n        /* \"#utility.yul\":6277:6330   */\n      tag_294\n        /* \"#utility.yul\":6322:6329   */\n      dup9\n        /* \"#utility.yul\":6313:6319   */\n      dup3\n        /* \"#utility.yul\":6302:6311   */\n      dup10\n        /* \"#utility.yul\":6298:6320   */\n      add\n        /* \"#utility.yul\":6277:6330   */\n      tag_177\n      jump\t// in\n    tag_294:\n        /* \"#utility.yul\":6267:6330   */\n      swap2\n      pop\n        /* \"#utility.yul\":6222:6340   */\n      pop\n        /* \"#utility.yul\":5328:6347   */\n      swap3\n      swap6\n      pop\n      swap3\n      swap6\n      swap1\n      swap4\n      pop\n      jump\t// out\n        /* \"#utility.yul\":6353:6512   */\n    tag_190:\n        /* \"#utility.yul\":6427:6438   */\n      0x00\n        /* \"#utility.yul\":6461:6467   */\n      dup3\n        /* \"#utility.yul\":6456:6459   */\n      dup3\n        /* \"#utility.yul\":6449:6468   */\n      mstore\n        /* \"#utility.yul\":6501:6505   */\n      0x20\n        /* \"#utility.yul\":6496:6499   */\n      dup3\n        /* \"#utility.yul\":6492:6506   */\n      add\n        /* \"#utility.yul\":6477:6506   */\n      swap1\n      pop\n        /* \"#utility.yul\":6353:6512   */\n      swap3\n      swap2\n      pop\n      pop\n      jump\t// out\n        /* \"#utility.yul\":6518:6875   */\n    tag_191:\n        /* \"#utility.yul\":6596:6599   */\n      0x00\n        /* \"#utility.yul\":6624:6663   */\n      tag_297\n        /* \"#utility.yul\":6657:6662   */\n      dup3\n        /* \"#utility.yul\":6624:6663   */\n      tag_178\n      jump\t// in\n    tag_297:\n        /* \"#utility.yul\":6679:6740   */\n      tag_298\n        /* \"#utility.yul\":6733:6739   */\n      dup2\n        /* \"#utility.yul\":6728:6731   */\n      dup6\n        /* \"#utility.yul\":6679:6740   */\n      tag_190\n      jump\t// in\n    tag_298:\n        /* \"#utility.yul\":6672:6740   */\n      swap4\n      pop\n        /* \"#utility.yul\":6749:6814   */\n      tag_299\n        /* \"#utility.yul\":6807:6813   */\n      dup2\n        /* \"#utility.yul\":6802:6805   */\n      dup6\n        /* \"#utility.yul\":6795:6799   */\n      0x20\n        /* \"#utility.yul\":6788:6793   */\n      dup7\n        /* \"#utility.yul\":6784:6800   */\n      add\n        /* \"#utility.yul\":6749:6814   */\n      tag_180\n      jump\t// in\n    tag_299:\n        /* \"#utility.yul\":6839:6868   */\n      tag_300\n        /* \"#utility.yul\":6861:6867   */\n      dup2\n        /* \"#utility.yul\":6839:6868   */\n      tag_181\n      jump\t// in\n    tag_300:\n        /* \"#utility.yul\":6834:6837   */\n      dup5\n        /* \"#utility.yul\":6830:6869   */\n      add\n        /* \"#utility.yul\":6823:6869   */\n      swap2\n      pop\n        /* \"#utility.yul\":6600:6875   */\n      pop\n        /* \"#utility.yul\":6518:6875   */\n      swap3\n      swap2\n      pop\n      pop\n      jump\t// out\n        /* \"#utility.yul\":6881:6989   */\n    tag_192:\n        /* \"#utility.yul\":6958:6982   */\n      tag_302\n        /* \"#utility.yul\":6976:6981   */\n      dup2\n        /* \"#utility.yul\":6958:6982   */\n      tag_175\n      jump\t// in\n    tag_302:\n        /* \"#utility.yul\":6953:6956   */\n      dup3\n        /* \"#utility.yul\":6946:6983   */\n      mstore\n        /* \"#utility.yul\":6881:6989   */\n      pop\n      pop\n      jump\t// out\n        /* \"#utility.yul\":6995:7094   */\n    tag_193:\n        /* \"#utility.yul\":7066:7087   */\n      tag_304\n        /* \"#utility.yul\":7081:7086   */\n      dup2\n        /* \"#utility.yul\":7066:7087   */\n      tag_184\n      jump\t// in\n    tag_304:\n        /* \"#utility.yul\":7061:7064   */\n      dup3\n        /* \"#utility.yul\":7054:7088   */\n      mstore\n        /* \"#utility.yul\":6995:7094   */\n      pop\n      pop\n      jump\t// out\n        /* \"#utility.yul\":7176:8922   */\n    tag_194:\n        /* \"#utility.yul\":7295:7298   */\n      0x00\n        /* \"#utility.yul\":7331:7337   */\n      0x0100\n        /* \"#utility.yul\":7326:7329   */\n      dup4\n        /* \"#utility.yul\":7322:7338   */\n      add\n        /* \"#utility.yul\":7421:7425   */\n      0x00\n        /* \"#utility.yul\":7414:7419   */\n      dup4\n        /* \"#utility.yul\":7410:7426   */\n      add\n        /* \"#utility.yul\":7404:7427   */\n      mload\n        /* \"#utility.yul\":7474:7477   */\n      dup5\n        /* \"#utility.yul\":7468:7472   */\n      dup3\n        /* \"#utility.yul\":7464:7478   */\n      sub\n        /* \"#utility.yul\":7457:7461   */\n      0x00\n        /* \"#utility.yul\":7452:7455   */\n      dup7\n        /* \"#utility.yul\":7448:7462   */\n      add\n        /* \"#utility.yul\":7441:7479   */\n      mstore\n        /* \"#utility.yul\":7500:7573   */\n      tag_306\n        /* \"#utility.yul\":7568:7572   */\n      dup3\n        /* \"#utility.yul\":7554:7566   */\n      dup3\n        /* \"#utility.yul\":7500:7573   */\n      tag_191\n      jump\t// in\n    tag_306:\n        /* \"#utility.yul\":7492:7573   */\n      swap2\n      pop\n        /* \"#utility.yul\":7348:7584   */\n      pop\n        /* \"#utility.yul\":7673:7677   */\n      0x20\n        /* \"#utility.yul\":7666:7671   */\n      dup4\n        /* \"#utility.yul\":7662:7678   */\n      add\n        /* \"#utility.yul\":7656:7679   */\n      mload\n        /* \"#utility.yul\":7726:7729   */\n      dup5\n        /* \"#utility.yul\":7720:7724   */\n      dup3\n        /* \"#utility.yul\":7716:7730   */\n      sub\n        /* \"#utility.yul\":7709:7713   */\n      0x20\n        /* \"#utility.yul\":7704:7707   */\n      dup7\n        /* \"#utility.yul\":7700:7714   */\n      add\n        /* \"#utility.yul\":7693:7731   */\n      mstore\n        /* \"#utility.yul\":7752:7825   */\n      tag_307\n        /* \"#utility.yul\":7820:7824   */\n      dup3\n        /* \"#utility.yul\":7806:7818   */\n      dup3\n        /* \"#utility.yul\":7752:7825   */\n      tag_191\n      jump\t// in\n    tag_307:\n        /* \"#utility.yul\":7744:7825   */\n      swap2\n      pop\n        /* \"#utility.yul\":7594:7836   */\n      pop\n        /* \"#utility.yul\":7921:7925   */\n      0x40\n        /* \"#utility.yul\":7914:7919   */\n      dup4\n        /* \"#utility.yul\":7910:7926   */\n      add\n        /* \"#utility.yul\":7904:7927   */\n      mload\n        /* \"#utility.yul\":7940:8003   */\n      tag_308\n        /* \"#utility.yul\":7997:8001   */\n      0x40\n        /* \"#utility.yul\":7992:7995   */\n      dup7\n        /* \"#utility.yul\":7988:8002   */\n      add\n        /* \"#utility.yul\":7974:7986   */\n      dup3\n        /* \"#utility.yul\":7940:8003   */\n      tag_192\n      jump\t// in\n    tag_308:\n        /* \"#utility.yul\":7846:8013   */\n      pop\n        /* \"#utility.yul\":8097:8101   */\n      0x60\n        /* \"#utility.yul\":8090:8095   */\n      dup4\n        /* \"#utility.yul\":8086:8102   */\n      add\n        /* \"#utility.yul\":8080:8103   */\n      mload\n        /* \"#utility.yul\":8116:8179   */\n      tag_309\n        /* \"#utility.yul\":8173:8177   */\n      0x60\n        /* \"#utility.yul\":8168:8171   */\n      dup7\n        /* \"#utility.yul\":8164:8178   */\n      add\n        /* \"#utility.yul\":8150:8162   */\n      dup3\n        /* \"#utility.yul\":8116:8179   */\n      tag_192\n      jump\t// in\n    tag_309:\n        /* \"#utility.yul\":8023:8189   */\n      pop\n        /* \"#utility.yul\":8271:8275   */\n      0x80\n        /* \"#utility.yul\":8264:8269   */\n      dup4\n        /* \"#utility.yul\":8260:8276   */\n      add\n        /* \"#utility.yul\":8254:8277   */\n      mload\n        /* \"#utility.yul\":8290:8353   */\n      tag_310\n        /* \"#utility.yul\":8347:8351   */\n      0x80\n        /* \"#utility.yul\":8342:8345   */\n      dup7\n        /* \"#utility.yul\":8338:8352   */\n      add\n        /* \"#utility.yul\":8324:8336   */\n      dup3\n        /* \"#utility.yul\":8290:8353   */\n      tag_192\n      jump\t// in\n    tag_310:\n        /* \"#utility.yul\":8199:8363   */\n      pop\n        /* \"#utility.yul\":8455:8459   */\n      0xa0\n        /* \"#utility.yul\":8448:8453   */\n      dup4\n        /* \"#utility.yul\":8444:8460   */\n      add\n        /* \"#utility.yul\":8438:8461   */\n      mload\n        /* \"#utility.yul\":8474:8537   */\n      tag_311\n        /* \"#utility.yul\":8531:8535   */\n      0xa0\n        /* \"#utility.yul\":8526:8529   */\n      dup7\n        /* \"#utility.yul\":8522:8536   */\n      add\n        /* \"#utility.yul\":8508:8520   */\n      dup3\n        /* \"#utility.yul\":8474:8537   */\n      tag_192\n      jump\t// in\n    tag_311:\n        /* \"#utility.yul\":8373:8547   */\n      pop\n        /* \"#utility.yul\":8637:8641   */\n      0xc0\n        /* \"#utility.yul\":8630:8635   */\n      dup4\n        /* \"#utility.yul\":8626:8642   */\n      add\n        /* \"#utility.yul\":8620:8643   */\n      mload\n        /* \"#utility.yul\":8656:8713   */\n      tag_312\n        /* \"#utility.yul\":8707:8711   */\n      0xc0\n        /* \"#utility.yul\":8702:8705   */\n      dup7\n        /* \"#utility.yul\":8698:8712   */\n      add\n        /* \"#utility.yul\":8684:8696   */\n      dup3\n        /* \"#utility.yul\":8656:8713   */\n      tag_193\n      jump\t// in\n    tag_312:\n        /* \"#utility.yul\":8557:8723   */\n      pop\n        /* \"#utility.yul\":8809:8813   */\n      0xe0\n        /* \"#utility.yul\":8802:8807   */\n      dup4\n        /* \"#utility.yul\":8798:8814   */\n      add\n        /* \"#utility.yul\":8792:8815   */\n      mload\n        /* \"#utility.yul\":8828:8885   */\n      tag_313\n        /* \"#utility.yul\":8879:8883   */\n      0xe0\n        /* \"#utility.yul\":8874:8877   */\n      dup7\n        /* \"#utility.yul\":8870:8884   */\n      add\n        /* \"#utility.yul\":8856:8868   */\n      dup3\n        /* \"#utility.yul\":8828:8885   */\n      tag_193\n      jump\t// in\n    tag_313:\n        /* \"#utility.yul\":8733:8895   */\n      pop\n        /* \"#utility.yul\":8912:8916   */\n      dup1\n        /* \"#utility.yul\":8905:8916   */\n      swap2\n      pop\n        /* \"#utility.yul\":7300:8922   */\n      pop\n        /* \"#utility.yul\":7176:8922   */\n      swap3\n      swap2\n      pop\n      pop\n      jump\t// out\n        /* \"#utility.yul\":8928:9301   */\n    tag_30:\n        /* \"#utility.yul\":9071:9075   */\n      0x00\n        /* \"#utility.yul\":9109:9111   */\n      0x20\n        /* \"#utility.yul\":9098:9107   */\n      dup3\n        /* \"#utility.yul\":9094:9112   */\n      add\n        /* \"#utility.yul\":9086:9112   */\n      swap1\n      pop\n        /* \"#utility.yul\":9158:9167   */\n      dup2\n        /* \"#utility.yul\":9152:9156   */\n      dup2\n        /* \"#utility.yul\":9148:9168   */\n      sub\n        /* \"#utility.yul\":9144:9145   */\n      0x00\n        /* \"#utility.yul\":9133:9142   */\n      dup4\n        /* \"#utility.yul\":9129:9146   */\n      add\n        /* \"#utility.yul\":9122:9169   */\n      mstore\n        /* \"#utility.yul\":9186:9294   */\n      tag_315\n        /* \"#utility.yul\":9289:9293   */\n      dup2\n        /* \"#utility.yul\":9280:9286   */\n      dup5\n        /* \"#utility.yul\":9186:9294   */\n      tag_194\n      jump\t// in\n    tag_315:\n        /* \"#utility.yul\":9178:9294   */\n      swap1\n      pop\n        /* \"#utility.yul\":8928:9301   */\n      swap3\n      swap2\n      pop\n      pop\n      jump\t// out\n        /* \"#utility.yul\":9307:9393   */\n    tag_195:\n        /* \"#utility.yul\":9342:9349   */\n      0x00\n        /* \"#utility.yul\":9382:9386   */\n      0xff\n        /* \"#utility.yul\":9375:9380   */\n      dup3\n        /* \"#utility.yul\":9371:9387   */\n      and\n        /* \"#utility.yul\":9360:9387   */\n      swap1\n      pop\n        /* \"#utility.yul\":9307:9393   */\n      swap2\n      swap1\n      pop\n      jump\t// out\n        /* \"#utility.yul\":9399:9517   */\n    tag_196:\n        /* \"#utility.yul\":9470:9492   */\n      tag_318\n        /* \"#utility.yul\":9486:9491   */\n      dup2\n        /* \"#utility.yul\":9470:9492   */\n      tag_195\n      jump\t// in\n    tag_318:\n        /* \"#utility.yul\":9463:9468   */\n      dup2\n        /* \"#utility.yul\":9460:9493   */\n      eq\n        /* \"#utility.yul\":9450:9511   */\n      tag_319\n      jumpi\n        /* \"#utility.yul\":9507:9508   */\n      0x00\n        /* \"#utility.yul\":9504:9505   */\n      dup1\n        /* \"#utility.yul\":9497:9509   */\n      revert\n        /* \"#utility.yul\":9450:9511   */\n    tag_319:\n        /* \"#utility.yul\":9399:9517   */\n      pop\n      jump\t// out\n        /* \"#utility.yul\":9523:9658   */\n    tag_197:\n        /* \"#utility.yul\":9567:9572   */\n      0x00\n        /* \"#utility.yul\":9605:9611   */\n      dup2\n        /* \"#utility.yul\":9592:9612   */\n      calldataload\n        /* \"#utility.yul\":9583:9612   */\n      swap1\n      pop\n        /* \"#utility.yul\":9621:9652   */\n      tag_321\n        /* \"#utility.yul\":9646:9651   */\n      dup2\n        /* \"#utility.yul\":9621:9652   */\n      tag_196\n      jump\t// in\n    tag_321:\n        /* \"#utility.yul\":9523:9658   */\n      swap3\n      swap2\n      pop\n      pop\n      jump\t// out\n        /* \"#utility.yul\":9664:9989   */\n    tag_33:\n        /* \"#utility.yul\":9721:9727   */\n      0x00\n        /* \"#utility.yul\":9770:9772   */\n      0x20\n        /* \"#utility.yul\":9758:9767   */\n      dup3\n        /* \"#utility.yul\":9749:9756   */\n      dup5\n        /* \"#utility.yul\":9745:9768   */\n      sub\n        /* \"#utility.yul\":9741:9773   */\n      slt\n        /* \"#utility.yul\":9738:9857   */\n      iszero\n      tag_323\n      jumpi\n        /* \"#utility.yul\":9776:9855   */\n      tag_324\n      tag_169\n      jump\t// in\n    tag_324:\n        /* \"#utility.yul\":9738:9857   */\n    tag_323:\n        /* \"#utility.yul\":9896:9897   */\n      0x00\n        /* \"#utility.yul\":9921:9972   */\n      tag_325\n        /* \"#utility.yul\":9964:9971   */\n      dup5\n        /* \"#utility.yul\":9955:9961   */\n      dup3\n        /* \"#utility.yul\":9944:9953   */\n      dup6\n        /* \"#utility.yul\":9940:9962   */\n      add\n        /* \"#utility.yul\":9921:9972   */\n      tag_197\n      jump\t// in\n    tag_325:\n        /* \"#utility.yul\":9911:9972   */\n      swap2\n      pop\n        /* \"#utility.yul\":9867:9982   */\n      pop\n        /* \"#utility.yul\":9664:9989   */\n      swap3\n      swap2\n      pop\n      pop\n      jump\t// out\n        /* \"#utility.yul\":9995:10113   */\n    tag_198:\n        /* \"#utility.yul\":10082:10106   */\n      tag_327\n        /* \"#utility.yul\":10100:10105   */\n      dup2\n        /* \"#utility.yul\":10082:10106   */\n      tag_172\n      jump\t// in\n    tag_327:\n        /* \"#utility.yul\":10077:10080   */\n      dup3\n        /* \"#utility.yul\":10070:10107   */\n      mstore\n        /* \"#utility.yul\":9995:10113   */\n      pop\n      pop\n      jump\t// out\n        /* \"#utility.yul\":10119:10341   */\n    tag_38:\n        /* \"#utility.yul\":10212:10216   */\n      0x00\n        /* \"#utility.yul\":10250:10252   */\n      0x20\n        /* \"#utility.yul\":10239:10248   */\n      dup3\n        /* \"#utility.yul\":10235:10253   */\n      add\n        /* \"#utility.yul\":10227:10253   */\n      swap1\n      pop\n        /* \"#utility.yul\":10263:10334   */\n      tag_329\n        /* \"#utility.yul\":10331:10332   */\n      0x00\n        /* \"#utility.yul\":10320:10329   */\n      dup4\n        /* \"#utility.yul\":10316:10333   */\n      add\n        /* \"#utility.yul\":10307:10313   */\n      dup5\n        /* \"#utility.yul\":10263:10334   */\n      tag_198\n      jump\t// in\n    tag_329:\n        /* \"#utility.yul\":10119:10341   */\n      swap3\n      swap2\n      pop\n      pop\n      jump\t// out\n        /* \"#utility.yul\":10347:10557   */\n    tag_47:\n        /* \"#utility.yul\":10434:10438   */\n      0x00\n        /* \"#utility.yul\":10472:10474   */\n      0x20\n        /* \"#utility.yul\":10461:10470   */\n      dup3\n        /* \"#utility.yul\":10457:10475   */\n      add\n        /* \"#utility.yul\":10449:10475   */\n      swap1\n      pop\n        /* \"#utility.yul\":10485:10550   */\n      tag_331\n        /* \"#utility.yul\":10547:10548   */\n      0x00\n        /* \"#utility.yul\":10536:10545   */\n      dup4\n        /* \"#utility.yul\":10532:10549   */\n      add\n        /* \"#utility.yul\":10523:10529   */\n      dup5\n        /* \"#utility.yul\":10485:10550   */\n      tag_185\n      jump\t// in\n    tag_331:\n        /* \"#utility.yul\":10347:10557   */\n      swap3\n      swap2\n      pop\n      pop\n      jump\t// out\n        /* \"#utility.yul\":10563:10787   */\n    tag_199:\n        /* \"#utility.yul\":10703:10737   */\n      0x4f6e6c7920746865206f776e65722063616e2063616c6c20746869732066756e\n        /* \"#utility.yul\":10699:10700   */\n      0x00\n        /* \"#utility.yul\":10691:10697   */\n      dup3\n        /* \"#utility.yul\":10687:10701   */\n      add\n        /* \"#utility.yul\":10680:10738   */\n      mstore\n        /* \"#utility.yul\":10772:10779   */\n      0x6374696f6e000000000000000000000000000000000000000000000000000000\n        /* \"#utility.yul\":10767:10769   */\n      0x20\n        /* \"#utility.yul\":10759:10765   */\n      dup3\n        /* \"#utility.yul\":10755:10770   */\n      add\n        /* \"#utility.yul\":10748:10780   */\n      mstore\n        /* \"#utility.yul\":10563:10787   */\n      pop\n      jump\t// out\n        /* \"#utility.yul\":10793:11159   */\n    tag_200:\n        /* \"#utility.yul\":10935:10938   */\n      0x00\n        /* \"#utility.yul\":10956:11023   */\n      tag_334\n        /* \"#utility.yul\":11020:11022   */\n      0x25\n        /* \"#utility.yul\":11015:11018   */\n      dup4\n        /* \"#utility.yul\":10956:11023   */\n      tag_179\n      jump\t// in\n    tag_334:\n        /* \"#utility.yul\":10949:11023   */\n      swap2\n      pop\n        /* \"#utility.yul\":11032:11125   */\n      tag_335\n        /* \"#utility.yul\":11121:11124   */\n      dup3\n        /* \"#utility.yul\":11032:11125   */\n      tag_199\n      jump\t// in\n    tag_335:\n        /* \"#utility.yul\":11150:11152   */\n      0x40\n        /* \"#utility.yul\":11145:11148   */\n      dup3\n        /* \"#utility.yul\":11141:11153   */\n      add\n        /* \"#utility.yul\":11134:11153   */\n      swap1\n      pop\n        /* \"#utility.yul\":10793:11159   */\n      swap2\n      swap1\n      pop\n      jump\t// out\n        /* \"#utility.yul\":11165:11584   */\n    tag_53:\n        /* \"#utility.yul\":11331:11335   */\n      0x00\n        /* \"#utility.yul\":11369:11371   */\n      0x20\n        /* \"#utility.yul\":11358:11367   */\n      dup3\n        /* \"#utility.yul\":11354:11372   */\n      add\n        /* \"#utility.yul\":11346:11372   */\n      swap1\n      pop\n        /* \"#utility.yul\":11418:11427   */\n      dup2\n        /* \"#utility.yul\":11412:11416   */\n      dup2\n        /* \"#utility.yul\":11408:11428   */\n      sub\n        /* \"#utility.yul\":11404:11405   */\n      0x00\n        /* \"#utility.yul\":11393:11402   */\n      dup4\n        /* \"#utility.yul\":11389:11406   */\n      add\n        /* \"#utility.yul\":11382:11429   */\n      mstore\n        /* \"#utility.yul\":11446:11577   */\n      tag_337\n        /* \"#utility.yul\":11572:11576   */\n      dup2\n        /* \"#utility.yul\":11446:11577   */\n      tag_200\n      jump\t// in\n    tag_337:\n        /* \"#utility.yul\":11438:11577   */\n      swap1\n      pop\n        /* \"#utility.yul\":11165:11584   */\n      swap2\n      swap1\n      pop\n      jump\t// out\n        /* \"#utility.yul\":11590:11770   */\n    tag_201:\n        /* \"#utility.yul\":11638:11715   */\n      0x4e487b7100000000000000000000000000000000000000000000000000000000\n        /* \"#utility.yul\":11635:11636   */\n      0x00\n        /* \"#utility.yul\":11628:11716   */\n      mstore\n        /* \"#utility.yul\":11735:11739   */\n      0x22\n        /* \"#utility.yul\":11732:11733   */\n      0x04\n        /* \"#utility.yul\":11725:11740   */\n      mstore\n        /* \"#utility.yul\":11759:11763   */\n      0x24\n        /* \"#utility.yul\":11756:11757   */\n      0x00\n        /* \"#utility.yul\":11749:11764   */\n      revert\n        /* \"#utility.yul\":11776:12096   */\n    tag_56:\n        /* \"#utility.yul\":11820:11826   */\n      0x00\n        /* \"#utility.yul\":11857:11858   */\n      0x02\n        /* \"#utility.yul\":11851:11855   */\n      dup3\n        /* \"#utility.yul\":11847:11859   */\n      div\n        /* \"#utility.yul\":11837:11859   */\n      swap1\n      pop\n        /* \"#utility.yul\":11904:11905   */\n      0x01\n        /* \"#utility.yul\":11898:11902   */\n      dup3\n        /* \"#utility.yul\":11894:11906   */\n      and\n        /* \"#utility.yul\":11925:11943   */\n      dup1\n        /* \"#utility.yul\":11915:11996   */\n      tag_340\n      jumpi\n        /* \"#utility.yul\":11981:11985   */\n      0x7f\n        /* \"#utility.yul\":11973:11979   */\n      dup3\n        /* \"#utility.yul\":11969:11986   */\n      and\n        /* \"#utility.yul\":11959:11986   */\n      swap2\n      pop\n        /* \"#utility.yul\":11915:11996   */\n    tag_340:\n        /* \"#utility.yul\":12043:12045   */\n      0x20\n        /* \"#utility.yul\":12035:12041   */\n      dup3\n        /* \"#utility.yul\":12032:12046   */\n      lt\n        /* \"#utility.yul\":12012:12030   */\n      dup2\n        /* \"#utility.yul\":12009:12047   */\n      sub\n        /* \"#utility.yul\":12006:12090   */\n      tag_341\n      jumpi\n        /* \"#utility.yul\":12062:12080   */\n      tag_342\n      tag_201\n      jump\t// in\n    tag_342:\n        /* \"#utility.yul\":12006:12090   */\n    tag_341:\n        /* \"#utility.yul\":11827:12096   */\n      pop\n        /* \"#utility.yul\":11776:12096   */\n      swap2\n      swap1\n      pop\n      jump\t// out\n        /* \"#utility.yul\":12102:12282   */\n    tag_202:\n        /* \"#utility.yul\":12150:12227   */\n      0x4e487b7100000000000000000000000000000000000000000000000000000000\n        /* \"#utility.yul\":12147:12148   */\n      0x00\n        /* \"#utility.yul\":12140:12228   */\n      mstore\n        /* \"#utility.yul\":12247:12251   */\n      0x41\n        /* \"#utility.yul\":12244:12245   */\n      0x04\n        /* \"#utility.yul\":12237:12252   */\n      mstore\n        /* \"#utility.yul\":12271:12275   */\n      0x24\n        /* \"#utility.yul\":12268:12269   */\n      0x00\n        /* \"#utility.yul\":12261:12276   */\n      revert\n        /* \"#utility.yul\":12288:12429   */\n    tag_203:\n        /* \"#utility.yul\":12337:12341   */\n      0x00\n        /* \"#utility.yul\":12360:12363   */\n      dup2\n        /* \"#utility.yul\":12352:12363   */\n      swap1\n      pop\n        /* \"#utility.yul\":12383:12386   */\n      dup2\n        /* \"#utility.yul\":12380:12381   */\n      0x00\n        /* \"#utility.yul\":12373:12387   */\n      mstore\n        /* \"#utility.yul\":12417:12421   */\n      0x20\n        /* \"#utility.yul\":12414:12415   */\n      0x00\n        /* \"#utility.yul\":12404:12422   */\n      keccak256\n        /* \"#utility.yul\":12396:12422   */\n      swap1\n      pop\n        /* \"#utility.yul\":12288:12429   */\n      swap2\n      swap1\n      pop\n      jump\t// out\n        /* \"#utility.yul\":12435:12528   */\n    tag_204:\n        /* \"#utility.yul\":12472:12478   */\n      0x00\n        /* \"#utility.yul\":12519:12521   */\n      0x20\n        /* \"#utility.yul\":12514:12516   */\n      0x1f\n        /* \"#utility.yul\":12507:12512   */\n      dup4\n        /* \"#utility.yul\":12503:12517   */\n      add\n        /* \"#utility.yul\":12499:12522   */\n      div\n        /* \"#utility.yul\":12489:12522   */\n      swap1\n      pop\n        /* \"#utility.yul\":12435:12528   */\n      swap2\n      swap1\n      pop\n      jump\t// out\n        /* \"#utility.yul\":12534:12641   */\n    tag_205:\n        /* \"#utility.yul\":12578:12586   */\n      0x00\n        /* \"#utility.yul\":12628:12633   */\n      dup3\n        /* \"#utility.yul\":12622:12626   */\n      dup3\n        /* \"#utility.yul\":12618:12634   */\n      shl\n        /* \"#utility.yul\":12597:12634   */\n      swap1\n      pop\n        /* \"#utility.yul\":12534:12641   */\n      swap3\n      swap2\n      pop\n      pop\n      jump\t// out\n        /* \"#utility.yul\":12647:13040   */\n    tag_206:\n        /* \"#utility.yul\":12716:12722   */\n      0x00\n        /* \"#utility.yul\":12766:12767   */\n      0x08\n        /* \"#utility.yul\":12754:12764   */\n      dup4\n        /* \"#utility.yul\":12750:12768   */\n      mul\n        /* \"#utility.yul\":12789:12886   */\n      tag_348\n        /* \"#utility.yul\":12819:12885   */\n      0xffffffffffffffffffffffffffffffffffffffffffffffffffffffffffffffff\n        /* \"#utility.yul\":12808:12817   */\n      dup3\n        /* \"#utility.yul\":12789:12886   */\n      tag_205\n      jump\t// in\n    tag_348:\n        /* \"#utility.yul\":12907:12946   */\n      tag_349\n        /* \"#utility.yul\":12937:12945   */\n      dup7\n        /* \"#utility.yul\":12926:12935   */\n      dup4\n        /* \"#utility.yul\":12907:12946   */\n      tag_205\n      jump\t// in\n    tag_349:\n        /* \"#utility.yul\":12895:12946   */\n      swap6\n      pop\n        /* \"#utility.yul\":12979:12983   */\n      dup1\n        /* \"#utility.yul\":12975:12984   */\n      not\n        /* \"#utility.yul\":12968:12973   */\n      dup5\n        /* \"#utility.yul\":12964:12985   */\n      and\n        /* \"#utility.yul\":12955:12985   */\n      swap4\n      pop\n        /* \"#utility.yul\":13028:13032   */\n      dup1\n        /* \"#utility.yul\":13018:13026   */\n      dup7\n        /* \"#utility.yul\":13014:13033   */\n      and\n        /* \"#utility.yul\":13007:13012   */\n      dup5\n        /* \"#utility.yul\":13004:13034   */\n      or\n        /* \"#utility.yul\":12994:13034   */\n      swap3\n      pop\n        /* \"#utility.yul\":12723:13040   */\n      pop\n      pop\n        /* \"#utility.yul\":12647:13040   */\n      swap4\n      swap3\n      pop\n      pop\n      pop\n      jump\t// out\n        /* \"#utility.yul\":13046:13106   */\n    tag_207:\n        /* \"#utility.yul\":13074:13077   */\n      0x00\n        /* \"#utility.yul\":13095:13100   */\n      dup2\n        /* \"#utility.yul\":13088:13100   */\n      swap1\n      pop\n        /* \"#utility.yul\":13046:13106   */\n      swap2\n      swap1\n      pop\n      jump\t// out\n        /* \"#utility.yul\":13112:13254   */\n    tag_208:\n        /* \"#utility.yul\":13162:13171   */\n      0x00\n        /* \"#utility.yul\":13195:13248   */\n      tag_352\n        /* \"#utility.yul\":13213:13247   */\n      tag_353\n        /* \"#utility.yul\":13222:13246   */\n      tag_354\n        /* \"#utility.yul\":13240:13245   */\n      dup5\n        /* \"#utility.yul\":13222:13246   */\n      tag_175\n      jump\t// in\n    tag_354:\n        /* \"#utility.yul\":13213:13247   */\n      tag_207\n      jump\t// in\n    tag_353:\n        /* \"#utility.yul\":13195:13248   */\n      tag_175\n      jump\t// in\n    tag_352:\n        /* \"#utility.yul\":13182:13248   */\n      swap1\n      pop\n        /* \"#utility.yul\":13112:13254   */\n      swap2\n      swap1\n      pop\n      jump\t// out\n        /* \"#utility.yul\":13260:13335   */\n    tag_209:\n        /* \"#utility.yul\":13303:13306   */\n      0x00\n        /* \"#utility.yul\":13324:13329   */\n      dup2\n        /* \"#utility.yul\":13317:13329   */\n      swap1\n      pop\n        /* \"#utility.yul\":13260:13335   */\n      swap2\n      swap1\n      pop\n      jump\t// out\n        /* \"#utility.yul\":13341:13610   */\n    tag_210:\n        /* \"#utility.yul\":13451:13490   */\n      tag_357\n        /* \"#utility.yul\":13482:13489   */\n      dup4\n        /* \"#utility.yul\":13451:13490   */\n      tag_208\n      jump\t// in\n    tag_357:\n        /* \"#utility.yul\":13512:13603   */\n      tag_358\n        /* \"#utility.yul\":13561:13602   */\n      tag_359\n        /* \"#utility.yul\":13585:13601   */\n      dup3\n        /* \"#utility.yul\":13561:13602   */\n      tag_209\n      jump\t// in\n    tag_359:\n        /* \"#utility.yul\":13553:13559   */\n      dup5\n        /* \"#utility.yul\":13546:13550   */\n      dup5\n        /* \"#utility.yul\":13540:13551   */\n      sload\n        /* \"#utility.yul\":13512:13603   */\n      tag_206\n      jump\t// in\n    tag_358:\n        /* \"#utility.yul\":13506:13510   */\n      dup3\n        /* \"#utility.yul\":13499:13604   */\n      sstore\n        /* \"#utility.yul\":13417:13610   */\n      pop\n        /* \"#utility.yul\":13341:13610   */\n      pop\n      pop\n      pop\n      jump\t// out\n        /* \"#utility.yul\":13616:13689   */\n    tag_211:\n        /* \"#utility.yul\":13661:13664   */\n      0x00\n        /* \"#utility.yul\":13616:13689   */\n      swap1\n      jump\t// out\n        /* \"#utility.yul\":13695:13884   */\n    tag_212:\n        /* \"#utility.yul\":13772:13804   */\n      tag_362\n      tag_211\n      jump\t// in\n    tag_362:\n        /* \"#utility.yul\":13813:13878   */\n      tag_363\n        /* \"#utility.yul\":13871:13877   */\n      dup2\n        /* \"#utility.yul\":13863:13869   */\n      dup5\n        /* \"#utility.yul\":13857:13861   */\n      dup5\n        /* \"#utility.yul\":13813:13878   */\n      tag_210\n      jump\t// in\n    tag_363:\n        /* \"#utility.yul\":13748:13884   */\n      pop\n        /* \"#utility.yul\":13695:13884   */\n      pop\n      pop\n      jump\t// out\n        /* \"#utility.yul\":13890:14076   */\n    tag_213:\n        /* \"#utility.yul\":13950:14070   */\n    tag_365:\n        /* \"#utility.yul\":13967:13970   */\n      dup2\n        /* \"#utility.yul\":13960:13965   */\n      dup2\n        /* \"#utility.yul\":13957:13971   */\n      lt\n        /* \"#utility.yul\":13950:14070   */\n      iszero\n      tag_367\n      jumpi\n        /* \"#utility.yul\":14021:14060   */\n      tag_368\n        /* \"#utility.yul\":14058:14059   */\n      0x00\n        /* \"#utility.yul\":14051:14056   */\n      dup3\n        /* \"#utility.yul\":14021:14060   */\n      tag_212\n      jump\t// in\n    tag_368:\n        /* \"#utility.yul\":13994:13995   */\n      0x01\n        /* \"#utility.yul\":13987:13992   */\n      dup2\n        /* \"#utility.yul\":13983:13996   */\n      add\n        /* \"#utility.yul\":13974:13996   */\n      swap1\n      pop\n        /* \"#utility.yul\":13950:14070   */\n      jump(tag_365)\n    tag_367:\n        /* \"#utility.yul\":13890:14076   */\n      pop\n      pop\n      jump\t// out\n        /* \"#utility.yul\":14082:14625   */\n    tag_214:\n        /* \"#utility.yul\":14183:14185   */\n      0x1f\n        /* \"#utility.yul\":14178:14181   */\n      dup3\n        /* \"#utility.yul\":14175:14186   */\n      gt\n        /* \"#utility.yul\":14172:14618   */\n      iszero\n      tag_370\n      jumpi\n        /* \"#utility.yul\":14217:14255   */\n      tag_371\n        /* \"#utility.yul\":14249:14254   */\n      dup2\n        /* \"#utility.yul\":14217:14255   */\n      tag_203\n      jump\t// in\n    tag_371:\n        /* \"#utility.yul\":14301:14330   */\n      tag_372\n        /* \"#utility.yul\":14319:14329   */\n      dup5\n        /* \"#utility.yul\":14301:14330   */\n      tag_204\n      jump\t// in\n    tag_372:\n        /* \"#utility.yul\":14291:14299   */\n      dup2\n        /* \"#utility.yul\":14287:14331   */\n      add\n        /* \"#utility.yul\":14484:14486   */\n      0x20\n        /* \"#utility.yul\":14472:14482   */\n      dup6\n        /* \"#utility.yul\":14469:14487   */\n      lt\n        /* \"#utility.yul\":14466:14515   */\n      iszero\n      tag_373\n      jumpi\n        /* \"#utility.yul\":14505:14513   */\n      dup2\n        /* \"#utility.yul\":14490:14513   */\n      swap1\n      pop\n        /* \"#utility.yul\":14466:14515   */\n    tag_373:\n        /* \"#utility.yul\":14528:14608   */\n      tag_374\n        /* \"#utility.yul\":14584:14606   */\n      tag_375\n        /* \"#utility.yul\":14602:14605   */\n      dup6\n        /* \"#utility.yul\":14584:14606   */\n      tag_204\n      jump\t// in\n    tag_375:\n        /* \"#utility.yul\":14574:14582   */\n      dup4\n        /* \"#utility.yul\":14570:14607   */\n      add\n        /* \"#utility.yul\":14557:14568   */\n      dup3\n        /* \"#utility.yul\":14528:14608   */\n      tag_213\n      jump\t// in\n    tag_374:\n        /* \"#utility.yul\":14187:14618   */\n      pop\n      pop\n        /* \"#utility.yul\":14172:14618   */\n    tag_370:\n        /* \"#utility.yul\":14082:14625   */\n      pop\n      pop\n      pop\n      jump\t// out\n        /* \"#utility.yul\":14631:14748   */\n    tag_215:\n        /* \"#utility.yul\":14685:14693   */\n      0x00\n        /* \"#utility.yul\":14735:14740   */\n      dup3\n        /* \"#utility.yul\":14729:14733   */\n      dup3\n        /* \"#utility.yul\":14725:14741   */\n      shr\n        /* \"#utility.yul\":14704:14741   */\n      swap1\n      pop\n        /* \"#utility.yul\":14631:14748   */\n      swap3\n      swap2\n      pop\n      pop\n      jump\t// out\n        /* \"#utility.yul\":14754:14923   */\n    tag_216:\n        /* \"#utility.yul\":14798:14804   */\n      0x00\n        /* \"#utility.yul\":14831:14882   */\n      tag_378\n        /* \"#utility.yul\":14879:14880   */\n      0x00\n        /* \"#utility.yul\":14875:14881   */\n      not\n        /* \"#utility.yul\":14867:14872   */\n      dup5\n        /* \"#utility.yul\":14864:14865   */\n      0x08\n        /* \"#utility.yul\":14860:14873   */\n      mul\n        /* \"#utility.yul\":14831:14882   */\n      tag_215\n      jump\t// in\n    tag_378:\n        /* \"#utility.yul\":14827:14883   */\n      not\n        /* \"#utility.yul\":14912:14916   */\n      dup1\n        /* \"#utility.yul\":14906:14910   */\n      dup4\n        /* \"#utility.yul\":14902:14917   */\n      and\n        /* \"#utility.yul\":14892:14917   */\n      swap2\n      pop\n        /* \"#utility.yul\":14805:14923   */\n      pop\n        /* \"#utility.yul\":14754:14923   */\n      swap3\n      swap2\n      pop\n      pop\n      jump\t// out\n        /* \"#utility.yul\":14928:15223   */\n    tag_217:\n        /* \"#utility.yul\":15004:15008   */\n      0x00\n        /* \"#utility.yul\":15150:15179   */\n      tag_380\n        /* \"#utility.yul\":15175:15178   */\n      dup4\n        /* \"#utility.yul\":15169:15173   */\n      dup4\n        /* \"#utility.yul\":15150:15179   */\n      tag_216\n      jump\t// in\n    tag_380:\n        /* \"#utility.yul\":15142:15179   */\n      swap2\n      pop\n        /* \"#utility.yul\":15212:15215   */\n      dup3\n        /* \"#utility.yul\":15209:15210   */\n      0x02\n        /* \"#utility.yul\":15205:15216   */\n      mul\n        /* \"#utility.yul\":15199:15203   */\n      dup3\n        /* \"#utility.yul\":15196:15217   */\n      or\n        /* \"#utility.yul\":15188:15217   */\n      swap1\n      pop\n        /* \"#utility.yul\":14928:15223   */\n      swap3\n      swap2\n      pop\n      pop\n      jump\t// out\n        /* \"#utility.yul\":15228:16623   */\n    tag_75:\n        /* \"#utility.yul\":15345:15382   */\n      tag_382\n        /* \"#utility.yul\":15378:15381   */\n      dup3\n        /* \"#utility.yul\":15345:15382   */\n      tag_178\n      jump\t// in\n    tag_382:\n        /* \"#utility.yul\":15447:15465   */\n      0xffffffffffffffff\n        /* \"#utility.yul\":15439:15445   */\n      dup2\n        /* \"#utility.yul\":15436:15466   */\n      gt\n        /* \"#utility.yul\":15433:15489   */\n      iszero\n      tag_383\n      jumpi\n        /* \"#utility.yul\":15469:15487   */\n      tag_384\n      tag_202\n      jump\t// in\n    tag_384:\n        /* \"#utility.yul\":15433:15489   */\n    tag_383:\n        /* \"#utility.yul\":15513:15551   */\n      tag_385\n        /* \"#utility.yul\":15545:15549   */\n      dup3\n        /* \"#utility.yul\":15539:15550   */\n      sload\n        /* \"#utility.yul\":15513:15551   */\n      tag_56\n      jump\t// in\n    tag_385:\n        /* \"#utility.yul\":15598:15665   */\n      tag_386\n        /* \"#utility.yul\":15658:15664   */\n      dup3\n        /* \"#utility.yul\":15650:15656   */\n      dup3\n        /* \"#utility.yul\":15644:15648   */\n      dup6\n        /* \"#utility.yul\":15598:15665   */\n      tag_214\n      jump\t// in\n    tag_386:\n        /* \"#utility.yul\":15692:15693   */\n      0x00\n        /* \"#utility.yul\":15716:15720   */\n      0x20\n        /* \"#utility.yul\":15703:15720   */\n      swap1\n      pop\n        /* \"#utility.yul\":15748:15750   */\n      0x1f\n        /* \"#utility.yul\":15740:15746   */\n      dup4\n        /* \"#utility.yul\":15737:15751   */\n      gt\n        /* \"#utility.yul\":15765:15766   */\n      0x01\n        /* \"#utility.yul\":15760:16378   */\n      dup2\n      eq\n      tag_388\n      jumpi\n        /* \"#utility.yul\":16422:16423   */\n      0x00\n        /* \"#utility.yul\":16439:16445   */\n      dup5\n        /* \"#utility.yul\":16436:16513   */\n      iszero\n      tag_389\n      jumpi\n        /* \"#utility.yul\":16488:16497   */\n      dup3\n        /* \"#utility.yul\":16483:16486   */\n      dup8\n        /* \"#utility.yul\":16479:16498   */\n      add\n        /* \"#utility.yul\":16473:16499   */\n      mload\n        /* \"#utility.yul\":16464:16499   */\n      swap1\n      pop\n        /* \"#utility.yul\":16436:16513   */\n    tag_389:\n        /* \"#utility.yul\":16539:16606   */\n      tag_390\n        /* \"#utility.yul\":16599:16605   */\n      dup6\n        /* \"#utility.yul\":16592:16597   */\n      dup3\n        /* \"#utility.yul\":16539:16606   */\n      tag_217\n      jump\t// in\n    tag_390:\n        /* \"#utility.yul\":16533:16537   */\n      dup7\n        /* \"#utility.yul\":16526:16607   */\n      sstore\n        /* \"#utility.yul\":16395:16617   */\n      pop\n        /* \"#utility.yul\":15730:16617   */\n      jump(tag_387)\n        /* \"#utility.yul\":15760:16378   */\n    tag_388:\n        /* \"#utility.yul\":15812:15816   */\n      0x1f\n        /* \"#utility.yul\":15808:15817   */\n      not\n        /* \"#utility.yul\":15800:15806   */\n      dup5\n        /* \"#utility.yul\":15796:15818   */\n      and\n        /* \"#utility.yul\":15846:15883   */\n      tag_391\n        /* \"#utility.yul\":15878:15882   */\n      dup7\n        /* \"#utility.yul\":15846:15883   */\n      tag_203\n      jump\t// in\n    tag_391:\n        /* \"#utility.yul\":15905:15906   */\n      0x00\n        /* \"#utility.yul\":15919:16127   */\n    tag_392:\n        /* \"#utility.yul\":15933:15940   */\n      dup3\n        /* \"#utility.yul\":15930:15931   */\n      dup2\n        /* \"#utility.yul\":15927:15941   */\n      lt\n        /* \"#utility.yul\":15919:16127   */\n      iszero\n      tag_394\n      jumpi\n        /* \"#utility.yul\":16012:16021   */\n      dup5\n        /* \"#utility.yul\":16007:16010   */\n      dup10\n        /* \"#utility.yul\":16003:16022   */\n      add\n        /* \"#utility.yul\":15997:16023   */\n      mload\n        /* \"#utility.yul\":15989:15995   */\n      dup3\n        /* \"#utility.yul\":15982:16024   */\n      sstore\n        /* \"#utility.yul\":16063:16064   */\n      0x01\n        /* \"#utility.yul\":16055:16061   */\n      dup3\n        /* \"#utility.yul\":16051:16065   */\n      add\n        /* \"#utility.yul\":16041:16065   */\n      swap2\n      pop\n        /* \"#utility.yul\":16110:16112   */\n      0x20\n        /* \"#utility.yul\":16099:16108   */\n      dup6\n        /* \"#utility.yul\":16095:16113   */\n      add\n        /* \"#utility.yul\":16082:16113   */\n      swap5\n      pop\n        /* \"#utility.yul\":15956:15960   */\n      0x20\n        /* \"#utility.yul\":15953:15954   */\n      dup2\n        /* \"#utility.yul\":15949:15961   */\n      add\n        /* \"#utility.yul\":15944:15961   */\n      swap1\n      pop\n        /* \"#utility.yul\":15919:16127   */\n      jump(tag_392)\n    tag_394:\n        /* \"#utility.yul\":16155:16161   */\n      dup7\n        /* \"#utility.yul\":16146:16153   */\n      dup4\n        /* \"#utility.yul\":16143:16162   */\n      lt\n        /* \"#utility.yul\":16140:16319   */\n      iszero\n      tag_395\n      jumpi\n        /* \"#utility.yul\":16213:16222   */\n      dup5\n        /* \"#utility.yul\":16208:16211   */\n      dup10\n        /* \"#utility.yul\":16204:16223   */\n      add\n        /* \"#utility.yul\":16198:16224   */\n      mload\n        /* \"#utility.yul\":16256:16304   */\n      tag_396\n        /* \"#utility.yul\":16298:16302   */\n      0x1f\n        /* \"#utility.yul\":16290:16296   */\n      dup10\n        /* \"#utility.yul\":16286:16303   */\n      and\n        /* \"#utility.yul\":16275:16284   */\n      dup3\n        /* \"#utility.yul\":16256:16304   */\n      tag_216\n      jump\t// in\n    tag_396:\n        /* \"#utility.yul\":16248:16254   */\n      dup4\n        /* \"#utility.yul\":16241:16305   */\n      sstore\n        /* \"#utility.yul\":16163:16319   */\n      pop\n        /* \"#utility.yul\":16140:16319   */\n    tag_395:\n        /* \"#utility.yul\":16365:16366   */\n      0x01\n        /* \"#utility.yul\":16361:16362   */\n      0x02\n        /* \"#utility.yul\":16353:16359   */\n      dup9\n        /* \"#utility.yul\":16349:16363   */\n      mul\n        /* \"#utility.yul\":16345:16367   */\n      add\n        /* \"#utility.yul\":16339:16343   */\n      dup9\n        /* \"#utility.yul\":16332:16368   */\n      sstore\n        /* \"#utility.yul\":15767:16378   */\n      pop\n      pop\n      pop\n        /* \"#utility.yul\":15730:16617   */\n    tag_387:\n      pop\n        /* \"#utility.yul\":15320:16623   */\n      pop\n      pop\n      pop\n        /* \"#utility.yul\":15228:16623   */\n      pop\n      pop\n      jump\t// out\n        /* \"#utility.yul\":16629:16805   */\n    tag_218:\n        /* \"#utility.yul\":16769:16797   */\n      0x5468652070726f706f73616c206973206e6f7420616374697665000000000000\n        /* \"#utility.yul\":16765:16766   */\n      0x00\n        /* \"#utility.yul\":16757:16763   */\n      dup3\n        /* \"#utility.yul\":16753:16767   */\n      add\n        /* \"#utility.yul\":16746:16798   */\n      mstore\n        /* \"#utility.yul\":16629:16805   */\n      pop\n      jump\t// out\n        /* \"#utility.yul\":16811:17177   */\n    tag_219:\n        /* \"#utility.yul\":16953:16956   */\n      0x00\n        /* \"#utility.yul\":16974:17041   */\n      tag_399\n        /* \"#utility.yul\":17038:17040   */\n      0x1a\n        /* \"#utility.yul\":17033:17036   */\n      dup4\n        /* \"#utility.yul\":16974:17041   */\n      tag_179\n      jump\t// in\n    tag_399:\n        /* \"#utility.yul\":16967:17041   */\n      swap2\n      pop\n        /* \"#utility.yul\":17050:17143   */\n      tag_400\n        /* \"#utility.yul\":17139:17142   */\n      dup3\n        /* \"#utility.yul\":17050:17143   */\n      tag_218\n      jump\t// in\n    tag_400:\n        /* \"#utility.yul\":17168:17170   */\n      0x20\n        /* \"#utility.yul\":17163:17166   */\n      dup3\n        /* \"#utility.yul\":17159:17171   */\n      add\n        /* \"#utility.yul\":17152:17171   */\n      swap1\n      pop\n        /* \"#utility.yul\":16811:17177   */\n      swap2\n      swap1\n      pop\n      jump\t// out\n        /* \"#utility.yul\":17183:17602   */\n    tag_95:\n        /* \"#utility.yul\":17349:17353   */\n      0x00\n        /* \"#utility.yul\":17387:17389   */\n      0x20\n        /* \"#utility.yul\":17376:17385   */\n      dup3\n        /* \"#utility.yul\":17372:17390   */\n      add\n        /* \"#utility.yul\":17364:17390   */\n      swap1\n      pop\n        /* \"#utility.yul\":17436:17445   */\n      dup2\n        /* \"#utility.yul\":17430:17434   */\n      dup2\n        /* \"#utility.yul\":17426:17446   */\n      sub\n        /* \"#utility.yul\":17422:17423   */\n      0x00\n        /* \"#utility.yul\":17411:17420   */\n      dup4\n        /* \"#utility.yul\":17407:17424   */\n      add\n        /* \"#utility.yul\":17400:17447   */\n      mstore\n        /* \"#utility.yul\":17464:17595   */\n      tag_402\n        /* \"#utility.yul\":17590:17594   */\n      dup2\n        /* \"#utility.yul\":17464:17595   */\n      tag_219\n      jump\t// in\n    tag_402:\n        /* \"#utility.yul\":17456:17595   */\n      swap1\n      pop\n        /* \"#utility.yul\":17183:17602   */\n      swap2\n      swap1\n      pop\n      jump\t// out\n        /* \"#utility.yul\":17608:17779   */\n    tag_220:\n        /* \"#utility.yul\":17748:17771   */\n      0x496e76616c696420766f74696e672063686f6963650000000000000000000000\n        /* \"#utility.yul\":17744:17745   */\n      0x00\n        /* \"#utility.yul\":17736:17742   */\n      dup3\n        /* \"#utility.yul\":17732:17746   */\n      add\n        /* \"#utility.yul\":17725:17772   */\n      mstore\n        /* \"#utility.yul\":17608:17779   */\n      pop\n      jump\t// out\n        /* \"#utility.yul\":17785:18151   */\n    tag_221:\n        /* \"#utility.yul\":17927:17930   */\n      0x00\n        /* \"#utility.yul\":17948:18015   */\n      tag_405\n        /* \"#utility.yul\":18012:18014   */\n      0x15\n        /* \"#utility.yul\":18007:18010   */\n      dup4\n        /* \"#utility.yul\":17948:18015   */\n      tag_179\n      jump\t// in\n    tag_405:\n        /* \"#utility.yul\":17941:18015   */\n      swap2\n      pop\n        /* \"#utility.yul\":18024:18117   */\n      tag_406\n        /* \"#utility.yul\":18113:18116   */\n      dup3\n        /* \"#utility.yul\":18024:18117   */\n      tag_220\n      jump\t// in\n    tag_406:\n        /* \"#utility.yul\":18142:18144   */\n      0x20\n        /* \"#utility.yul\":18137:18140   */\n      dup3\n        /* \"#utility.yul\":18133:18145   */\n      add\n        /* \"#utility.yul\":18126:18145   */\n      swap1\n      pop\n        /* \"#utility.yul\":17785:18151   */\n      swap2\n      swap1\n      pop\n      jump\t// out\n        /* \"#utility.yul\":18157:18576   */\n    tag_100:\n        /* \"#utility.yul\":18323:18327   */\n      0x00\n        /* \"#utility.yul\":18361:18363   */\n      0x20\n        /* \"#utility.yul\":18350:18359   */\n      dup3\n        /* \"#utility.yul\":18346:18364   */\n      add\n        /* \"#utility.yul\":18338:18364   */\n      swap1\n      pop\n        /* \"#utility.yul\":18410:18419   */\n      dup2\n        /* \"#utility.yul\":18404:18408   */\n      dup2\n        /* \"#utility.yul\":18400:18420   */\n      sub\n        /* \"#utility.yul\":18396:18397   */\n      0x00\n        /* \"#utility.yul\":18385:18394   */\n      dup4\n        /* \"#utility.yul\":18381:18398   */\n      add\n        /* \"#utility.yul\":18374:18421   */\n      mstore\n        /* \"#utility.yul\":18438:18569   */\n      tag_408\n        /* \"#utility.yul\":18564:18568   */\n      dup2\n        /* \"#utility.yul\":18438:18569   */\n      tag_221\n      jump\t// in\n    tag_408:\n        /* \"#utility.yul\":18430:18569   */\n      swap1\n      pop\n        /* \"#utility.yul\":18157:18576   */\n      swap2\n      swap1\n      pop\n      jump\t// out\n        /* \"#utility.yul\":18582:18762   */\n    tag_222:\n        /* \"#utility.yul\":18630:18707   */\n      0x4e487b7100000000000000000000000000000000000000000000000000000000\n        /* \"#utility.yul\":18627:18628   */\n      0x00\n        /* \"#utility.yul\":18620:18708   */\n      mstore\n        /* \"#utility.yul\":18727:18731   */\n      0x11\n        /* \"#utility.yul\":18724:18725   */\n      0x04\n        /* \"#utility.yul\":18717:18732   */\n      mstore\n        /* \"#utility.yul\":18751:18755   */\n      0x24\n        /* \"#utility.yul\":18748:18749   */\n      0x00\n        /* \"#utility.yul\":18741:18756   */\n      revert\n        /* \"#utility.yul\":18768:18959   */\n    tag_104:\n        /* \"#utility.yul\":18808:18811   */\n      0x00\n        /* \"#utility.yul\":18827:18847   */\n      tag_411\n        /* \"#utility.yul\":18845:18846   */\n      dup3\n        /* \"#utility.yul\":18827:18847   */\n      tag_175\n      jump\t// in\n    tag_411:\n        /* \"#utility.yul\":18822:18847   */\n      swap2\n      pop\n        /* \"#utility.yul\":18861:18881   */\n      tag_412\n        /* \"#utility.yul\":18879:18880   */\n      dup4\n        /* \"#utility.yul\":18861:18881   */\n      tag_175\n      jump\t// in\n    tag_412:\n        /* \"#utility.yul\":18856:18881   */\n      swap3\n      pop\n        /* \"#utility.yul\":18904:18905   */\n      dup3\n        /* \"#utility.yul\":18901:18902   */\n      dup3\n        /* \"#utility.yul\":18897:18906   */\n      add\n        /* \"#utility.yul\":18890:18906   */\n      swap1\n      pop\n        /* \"#utility.yul\":18925:18928   */\n      dup1\n        /* \"#utility.yul\":18922:18923   */\n      dup3\n        /* \"#utility.yul\":18919:18929   */\n      gt\n        /* \"#utility.yul\":18916:18952   */\n      iszero\n      tag_413\n      jumpi\n        /* \"#utility.yul\":18932:18950   */\n      tag_414\n      tag_222\n      jump\t// in\n    tag_414:\n        /* \"#utility.yul\":18916:18952   */\n    tag_413:\n        /* \"#utility.yul\":18768:18959   */\n      swap3\n      swap2\n      pop\n      pop\n      jump\t// out\n        /* \"#utility.yul\":18965:19159   */\n    tag_118:\n        /* \"#utility.yul\":19005:19009   */\n      0x00\n        /* \"#utility.yul\":19025:19045   */\n      tag_416\n        /* \"#utility.yul\":19043:19044   */\n      dup3\n        /* \"#utility.yul\":19025:19045   */\n      tag_175\n      jump\t// in\n    tag_416:\n        /* \"#utility.yul\":19020:19045   */\n      swap2\n      pop\n        /* \"#utility.yul\":19059:19079   */\n      tag_417\n        /* \"#utility.yul\":19077:19078   */\n      dup4\n        /* \"#utility.yul\":19059:19079   */\n      tag_175\n      jump\t// in\n    tag_417:\n        /* \"#utility.yul\":19054:19079   */\n      swap3\n      pop\n        /* \"#utility.yul\":19103:19104   */\n      dup3\n        /* \"#utility.yul\":19100:19101   */\n      dup3\n        /* \"#utility.yul\":19096:19105   */\n      sub\n        /* \"#utility.yul\":19088:19105   */\n      swap1\n      pop\n        /* \"#utility.yul\":19127:19128   */\n      dup2\n        /* \"#utility.yul\":19121:19125   */\n      dup2\n        /* \"#utility.yul\":19118:19129   */\n      gt\n        /* \"#utility.yul\":19115:19152   */\n      iszero\n      tag_418\n      jumpi\n        /* \"#utility.yul\":19132:19150   */\n      tag_419\n      tag_222\n      jump\t// in\n    tag_419:\n        /* \"#utility.yul\":19115:19152   */\n    tag_418:\n        /* \"#utility.yul\":18965:19159   */\n      swap3\n      swap2\n      pop\n      pop\n      jump\t// out\n        /* \"#utility.yul\":19165:19345   */\n    tag_144:\n        /* \"#utility.yul\":19213:19290   */\n      0x4e487b7100000000000000000000000000000000000000000000000000000000\n        /* \"#utility.yul\":19210:19211   */\n      0x00\n        /* \"#utility.yul\":19203:19291   */\n      mstore\n        /* \"#utility.yul\":19310:19314   */\n      0x32\n        /* \"#utility.yul\":19307:19308   */\n      0x04\n        /* \"#utility.yul\":19300:19315   */\n      mstore\n        /* \"#utility.yul\":19334:19338   */\n      0x24\n        /* \"#utility.yul\":19331:19332   */\n      0x00\n        /* \"#utility.yul\":19324:19339   */\n      revert\n\n    auxdata: 0xa2646970667358221220b7fdbff468eae7c2f1163b9efad773df3e7a148d54c90c7f1ed4b90daae9a8b564736f6c63430008160033\n}\n",
				"bytecode": {
					"linkReferences": {},
					"object": "608060405234801561000f575f80fd5b503360015f6101000a81548173ffffffffffffffffffffffffffffffffffffffff021916908373ffffffffffffffffffffffffffffffffffffffff160217905550600260015f9054906101000a900473ffffffffffffffffffffffffffffffffffffffff16908060018154018082558091505060019003905f5260205f20015f9091909190916101000a81548173ffffffffffffffffffffffffffffffffffffffff021916908373ffffffffffffffffffffffffffffffffffffffff1602179055506119ee806100de5f395ff3fe608060405234801561000f575f80fd5b5060043610610091575f3560e01c8063b3f98adc11610064578063b3f98adc14610122578063bc677b461461013e578063c7f758a81461015c578063cbff75cb1461018c578063dbddc7aa146101bc57610091565b806313af4035146100955780631c7e379f146100b15780633ca6d100146100e857806341ec687014610104575b5f80fd5b6100af60048036038101906100aa9190611010565b6101c6565b005b6100cb60048036038101906100c6919061106e565b610298565b6040516100df98979695949392919061114c565b60405180910390f35b61010260048036038101906100fd9190611237565b610401565b005b61010c610617565b60405161011991906113e2565b60405180910390f35b61013c60048036038101906101379190611438565b6107c5565b005b610146610ac1565b6040516101539190611472565b60405180910390f35b6101766004803603810190610171919061106e565b610ae9565b60405161018391906113e2565b60405180910390f35b6101a660048036038101906101a19190611010565b610c91565b6040516101b3919061148b565b60405180910390f35b6101c4610d33565b005b60015f9054906101000a900473ffffffffffffffffffffffffffffffffffffffff1673ffffffffffffffffffffffffffffffffffffffff163373ffffffffffffffffffffffffffffffffffffffff1614610255576040517f08c379a000000000000000000000000000000000000000000000000000000000815260040161024c90611514565b60405180910390fd5b8060015f6101000a81548173ffffffffffffffffffffffffffffffffffffffff021916908373ffffffffffffffffffffffffffffffffffffffff16021790555050565b6003602052805f5260405f205f91509050805f0180546102b79061155f565b80601f01602080910402602001604051908101604052809291908181526020018280546102e39061155f565b801561032e5780601f106103055761010080835404028352916020019161032e565b820191905f5260205f20905b81548152906001019060200180831161031157829003601f168201915b5050505050908060010180546103439061155f565b80601f016020809104026020016040519081016040528092919081815260200182805461036f9061155f565b80156103ba5780601f10610391576101008083540402835291602001916103ba565b820191905f5260205f20905b81548152906001019060200180831161039d57829003601f168201915b505050505090806002015490806003015490806004015490806005015490806006015f9054906101000a900460ff16908060060160019054906101000a900460ff16905088565b60015f9054906101000a900473ffffffffffffffffffffffffffffffffffffffff1673ffffffffffffffffffffffffffffffffffffffff163373ffffffffffffffffffffffffffffffffffffffff1614610490576040517f08c379a000000000000000000000000000000000000000000000000000000000815260040161048790611514565b60405180910390fd5b6104995f610e68565b5f6104a35f610e7c565b905060405180610100016040528087878080601f0160208091040260200160405190810160405280939291908181526020018383808284375f81840152601f19601f82011690508083019250505050505050815260200185858080601f0160208091040260200160405190810160405280939291908181526020018383808284375f81840152601f19601f8201169050808301925050505050505081526020015f81526020015f81526020015f81526020018381526020015f151581526020016001151581525060035f8381526020019081526020015f205f820151815f01908161058e9190611759565b5060208201518160010190816105a49190611759565b5060408201518160020155606082015181600301556080820151816004015560a0820151816005015560c0820151816006015f6101000a81548160ff02191690831515021790555060e08201518160060160016101000a81548160ff021916908315150217905550905050505050505050565b61061f610ec9565b60035f61062b5f610e7c565b81526020019081526020015f20604051806101000160405290815f820180546106539061155f565b80601f016020809104026020016040519081016040528092919081815260200182805461067f9061155f565b80156106ca5780601f106106a1576101008083540402835291602001916106ca565b820191905f5260205f20905b8154815290600101906020018083116106ad57829003601f168201915b505050505081526020016001820180546106e39061155f565b80601f016020809104026020016040519081016040528092919081815260200182805461070f9061155f565b801561075a5780601f106107315761010080835404028352916020019161075a565b820191905f5260205f20905b81548152906001019060200180831161073d57829003601f168201915b5050505050815260200160028201548152602001600382015481526020016004820154815260200160058201548152602001600682015f9054906101000a900460ff161515151581526020016006820160019054906101000a900460ff161515151581525050905090565b6001151560035f6107d55f610e7c565b81526020019081526020015f2060060160019054906101000a900460ff16151514610835576040517f08c379a000000000000000000000000000000000000000000000000000000000815260040161082c90611872565b60405180910390fd5b5f8160ff161015801561084c575060028160ff1611155b61088b576040517f08c379a0000000000000000000000000000000000000000000000000000000008152600401610882906118da565b60405180910390fd5b5f60035f6108985f610e7c565b81526020019081526020015f2090505f15158160060160019054906101000a900460ff161515036108c95750610abe565b5f8160040154826003015483600201546108e39190611925565b6108ed9190611925565b9050600233908060018154018082558091505060019003905f5260205f20015f9091909190916101000a81548173ffffffffffffffffffffffffffffffffffffffff021916908373ffffffffffffffffffffffffffffffffffffffff16021790555060018360ff160361097a576001826002015f82825461096e9190611925565b925050819055506109cd565b60028360ff16036109a5576001826003015f8282546109999190611925565b925050819055506109cc565b5f8360ff16036109cb576001826004015f8282546109c39190611925565b925050819055505b5b5b6109d5610e88565b826006015f6101000a81548160ff0219169083151502179055506001818360050154610a019190611958565b148015610a2c575060018360ff161480610a1e575060028360ff16145b80610a2b57505f8360ff16145b5b15610abb575f8260060160016101000a81548160ff021916908315150217905550604051806020016040528060015f9054906101000a900473ffffffffffffffffffffffffffffffffffffffff1673ffffffffffffffffffffffffffffffffffffffff1673ffffffffffffffffffffffffffffffffffffffff168152506002906001610ab9929190610f0c565b505b50505b50565b5f60015f9054906101000a900473ffffffffffffffffffffffffffffffffffffffff16905090565b610af1610ec9565b60035f8381526020019081526020015f20604051806101000160405290815f82018054610b1d9061155f565b80601f0160208091040260200160405190810160405280929190818152602001828054610b499061155f565b8015610b945780601f10610b6b57610100808354040283529160200191610b94565b820191905f5260205f20905b815481529060010190602001808311610b7757829003601f168201915b50505050508152602001600182018054610bad9061155f565b80601f0160208091040260200160405190810160405280929190818152602001828054610bd99061155f565b8015610c245780601f10610bfb57610100808354040283529160200191610c24565b820191905f5260205f20905b815481529060010190602001808311610c0757829003601f168201915b5050505050815260200160028201548152602001600382015481526020016004820154815260200160058201548152602001600682015f9054906101000a900460ff161515151581526020016006820160019054906101000a900460ff1615151515815250509050919050565b5f805f90505b600280549050811015610d29578273ffffffffffffffffffffffffffffffffffffffff1660028281548110610ccf57610cce61198b565b5b905f5260205f20015f9054906101000a900473ffffffffffffffffffffffffffffffffffffffff1673ffffffffffffffffffffffffffffffffffffffff1603610d1c576001915050610d2e565b8080600101915050610c97565b505f90505b919050565b60015f9054906101000a900473ffffffffffffffffffffffffffffffffffffffff1673ffffffffffffffffffffffffffffffffffffffff163373ffffffffffffffffffffffffffffffffffffffff1614610dc2576040517f08c379a0000000000000000000000000000000000000000000000000000000008152600401610db990611514565b60405180910390fd5b6001151560035f610dd25f610e7c565b81526020019081526020015f2060060160019054906101000a900460ff16151514610e32576040517f08c379a0000000000000000000000000000000000000000000000000000000008152600401610e2990611872565b60405180910390fd5b5f60035f610e3f5f610e7c565b81526020019081526020015f2060060160016101000a81548160ff021916908315150217905550565b6001815f015f828254019250508190555050565b5f815f01549050919050565b5f60035f610e955f610e7c565b81526020019081526020015f206003015460035f610eb25f610e7c565b81526020019081526020015f206002015411905090565b60405180610100016040528060608152602001606081526020015f81526020015f81526020015f81526020015f81526020015f151581526020015f151581525090565b828054828255905f5260205f20908101928215610f82579160200282015b82811115610f81578251825f6101000a81548173ffffffffffffffffffffffffffffffffffffffff021916908373ffffffffffffffffffffffffffffffffffffffff16021790555091602001919060010190610f2a565b5b509050610f8f9190610f93565b5090565b5b80821115610faa575f815f905550600101610f94565b5090565b5f80fd5b5f80fd5b5f73ffffffffffffffffffffffffffffffffffffffff82169050919050565b5f610fdf82610fb6565b9050919050565b610fef81610fd5565b8114610ff9575f80fd5b50565b5f8135905061100a81610fe6565b92915050565b5f6020828403121561102557611024610fae565b5b5f61103284828501610ffc565b91505092915050565b5f819050919050565b61104d8161103b565b8114611057575f80fd5b50565b5f8135905061106881611044565b92915050565b5f6020828403121561108357611082610fae565b5b5f6110908482850161105a565b91505092915050565b5f81519050919050565b5f82825260208201905092915050565b5f5b838110156110d05780820151818401526020810190506110b5565b5f8484015250505050565b5f601f19601f8301169050919050565b5f6110f582611099565b6110ff81856110a3565b935061110f8185602086016110b3565b611118816110db565b840191505092915050565b61112c8161103b565b82525050565b5f8115159050919050565b61114681611132565b82525050565b5f610100820190508181035f830152611165818b6110eb565b90508181036020830152611179818a6110eb565b90506111886040830189611123565b6111956060830188611123565b6111a26080830187611123565b6111af60a0830186611123565b6111bc60c083018561113d565b6111c960e083018461113d565b9998505050505050505050565b5f80fd5b5f80fd5b5f80fd5b5f8083601f8401126111f7576111f66111d6565b5b8235905067ffffffffffffffff811115611214576112136111da565b5b6020830191508360018202830111156112305761122f6111de565b5b9250929050565b5f805f805f606086880312156112505761124f610fae565b5b5f86013567ffffffffffffffff81111561126d5761126c610fb2565b5b611279888289016111e2565b9550955050602086013567ffffffffffffffff81111561129c5761129b610fb2565b5b6112a8888289016111e2565b935093505060406112bb8882890161105a565b9150509295509295909350565b5f82825260208201905092915050565b5f6112e282611099565b6112ec81856112c8565b93506112fc8185602086016110b3565b611305816110db565b840191505092915050565b6113198161103b565b82525050565b61132881611132565b82525050565b5f61010083015f8301518482035f86015261134982826112d8565b9150506020830151848203602086015261136382826112d8565b91505060408301516113786040860182611310565b50606083015161138b6060860182611310565b50608083015161139e6080860182611310565b5060a08301516113b160a0860182611310565b5060c08301516113c460c086018261131f565b5060e08301516113d760e086018261131f565b508091505092915050565b5f6020820190508181035f8301526113fa818461132e565b905092915050565b5f60ff82169050919050565b61141781611402565b8114611421575f80fd5b50565b5f813590506114328161140e565b92915050565b5f6020828403121561144d5761144c610fae565b5b5f61145a84828501611424565b91505092915050565b61146c81610fd5565b82525050565b5f6020820190506114855f830184611463565b92915050565b5f60208201905061149e5f83018461113d565b92915050565b7f4f6e6c7920746865206f776e65722063616e2063616c6c20746869732066756e5f8201527f6374696f6e000000000000000000000000000000000000000000000000000000602082015250565b5f6114fe6025836110a3565b9150611509826114a4565b604082019050919050565b5f6020820190508181035f83015261152b816114f2565b9050919050565b7f4e487b71000000000000000000000000000000000000000000000000000000005f52602260045260245ffd5b5f600282049050600182168061157657607f821691505b60208210810361158957611588611532565b5b50919050565b7f4e487b71000000000000000000000000000000000000000000000000000000005f52604160045260245ffd5b5f819050815f5260205f209050919050565b5f6020601f8301049050919050565b5f82821b905092915050565b5f600883026116187fffffffffffffffffffffffffffffffffffffffffffffffffffffffffffffffff826115dd565b61162286836115dd565b95508019841693508086168417925050509392505050565b5f819050919050565b5f61165d6116586116538461103b565b61163a565b61103b565b9050919050565b5f819050919050565b61167683611643565b61168a61168282611664565b8484546115e9565b825550505050565b5f90565b61169e611692565b6116a981848461166d565b505050565b5b818110156116cc576116c15f82611696565b6001810190506116af565b5050565b601f821115611711576116e2816115bc565b6116eb846115ce565b810160208510156116fa578190505b61170e611706856115ce565b8301826116ae565b50505b505050565b5f82821c905092915050565b5f6117315f1984600802611716565b1980831691505092915050565b5f6117498383611722565b9150826002028217905092915050565b61176282611099565b67ffffffffffffffff81111561177b5761177a61158f565b5b611785825461155f565b6117908282856116d0565b5f60209050601f8311600181146117c1575f84156117af578287015190505b6117b9858261173e565b865550611820565b601f1984166117cf866115bc565b5f5b828110156117f6578489015182556001820191506020850194506020810190506117d1565b86831015611813578489015161180f601f891682611722565b8355505b6001600288020188555050505b505050505050565b7f5468652070726f706f73616c206973206e6f74206163746976650000000000005f82015250565b5f61185c601a836110a3565b915061186782611828565b602082019050919050565b5f6020820190508181035f83015261188981611850565b9050919050565b7f496e76616c696420766f74696e672063686f69636500000000000000000000005f82015250565b5f6118c46015836110a3565b91506118cf82611890565b602082019050919050565b5f6020820190508181035f8301526118f1816118b8565b9050919050565b7f4e487b71000000000000000000000000000000000000000000000000000000005f52601160045260245ffd5b5f61192f8261103b565b915061193a8361103b565b9250828201905080821115611952576119516118f8565b5b92915050565b5f6119628261103b565b915061196d8361103b565b9250828203905081811115611985576119846118f8565b5b92915050565b7f4e487b71000000000000000000000000000000000000000000000000000000005f52603260045260245ffdfea2646970667358221220b7fdbff468eae7c2f1163b9efad773df3e7a148d54c90c7f1ed4b90daae9a8b564736f6c63430008160033",
					"opcodes": "PUSH1 0x80 PUSH1 0x40 MSTORE CALLVALUE DUP1 ISZERO PUSH2 0xF JUMPI PUSH0 DUP1 REVERT JUMPDEST POP CALLER PUSH1 0x1 PUSH0 PUSH2 0x100 EXP DUP2 SLOAD DUP2 PUSH20 0xFFFFFFFFFFFFFFFFFFFFFFFFFFFFFFFFFFFFFFFF MUL NOT AND SWAP1 DUP4 PUSH20 0xFFFFFFFFFFFFFFFFFFFFFFFFFFFFFFFFFFFFFFFF AND MUL OR SWAP1 SSTORE POP PUSH1 0x2 PUSH1 0x1 PUSH0 SWAP1 SLOAD SWAP1 PUSH2 0x100 EXP SWAP1 DIV PUSH20 0xFFFFFFFFFFFFFFFFFFFFFFFFFFFFFFFFFFFFFFFF AND SWAP1 DUP1 PUSH1 0x1 DUP2 SLOAD ADD DUP1 DUP3 SSTORE DUP1 SWAP2 POP POP PUSH1 0x1 SWAP1 SUB SWAP1 PUSH0 MSTORE PUSH1 0x20 PUSH0 KECCAK256 ADD PUSH0 SWAP1 SWAP2 SWAP1 SWAP2 SWAP1 SWAP2 PUSH2 0x100 EXP DUP2 SLOAD DUP2 PUSH20 0xFFFFFFFFFFFFFFFFFFFFFFFFFFFFFFFFFFFFFFFF MUL NOT AND SWAP1 DUP4 PUSH20 0xFFFFFFFFFFFFFFFFFFFFFFFFFFFFFFFFFFFFFFFF AND MUL OR SWAP1 SSTORE POP PUSH2 0x19EE DUP1 PUSH2 0xDE PUSH0 CODECOPY PUSH0 RETURN INVALID PUSH1 0x80 PUSH1 0x40 MSTORE CALLVALUE DUP1 ISZERO PUSH2 0xF JUMPI PUSH0 DUP1 REVERT JUMPDEST POP PUSH1 0x4 CALLDATASIZE LT PUSH2 0x91 JUMPI PUSH0 CALLDATALOAD PUSH1 0xE0 SHR DUP1 PUSH4 0xB3F98ADC GT PUSH2 0x64 JUMPI DUP1 PUSH4 0xB3F98ADC EQ PUSH2 0x122 JUMPI DUP1 PUSH4 0xBC677B46 EQ PUSH2 0x13E JUMPI DUP1 PUSH4 0xC7F758A8 EQ PUSH2 0x15C JUMPI DUP1 PUSH4 0xCBFF75CB EQ PUSH2 0x18C JUMPI DUP1 PUSH4 0xDBDDC7AA EQ PUSH2 0x1BC JUMPI PUSH2 0x91 JUMP JUMPDEST DUP1 PUSH4 0x13AF4035 EQ PUSH2 0x95 JUMPI DUP1 PUSH4 0x1C7E379F EQ PUSH2 0xB1 JUMPI DUP1 PUSH4 0x3CA6D100 EQ PUSH2 0xE8 JUMPI DUP1 PUSH4 0x41EC6870 EQ PUSH2 0x104 JUMPI JUMPDEST PUSH0 DUP1 REVERT JUMPDEST PUSH2 0xAF PUSH1 0x4 DUP1 CALLDATASIZE SUB DUP2 ADD SWAP1 PUSH2 0xAA SWAP2 SWAP1 PUSH2 0x1010 JUMP JUMPDEST PUSH2 0x1C6 JUMP JUMPDEST STOP JUMPDEST PUSH2 0xCB PUSH1 0x4 DUP1 CALLDATASIZE SUB DUP2 ADD SWAP1 PUSH2 0xC6 SWAP2 SWAP1 PUSH2 0x106E JUMP JUMPDEST PUSH2 0x298 JUMP JUMPDEST PUSH1 0x40 MLOAD PUSH2 0xDF SWAP9 SWAP8 SWAP7 SWAP6 SWAP5 SWAP4 SWAP3 SWAP2 SWAP1 PUSH2 0x114C JUMP JUMPDEST PUSH1 0x40 MLOAD DUP1 SWAP2 SUB SWAP1 RETURN JUMPDEST PUSH2 0x102 PUSH1 0x4 DUP1 CALLDATASIZE SUB DUP2 ADD SWAP1 PUSH2 0xFD SWAP2 SWAP1 PUSH2 0x1237 JUMP JUMPDEST PUSH2 0x401 JUMP JUMPDEST STOP JUMPDEST PUSH2 0x10C PUSH2 0x617 JUMP JUMPDEST PUSH1 0x40 MLOAD PUSH2 0x119 SWAP2 SWAP1 PUSH2 0x13E2 JUMP JUMPDEST PUSH1 0x40 MLOAD DUP1 SWAP2 SUB SWAP1 RETURN JUMPDEST PUSH2 0x13C PUSH1 0x4 DUP1 CALLDATASIZE SUB DUP2 ADD SWAP1 PUSH2 0x137 SWAP2 SWAP1 PUSH2 0x1438 JUMP JUMPDEST PUSH2 0x7C5 JUMP JUMPDEST STOP JUMPDEST PUSH2 0x146 PUSH2 0xAC1 JUMP JUMPDEST PUSH1 0x40 MLOAD PUSH2 0x153 SWAP2 SWAP1 PUSH2 0x1472 JUMP JUMPDEST PUSH1 0x40 MLOAD DUP1 SWAP2 SUB SWAP1 RETURN JUMPDEST PUSH2 0x176 PUSH1 0x4 DUP1 CALLDATASIZE SUB DUP2 ADD SWAP1 PUSH2 0x171 SWAP2 SWAP1 PUSH2 0x106E JUMP JUMPDEST PUSH2 0xAE9 JUMP JUMPDEST PUSH1 0x40 MLOAD PUSH2 0x183 SWAP2 SWAP1 PUSH2 0x13E2 JUMP JUMPDEST PUSH1 0x40 MLOAD DUP1 SWAP2 SUB SWAP1 RETURN JUMPDEST PUSH2 0x1A6 PUSH1 0x4 DUP1 CALLDATASIZE SUB DUP2 ADD SWAP1 PUSH2 0x1A1 SWAP2 SWAP1 PUSH2 0x1010 JUMP JUMPDEST PUSH2 0xC91 JUMP JUMPDEST PUSH1 0x40 MLOAD PUSH2 0x1B3 SWAP2 SWAP1 PUSH2 0x148B JUMP JUMPDEST PUSH1 0x40 MLOAD DUP1 SWAP2 SUB SWAP1 RETURN JUMPDEST PUSH2 0x1C4 PUSH2 0xD33 JUMP JUMPDEST STOP JUMPDEST PUSH1 0x1 PUSH0 SWAP1 SLOAD SWAP1 PUSH2 0x100 EXP SWAP1 DIV PUSH20 0xFFFFFFFFFFFFFFFFFFFFFFFFFFFFFFFFFFFFFFFF AND PUSH20 0xFFFFFFFFFFFFFFFFFFFFFFFFFFFFFFFFFFFFFFFF AND CALLER PUSH20 0xFFFFFFFFFFFFFFFFFFFFFFFFFFFFFFFFFFFFFFFF AND EQ PUSH2 0x255 JUMPI PUSH1 0x40 MLOAD PUSH32 0x8C379A000000000000000000000000000000000000000000000000000000000 DUP2 MSTORE PUSH1 0x4 ADD PUSH2 0x24C SWAP1 PUSH2 0x1514 JUMP JUMPDEST PUSH1 0x40 MLOAD DUP1 SWAP2 SUB SWAP1 REVERT JUMPDEST DUP1 PUSH1 0x1 PUSH0 PUSH2 0x100 EXP DUP2 SLOAD DUP2 PUSH20 0xFFFFFFFFFFFFFFFFFFFFFFFFFFFFFFFFFFFFFFFF MUL NOT AND SWAP1 DUP4 PUSH20 0xFFFFFFFFFFFFFFFFFFFFFFFFFFFFFFFFFFFFFFFF AND MUL OR SWAP1 SSTORE POP POP JUMP JUMPDEST PUSH1 0x3 PUSH1 0x20 MSTORE DUP1 PUSH0 MSTORE PUSH1 0x40 PUSH0 KECCAK256 PUSH0 SWAP2 POP SWAP1 POP DUP1 PUSH0 ADD DUP1 SLOAD PUSH2 0x2B7 SWAP1 PUSH2 0x155F JUMP JUMPDEST DUP1 PUSH1 0x1F ADD PUSH1 0x20 DUP1 SWAP2 DIV MUL PUSH1 0x20 ADD PUSH1 0x40 MLOAD SWAP1 DUP2 ADD PUSH1 0x40 MSTORE DUP1 SWAP3 SWAP2 SWAP1 DUP2 DUP2 MSTORE PUSH1 0x20 ADD DUP3 DUP1 SLOAD PUSH2 0x2E3 SWAP1 PUSH2 0x155F JUMP JUMPDEST DUP1 ISZERO PUSH2 0x32E JUMPI DUP1 PUSH1 0x1F LT PUSH2 0x305 JUMPI PUSH2 0x100 DUP1 DUP4 SLOAD DIV MUL DUP4 MSTORE SWAP2 PUSH1 0x20 ADD SWAP2 PUSH2 0x32E JUMP JUMPDEST DUP3 ADD SWAP2 SWAP1 PUSH0 MSTORE PUSH1 0x20 PUSH0 KECCAK256 SWAP1 JUMPDEST DUP2 SLOAD DUP2 MSTORE SWAP1 PUSH1 0x1 ADD SWAP1 PUSH1 0x20 ADD DUP1 DUP4 GT PUSH2 0x311 JUMPI DUP3 SWAP1 SUB PUSH1 0x1F AND DUP3 ADD SWAP2 JUMPDEST POP POP POP POP POP SWAP1 DUP1 PUSH1 0x1 ADD DUP1 SLOAD PUSH2 0x343 SWAP1 PUSH2 0x155F JUMP JUMPDEST DUP1 PUSH1 0x1F ADD PUSH1 0x20 DUP1 SWAP2 DIV MUL PUSH1 0x20 ADD PUSH1 0x40 MLOAD SWAP1 DUP2 ADD PUSH1 0x40 MSTORE DUP1 SWAP3 SWAP2 SWAP1 DUP2 DUP2 MSTORE PUSH1 0x20 ADD DUP3 DUP1 SLOAD PUSH2 0x36F SWAP1 PUSH2 0x155F JUMP JUMPDEST DUP1 ISZERO PUSH2 0x3BA JUMPI DUP1 PUSH1 0x1F LT PUSH2 0x391 JUMPI PUSH2 0x100 DUP1 DUP4 SLOAD DIV MUL DUP4 MSTORE SWAP2 PUSH1 0x20 ADD SWAP2 PUSH2 0x3BA JUMP JUMPDEST DUP3 ADD SWAP2 SWAP1 PUSH0 MSTORE PUSH1 0x20 PUSH0 KECCAK256 SWAP1 JUMPDEST DUP2 SLOAD DUP2 MSTORE SWAP1 PUSH1 0x1 ADD SWAP1 PUSH1 0x20 ADD DUP1 DUP4 GT PUSH2 0x39D JUMPI DUP3 SWAP1 SUB PUSH1 0x1F AND DUP3 ADD SWAP2 JUMPDEST POP POP POP POP POP SWAP1 DUP1 PUSH1 0x2 ADD SLOAD SWAP1 DUP1 PUSH1 0x3 ADD SLOAD SWAP1 DUP1 PUSH1 0x4 ADD SLOAD SWAP1 DUP1 PUSH1 0x5 ADD SLOAD SWAP1 DUP1 PUSH1 0x6 ADD PUSH0 SWAP1 SLOAD SWAP1 PUSH2 0x100 EXP SWAP1 DIV PUSH1 0xFF AND SWAP1 DUP1 PUSH1 0x6 ADD PUSH1 0x1 SWAP1 SLOAD SWAP1 PUSH2 0x100 EXP SWAP1 DIV PUSH1 0xFF AND SWAP1 POP DUP9 JUMP JUMPDEST PUSH1 0x1 PUSH0 SWAP1 SLOAD SWAP1 PUSH2 0x100 EXP SWAP1 DIV PUSH20 0xFFFFFFFFFFFFFFFFFFFFFFFFFFFFFFFFFFFFFFFF AND PUSH20 0xFFFFFFFFFFFFFFFFFFFFFFFFFFFFFFFFFFFFFFFF AND CALLER PUSH20 0xFFFFFFFFFFFFFFFFFFFFFFFFFFFFFFFFFFFFFFFF AND EQ PUSH2 0x490 JUMPI PUSH1 0x40 MLOAD PUSH32 0x8C379A000000000000000000000000000000000000000000000000000000000 DUP2 MSTORE PUSH1 0x4 ADD PUSH2 0x487 SWAP1 PUSH2 0x1514 JUMP JUMPDEST PUSH1 0x40 MLOAD DUP1 SWAP2 SUB SWAP1 REVERT JUMPDEST PUSH2 0x499 PUSH0 PUSH2 0xE68 JUMP JUMPDEST PUSH0 PUSH2 0x4A3 PUSH0 PUSH2 0xE7C JUMP JUMPDEST SWAP1 POP PUSH1 0x40 MLOAD DUP1 PUSH2 0x100 ADD PUSH1 0x40 MSTORE DUP1 DUP8 DUP8 DUP1 DUP1 PUSH1 0x1F ADD PUSH1 0x20 DUP1 SWAP2 DIV MUL PUSH1 0x20 ADD PUSH1 0x40 MLOAD SWAP1 DUP2 ADD PUSH1 0x40 MSTORE DUP1 SWAP4 SWAP3 SWAP2 SWAP1 DUP2 DUP2 MSTORE PUSH1 0x20 ADD DUP4 DUP4 DUP1 DUP3 DUP5 CALLDATACOPY PUSH0 DUP2 DUP5 ADD MSTORE PUSH1 0x1F NOT PUSH1 0x1F DUP3 ADD AND SWAP1 POP DUP1 DUP4 ADD SWAP3 POP POP POP POP POP POP POP DUP2 MSTORE PUSH1 0x20 ADD DUP6 DUP6 DUP1 DUP1 PUSH1 0x1F ADD PUSH1 0x20 DUP1 SWAP2 DIV MUL PUSH1 0x20 ADD PUSH1 0x40 MLOAD SWAP1 DUP2 ADD PUSH1 0x40 MSTORE DUP1 SWAP4 SWAP3 SWAP2 SWAP1 DUP2 DUP2 MSTORE PUSH1 0x20 ADD DUP4 DUP4 DUP1 DUP3 DUP5 CALLDATACOPY PUSH0 DUP2 DUP5 ADD MSTORE PUSH1 0x1F NOT PUSH1 0x1F DUP3 ADD AND SWAP1 POP DUP1 DUP4 ADD SWAP3 POP POP POP POP POP POP POP DUP2 MSTORE PUSH1 0x20 ADD PUSH0 DUP2 MSTORE PUSH1 0x20 ADD PUSH0 DUP2 MSTORE PUSH1 0x20 ADD PUSH0 DUP2 MSTORE PUSH1 0x20 ADD DUP4 DUP2 MSTORE PUSH1 0x20 ADD PUSH0 ISZERO ISZERO DUP2 MSTORE PUSH1 0x20 ADD PUSH1 0x1 ISZERO ISZERO DUP2 MSTORE POP PUSH1 0x3 PUSH0 DUP4 DUP2 MSTORE PUSH1 0x20 ADD SWAP1 DUP2 MSTORE PUSH1 0x20 ADD PUSH0 KECCAK256 PUSH0 DUP3 ADD MLOAD DUP2 PUSH0 ADD SWAP1 DUP2 PUSH2 0x58E SWAP2 SWAP1 PUSH2 0x1759 JUMP JUMPDEST POP PUSH1 0x20 DUP3 ADD MLOAD DUP2 PUSH1 0x1 ADD SWAP1 DUP2 PUSH2 0x5A4 SWAP2 SWAP1 PUSH2 0x1759 JUMP JUMPDEST POP PUSH1 0x40 DUP3 ADD MLOAD DUP2 PUSH1 0x2 ADD SSTORE PUSH1 0x60 DUP3 ADD MLOAD DUP2 PUSH1 0x3 ADD SSTORE PUSH1 0x80 DUP3 ADD MLOAD DUP2 PUSH1 0x4 ADD SSTORE PUSH1 0xA0 DUP3 ADD MLOAD DUP2 PUSH1 0x5 ADD SSTORE PUSH1 0xC0 DUP3 ADD MLOAD DUP2 PUSH1 0x6 ADD PUSH0 PUSH2 0x100 EXP DUP2 SLOAD DUP2 PUSH1 0xFF MUL NOT AND SWAP1 DUP4 ISZERO ISZERO MUL OR SWAP1 SSTORE POP PUSH1 0xE0 DUP3 ADD MLOAD DUP2 PUSH1 0x6 ADD PUSH1 0x1 PUSH2 0x100 EXP DUP2 SLOAD DUP2 PUSH1 0xFF MUL NOT AND SWAP1 DUP4 ISZERO ISZERO MUL OR SWAP1 SSTORE POP SWAP1 POP POP POP POP POP POP POP POP JUMP JUMPDEST PUSH2 0x61F PUSH2 0xEC9 JUMP JUMPDEST PUSH1 0x3 PUSH0 PUSH2 0x62B PUSH0 PUSH2 0xE7C JUMP JUMPDEST DUP2 MSTORE PUSH1 0x20 ADD SWAP1 DUP2 MSTORE PUSH1 0x20 ADD PUSH0 KECCAK256 PUSH1 0x40 MLOAD DUP1 PUSH2 0x100 ADD PUSH1 0x40 MSTORE SWAP1 DUP2 PUSH0 DUP3 ADD DUP1 SLOAD PUSH2 0x653 SWAP1 PUSH2 0x155F JUMP JUMPDEST DUP1 PUSH1 0x1F ADD PUSH1 0x20 DUP1 SWAP2 DIV MUL PUSH1 0x20 ADD PUSH1 0x40 MLOAD SWAP1 DUP2 ADD PUSH1 0x40 MSTORE DUP1 SWAP3 SWAP2 SWAP1 DUP2 DUP2 MSTORE PUSH1 0x20 ADD DUP3 DUP1 SLOAD PUSH2 0x67F SWAP1 PUSH2 0x155F JUMP JUMPDEST DUP1 ISZERO PUSH2 0x6CA JUMPI DUP1 PUSH1 0x1F LT PUSH2 0x6A1 JUMPI PUSH2 0x100 DUP1 DUP4 SLOAD DIV MUL DUP4 MSTORE SWAP2 PUSH1 0x20 ADD SWAP2 PUSH2 0x6CA JUMP JUMPDEST DUP3 ADD SWAP2 SWAP1 PUSH0 MSTORE PUSH1 0x20 PUSH0 KECCAK256 SWAP1 JUMPDEST DUP2 SLOAD DUP2 MSTORE SWAP1 PUSH1 0x1 ADD SWAP1 PUSH1 0x20 ADD DUP1 DUP4 GT PUSH2 0x6AD JUMPI DUP3 SWAP1 SUB PUSH1 0x1F AND DUP3 ADD SWAP2 JUMPDEST POP POP POP POP POP DUP2 MSTORE PUSH1 0x20 ADD PUSH1 0x1 DUP3 ADD DUP1 SLOAD PUSH2 0x6E3 SWAP1 PUSH2 0x155F JUMP JUMPDEST DUP1 PUSH1 0x1F ADD PUSH1 0x20 DUP1 SWAP2 DIV MUL PUSH1 0x20 ADD PUSH1 0x40 MLOAD SWAP1 DUP2 ADD PUSH1 0x40 MSTORE DUP1 SWAP3 SWAP2 SWAP1 DUP2 DUP2 MSTORE PUSH1 0x20 ADD DUP3 DUP1 SLOAD PUSH2 0x70F SWAP1 PUSH2 0x155F JUMP JUMPDEST DUP1 ISZERO PUSH2 0x75A JUMPI DUP1 PUSH1 0x1F LT PUSH2 0x731 JUMPI PUSH2 0x100 DUP1 DUP4 SLOAD DIV MUL DUP4 MSTORE SWAP2 PUSH1 0x20 ADD SWAP2 PUSH2 0x75A JUMP JUMPDEST DUP3 ADD SWAP2 SWAP1 PUSH0 MSTORE PUSH1 0x20 PUSH0 KECCAK256 SWAP1 JUMPDEST DUP2 SLOAD DUP2 MSTORE SWAP1 PUSH1 0x1 ADD SWAP1 PUSH1 0x20 ADD DUP1 DUP4 GT PUSH2 0x73D JUMPI DUP3 SWAP1 SUB PUSH1 0x1F AND DUP3 ADD SWAP2 JUMPDEST POP POP POP POP POP DUP2 MSTORE PUSH1 0x20 ADD PUSH1 0x2 DUP3 ADD SLOAD DUP2 MSTORE PUSH1 0x20 ADD PUSH1 0x3 DUP3 ADD SLOAD DUP2 MSTORE PUSH1 0x20 ADD PUSH1 0x4 DUP3 ADD SLOAD DUP2 MSTORE PUSH1 0x20 ADD PUSH1 0x5 DUP3 ADD SLOAD DUP2 MSTORE PUSH1 0x20 ADD PUSH1 0x6 DUP3 ADD PUSH0 SWAP1 SLOAD SWAP1 PUSH2 0x100 EXP SWAP1 DIV PUSH1 0xFF AND ISZERO ISZERO ISZERO ISZERO DUP2 MSTORE PUSH1 0x20 ADD PUSH1 0x6 DUP3 ADD PUSH1 0x1 SWAP1 SLOAD SWAP1 PUSH2 0x100 EXP SWAP1 DIV PUSH1 0xFF AND ISZERO ISZERO ISZERO ISZERO DUP2 MSTORE POP POP SWAP1 POP SWAP1 JUMP JUMPDEST PUSH1 0x1 ISZERO ISZERO PUSH1 0x3 PUSH0 PUSH2 0x7D5 PUSH0 PUSH2 0xE7C JUMP JUMPDEST DUP2 MSTORE PUSH1 0x20 ADD SWAP1 DUP2 MSTORE PUSH1 0x20 ADD PUSH0 KECCAK256 PUSH1 0x6 ADD PUSH1 0x1 SWAP1 SLOAD SWAP1 PUSH2 0x100 EXP SWAP1 DIV PUSH1 0xFF AND ISZERO ISZERO EQ PUSH2 0x835 JUMPI PUSH1 0x40 MLOAD PUSH32 0x8C379A000000000000000000000000000000000000000000000000000000000 DUP2 MSTORE PUSH1 0x4 ADD PUSH2 0x82C SWAP1 PUSH2 0x1872 JUMP JUMPDEST PUSH1 0x40 MLOAD DUP1 SWAP2 SUB SWAP1 REVERT JUMPDEST PUSH0 DUP2 PUSH1 0xFF AND LT ISZERO DUP1 ISZERO PUSH2 0x84C JUMPI POP PUSH1 0x2 DUP2 PUSH1 0xFF AND GT ISZERO JUMPDEST PUSH2 0x88B JUMPI PUSH1 0x40 MLOAD PUSH32 0x8C379A000000000000000000000000000000000000000000000000000000000 DUP2 MSTORE PUSH1 0x4 ADD PUSH2 0x882 SWAP1 PUSH2 0x18DA JUMP JUMPDEST PUSH1 0x40 MLOAD DUP1 SWAP2 SUB SWAP1 REVERT JUMPDEST PUSH0 PUSH1 0x3 PUSH0 PUSH2 0x898 PUSH0 PUSH2 0xE7C JUMP JUMPDEST DUP2 MSTORE PUSH1 0x20 ADD SWAP1 DUP2 MSTORE PUSH1 0x20 ADD PUSH0 KECCAK256 SWAP1 POP PUSH0 ISZERO ISZERO DUP2 PUSH1 0x6 ADD PUSH1 0x1 SWAP1 SLOAD SWAP1 PUSH2 0x100 EXP SWAP1 DIV PUSH1 0xFF AND ISZERO ISZERO SUB PUSH2 0x8C9 JUMPI POP PUSH2 0xABE JUMP JUMPDEST PUSH0 DUP2 PUSH1 0x4 ADD SLOAD DUP3 PUSH1 0x3 ADD SLOAD DUP4 PUSH1 0x2 ADD SLOAD PUSH2 0x8E3 SWAP2 SWAP1 PUSH2 0x1925 JUMP JUMPDEST PUSH2 0x8ED SWAP2 SWAP1 PUSH2 0x1925 JUMP JUMPDEST SWAP1 POP PUSH1 0x2 CALLER SWAP1 DUP1 PUSH1 0x1 DUP2 SLOAD ADD DUP1 DUP3 SSTORE DUP1 SWAP2 POP POP PUSH1 0x1 SWAP1 SUB SWAP1 PUSH0 MSTORE PUSH1 0x20 PUSH0 KECCAK256 ADD PUSH0 SWAP1 SWAP2 SWAP1 SWAP2 SWAP1 SWAP2 PUSH2 0x100 EXP DUP2 SLOAD DUP2 PUSH20 0xFFFFFFFFFFFFFFFFFFFFFFFFFFFFFFFFFFFFFFFF MUL NOT AND SWAP1 DUP4 PUSH20 0xFFFFFFFFFFFFFFFFFFFFFFFFFFFFFFFFFFFFFFFF AND MUL OR SWAP1 SSTORE POP PUSH1 0x1 DUP4 PUSH1 0xFF AND SUB PUSH2 0x97A JUMPI PUSH1 0x1 DUP3 PUSH1 0x2 ADD PUSH0 DUP3 DUP3 SLOAD PUSH2 0x96E SWAP2 SWAP1 PUSH2 0x1925 JUMP JUMPDEST SWAP3 POP POP DUP2 SWAP1 SSTORE POP PUSH2 0x9CD JUMP JUMPDEST PUSH1 0x2 DUP4 PUSH1 0xFF AND SUB PUSH2 0x9A5 JUMPI PUSH1 0x1 DUP3 PUSH1 0x3 ADD PUSH0 DUP3 DUP3 SLOAD PUSH2 0x999 SWAP2 SWAP1 PUSH2 0x1925 JUMP JUMPDEST SWAP3 POP POP DUP2 SWAP1 SSTORE POP PUSH2 0x9CC JUMP JUMPDEST PUSH0 DUP4 PUSH1 0xFF AND SUB PUSH2 0x9CB JUMPI PUSH1 0x1 DUP3 PUSH1 0x4 ADD PUSH0 DUP3 DUP3 SLOAD PUSH2 0x9C3 SWAP2 SWAP1 PUSH2 0x1925 JUMP JUMPDEST SWAP3 POP POP DUP2 SWAP1 SSTORE POP JUMPDEST JUMPDEST JUMPDEST PUSH2 0x9D5 PUSH2 0xE88 JUMP JUMPDEST DUP3 PUSH1 0x6 ADD PUSH0 PUSH2 0x100 EXP DUP2 SLOAD DUP2 PUSH1 0xFF MUL NOT AND SWAP1 DUP4 ISZERO ISZERO MUL OR SWAP1 SSTORE POP PUSH1 0x1 DUP2 DUP4 PUSH1 0x5 ADD SLOAD PUSH2 0xA01 SWAP2 SWAP1 PUSH2 0x1958 JUMP JUMPDEST EQ DUP1 ISZERO PUSH2 0xA2C JUMPI POP PUSH1 0x1 DUP4 PUSH1 0xFF AND EQ DUP1 PUSH2 0xA1E JUMPI POP PUSH1 0x2 DUP4 PUSH1 0xFF AND EQ JUMPDEST DUP1 PUSH2 0xA2B JUMPI POP PUSH0 DUP4 PUSH1 0xFF AND EQ JUMPDEST JUMPDEST ISZERO PUSH2 0xABB JUMPI PUSH0 DUP3 PUSH1 0x6 ADD PUSH1 0x1 PUSH2 0x100 EXP DUP2 SLOAD DUP2 PUSH1 0xFF MUL NOT AND SWAP1 DUP4 ISZERO ISZERO MUL OR SWAP1 SSTORE POP PUSH1 0x40 MLOAD DUP1 PUSH1 0x20 ADD PUSH1 0x40 MSTORE DUP1 PUSH1 0x1 PUSH0 SWAP1 SLOAD SWAP1 PUSH2 0x100 EXP SWAP1 DIV PUSH20 0xFFFFFFFFFFFFFFFFFFFFFFFFFFFFFFFFFFFFFFFF AND PUSH20 0xFFFFFFFFFFFFFFFFFFFFFFFFFFFFFFFFFFFFFFFF AND PUSH20 0xFFFFFFFFFFFFFFFFFFFFFFFFFFFFFFFFFFFFFFFF AND DUP2 MSTORE POP PUSH1 0x2 SWAP1 PUSH1 0x1 PUSH2 0xAB9 SWAP3 SWAP2 SWAP1 PUSH2 0xF0C JUMP JUMPDEST POP JUMPDEST POP POP JUMPDEST POP JUMP JUMPDEST PUSH0 PUSH1 0x1 PUSH0 SWAP1 SLOAD SWAP1 PUSH2 0x100 EXP SWAP1 DIV PUSH20 0xFFFFFFFFFFFFFFFFFFFFFFFFFFFFFFFFFFFFFFFF AND SWAP1 POP SWAP1 JUMP JUMPDEST PUSH2 0xAF1 PUSH2 0xEC9 JUMP JUMPDEST PUSH1 0x3 PUSH0 DUP4 DUP2 MSTORE PUSH1 0x20 ADD SWAP1 DUP2 MSTORE PUSH1 0x20 ADD PUSH0 KECCAK256 PUSH1 0x40 MLOAD DUP1 PUSH2 0x100 ADD PUSH1 0x40 MSTORE SWAP1 DUP2 PUSH0 DUP3 ADD DUP1 SLOAD PUSH2 0xB1D SWAP1 PUSH2 0x155F JUMP JUMPDEST DUP1 PUSH1 0x1F ADD PUSH1 0x20 DUP1 SWAP2 DIV MUL PUSH1 0x20 ADD PUSH1 0x40 MLOAD SWAP1 DUP2 ADD PUSH1 0x40 MSTORE DUP1 SWAP3 SWAP2 SWAP1 DUP2 DUP2 MSTORE PUSH1 0x20 ADD DUP3 DUP1 SLOAD PUSH2 0xB49 SWAP1 PUSH2 0x155F JUMP JUMPDEST DUP1 ISZERO PUSH2 0xB94 JUMPI DUP1 PUSH1 0x1F LT PUSH2 0xB6B JUMPI PUSH2 0x100 DUP1 DUP4 SLOAD DIV MUL DUP4 MSTORE SWAP2 PUSH1 0x20 ADD SWAP2 PUSH2 0xB94 JUMP JUMPDEST DUP3 ADD SWAP2 SWAP1 PUSH0 MSTORE PUSH1 0x20 PUSH0 KECCAK256 SWAP1 JUMPDEST DUP2 SLOAD DUP2 MSTORE SWAP1 PUSH1 0x1 ADD SWAP1 PUSH1 0x20 ADD DUP1 DUP4 GT PUSH2 0xB77 JUMPI DUP3 SWAP1 SUB PUSH1 0x1F AND DUP3 ADD SWAP2 JUMPDEST POP POP POP POP POP DUP2 MSTORE PUSH1 0x20 ADD PUSH1 0x1 DUP3 ADD DUP1 SLOAD PUSH2 0xBAD SWAP1 PUSH2 0x155F JUMP JUMPDEST DUP1 PUSH1 0x1F ADD PUSH1 0x20 DUP1 SWAP2 DIV MUL PUSH1 0x20 ADD PUSH1 0x40 MLOAD SWAP1 DUP2 ADD PUSH1 0x40 MSTORE DUP1 SWAP3 SWAP2 SWAP1 DUP2 DUP2 MSTORE PUSH1 0x20 ADD DUP3 DUP1 SLOAD PUSH2 0xBD9 SWAP1 PUSH2 0x155F JUMP JUMPDEST DUP1 ISZERO PUSH2 0xC24 JUMPI DUP1 PUSH1 0x1F LT PUSH2 0xBFB JUMPI PUSH2 0x100 DUP1 DUP4 SLOAD DIV MUL DUP4 MSTORE SWAP2 PUSH1 0x20 ADD SWAP2 PUSH2 0xC24 JUMP JUMPDEST DUP3 ADD SWAP2 SWAP1 PUSH0 MSTORE PUSH1 0x20 PUSH0 KECCAK256 SWAP1 JUMPDEST DUP2 SLOAD DUP2 MSTORE SWAP1 PUSH1 0x1 ADD SWAP1 PUSH1 0x20 ADD DUP1 DUP4 GT PUSH2 0xC07 JUMPI DUP3 SWAP1 SUB PUSH1 0x1F AND DUP3 ADD SWAP2 JUMPDEST POP POP POP POP POP DUP2 MSTORE PUSH1 0x20 ADD PUSH1 0x2 DUP3 ADD SLOAD DUP2 MSTORE PUSH1 0x20 ADD PUSH1 0x3 DUP3 ADD SLOAD DUP2 MSTORE PUSH1 0x20 ADD PUSH1 0x4 DUP3 ADD SLOAD DUP2 MSTORE PUSH1 0x20 ADD PUSH1 0x5 DUP3 ADD SLOAD DUP2 MSTORE PUSH1 0x20 ADD PUSH1 0x6 DUP3 ADD PUSH0 SWAP1 SLOAD SWAP1 PUSH2 0x100 EXP SWAP1 DIV PUSH1 0xFF AND ISZERO ISZERO ISZERO ISZERO DUP2 MSTORE PUSH1 0x20 ADD PUSH1 0x6 DUP3 ADD PUSH1 0x1 SWAP1 SLOAD SWAP1 PUSH2 0x100 EXP SWAP1 DIV PUSH1 0xFF AND ISZERO ISZERO ISZERO ISZERO DUP2 MSTORE POP POP SWAP1 POP SWAP2 SWAP1 POP JUMP JUMPDEST PUSH0 DUP1 PUSH0 SWAP1 POP JUMPDEST PUSH1 0x2 DUP1 SLOAD SWAP1 POP DUP2 LT ISZERO PUSH2 0xD29 JUMPI DUP3 PUSH20 0xFFFFFFFFFFFFFFFFFFFFFFFFFFFFFFFFFFFFFFFF AND PUSH1 0x2 DUP3 DUP2 SLOAD DUP2 LT PUSH2 0xCCF JUMPI PUSH2 0xCCE PUSH2 0x198B JUMP JUMPDEST JUMPDEST SWAP1 PUSH0 MSTORE PUSH1 0x20 PUSH0 KECCAK256 ADD PUSH0 SWAP1 SLOAD SWAP1 PUSH2 0x100 EXP SWAP1 DIV PUSH20 0xFFFFFFFFFFFFFFFFFFFFFFFFFFFFFFFFFFFFFFFF AND PUSH20 0xFFFFFFFFFFFFFFFFFFFFFFFFFFFFFFFFFFFFFFFF AND SUB PUSH2 0xD1C JUMPI PUSH1 0x1 SWAP2 POP POP PUSH2 0xD2E JUMP JUMPDEST DUP1 DUP1 PUSH1 0x1 ADD SWAP2 POP POP PUSH2 0xC97 JUMP JUMPDEST POP PUSH0 SWAP1 POP JUMPDEST SWAP2 SWAP1 POP JUMP JUMPDEST PUSH1 0x1 PUSH0 SWAP1 SLOAD SWAP1 PUSH2 0x100 EXP SWAP1 DIV PUSH20 0xFFFFFFFFFFFFFFFFFFFFFFFFFFFFFFFFFFFFFFFF AND PUSH20 0xFFFFFFFFFFFFFFFFFFFFFFFFFFFFFFFFFFFFFFFF AND CALLER PUSH20 0xFFFFFFFFFFFFFFFFFFFFFFFFFFFFFFFFFFFFFFFF AND EQ PUSH2 0xDC2 JUMPI PUSH1 0x40 MLOAD PUSH32 0x8C379A000000000000000000000000000000000000000000000000000000000 DUP2 MSTORE PUSH1 0x4 ADD PUSH2 0xDB9 SWAP1 PUSH2 0x1514 JUMP JUMPDEST PUSH1 0x40 MLOAD DUP1 SWAP2 SUB SWAP1 REVERT JUMPDEST PUSH1 0x1 ISZERO ISZERO PUSH1 0x3 PUSH0 PUSH2 0xDD2 PUSH0 PUSH2 0xE7C JUMP JUMPDEST DUP2 MSTORE PUSH1 0x20 ADD SWAP1 DUP2 MSTORE PUSH1 0x20 ADD PUSH0 KECCAK256 PUSH1 0x6 ADD PUSH1 0x1 SWAP1 SLOAD SWAP1 PUSH2 0x100 EXP SWAP1 DIV PUSH1 0xFF AND ISZERO ISZERO EQ PUSH2 0xE32 JUMPI PUSH1 0x40 MLOAD PUSH32 0x8C379A000000000000000000000000000000000000000000000000000000000 DUP2 MSTORE PUSH1 0x4 ADD PUSH2 0xE29 SWAP1 PUSH2 0x1872 JUMP JUMPDEST PUSH1 0x40 MLOAD DUP1 SWAP2 SUB SWAP1 REVERT JUMPDEST PUSH0 PUSH1 0x3 PUSH0 PUSH2 0xE3F PUSH0 PUSH2 0xE7C JUMP JUMPDEST DUP2 MSTORE PUSH1 0x20 ADD SWAP1 DUP2 MSTORE PUSH1 0x20 ADD PUSH0 KECCAK256 PUSH1 0x6 ADD PUSH1 0x1 PUSH2 0x100 EXP DUP2 SLOAD DUP2 PUSH1 0xFF MUL NOT AND SWAP1 DUP4 ISZERO ISZERO MUL OR SWAP1 SSTORE POP JUMP JUMPDEST PUSH1 0x1 DUP2 PUSH0 ADD PUSH0 DUP3 DUP3 SLOAD ADD SWAP3 POP POP DUP2 SWAP1 SSTORE POP POP JUMP JUMPDEST PUSH0 DUP2 PUSH0 ADD SLOAD SWAP1 POP SWAP2 SWAP1 POP JUMP JUMPDEST PUSH0 PUSH1 0x3 PUSH0 PUSH2 0xE95 PUSH0 PUSH2 0xE7C JUMP JUMPDEST DUP2 MSTORE PUSH1 0x20 ADD SWAP1 DUP2 MSTORE PUSH1 0x20 ADD PUSH0 KECCAK256 PUSH1 0x3 ADD SLOAD PUSH1 0x3 PUSH0 PUSH2 0xEB2 PUSH0 PUSH2 0xE7C JUMP JUMPDEST DUP2 MSTORE PUSH1 0x20 ADD SWAP1 DUP2 MSTORE PUSH1 0x20 ADD PUSH0 KECCAK256 PUSH1 0x2 ADD SLOAD GT SWAP1 POP SWAP1 JUMP JUMPDEST PUSH1 0x40 MLOAD DUP1 PUSH2 0x100 ADD PUSH1 0x40 MSTORE DUP1 PUSH1 0x60 DUP2 MSTORE PUSH1 0x20 ADD PUSH1 0x60 DUP2 MSTORE PUSH1 0x20 ADD PUSH0 DUP2 MSTORE PUSH1 0x20 ADD PUSH0 DUP2 MSTORE PUSH1 0x20 ADD PUSH0 DUP2 MSTORE PUSH1 0x20 ADD PUSH0 DUP2 MSTORE PUSH1 0x20 ADD PUSH0 ISZERO ISZERO DUP2 MSTORE PUSH1 0x20 ADD PUSH0 ISZERO ISZERO DUP2 MSTORE POP SWAP1 JUMP JUMPDEST DUP3 DUP1 SLOAD DUP3 DUP3 SSTORE SWAP1 PUSH0 MSTORE PUSH1 0x20 PUSH0 KECCAK256 SWAP1 DUP2 ADD SWAP3 DUP3 ISZERO PUSH2 0xF82 JUMPI SWAP2 PUSH1 0x20 MUL DUP3 ADD JUMPDEST DUP3 DUP2 GT ISZERO PUSH2 0xF81 JUMPI DUP3 MLOAD DUP3 PUSH0 PUSH2 0x100 EXP DUP2 SLOAD DUP2 PUSH20 0xFFFFFFFFFFFFFFFFFFFFFFFFFFFFFFFFFFFFFFFF MUL NOT AND SWAP1 DUP4 PUSH20 0xFFFFFFFFFFFFFFFFFFFFFFFFFFFFFFFFFFFFFFFF AND MUL OR SWAP1 SSTORE POP SWAP2 PUSH1 0x20 ADD SWAP2 SWAP1 PUSH1 0x1 ADD SWAP1 PUSH2 0xF2A JUMP JUMPDEST JUMPDEST POP SWAP1 POP PUSH2 0xF8F SWAP2 SWAP1 PUSH2 0xF93 JUMP JUMPDEST POP SWAP1 JUMP JUMPDEST JUMPDEST DUP1 DUP3 GT ISZERO PUSH2 0xFAA JUMPI PUSH0 DUP2 PUSH0 SWAP1 SSTORE POP PUSH1 0x1 ADD PUSH2 0xF94 JUMP JUMPDEST POP SWAP1 JUMP JUMPDEST PUSH0 DUP1 REVERT JUMPDEST PUSH0 DUP1 REVERT JUMPDEST PUSH0 PUSH20 0xFFFFFFFFFFFFFFFFFFFFFFFFFFFFFFFFFFFFFFFF DUP3 AND SWAP1 POP SWAP2 SWAP1 POP JUMP JUMPDEST PUSH0 PUSH2 0xFDF DUP3 PUSH2 0xFB6 JUMP JUMPDEST SWAP1 POP SWAP2 SWAP1 POP JUMP JUMPDEST PUSH2 0xFEF DUP2 PUSH2 0xFD5 JUMP JUMPDEST DUP2 EQ PUSH2 0xFF9 JUMPI PUSH0 DUP1 REVERT JUMPDEST POP JUMP JUMPDEST PUSH0 DUP2 CALLDATALOAD SWAP1 POP PUSH2 0x100A DUP2 PUSH2 0xFE6 JUMP JUMPDEST SWAP3 SWAP2 POP POP JUMP JUMPDEST PUSH0 PUSH1 0x20 DUP3 DUP5 SUB SLT ISZERO PUSH2 0x1025 JUMPI PUSH2 0x1024 PUSH2 0xFAE JUMP JUMPDEST JUMPDEST PUSH0 PUSH2 0x1032 DUP5 DUP3 DUP6 ADD PUSH2 0xFFC JUMP JUMPDEST SWAP2 POP POP SWAP3 SWAP2 POP POP JUMP JUMPDEST PUSH0 DUP2 SWAP1 POP SWAP2 SWAP1 POP JUMP JUMPDEST PUSH2 0x104D DUP2 PUSH2 0x103B JUMP JUMPDEST DUP2 EQ PUSH2 0x1057 JUMPI PUSH0 DUP1 REVERT JUMPDEST POP JUMP JUMPDEST PUSH0 DUP2 CALLDATALOAD SWAP1 POP PUSH2 0x1068 DUP2 PUSH2 0x1044 JUMP JUMPDEST SWAP3 SWAP2 POP POP JUMP JUMPDEST PUSH0 PUSH1 0x20 DUP3 DUP5 SUB SLT ISZERO PUSH2 0x1083 JUMPI PUSH2 0x1082 PUSH2 0xFAE JUMP JUMPDEST JUMPDEST PUSH0 PUSH2 0x1090 DUP5 DUP3 DUP6 ADD PUSH2 0x105A JUMP JUMPDEST SWAP2 POP POP SWAP3 SWAP2 POP POP JUMP JUMPDEST PUSH0 DUP2 MLOAD SWAP1 POP SWAP2 SWAP1 POP JUMP JUMPDEST PUSH0 DUP3 DUP3 MSTORE PUSH1 0x20 DUP3 ADD SWAP1 POP SWAP3 SWAP2 POP POP JUMP JUMPDEST PUSH0 JUMPDEST DUP4 DUP2 LT ISZERO PUSH2 0x10D0 JUMPI DUP1 DUP3 ADD MLOAD DUP2 DUP5 ADD MSTORE PUSH1 0x20 DUP2 ADD SWAP1 POP PUSH2 0x10B5 JUMP JUMPDEST PUSH0 DUP5 DUP5 ADD MSTORE POP POP POP POP JUMP JUMPDEST PUSH0 PUSH1 0x1F NOT PUSH1 0x1F DUP4 ADD AND SWAP1 POP SWAP2 SWAP1 POP JUMP JUMPDEST PUSH0 PUSH2 0x10F5 DUP3 PUSH2 0x1099 JUMP JUMPDEST PUSH2 0x10FF DUP2 DUP6 PUSH2 0x10A3 JUMP JUMPDEST SWAP4 POP PUSH2 0x110F DUP2 DUP6 PUSH1 0x20 DUP7 ADD PUSH2 0x10B3 JUMP JUMPDEST PUSH2 0x1118 DUP2 PUSH2 0x10DB JUMP JUMPDEST DUP5 ADD SWAP2 POP POP SWAP3 SWAP2 POP POP JUMP JUMPDEST PUSH2 0x112C DUP2 PUSH2 0x103B JUMP JUMPDEST DUP3 MSTORE POP POP JUMP JUMPDEST PUSH0 DUP2 ISZERO ISZERO SWAP1 POP SWAP2 SWAP1 POP JUMP JUMPDEST PUSH2 0x1146 DUP2 PUSH2 0x1132 JUMP JUMPDEST DUP3 MSTORE POP POP JUMP JUMPDEST PUSH0 PUSH2 0x100 DUP3 ADD SWAP1 POP DUP2 DUP2 SUB PUSH0 DUP4 ADD MSTORE PUSH2 0x1165 DUP2 DUP12 PUSH2 0x10EB JUMP JUMPDEST SWAP1 POP DUP2 DUP2 SUB PUSH1 0x20 DUP4 ADD MSTORE PUSH2 0x1179 DUP2 DUP11 PUSH2 0x10EB JUMP JUMPDEST SWAP1 POP PUSH2 0x1188 PUSH1 0x40 DUP4 ADD DUP10 PUSH2 0x1123 JUMP JUMPDEST PUSH2 0x1195 PUSH1 0x60 DUP4 ADD DUP9 PUSH2 0x1123 JUMP JUMPDEST PUSH2 0x11A2 PUSH1 0x80 DUP4 ADD DUP8 PUSH2 0x1123 JUMP JUMPDEST PUSH2 0x11AF PUSH1 0xA0 DUP4 ADD DUP7 PUSH2 0x1123 JUMP JUMPDEST PUSH2 0x11BC PUSH1 0xC0 DUP4 ADD DUP6 PUSH2 0x113D JUMP JUMPDEST PUSH2 0x11C9 PUSH1 0xE0 DUP4 ADD DUP5 PUSH2 0x113D JUMP JUMPDEST SWAP10 SWAP9 POP POP POP POP POP POP POP POP POP JUMP JUMPDEST PUSH0 DUP1 REVERT JUMPDEST PUSH0 DUP1 REVERT JUMPDEST PUSH0 DUP1 REVERT JUMPDEST PUSH0 DUP1 DUP4 PUSH1 0x1F DUP5 ADD SLT PUSH2 0x11F7 JUMPI PUSH2 0x11F6 PUSH2 0x11D6 JUMP JUMPDEST JUMPDEST DUP3 CALLDATALOAD SWAP1 POP PUSH8 0xFFFFFFFFFFFFFFFF DUP2 GT ISZERO PUSH2 0x1214 JUMPI PUSH2 0x1213 PUSH2 0x11DA JUMP JUMPDEST JUMPDEST PUSH1 0x20 DUP4 ADD SWAP2 POP DUP4 PUSH1 0x1 DUP3 MUL DUP4 ADD GT ISZERO PUSH2 0x1230 JUMPI PUSH2 0x122F PUSH2 0x11DE JUMP JUMPDEST JUMPDEST SWAP3 POP SWAP3 SWAP1 POP JUMP JUMPDEST PUSH0 DUP1 PUSH0 DUP1 PUSH0 PUSH1 0x60 DUP7 DUP9 SUB SLT ISZERO PUSH2 0x1250 JUMPI PUSH2 0x124F PUSH2 0xFAE JUMP JUMPDEST JUMPDEST PUSH0 DUP7 ADD CALLDATALOAD PUSH8 0xFFFFFFFFFFFFFFFF DUP2 GT ISZERO PUSH2 0x126D JUMPI PUSH2 0x126C PUSH2 0xFB2 JUMP JUMPDEST JUMPDEST PUSH2 0x1279 DUP9 DUP3 DUP10 ADD PUSH2 0x11E2 JUMP JUMPDEST SWAP6 POP SWAP6 POP POP PUSH1 0x20 DUP7 ADD CALLDATALOAD PUSH8 0xFFFFFFFFFFFFFFFF DUP2 GT ISZERO PUSH2 0x129C JUMPI PUSH2 0x129B PUSH2 0xFB2 JUMP JUMPDEST JUMPDEST PUSH2 0x12A8 DUP9 DUP3 DUP10 ADD PUSH2 0x11E2 JUMP JUMPDEST SWAP4 POP SWAP4 POP POP PUSH1 0x40 PUSH2 0x12BB DUP9 DUP3 DUP10 ADD PUSH2 0x105A JUMP JUMPDEST SWAP2 POP POP SWAP3 SWAP6 POP SWAP3 SWAP6 SWAP1 SWAP4 POP JUMP JUMPDEST PUSH0 DUP3 DUP3 MSTORE PUSH1 0x20 DUP3 ADD SWAP1 POP SWAP3 SWAP2 POP POP JUMP JUMPDEST PUSH0 PUSH2 0x12E2 DUP3 PUSH2 0x1099 JUMP JUMPDEST PUSH2 0x12EC DUP2 DUP6 PUSH2 0x12C8 JUMP JUMPDEST SWAP4 POP PUSH2 0x12FC DUP2 DUP6 PUSH1 0x20 DUP7 ADD PUSH2 0x10B3 JUMP JUMPDEST PUSH2 0x1305 DUP2 PUSH2 0x10DB JUMP JUMPDEST DUP5 ADD SWAP2 POP POP SWAP3 SWAP2 POP POP JUMP JUMPDEST PUSH2 0x1319 DUP2 PUSH2 0x103B JUMP JUMPDEST DUP3 MSTORE POP POP JUMP JUMPDEST PUSH2 0x1328 DUP2 PUSH2 0x1132 JUMP JUMPDEST DUP3 MSTORE POP POP JUMP JUMPDEST PUSH0 PUSH2 0x100 DUP4 ADD PUSH0 DUP4 ADD MLOAD DUP5 DUP3 SUB PUSH0 DUP7 ADD MSTORE PUSH2 0x1349 DUP3 DUP3 PUSH2 0x12D8 JUMP JUMPDEST SWAP2 POP POP PUSH1 0x20 DUP4 ADD MLOAD DUP5 DUP3 SUB PUSH1 0x20 DUP7 ADD MSTORE PUSH2 0x1363 DUP3 DUP3 PUSH2 0x12D8 JUMP JUMPDEST SWAP2 POP POP PUSH1 0x40 DUP4 ADD MLOAD PUSH2 0x1378 PUSH1 0x40 DUP7 ADD DUP3 PUSH2 0x1310 JUMP JUMPDEST POP PUSH1 0x60 DUP4 ADD MLOAD PUSH2 0x138B PUSH1 0x60 DUP7 ADD DUP3 PUSH2 0x1310 JUMP JUMPDEST POP PUSH1 0x80 DUP4 ADD MLOAD PUSH2 0x139E PUSH1 0x80 DUP7 ADD DUP3 PUSH2 0x1310 JUMP JUMPDEST POP PUSH1 0xA0 DUP4 ADD MLOAD PUSH2 0x13B1 PUSH1 0xA0 DUP7 ADD DUP3 PUSH2 0x1310 JUMP JUMPDEST POP PUSH1 0xC0 DUP4 ADD MLOAD PUSH2 0x13C4 PUSH1 0xC0 DUP7 ADD DUP3 PUSH2 0x131F JUMP JUMPDEST POP PUSH1 0xE0 DUP4 ADD MLOAD PUSH2 0x13D7 PUSH1 0xE0 DUP7 ADD DUP3 PUSH2 0x131F JUMP JUMPDEST POP DUP1 SWAP2 POP POP SWAP3 SWAP2 POP POP JUMP JUMPDEST PUSH0 PUSH1 0x20 DUP3 ADD SWAP1 POP DUP2 DUP2 SUB PUSH0 DUP4 ADD MSTORE PUSH2 0x13FA DUP2 DUP5 PUSH2 0x132E JUMP JUMPDEST SWAP1 POP SWAP3 SWAP2 POP POP JUMP JUMPDEST PUSH0 PUSH1 0xFF DUP3 AND SWAP1 POP SWAP2 SWAP1 POP JUMP JUMPDEST PUSH2 0x1417 DUP2 PUSH2 0x1402 JUMP JUMPDEST DUP2 EQ PUSH2 0x1421 JUMPI PUSH0 DUP1 REVERT JUMPDEST POP JUMP JUMPDEST PUSH0 DUP2 CALLDATALOAD SWAP1 POP PUSH2 0x1432 DUP2 PUSH2 0x140E JUMP JUMPDEST SWAP3 SWAP2 POP POP JUMP JUMPDEST PUSH0 PUSH1 0x20 DUP3 DUP5 SUB SLT ISZERO PUSH2 0x144D JUMPI PUSH2 0x144C PUSH2 0xFAE JUMP JUMPDEST JUMPDEST PUSH0 PUSH2 0x145A DUP5 DUP3 DUP6 ADD PUSH2 0x1424 JUMP JUMPDEST SWAP2 POP POP SWAP3 SWAP2 POP POP JUMP JUMPDEST PUSH2 0x146C DUP2 PUSH2 0xFD5 JUMP JUMPDEST DUP3 MSTORE POP POP JUMP JUMPDEST PUSH0 PUSH1 0x20 DUP3 ADD SWAP1 POP PUSH2 0x1485 PUSH0 DUP4 ADD DUP5 PUSH2 0x1463 JUMP JUMPDEST SWAP3 SWAP2 POP POP JUMP JUMPDEST PUSH0 PUSH1 0x20 DUP3 ADD SWAP1 POP PUSH2 0x149E PUSH0 DUP4 ADD DUP5 PUSH2 0x113D JUMP JUMPDEST SWAP3 SWAP2 POP POP JUMP JUMPDEST PUSH32 0x4F6E6C7920746865206F776E65722063616E2063616C6C20746869732066756E PUSH0 DUP3 ADD MSTORE PUSH32 0x6374696F6E000000000000000000000000000000000000000000000000000000 PUSH1 0x20 DUP3 ADD MSTORE POP JUMP JUMPDEST PUSH0 PUSH2 0x14FE PUSH1 0x25 DUP4 PUSH2 0x10A3 JUMP JUMPDEST SWAP2 POP PUSH2 0x1509 DUP3 PUSH2 0x14A4 JUMP JUMPDEST PUSH1 0x40 DUP3 ADD SWAP1 POP SWAP2 SWAP1 POP JUMP JUMPDEST PUSH0 PUSH1 0x20 DUP3 ADD SWAP1 POP DUP2 DUP2 SUB PUSH0 DUP4 ADD MSTORE PUSH2 0x152B DUP2 PUSH2 0x14F2 JUMP JUMPDEST SWAP1 POP SWAP2 SWAP1 POP JUMP JUMPDEST PUSH32 0x4E487B7100000000000000000000000000000000000000000000000000000000 PUSH0 MSTORE PUSH1 0x22 PUSH1 0x4 MSTORE PUSH1 0x24 PUSH0 REVERT JUMPDEST PUSH0 PUSH1 0x2 DUP3 DIV SWAP1 POP PUSH1 0x1 DUP3 AND DUP1 PUSH2 0x1576 JUMPI PUSH1 0x7F DUP3 AND SWAP2 POP JUMPDEST PUSH1 0x20 DUP3 LT DUP2 SUB PUSH2 0x1589 JUMPI PUSH2 0x1588 PUSH2 0x1532 JUMP JUMPDEST JUMPDEST POP SWAP2 SWAP1 POP JUMP JUMPDEST PUSH32 0x4E487B7100000000000000000000000000000000000000000000000000000000 PUSH0 MSTORE PUSH1 0x41 PUSH1 0x4 MSTORE PUSH1 0x24 PUSH0 REVERT JUMPDEST PUSH0 DUP2 SWAP1 POP DUP2 PUSH0 MSTORE PUSH1 0x20 PUSH0 KECCAK256 SWAP1 POP SWAP2 SWAP1 POP JUMP JUMPDEST PUSH0 PUSH1 0x20 PUSH1 0x1F DUP4 ADD DIV SWAP1 POP SWAP2 SWAP1 POP JUMP JUMPDEST PUSH0 DUP3 DUP3 SHL SWAP1 POP SWAP3 SWAP2 POP POP JUMP JUMPDEST PUSH0 PUSH1 0x8 DUP4 MUL PUSH2 0x1618 PUSH32 0xFFFFFFFFFFFFFFFFFFFFFFFFFFFFFFFFFFFFFFFFFFFFFFFFFFFFFFFFFFFFFFFF DUP3 PUSH2 0x15DD JUMP JUMPDEST PUSH2 0x1622 DUP7 DUP4 PUSH2 0x15DD JUMP JUMPDEST SWAP6 POP DUP1 NOT DUP5 AND SWAP4 POP DUP1 DUP7 AND DUP5 OR SWAP3 POP POP POP SWAP4 SWAP3 POP POP POP JUMP JUMPDEST PUSH0 DUP2 SWAP1 POP SWAP2 SWAP1 POP JUMP JUMPDEST PUSH0 PUSH2 0x165D PUSH2 0x1658 PUSH2 0x1653 DUP5 PUSH2 0x103B JUMP JUMPDEST PUSH2 0x163A JUMP JUMPDEST PUSH2 0x103B JUMP JUMPDEST SWAP1 POP SWAP2 SWAP1 POP JUMP JUMPDEST PUSH0 DUP2 SWAP1 POP SWAP2 SWAP1 POP JUMP JUMPDEST PUSH2 0x1676 DUP4 PUSH2 0x1643 JUMP JUMPDEST PUSH2 0x168A PUSH2 0x1682 DUP3 PUSH2 0x1664 JUMP JUMPDEST DUP5 DUP5 SLOAD PUSH2 0x15E9 JUMP JUMPDEST DUP3 SSTORE POP POP POP POP JUMP JUMPDEST PUSH0 SWAP1 JUMP JUMPDEST PUSH2 0x169E PUSH2 0x1692 JUMP JUMPDEST PUSH2 0x16A9 DUP2 DUP5 DUP5 PUSH2 0x166D JUMP JUMPDEST POP POP POP JUMP JUMPDEST JUMPDEST DUP2 DUP2 LT ISZERO PUSH2 0x16CC JUMPI PUSH2 0x16C1 PUSH0 DUP3 PUSH2 0x1696 JUMP JUMPDEST PUSH1 0x1 DUP2 ADD SWAP1 POP PUSH2 0x16AF JUMP JUMPDEST POP POP JUMP JUMPDEST PUSH1 0x1F DUP3 GT ISZERO PUSH2 0x1711 JUMPI PUSH2 0x16E2 DUP2 PUSH2 0x15BC JUMP JUMPDEST PUSH2 0x16EB DUP5 PUSH2 0x15CE JUMP JUMPDEST DUP2 ADD PUSH1 0x20 DUP6 LT ISZERO PUSH2 0x16FA JUMPI DUP2 SWAP1 POP JUMPDEST PUSH2 0x170E PUSH2 0x1706 DUP6 PUSH2 0x15CE JUMP JUMPDEST DUP4 ADD DUP3 PUSH2 0x16AE JUMP JUMPDEST POP POP JUMPDEST POP POP POP JUMP JUMPDEST PUSH0 DUP3 DUP3 SHR SWAP1 POP SWAP3 SWAP2 POP POP JUMP JUMPDEST PUSH0 PUSH2 0x1731 PUSH0 NOT DUP5 PUSH1 0x8 MUL PUSH2 0x1716 JUMP JUMPDEST NOT DUP1 DUP4 AND SWAP2 POP POP SWAP3 SWAP2 POP POP JUMP JUMPDEST PUSH0 PUSH2 0x1749 DUP4 DUP4 PUSH2 0x1722 JUMP JUMPDEST SWAP2 POP DUP3 PUSH1 0x2 MUL DUP3 OR SWAP1 POP SWAP3 SWAP2 POP POP JUMP JUMPDEST PUSH2 0x1762 DUP3 PUSH2 0x1099 JUMP JUMPDEST PUSH8 0xFFFFFFFFFFFFFFFF DUP2 GT ISZERO PUSH2 0x177B JUMPI PUSH2 0x177A PUSH2 0x158F JUMP JUMPDEST JUMPDEST PUSH2 0x1785 DUP3 SLOAD PUSH2 0x155F JUMP JUMPDEST PUSH2 0x1790 DUP3 DUP3 DUP6 PUSH2 0x16D0 JUMP JUMPDEST PUSH0 PUSH1 0x20 SWAP1 POP PUSH1 0x1F DUP4 GT PUSH1 0x1 DUP2 EQ PUSH2 0x17C1 JUMPI PUSH0 DUP5 ISZERO PUSH2 0x17AF JUMPI DUP3 DUP8 ADD MLOAD SWAP1 POP JUMPDEST PUSH2 0x17B9 DUP6 DUP3 PUSH2 0x173E JUMP JUMPDEST DUP7 SSTORE POP PUSH2 0x1820 JUMP JUMPDEST PUSH1 0x1F NOT DUP5 AND PUSH2 0x17CF DUP7 PUSH2 0x15BC JUMP JUMPDEST PUSH0 JUMPDEST DUP3 DUP2 LT ISZERO PUSH2 0x17F6 JUMPI DUP5 DUP10 ADD MLOAD DUP3 SSTORE PUSH1 0x1 DUP3 ADD SWAP2 POP PUSH1 0x20 DUP6 ADD SWAP5 POP PUSH1 0x20 DUP2 ADD SWAP1 POP PUSH2 0x17D1 JUMP JUMPDEST DUP7 DUP4 LT ISZERO PUSH2 0x1813 JUMPI DUP5 DUP10 ADD MLOAD PUSH2 0x180F PUSH1 0x1F DUP10 AND DUP3 PUSH2 0x1722 JUMP JUMPDEST DUP4 SSTORE POP JUMPDEST PUSH1 0x1 PUSH1 0x2 DUP9 MUL ADD DUP9 SSTORE POP POP POP JUMPDEST POP POP POP POP POP POP JUMP JUMPDEST PUSH32 0x5468652070726F706F73616C206973206E6F7420616374697665000000000000 PUSH0 DUP3 ADD MSTORE POP JUMP JUMPDEST PUSH0 PUSH2 0x185C PUSH1 0x1A DUP4 PUSH2 0x10A3 JUMP JUMPDEST SWAP2 POP PUSH2 0x1867 DUP3 PUSH2 0x1828 JUMP JUMPDEST PUSH1 0x20 DUP3 ADD SWAP1 POP SWAP2 SWAP1 POP JUMP JUMPDEST PUSH0 PUSH1 0x20 DUP3 ADD SWAP1 POP DUP2 DUP2 SUB PUSH0 DUP4 ADD MSTORE PUSH2 0x1889 DUP2 PUSH2 0x1850 JUMP JUMPDEST SWAP1 POP SWAP2 SWAP1 POP JUMP JUMPDEST PUSH32 0x496E76616C696420766F74696E672063686F6963650000000000000000000000 PUSH0 DUP3 ADD MSTORE POP JUMP JUMPDEST PUSH0 PUSH2 0x18C4 PUSH1 0x15 DUP4 PUSH2 0x10A3 JUMP JUMPDEST SWAP2 POP PUSH2 0x18CF DUP3 PUSH2 0x1890 JUMP JUMPDEST PUSH1 0x20 DUP3 ADD SWAP1 POP SWAP2 SWAP1 POP JUMP JUMPDEST PUSH0 PUSH1 0x20 DUP3 ADD SWAP1 POP DUP2 DUP2 SUB PUSH0 DUP4 ADD MSTORE PUSH2 0x18F1 DUP2 PUSH2 0x18B8 JUMP JUMPDEST SWAP1 POP SWAP2 SWAP1 POP JUMP JUMPDEST PUSH32 0x4E487B7100000000000000000000000000000000000000000000000000000000 PUSH0 MSTORE PUSH1 0x11 PUSH1 0x4 MSTORE PUSH1 0x24 PUSH0 REVERT JUMPDEST PUSH0 PUSH2 0x192F DUP3 PUSH2 0x103B JUMP JUMPDEST SWAP2 POP PUSH2 0x193A DUP4 PUSH2 0x103B JUMP JUMPDEST SWAP3 POP DUP3 DUP3 ADD SWAP1 POP DUP1 DUP3 GT ISZERO PUSH2 0x1952 JUMPI PUSH2 0x1951 PUSH2 0x18F8 JUMP JUMPDEST JUMPDEST SWAP3 SWAP2 POP POP JUMP JUMPDEST PUSH0 PUSH2 0x1962 DUP3 PUSH2 0x103B JUMP JUMPDEST SWAP2 POP PUSH2 0x196D DUP4 PUSH2 0x103B JUMP JUMPDEST SWAP3 POP DUP3 DUP3 SUB SWAP1 POP DUP2 DUP2 GT ISZERO PUSH2 0x1985 JUMPI PUSH2 0x1984 PUSH2 0x18F8 JUMP JUMPDEST JUMPDEST SWAP3 SWAP2 POP POP JUMP JUMPDEST PUSH32 0x4E487B7100000000000000000000000000000000000000000000000000000000 PUSH0 MSTORE PUSH1 0x32 PUSH1 0x4 MSTORE PUSH1 0x24 PUSH0 REVERT INVALID LOG2 PUSH5 0x6970667358 0x22 SLT KECCAK256 0xB7 REVERT 0xBF DELEGATECALL PUSH9 0xEAE7C2F1163B9EFAD7 PUSH20 0xDF3E7A148D54C90C7F1ED4B90DAAE9A8B564736F PUSH13 0x63430008160033000000000000 "
				},
				"gasEstimates": {
					"creation": {
						"codeDepositCost": "1327600",
						"executionCost": "76357",
						"totalCost": "1403957"
					},
					"external": {
						"create(string,string,uint256)": "infinite",
						"getCurrentProposal()": "infinite",
						"getProposal(uint256)": "infinite",
						"isVoted(address)": "infinite",
						"proposalHistory(uint256)": "infinite",
						"setOwner(address)": "26885",
						"terminateProposal()": "infinite",
						"viewOwner()": "2537",
						"vote(uint8)": "infinite"
					},
					"internal": {
						"calculateCurrentState()": "infinite"
					}
				},
				"methodIdentifiers": {
					"create(string,string,uint256)": "3ca6d100",
					"getCurrentProposal()": "41ec6870",
					"getProposal(uint256)": "c7f758a8",
					"isVoted(address)": "cbff75cb",
					"proposalHistory(uint256)": "1c7e379f",
					"setOwner(address)": "13af4035",
					"terminateProposal()": "dbddc7aa",
					"viewOwner()": "bc677b46",
					"vote(uint8)": "b3f98adc"
				}
			},
			"storageLayout": {
				"storage": [
					{
						"astId": 83,
						"contract": "Contracts/prop.sol:ProposalContract",
						"label": "_counter",
						"offset": 0,
						"slot": "0",
						"type": "t_struct(Counter)5_storage"
					},
					{
						"astId": 85,
						"contract": "Contracts/prop.sol:ProposalContract",
						"label": "owner",
						"offset": 0,
						"slot": "1",
						"type": "t_address"
					},
					{
						"astId": 88,
						"contract": "Contracts/prop.sol:ProposalContract",
						"label": "voted_addresses",
						"offset": 0,
						"slot": "2",
						"type": "t_array(t_address)dyn_storage"
					},
					{
						"astId": 167,
						"contract": "Contracts/prop.sol:ProposalContract",
						"label": "proposalHistory",
						"offset": 0,
						"slot": "3",
						"type": "t_mapping(t_uint256,t_struct(Proposal)162_storage)"
					}
				],
				"types": {
					"t_address": {
						"encoding": "inplace",
						"label": "address",
						"numberOfBytes": "20"
					},
					"t_array(t_address)dyn_storage": {
						"base": "t_address",
						"encoding": "dynamic_array",
						"label": "address[]",
						"numberOfBytes": "32"
					},
					"t_bool": {
						"encoding": "inplace",
						"label": "bool",
						"numberOfBytes": "1"
					},
					"t_mapping(t_uint256,t_struct(Proposal)162_storage)": {
						"encoding": "mapping",
						"key": "t_uint256",
						"label": "mapping(uint256 => struct ProposalContract.Proposal)",
						"numberOfBytes": "32",
						"value": "t_struct(Proposal)162_storage"
					},
					"t_string_storage": {
						"encoding": "bytes",
						"label": "string",
						"numberOfBytes": "32"
					},
					"t_struct(Counter)5_storage": {
						"encoding": "inplace",
						"label": "struct Counters.Counter",
						"members": [
							{
								"astId": 4,
								"contract": "Contracts/prop.sol:ProposalContract",
								"label": "_value",
								"offset": 0,
								"slot": "0",
								"type": "t_uint256"
							}
						],
						"numberOfBytes": "32"
					},
					"t_struct(Proposal)162_storage": {
						"encoding": "inplace",
						"label": "struct ProposalContract.Proposal",
						"members": [
							{
								"astId": 147,
								"contract": "Contracts/prop.sol:ProposalContract",
								"label": "title",
								"offset": 0,
								"slot": "0",
								"type": "t_string_storage"
							},
							{
								"astId": 149,
								"contract": "Contracts/prop.sol:ProposalContract",
								"label": "description",
								"offset": 0,
								"slot": "1",
								"type": "t_string_storage"
							},
							{
								"astId": 151,
								"contract": "Contracts/prop.sol:ProposalContract",
								"label": "approve",
								"offset": 0,
								"slot": "2",
								"type": "t_uint256"
							},
							{
								"astId": 153,
								"contract": "Contracts/prop.sol:ProposalContract",
								"label": "reject",
								"offset": 0,
								"slot": "3",
								"type": "t_uint256"
							},
							{
								"astId": 155,
								"contract": "Contracts/prop.sol:ProposalContract",
								"label": "pass",
								"offset": 0,
								"slot": "4",
								"type": "t_uint256"
							},
							{
								"astId": 157,
								"contract": "Contracts/prop.sol:ProposalContract",
								"label": "totalVoteToEnd",
								"offset": 0,
								"slot": "5",
								"type": "t_uint256"
							},
							{
								"astId": 159,
								"contract": "Contracts/prop.sol:ProposalContract",
								"label": "currentState",
								"offset": 0,
								"slot": "6",
								"type": "t_bool"
							},
							{
								"astId": 161,
								"contract": "Contracts/prop.sol:ProposalContract",
								"label": "isActive",
								"offset": 1,
								"slot": "6",
								"type": "t_bool"
							}
						],
						"numberOfBytes": "224"
					},
					"t_uint256": {
						"encoding": "inplace",
						"label": "uint256",
						"numberOfBytes": "32"
					}
				}
			},
			"userdoc": {
				"kind": "user",
				"methods": {},
				"version": 1
			}
		}
	}
}